:100000000C9423150C9454150C9454150C945415FD
:100010000C9454150C9454150C9454150C945415BC
:100020000C9454150C9454150C9454150C945415AC
:100030000C9454150C9454150C9454150C9454159C
:100040000C9454150C94F2A50C9454150C9454155E
:100050000C9454150C9454150C941B8B0C9474B084
:100060000C9454150C94C23D0C9454150C945415D6
:100070000C9454150C9454150C9454150C9454155C
:100080000C9454150C9454150C9454150C9454154C
:100090000C9454150C9454150C9454150C9454153C
:1000A0000C9454150C9454150C9454150C9454152C
:1000B0000C9454150C9454150C9454150C9454151C
:1000C0000C9454150C9454150C9454150C9454150C
:1000D0000C9454150C9454150C9454150C945415FC
:1000E0000C945415FE7507761076197622763D76B7
:1000F0004A7653762B76347661AE64AE53AE57AE05
:100100005DAE9BAE68AE6CAE72AE76AE7AAE80AED1
:1001100084AE88AE9BAE8EAE92AE96AE90AF95AFEB
:100120009AAFA4AFAEAF27B0B8AFC0AFC8AFD2AF31
:10013000DCAFE6AFF5AFFFAF27B009B013B01DB02D
:10014000084AD73B3BCE016E84BCBFFDC12F3D6C3E
:1001500074319ABD56833DDA3D00C77F11BED9E4A4
:10016000BB4C3E916BAAAABE000000803F05A84C84
:10017000CDB2D44EB93836A9020C50B99186880850
:100180003CA6AAAA2ABE000000803F004E414E496C
:100190004E495459494E46CDCCCC3D0AD7233C1745
:1001A000B7D13877CC2B329595E6241FB14F0A0092
:1001B0000020410000C84200401C4620BCBE4CCA82
:1001C0001B0E5AAEC59D74434F4D4D554E4943418C
:1001D00054494F4E0044525952554E004552524FC9
:1001E000525300494E464F004543484F0020746F1C
:1001F0006F206C6F6E6720657874727573696F6EAF
:100200002070726576656E7465640A0020636F6C99
:100210006420657874727573696F6E20707265768C
:10022000656E7465640A0054454D5020544F4F204C
:100230004C4F57210047322F4733206261642070B2
:100240006172616D65746572730A00536C656570E7
:100250002E2E2E00526573756D696E67207072695F
:100260006E74004D61676E61203120726561647942
:100270002E00436C69636B20746F20726573756D1B
:10028000652E2E2E004E6F206D6F76652E00456E0A
:10029000642066696C65206C6973740A0042656746
:1002A000696E2066696C65206C6973740A00466922
:1002B0006C652064656C657465643A0044656C65C2
:1002C00074696F6E206661696C65642C2046696C88
:1002D000653A20006F70656E206661696C65642CFC
:1002E0002046696C653A2000E801E301DC01D50194
:1002F000C7016F66660044454255473A004B494C7A
:100300004C45442E20004D3131332053004265646A
:1003100020646F6E652E0020573A004265642048C5
:10032000656174696E672E004D61676E61203120D2
:100330004F66662E00454D455247454E43595F5026
:10034000415253455200434153455F4C494748543D
:100350005F4252494748544E45535300544F474714
:100360004C455F4C494748545300534F46545741FE
:1003700052455F504F574552004255494C445F50DB
:10038000455243454E54004C4556454C494E475FF7
:1003900044415441005A5F50524F42450041555428
:1003A0004F4C4556454C005052494E545F4A4F42BF
:1003B0000050524F4752455353004155544F5245F8
:1003C000504F52545F54454D5000564F4C554D457B
:1003D0005452494300454550524F4D0053455249F0
:1003E000414C5F584F4E5F584F4646004649524D6C
:1003F000574152455F4E414D453A4D61726C696EB1
:1004000020312E312E382E332028476974687562CA
:100410002920534F555243455F434F44455F555242
:100420004C3A68747470733A2F2F676974687562F8
:100430002E636F6D2F4D61726C696E4669726D77B8
:100440006172652F4D61726C696E2050524F544F2E
:10045000434F4C5F56455253494F4E3A312E302050
:100460004D414348494E455F545950453A4D6167A7
:100470006E6120312045585452554445525F434FD8
:10048000554E543A3120555549443A6365646532B6
:100490006132662D343161322D343734382D396272
:1004A00031322D6335356336326633363766660A48
:1004B000002F2F20007A5F6D696E3A2000795F6D02
:1004C000696E3A2000785F6D696E3A20005265705F
:1004D0006F7274696E6720656E6473746F702073D9
:1004E00074617475730A004D31343520533C696E64
:1004F0006465783E206F7574206F662072616E6748
:10050000652028302D31290A0053657474696E679F
:100510002054726176656C20416363656C6572611D
:1005200074696F6E3A200053657474696E67205267
:1005300065747261637420416363656C6572617494
:10054000696F6E3A200053657474696E672050724B
:10055000696E7420416363656C65726174696F6E66
:100560003A200053657474696E67205072696E7426
:1005700020616E642054726176656C20416363650E
:100580006C65726174696F6E3A2000205A002059C0
:1005900000580020204D61783A2000205A00205950
:1005A00000580020204D696E3A20004F6E20004F09
:1005B000666600536F667420656E6473746F707343
:1005C0003A2000000125272318FF1F211D1CFF19B9
:1005D000171B1EFFFF0C0409FFFFFF2E2C0CFFFF53
:1005E00004400AFF41FFFFFFFFFFFF20643A0020A5
:1005F000693A0020703A0020643A0020693A0020ED
:10060000703A0043290A0061626C656420286D69B4
:100610006E2074656D702000436F6C642065787483
:1006200072756465732061726520004B642000233D
:10063000646566696E65202044454641554C545FAB
:10064000004B69200023646566696E65202044457F
:100650004641554C545F004B702000236465666929
:100660006E65202044454641554C545F0050494436
:10067000204175746F74756E652066696E69736864
:100680006564212050757420746865206C617374F2
:10069000204B702C204B6920616E64204B642063DA
:1006A0006F6E7374616E74732066726F6D20626515
:1006B0006C6F7720696E746F20436F6E6669677523
:1006C000726174696F6E2E680A005049442041754A
:1006D000746F74756E65206661696C656421207441
:1006E000696D656F75740A00544845524D414C2040
:1006F00052554E4157415900546865726D616C20E6
:1007000052756E617761790048656174696E672022
:100710006661696C65640048656174696E6720662E
:1007200061696C656400504944204175746F74754B
:100730006E65206661696C6564212054656D706525
:1007400072617475726520746F6F20686967680ADA
:1007500000204B643A2000204B693A2000204B7067
:100760003A20000A20436C61737369632050494446
:10077000200A002054753A2000204B753A200020B2
:100780006D61783A2000206D696E3A200020643A4D
:10079000200020626961733A200043617365206C18
:1007A000696768743A2000290A0046697865642000
:1007B000706172616D657465722062797465733BF6
:1007C00020637263200046697865642070617261FD
:1007D0006D6574657220280048565F7365745F6F9D
:1007E0006B0A00416374697665204578747275649C
:1007F00065723A2000556E6B6E6F776E20636F6D79
:100800006D616E643A2022004C696E65204E756DF4
:10081000626572206973206E6F74204C617374205E
:100820004C696E65204E756D6265722B312C204CC3
:10083000617374204C696E653A20004B494C4C45FD
:10084000442E200053544F505045442E20005072E7
:10085000696E7465722073746F707065642064755E
:100860006520746F206572726F72732E20466978EE
:1008700020746865206572726F7220616E642075E5
:100880007365204D39393920746F20726573746136
:1008900072742E202854656D70657261747572656E
:1008A0002069732072657365742E20536574206906
:1008B0007420616674657220726573746172746904
:1008C0006E67290A004E6F20436865636B73756D10
:1008D0002077697468206C696E65206E756D62653D
:1008E000722C204C617374204C696E653A20006351
:1008F0006865636B73756D206D69736D6174636892
:100900002C204C617374204C696E653A20004D3187
:100910003130004D33310047312046313030302006
:10092000583020593231300047323820585900535E
:10093000442072656164206572726F720A00446FB0
:100940006E65207072696E74696E672066696C6589
:100950000A0020496E76616C69642065787472754E
:1009600064657220004D31323500200D466978658E
:100970006420706172616D65746572206E62797455
:1009800065733B20637263206572726F7220002072
:100990000D0A466978656420706172616D657465E1
:1009A000722062797465733B206372632065727292
:1009B0006F722000290A002062797465733B2063FE
:1009C00072632000466978656420706172616D65AC
:1009D00074657220280020686172647761726520F6
:1009E00076657273696F6E3A004B494C4C45442EE4
:1009F0002000202D20496E76616C69642065787432
:100A00007275646572206E756D62657220210A00D0
:100A10002D2D2D2D2D2D2D007C48454C4C424F5415
:100A20007C002D2D2D2D2D2D2D00687474703A2FE6
:100A30002F68656C6C626F742E78797A00687474B4
:100A4000703A2F2F68656C6C626F742E78797A001B
:100A500020312E312E382E33002020506C616E6EE6
:100A6000657242756666657242797465733A2000F4
:100A70002046726565204D656D6F72793A2000439E
:100A80006F6D70696C65643A205365702032312057
:100A9000323032300A00207C20417574686F723A1F
:100AA00020286E6F6E652C2064656661756C7420FD
:100AB000636F6E666967290A00323031372D313233
:100AC0002D32352031323A303000204C61737420A1
:100AD000557064617465643A2000312E312E382ED1
:100AE000330A004D61726C696E0020536F66747733
:100AF0006172652052657365740A002057617463E2
:100B000068646F672052657365740A002042726FD3
:100B1000776E206F75742052657365740A002045E6
:100B2000787465726E616C2052657365740A00504A
:100B30006F77657255700A0073746172740A00658C
:100B400072726F722077726974696E6720746F2099
:100B500066696C650A00456E6473746F7073202556
:100B60006320256320256320256300205A3A002056
:100B7000593A0020583A00656E6473746F707320A0
:100B80006869743A200047323820580066696C6101
:100B90006D656E74206F75740A004D3332205325D5
:100BA0006C7520212573004D33322053256C752040
:100BB000212F25732F2573004730204631303030E8
:100BC000205A25752E2575004732382059004732A6
:100BD000382058004D313036202053323535004D05
:100BE00031303920543020532575004D31393020B3
:100BF00053257500446F6E6520736176696E6720BA
:100C000066696C652E0A004D32390020746F6F20C2
:100C10006C6F6E6720657874727573696F6E207083
:100C2000726576656E7465640A0020636F6C64207B
:100C3000657874727573696F6E2070726576656E13
:100C40007465640A004D36303020423000436861DC
:100C50006E67652066696C616D656E7400426162E5
:100C60007973746570205A00466C6F7700466C6F1C
:100C7000770046616E2073706565640046616E2082
:100C800073706565640042656400426564004E6F80
:100C90007A7A6C65004E6F7A7A6C65005370656580
:100CA00064005370656564004D61696E0050726543
:100CB0006865617420504C4120456E640050726537
:100CC0006865617420504C41204265640050726533
:100CD0006865617420504C410050726570617265A6
:100CE00000507265686561742041425320456E640E
:100CF000005072656865617420414253204265640A
:100D000000507265686561742041425300507265FD
:100D100070617265004261636B004E657874206398
:100D20006F726E6572005072656865617420504C18
:100D30004100436F6F6C646F776E004368616E674C
:100D4000652066696C616D656E74005072656865DA
:100D50006174204142530044697361626C65207381
:100D600074657070657273004D3834004C6576653B
:100D70006C20636F726E657273004175746F2068CA
:100D80006F6D6500473238004D6F76652061786978
:100D900073004D61696E00544845524D414C2052DC
:100DA000554E4157415900546865726D616C20522F
:100DB000756E617761790043616E6E6F74206F703C
:100DC000656E207375626469722000656E71756569
:100DD0007565696E672022006563686F3A00496E29
:100DE000697469616C697A6520454550524F4D00C0
:100DF000436F6E74726F6C00526573746F7265200E
:100E00006661696C73616665004C6F61642073652F
:100E10007474696E67730053746F726520736574C0
:100E200074696E677300496E697469616C697A658B
:100E300020454550524F4D0046696C616D656E749A
:100E4000004D6F74696F6E0054656D7065726174EA
:100E5000757265004D61696E004D33303320553138
:100E600020452569205325690050726568656174C5
:100E70002041425320636F6E660050726568656161
:100E80007420504C4120636F6E66005049442041ED
:100E900075746F74756E6500504944204175746FA8
:100EA00074756E65005049442D44005049442D44EA
:100EB000005049442D49005049442D4900504944AF
:100EC0002D50005049442D5000200220466163748B
:100ED0000020022046616374002002204D617800EA
:100EE0002002204D6178002002204D617800200210
:100EF000204D696E002002204D696E002002204DB9
:100F0000696E004F6666004F6E20004175746F7405
:100F1000656D700046616E207370656564004661A2
:100F20006E2073706565640042656400426564000C
:100F30004E6F7A7A6C65004E6F7A7A6C6500436FFB
:100F40006E74726F6C0053746F7265207365747485
:100F5000696E67730042656400426564004E6F7A93
:100F60007A6C65004E6F7A7A6C650046616E20730C
:100F7000706565640046616E207370656564005439
:100F8000656D7065726174757265004D3630302024
:100F9000486F74656E6420746F6F20636F6C64209B
:100FA000746F206368616E67652066696C616D654A
:100FB0006E740A007C3C3E5E2B3D3F2F5B5D3B2CFC
:100FC0002A225C0020204E6F7A7A6C653A2000421B
:100FD00061636B004D696E696D756D2054656D7050
:100FE000206973203137302E0048656174696E675F
:100FF000206661696C65640045787472756465206B
:101000006D6F726500526573756D65207072696EE3
:101010007400524553554D45204F5054494F4E533F
:101020003A0020204E6F7A7A6C653A20006368613E
:101030006E6765006F66207468652066696C616D17
:10104000656E74005761697420666F7220737461F5
:101050007274005052494E5420504155534544003B
:1010600020204E6F7A7A6C653A200066696C616D5B
:10107000656E7420756E6C6F6164005761697420D1
:10108000666F72005052494E5420504155534544AA
:101090000020204E6F7A7A6C653A2000506C6561B2
:1010A000736520776169742E2E2E0048656174691E
:1010B0006E67206E6F7A7A6C65005052494E5420EC
:1010C0005041555345440020204E6F7A7A6C653A62
:1010D000200068656174206E6F7A7A6C652E00500E
:1010E0007265737320627574746F6E20746F005034
:1010F00052494E54205041555345440020204E6FD4
:101100007A7A6C653A2000746F20636F6E74696E32
:1011100075652E2E2E00616E6420707265737320CB
:10112000627574746F6E00496E73657274206669BF
:101130006C616D656E74005052494E54205041559B
:101140005345440020204E6F7A7A6C653A20006641
:10115000696C616D656E74206C6F616400576169C4
:101160007420666F72005052494E542050415553BE
:1011700045440020204E6F7A7A6C653A20006669FB
:101180006C616D656E742065787472756465005766
:1011900061697420666F72005052494E542050416C
:1011A0005553454400746F20726573756D65005723
:1011B00061697420666F72207072696E740050529B
:1011C000494E542050415553454400001C1F1111F5
:1011D0001F00000006191803130C00040E1F041C46
:1011E000000000001010101010100000141414144F
:1011F0001414000015151515151500000E13151102
:101200000E00001C10181705060500040A0A0A0A39
:1012100011110E0C12120C00000000001F15111508
:101220001F000000000000010204040000001C1C5C
:101230000C04040402010000000000040810000077
:101240000000004D313034205325750047393220DD
:1012500045257500473932205A25752E2575004DD4
:101260003530300043616E63656C207072696E7456
:1012700000526573756D65207072696E7400506FF1
:10128000776572206F75746167650025753A253042
:10129000327500253032753A25303275002D2D2DEE
:1012A000005344005A005900580056652D6A657273
:1012B0006B0056652D6A65726B0056652D6A657206
:1012C0006B00567A2D6A65726B00567A2D6A6572CC
:1012D0006B0056792D6A65726B0056792D6A6572BE
:1012E0006B0056792D6A65726B0056782D6A6572AF
:1012F0006B0056782D6A65726B0056782D6A6572A0
:101300006B004D6F74696F6E004573746570732F59
:101310006D6D004573746570732F6D6D005A737435
:101320006570732F6D6D005A73746570732F6D6DDA
:10133000005973746570732F6D6D00597374657007
:10134000732F6D6D005873746570732F6D6D005839
:1013500073746570732F6D6D004D6F74696F6E00DF
:1013600053746570732F6D6D004A65726B00416335
:1013700063656C65726174696F6E0056656C6F634E
:1013800069747900436F6E74726F6C004F6E200049
:1013900052756E6F75742073656E736F727300464D
:1013A000696C2E204469612E0046696C2E204469C8
:1013B000612E004F6666004F6E20004520696E204A
:1013C0006D6D33004F666600436F6E74726F6C0014
:1013D00043616E6E6F7420656E7465722073756202
:1013E0006469723A2000052E2E004D61696E00621C
:1013F00065640A002C2073797374656D2073746FB3
:101400007070656421204865617465725F49443A73
:10141000200048656174696E67206661696C656467
:101420000048656174696E67206661696C65640077
:1014300048656174696E67206661696C656400481F
:10144000656174696E67206661696C65640070012E
:101450002C0190012701B0012201C0011D01F00102
:1014600018011002130130020E01600209019002FE
:101470000401C002FF000003FA004003F5008003EE
:10148000F000D003EB002004E6007004E100E0046B
:10149000DC004005D700C005D2004006CD00D006D4
:1014A000C8008007C3003008BE00F008B900C009BA
:1014B000B400B00AAF00B00BAA00D00CA500000E1B
:1014C000A000500F9B00C010960050129100001415
:1014D0008C00C0158700B0178200B0197D00D01BAA
:1014E0007800001E730040206E0090226900F024F6
:1014F000640040275F0090295A00E02B5500102E11
:10150000500020304B0010324600E033410090354F
:101510003C001037370070383200A0392D00B03A47
:101520002800A03B2300603C1E00103D1900903DA8
:101530001400103E0F00703E0A00C03E0500003F40
:101540000000403FFBFF803FF6FFC03FF1FF4572C8
:10155000723A204D494E54454D5020424544004575
:1015600072723A204D494E54454D50004D494E54EB
:10157000454D5020747269676765726564004572F5
:10158000723A204D415854454D5020424544004543
:1015900072723A204D415854454D50004D415854B7
:1015A000454D502074726967676572656400202F2D
:1015B000002042403A0020403A00534420636172C8
:1015C00064206F6B0A006F70656E526F6F742066D7
:1015D00061696C65640A00766F6C756D652E696E65
:1015E0006974206661696C65640A00534420696E01
:1015F0006974206661696C0A006175746F25692ED3
:1016000067004D3234004D32332025730057726924
:1016100074696E6720746F2066696C653A20006F8C
:1016200070656E206661696C65642C2046696C6526
:101630003A20006F70656E206661696C65642C20CD
:1016400046696C653A200046696C652073656C6577
:10165000637465640A002053697A653A200046691C
:101660006C65206F70656E65643A20006F70656E02
:10167000206661696C65642C2046696C653A2000BF
:101680002066696C653A2000646F696E6700667257
:10169000657368004E6F772000454E4420535542D5
:1016A000524F5554494E450A002220706F73002254
:1016B00020706172656E743A2200535542524F5544
:1016C00054494E452043414C4C2074617267657407
:1016D0003A22004B494C4C45442E200074727969E3
:1016E0006E6720746F2063616C6C207375622D6768
:1016F000636F64652066696C657320776974682020
:10170000746F6F206D616E79206C6576656C732ED9
:10171000204D4158206C6576656C2069733A004510
:1017200072726F723A00526573656E643A20006F90
:101730006B00627573793A20706175736564206619
:101740006F7220696E7075740A00627573793A2041
:1017500070617573656420666F7220757365720AB7
:1017600000627573793A2070726F63657373696E86
:10177000670A004B494C4C45442E20004B494C4CC9
:101780002063617573656420627920746F6F206DCA
:1017900075636820696E6163746976652074696D2C
:1017A00065202D2063757272656E7420636F6D6D98
:1017B000616E643A2000506C6561736520726573D8
:1017C0006574005052494E5445522048414C54458E
:1017D00044005072696E7465722068616C7465644F
:1017E0002E206B696C6C28292063616C6C65642108
:1017F0000A000000E0C0000000C10000000000007E
:10180000C8420000C8420000A0410000000057612B
:10181000726E696E673A20486F6D696E6720427517
:101820006D702044697669736F72203C20310A0024
:101830000202040000A0400000A0400000004000A0
:101840000063430000644300008243FFFFFF4572D2
:10185000726F722077726974696E6720746F2045A9
:101860004550524F4D210A00290A002062797465C3
:10187000733B20637263200053657474696E6773F1
:101880002053746F72656420280024F4D43050C350
:101890008E20C2A24017828B7011127A910D816C3A
:1018A000D90AA861E108C7586607615143061E4B73
:1018B0005D05C145A7041A411104093D980371391A
:1018C00031034036DB0265339102D4305402802E5E
:1018D0001D02632CEE01752AC501B028A001102756
:1018E00081018F2564012B244B01E0223401AC21BE
:1018F0001F018D200D01801FFC00841EED00971D2F
:10190000DF00B81CD200E61BC600201BBC00641A16
:10191000B200B219A8000A19A0006A189900D117DC
:10192000910040178B00B516840031167E00B31568
:1019300079003A157300C7146F0058146A00EE134B
:1019400066008813630025135E00C7125B006C12EB
:10195000570015125400C111510070114F00211190
:101960004B00D61049008D1047004610440002106D
:101970004200C00F4000800F3E00420F3C00060FA7
:101980003B00CB0E3800930E37005C0E3500270E5F
:101990003400F30D3200C10D3100900D3000600DA8
:1019A0002E00320D2D00050D2C00D90C2B00AE0C95
:1019B0002900850C29005C0C2700350C27000E0C33
:1019C0002600E80B2400C40B2400A00B23007D0B91
:1019D00023005A0B2100390B2100180B2000F80AB4
:1019E0001F00D90A1E00BB0A1E009D0A1D00800AA6
:1019F0001D00630A1C00470A1B002C0A1B00110A69
:101A00001A00F7091A00DD091900C4091900AB0909
:101A10001900920917007B091800630917004C0987
:101A2000160036091600200916000A091500F508E7
:101A30001500E0081400CC081400B8081400A4082D
:101A40001400900813007D0812006B08130058085A
:101A50001200460812003408110023081100120871
:101A6000110001081100F0071000E0071000D00776
:101A70001000C0071000B0070F00A1071000910769
:101A80000E0083070F0074070F0065070E0057074D
:101A90000E0049070E003B070D002E070E00200721
:101AA0000D0013070D0006070D00F9060C00ED06EA
:101AB0000D00E0060C00D4060C00C8060C00BC06A5
:101AC0000C00B0060C00A4060B0099060C008D0655
:101AD0000B0082060B0077060B006C060B006106FC
:101AE0000A0057060B004C060A0042060A00380698
:101AF0000A002E060A0024060A001A060A0010062A
:101B0000090007060A00FD050900F4050900EB05B8
:101B10000900E2050900D9050900D0050900C7053B
:101B20000900BE050900B5050800AD050800A505BA
:101B300009009C050800940508008C050800840530
:101B400008007C050800740508006C0507006505A1
:101B500008005D050700560508004E05070047050B
:101B600007004005080038050700310507002A0571
:101B70000700230507001C050600160507000F05D2
:101B800007000805060002050700FB040600F5042F
:101B90000700EE040600E8040600E2040700DB0488
:101BA0000600D5040600CF040600C9040600C304DD
:101BB0000600BD040600B7040600B1040500AC042D
:101BC0000600A6040600A00405009B040600950478
:101BD0000500900406008A040500850405008004C1
:101BE00006007A04050075040500700405006B0406
:101BF000050066040500610405005C040500570447
:101C00000500520405004D04050048040500430486
:101C100005003E0404003A040500350405003004C4
:101C200004002C04050027040400230405001E04FE
:101C300004001A04040016040500110404000D0435
:101C40000400090405000404040000040400FC036B
:101C50000400F8030400F4030400F0030400EC03A0
:101C60000400E8030400E4030400E0030400DC03D0
:101C70000400D8030400D4030400D0030400CC0300
:101C80000400C8030300C503030024F404D9201B87
:101C9000C40C5C0E9804C4095F0265077101F40569
:101CA000F900FB04B30048048700C103690058032E
:101CB000550003034500BE023A008402310053027E
:101CC0002A002902250004022000E4011C00C801AA
:101CD0001900AF011700980114008401130071016D
:101CE00010006101100051010E0043010D0036018A
:101CF0000B002B010B0020010B00150109000C014A
:101D0000090003010800FB000800F3000800EB00D5
:101D10000700E4000600DE000600D8000600D2003E
:101D20000600CC000500C7000500C2000500BD008C
:101D30000400B9000400B5000400B1000400AD00C7
:101D40000400A9000400A5000300A20003009F00F6
:101D500004009B000300980003009500020093001C
:101D60000300900003008D0002008B000300880038
:101D700002008600020084000300810002007F0050
:101D800002007D0002007B00020079000200770063
:101D90000100760002007400020072000100710070
:101DA00002006F0002006D0001006C0002006A007A
:101DB0000100690002006700010066000100650083
:101DC0000100640002006200010061000100600087
:101DD00001005F0002005D0001005C0001005B008B
:101DE00001005A000100590001005800010057008D
:101DF000010056000100550001005400010053008D
:101E00000000530001005200010051000100500089
:101E100001004F0001004E0000004E0001004D0087
:101E200001004C0001004B0000004B0001004A0083
:101E3000010049000100480000004800010047007F
:101E4000010046000000460001004500000045007A
:101E50000100440001004300000043000100420073
:101E6000000042000100410000004100010040006C
:101E700001003F0000003F0001003E0000003E0066
:101E800001003D0000003D0001003C0000003C005E
:101E900000003C0001003B0000003B0001003A0054
:101EA00000003A000100390000003900010038004C
:101EB0000000380000003800010037000000370043
:101EC0000100360000003600000036000100350039
:101ED000000035000000350001003400000034002F
:101EE0000000340001003300000033000000330024
:101EF0000100320000003200000032000100310019
:101F0000000031000000310001003000000030000E
:101F10000000300001002F0000002F0000002F0003
:101F200000002F0001002E0000002E0000002E00F7
:101F300001002D0000002D0000002D0000002D00EC
:101F400001002C0000002C0000002C0000002C00E0
:101F500001002B0000002B0000002B0000002B00D4
:101F600001002A0000002A0000002A0000002A00C8
:101F700001002900000029000000290000002900BC
:101F800000002900010028000000280000002800AF
:101F900000002800000028000100270000002700A2
:101FA0000000270000002700000027000100260095
:101FB0000000260000002600000026000000260089
:101FC000010025000000250000002500000025007C
:101FD000000025000000250001002400000024006E
:101FE0000000240000002400000024000100230061
:101FF0000000230000002300000023000000230055
:102000000000230000002300010022000000220045
:102010000000220000002200000022000000220038
:10202000010021000000210000002100000021002B
:10203000000021000000210000002100010020001C
:102040000000200000002000000020000000200010
:1020500000002000000020000000200001001F0000
:1020600000001F0000001F0000001F0000001F00F4
:1020700000001F0000001F0001001E0000001E00E5
:1020800000001E0000001E0000004D3834205820C3
:1020900059205A2045005A25752C45256C752C5021
:1020A000256C752C5425752C4225752C004D6167C7
:1020B0006E6120312072656164792E004D61676E1A
:1020C0006120312072656164792E004572723A4E4A
:1020D0006F2046696C616D656E74000000210024FC
:1020E0000027002A002D0030003300010100000409
:1020F0000107010A0100002200250028002B002E04
:10210000003100340002010000050108010B01004C
:102110000020002300260029002C002F00320000A0
:102120000100000301060109010505050507050871
:10213000080808020202020A0A080804040404014A
:10214000010101010101010303030303030303046C
:102150000707070C0C0C0C0C0C0C0C0202020206FC
:10216000060606060606060B0B0B0B0B0B0B0B01EC
:102170000210202008081020401020408002010298
:102180000108040201010204081020408080402060
:10219000100804020180040201804020100804029B
:1021A0000108040201010204081020408001020419
:1021B000081020408000000A0B02090C0D0E0807D1
:1021C0000304010000000000000000000000000007
:1021D00000000000000000000000000000000000FF
:1021E00000121110000000000000000000000000BC
:1021F00000000000000000000000002569730025B9
:10220000696D20256973002569682025696D202581
:10221000697300256964202569682025696D20257A
:10222000697300256979202569642025696820255E
:10223000696D20256973005072696E742074696D30
:10224000653A200050726F7465637465642050694C
:102250006E0A00452569202573004D61676E612077
:10226000312072656164792E006F6B00486561747E
:10227000696E6720646F6E652E0020573A00452511
:1022800069202573004D61676E61203120726561A0
:1022900064792E00205A3A0020593A0020436F7585
:1022A0006E7420583A0020453A00205A3A002059CE
:1022B0003A00583A003A004361703A00486172644B
:1022C000636F6465642044656661756C7420536552
:1022D0007474696E6773204C6F616465640A00F4FE
:1022E000010000F401000064000000E803000000A9
:1022F00000FA430000FA430000A0400000C841007B
:1023000000A0420000A0420000C8430000BA4220E2
:10231000440020490020204D333034205000204418
:102320000020490020204D333031205000504944D6
:102330002073657474696E67733A0A002046002042
:10234000420020480020204D3134352053004D619B
:1023500074657269616C2068656174757020706164
:1023600072616D65746572733A0A00204500205AE7
:102370000020590020580020420020540020204D09
:10238000323035205300416476616E6365643A20D3
:10239000533C6D696E5F66656564726174653E206D
:1023A000543C6D696E5F74726176656C5F666565DD
:1023B00064726174653E20423C6D696E5F7365674F
:1023C0006D656E745F74696D655F75733E20583C12
:1023D0006D61785F78795F6A65726B3E205A3C6DFB
:1023E00061785F7A5F6A65726B3E20453C6D61780B
:1023F0005F655F6A65726B3E0A00205400205200E0
:1024000020204D323034205000416363656C65728A
:102410006174696F6E2028756E6974732F73322929
:102420003A20503C7072696E745F616363656C3E04
:1024300020523C726574726163745F616363656CA2
:102440003E20543C74726176656C5F616363656CB9
:102450003E0A00204500205A0020590020204D321D
:1024600030312058004D6178696D756D204163638E
:10247000656C65726174696F6E2028756E6974731E
:102480002F7332293A0A00204500205A00205900B3
:1024900020204D3230332058004D6178696D756DC4
:1024A000206665656472617465732028756E697451
:1024B000732F73293A0A00204500205A0020590042
:1024C00020204D3932205800537465707320706598
:1024D0007220756E69743A0A0020204D3230302027
:1024E00044300A0020204D3230302044002044691E
:1024F0007361626C65640A0046696C616D656E7437
:102500002073657474696E67733A0020204D31340E
:10251000392043203B20556E69747320696E204337
:10252000656C736975730A002020473231202020C2
:10253000203B20556E69747320696E206D6D0A0012
:10254000446F776E0A00290A5772697465206669BC
:102550006C65206E616D6520416D69743A200020C4
:1025600062797465733B206372632000506F7765F6
:10257000726F66662053746F726564202800446F22
:10258000776E0020213D2000637263206572726FB8
:10259000723A20000A726561642066696C65206E7B
:1025A000616D653A2000290A726561642066696C74
:1025B00065206469723A20002062797465733B205B
:1025C0006372632000706F7765726F666620737444
:1025D0006F7265642073657474696E6773207265C9
:1025E00074726965766564202800202863616C63D5
:1025F000756C6174656429210A0020213D20004525
:102600004550524F4D20435243206D69736D6174A4
:102610006368202D202873746F7265642920002957
:102620000A002062797465733B2063726320002086
:1026300073746F7265642073657474696E67732058
:10264000726574726965766564202800204D617238
:102650006C696E3D563131290A0028454550524F6C
:102660004D3D00454550524F4D2076657273696F60
:102670006E206D69736D61746368200043617264DC
:102680002072656D6F766564004361726420696EC7
:10269000736572746564005344207072696E746966
:1026A0006E67206279746520004E6F742053442059
:1026B0007072696E74696E670A00486F6D652025D7
:1026C00073257325732066697273740020666972BE
:1026D00073740A005A0059005800486F6D65200055
:1026E0005654726176206D696E0056547261762080
:1026F0006D696E005654726176206D696E00566D7C
:10270000696E00566D696E00566D696E00566D619A
:1027100078204500566D6178204500566D6178201F
:102720004500566D6178205A00566D6178205A0038
:10273000566D6178205A00566D6178205900566DAB
:102740006178205900566D6178205900566D617886
:10275000205800566D6178205800566D61782058D9
:10276000004D6F74696F6E00416D617820450041C6
:102770006D6178204500416D6178205A00416D619E
:1027800078205A00416D6178205900416D617820B0
:102790005900416D6178205800416D6178205800E2
:1027A000412D74726176656C00412D74726176659D
:1027B0006C00412D7265747261637400412D726505
:1027C000747261637400416363656C0041636365A7
:1027D0006C004D6F74696F6E004D6F766520580008
:1027E0004D6F76652059004D6F7665205A0045780B
:1027F000747275646572004D6F766520302E316D90
:102800006D004D6F766520316D6D004D6F766520E2
:1028100031306D6D004D6F766520617869730048C9
:102820006F74656E6420746F6F20636F6C64004515
:1028300078747275646572004D6F7665205A004D2C
:102840006F76652059004D6F766520580045787485
:102850007275646572004D6F7665205A004D6F7613
:10286000652059004D6F7665205800507265706183
:102870007265005072696E742070617573656400D2
:102880004D31323500002573004D323400507269ED
:102890006E742061626F727465640047323820582C
:1028A0005900473930004731204631303030205A06
:1028B000323000473931004E6F205344206361723B
:1028C00064005072696E742066726F6D205344000C
:1028D00053746F70207072696E7400526573756DF9
:1028E00065207072696E7400506175736520707236
:1028F000696E740041626F7574205072696E746500
:102900007200436F6E74726F6C005072657061720A
:10291000650054756E6500496E666F20736372655D
:10292000656E004261627973746570205A004D6172
:10293000782054656D703A20313235004D696E2033
:1029400054656D703A203500544265643A455043F1
:102950004F53203130304B004D61782054656D70FD
:102960003A20323635004D696E2054656D703A203C
:10297000350054303A204550434F53203130304BCE
:10298000005053553A2047656E6572696300507276
:102990006F746F636F6C3A20312E3000202020203E
:1029A0004857205665723A205600465720566572A1
:1029B0003A2056322E3100426175643A2032353069
:1029C000303030004754323536302056342E300007
:1029D0004578747275646572733A20310068747456
:1029E000703A2F2F68656C6C626F742E78797A005C
:1029F0004D61676E61203100323031372D31322D1B
:102A000032352031323A303000312E312E382E33EB
:102A1000004D61726C696E00546865726D69737403
:102A20006F727300426F61726420496E666F00506E
:102A300072696E74657220496E666F004D61696ED1
:102A40000000D0E657E911241FBECFEFD1E2DEBF70
:102A5000CDBF00E00CBF13E0A0E0B2E0E4E5F1EF91
:102A600001E00BBF02C007900D92A83AB107D9F759
:102A700025E1A8EAB3E001C01D92AC3CB207E1F742
:102A800015E1C2E2D5E100E006C021970109802FDF
:102A9000FE010E9402F8C132D10780E00807A9F7C1
:102AA0000E94FADF0C9499F80C9400002F923F9248
:102AB0004F925F926F927F928F929F92AF92BF924E
:102AC000CF92DF92EF92FF920F931F93CF93DF93FA
:102AD000CDB7DEB7C55AD1090FB6F894DEBF0FBE29
:102AE000CDBF81E090E09093D60F8093D50F809179
:102AF000330F8D3409F482C6843511F40C940B2EF7
:102B0000873411F00C944D2E8091310F9091320F3B
:102B10008430910509F4B1C554F497FF02C00C94B8
:102B2000672E20916102823091057CF529C08A359B
:102B3000910509F415C66CF48B31910509F4E4C5CF
:102B40004C9711F00C94672E80E00E9430380C9462
:102B5000672E8B35910509F407C68C35910511F068
:102B60000C94672E0E94A9A599E7292E92E0392E90
:102B700028E5E22E25E1F22E00E0D12C10E01EC661
:102B800021110C946E2E0C94672E222311F40C94B8
:102B9000672E11E0029709F010E00E945E3782E58F
:102BA0000E945237882309F45CC10E94F0366B0101
:102BB0007C01409058155090591560905A157090AE
:102BC0005B1580915C1590915D15A0915E15B0919B
:102BD0005F152B968CAF9DAFAEAFBFAF2B972091FB
:102BE000C50F3091C60F4091C70F5091C80F2F9657
:102BF0002CAF3DAF4EAF5FAF2F978091C90F909133
:102C0000CA0FA091CB0FB091CC0F6B968CAF9DAF3C
:102C1000AEAFBFAF6B9720E030E0A901C701B601AE
:102C20000E94E4F0882309F40EC5A30192012F96B7
:102C30006CAD7DAD8EAD9FAD2F970E94E4F08111FC
:102C400011C02B962CAD3DAD4EAD5FAD2B976B9665
:102C50006CAD7DAD8EAD9FAD6B970E94E4F0882387
:102C600009F4F1C420E030E0A901C701B6010E94D7
:102C7000E4F0881F8827881F18130BC020E030E07D
:102C800040E85FE3A3962CAF3DAF4EAF5FAFA39795
:102C90000AC080E090E0A0E8BFEBA3968CAF9DAFA8
:102CA000AEAFBFAFA397A30192012F966CAD7DADE0
:102CB0008EAD9FAD2F970E94FAF467966CAF7DAFF3
:102CC0008EAF9FAF67972B962CAD3DAD4EAD5FADF0
:102CD0002B976B966CAD7DAD8EAD9FAD6B970E94C3
:102CE000FAF46F966CAF7DAF8EAF9FAF6F9767961C
:102CF0002CAD3DAD4EAD5FAD6797CA01B9010E94E5
:102D000049F14B015C016F962CAD3DAD4EAD5FAD11
:102D10006F97CA01B9010E9449F19B01AC01C5013D
:102D2000B4010E94FBF40E9466F763966CAF7DAF1E
:102D30008EAF9FAF639720E030E040E05FE30E94FA
:102D400049F14B015C01A7019601C701B6010E9440
:102D500049F16B017C01A5019401C501B4010E94F8
:102D600049F19B01AC01C701B6010E94FAF40E942F
:102D700066F79B01AC01A3966CAD7DAD8EAD9FADAA
:102D8000A3970E9449F14B015C012F962CAD3DADFC
:102D90004EAD5FAD2F97C301B2010E94FBF420E05E
:102DA00030E040E05FE30E9449F16B017C016F96E7
:102DB0006CAD7DAD8EAD9FAD6F97905863962CAD89
:102DC0003DAD4EAD5FAD63970E94D7F59B01AC0161
:102DD000C501B4010E9449F19B01AC01C701B601D4
:102DE0000E94FBF4A30192010E94FAF46B017C01A2
:102DF0006B962CAD3DAD4EAD5FAD6B972B966CAD2C
:102E00007DAD8EAD9FAD2B970E94FBF420E030E0AE
:102E100040E05FE30E9449F12B013C0163962CAD39
:102E20003DAD4EAD5FAD639767966CAD7DAD8EAD3C
:102E30009FAD67970E94D7F59B01AC01C501B40116
:102E40000E9449F19B01AC01C301B2010E94FBF455
:102E50002B962CAD3DAD4EAD5FAD2B970E94FAF495
:102E600014C089E40E945237882329F00E94F0366A
:102E70006B017C0103C0C12CD12C76018AE40E9435
:102E800052378823F9F00E94F0366B966CAF7DAF15
:102E90008EAF9FAF6B9720E030E0A901C701B6016C
:102EA0000E94E4F081111EC020E030E0A9016B9681
:102EB0006CAD7DAD8EAD9FAD6B970E94E4F081113E
:102EC00011C0C1C320E030E0A901C701B6010E94D2
:102ED000E4F0882309F4B7C36B961CAE1DAE1EAE9A
:102EE0001FAE6B97A701960150582B962CAF3DAFA4
:102EF0004EAF5FAF2B976B968CAD9DADAEADBFADBA
:102F00006B97B0582F968CAF9DAFAEAFBFAF2F97DA
:102F1000CA01B9010E9449F14B015C012F962CAD09
:102F20003DAD4EAD5FAD2F97CA01B9010E9449F189
:102F30009B01AC01C501B4010E94FBF40E9466F73D
:102F4000E3966CAF7DAF8EAF9FAFE397209158159E
:102F50003091591540915A1550915B1563962CAFDD
:102F60003DAF4EAF5FAF6397A701960163966CAD1F
:102F70007DAD8EAD9FAD63970E94FBF4A3966CAFC1
:102F80007DAF8EAF9FAFA39780915C1590915D153B
:102F9000A0915E15B0915F156F968CAF9DAFAEAFEF
:102FA000BFAF6F976B962CAD3DAD4EAD5FAD6B97E0
:102FB000BC01CD010E94FBF4A7966CAF7DAF8EAF34
:102FC0009FAFA7972091C50F3091C60F4091C70FB3
:102FD0005091C80FAB962CAF3DAF4EAF5FAFAB97E4
:102FE000A3962CAD3DAD4EAD5FADA397AB966CAD4A
:102FF0007DAD8EAD9FADAB970E94FAF46B017C0165
:103000008091C90F9091CA0FA091CB0FB091CC0FB6
:10301000AF968CAF9DAFAEAFBFAFAF97A7962CADBD
:103020003DAD4EAD5FADA797BC01CD010E94FAF456
:103030004B015C0120916015309161154091621542
:1030400050916315EB962CAF3DAF4EAF5FAFEB9752
:103050006091CD0F7091CE0F8091CF0F9091D00FD6
:103060000E94FAF467966CAF7DAF8EAF9FAF679703
:103070008091D10F9091D20FA091D30FB091D40F26
:10308000E7968CAF9DAFAEAFBFAFE79720916415C9
:10309000309165154091661550916715EF962CAFEC
:1030A0003DAF4EAF5FAFEF97A70196012B966CAD8A
:1030B0007DAD8EAD9FAD2B970E9449F12B013C0158
:1030C000A50194012F966CAD7DAD8EAD9FAD2F9770
:1030D0000E9449F19B01AC01C301B2010E94FBF4C3
:1030E0002B013C01A50194012B966CAD7DAD8EADFD
:1030F0009FAD2B970E9449F14B015C01A7019601FE
:103100002F966CAD7DAD8EAD9FAD2F970E9449F18E
:103110009B01AC01C501B4010E94FAF4A301920124
:103120000E946EF56B017C0120E030E0A9010E9455
:10313000E4F087FF0AC02BED3FE049EC50E4C70103
:10314000B6010E94FBF46B017C01112351F02BEDC1
:103150003FE049EC50E4C701B6010E94FAF46B016C
:103160007C0120E030E0A901C701B6010E94E4F033
:10317000811128C0AB962CAD3DAD4EAD5FADAB9788
:1031800063966CAD7DAD8EAD9FAD63970E94E4F00C
:10319000811118C0AF962CAD3DAD4EAD5FADAF9770
:1031A0006F966CAD7DAD8EAD9FAD6F970E94E4F0D4
:1031B000811108C04BEDC42E4FE0D42E49ECE42E13
:1031C00040E4F42EE3962CAD3DAD4EAD5FADE397FC
:1031D000C701B6010E9449F19B01AC010E9449F16F
:1031E0004B015C0167962CAD3DAD4EAD5FAD679771
:1031F000CA01B9010E9449F19B01AC01C501B401AA
:103200000E94FBF40E9466F74B015C012FE632E15D
:1032100043E85AE30E94E4F087FD11C2C501B401FE
:103220000E9470F60E9444F61B01672B19F42224B9
:103230002394312CB10180E090E00E94E8F04B0132
:103240005C019B01AC01C701B6010E94D7F56396F2
:103250006CAF7DAF8EAF9FAF6397A501940167966A
:103260006CAD7DAD8EAD9FAD67970E94D7F5E396AF
:103270006CAF7DAF8EAF9FAFE397EF962CAD3DADBA
:103280004EAD5FADEF97E7966CAD7DAD8EAD9FAD6A
:10329000E7970E94FAF4A50194010E94D7F5E796FA
:1032A0006CAF7DAF8EAF9FAFE79763962CAD3DAD12
:1032B0004EAD5FAD6397CA01B9010E9449F120E0AC
:1032C00030E040E05FE30E9449F19B01AC0160E027
:1032D00070E080E89FE30E94FAF4AB966CAF7DAF9C
:1032E0008EAF9FAFAB97EB968CAD9DADAEADBFAD46
:1032F000EB9789879A87AB87BC87EF962CAD3DAD5E
:103300004EAD5FADEF972D873E874F87588B60910D
:10331000140270911502072E000C880B990B0E9465
:10332000EAF0209100023091010240910202509196
:1033300003020E9449F12AE037ED43E25CE30E9478
:1033400049F168A379A38AA39BA30E9468B09B015B
:10335000AC0128533F4F4F4F5F4FAF962CAF3DAF5F
:103360004EAF5FAFAF9728964FAC289729965FACCA
:1033700029972A966FAC2A972B967FAC2B9741E022
:1033800050E06D965FAF4EAF6D9759E164965FAFB9
:1033900064976D96AEADBFAD6D97A215B30509F4F8
:1033A0003DC10E94C28C0E9468B0DC01CB01AF9687
:1033B0002CAD3DAD4EAD5FADAF97821B930BA40B13
:1033C000B50BB7FD11C00E9468B09B01AC0128533A
:1033D0003F4F4F4F5F4FAF962CAF3DAF4EAF5FAFFC
:1033E000AF9780E00E94B89664963FAD64973150E5
:1033F00064963FAF6497332309F44BC0AB962CAD72
:103400003DAD4EAD5FADAB972F966CAD7DAD8EAD46
:103410009FAD2F970E9449F16B017C0163962CAD03
:103420003DAD4EAD5FAD6397B201C3010E9449F15E
:10343000A70196010E94FBF46B017C01AB962CADB9
:103440003DAD4EAD5FADAB97B201C3010E9449F1F6
:103450004B015C0163962CAD3DAD4EAD5FAD639706
:103460002F966CAD7DAD8EAD9FAD2F970E9449F12B
:103470009B01AC01C501B4010E94FAF42B013C018F
:10348000C601D7012F968CAF9DAFAEAFBFAF2F97C0
:1034900061C06D964EAD5FAD6D97BA0180E090E072
:1034A0000E94E8F063962CAD3DAD4EAD5FAD6397E5
:1034B0000E9449F14B015C010E94D4F56B017C0133
:1034C000C501B4010E945CF74B015C01A7019601A4
:1034D0002B966CAD7DAD8EAD9FAD2B970E9449F1C3
:1034E0002B013C01A50194016B966CAD7DAD8EADB9
:1034F0009FAD6B970E9449F19B01AC01C301B201E2
:103500000E94FBF42B013C01A50194012B966CADAC
:103510007DAD8EAD9FAD2B970E9449F14B015C01B3
:10352000A70196016B966CAD7DAD8EAD9FAD6B978F
:103530000E9449F19B01AC01C501B4010E94FAF45B
:103540002F966CAF7DAF8EAF9FAF2F9759E16496EA
:103550005FAF64979201A301A3966CAD7DAD8EAD74
:103560009FADA3970E94FBF469837A838B839C832E
:103570002F962CAD3DAD4EAD5FAD2F97A7966CADA0
:103580007DAD8EAD9FADA7970E94FBF46D837E83CA
:103590008F839887E3962CAD3DAD4EAD5FADE3973D
:1035A00069857A858B859C850E94FBF469877A877B
:1035B0008B879C87E7962CAD3DAD4EAD5FADE79711
:1035C0006D857E858F8598890E94FBF46D877E8747
:1035D0008F87988B80917702882321F0CE01019606
:1035E0000E94F794E0906D088E01005E1F4F9E01CF
:1035F000235F3F4FAE01475F5F4FBE016B5F7F4F61
:10360000CE0101960E94754E6D968EAD9FAD6D9761
:1036100001966D969FAF8EAF6D97BBCEE0906D0813
:103620008E01005E1F4F21ED3FE04DEC5FE069EC45
:103630007FE085EC9FE00E94754E0E941B380E943F
:1036400025380C94672EEFE1F7E184918F010F5F2D
:103650001F4F882321F00E94E439F801F6CFE5E3FB
:10366000F2E084918F010F5F1F4F882311F40C94B7
:10367000672E0E94E439F801F4CF80E50E945237AA
:10368000882329F00E94B0366B017C0103C0C12C55
:10369000D12C760183E50E945237882361F00E9485
:1036A000F03620E030E04AE754E40E9449F10E94FD
:1036B00044F66B017C010E94A9A58091160281113C
:1036C00005C060E08BE492E00E9450B50E9425386E
:1036D0008091BD0F9091BE0FA091BF0FB091C00F10
:1036E000C80ED91EEA1EFB1E0E9468B0DC01CB0189
:1036F0008C199D09AE09BF09B7FD02C00C94672E55
:1037000080E00E94B896F0CF0E942ACE81110C94DE
:10371000672E80E090E0A0E4B0E489839A83AB83D5
:10372000BC838D839E83AF83B88780E090E0A0E266
:10373000B1E489879A87AB87BC8780E50E945237BE
:10374000882319F00E94C03601C060E068A3BE0162
:103750006F5F7F4FCE0180960E9472BB0C94672EE4
:103760001092AC030C94672E81E08093AC030C9410
:10377000672E0E94F0362B013C01D7012D913D911F
:103780004D915C910E94FAF44B015C012DEB37E303
:1037900046E855EB0E9421F787FD18C02DEB37E373
:1037A00046E855E3C501B4010E94E4F0181674F030
:1037B0001F5FF4E0EF0EF11C1430A1F0F1018191D4
:1037C0001F010E945237882399F3D3CF133019F089
:1037D000DD24D39401C001E0F7014082518262826E
:1037E0007382E6CFDD2019F00E94333603C0011149
:1037F0000E94C8CE0E94AEB60C94672E8091310F05
:103800009091320F8337910509F419C60CF0C9C0A5
:103810008C34910509F406C40CF06AC08831910516
:1038200009F4B2C2ACF58231910509F42DC5BCF49E
:1038300097FF02C00C94672E823091050CF4B2C140
:10384000419711F00C94672E60E085E892E00E94A9
:1038500050B54298179815982E980C94672E85317C
:10386000910509F476C23CF4449711F00C94672E4C
:10387000EDE9F2E02BC28631910509F46EC247975B
:1038800011F00C94672EE0912F0FF091300F6FC262
:103890008E31910509F4A8C2C4F48A31910509F466
:1038A00091C20CF48BC28B31910509F499C24C97EB
:1038B00011F00C94672E40E060E080912F0F909102
:1038C000300F0E94A78F0C94672E8032910509F467
:1038D00090C30CF49FC38A32910509F49FC38B34C3
:1038E000910511F00C94672E0E94B7940C94672EEA
:1038F0008936910509F470C43CF58335910509F4C6
:10390000BEC47CF48135910509F49AC40CF0B3C4AB
:103910008D34910511F00C94672E0E94ED5A0C9491
:10392000672E8535910509F4E6C40CF4ADC48C35D9
:10393000910509F4FBC48836910511F00C94672EAB
:103940000E94BEB90C94672E8E36910509F46EC3A1
:103950009CF48B36910509F46BC40CF465C48C3669
:10396000910509F4E7C38D36910511F00C94672E8B
:103970000E947CB70C94672E8037910509F4DEC352
:103980000CF467C38137910509F4DCC382379105D4
:1039900011F00C94672E0E94A9A50E94AEB60C945B
:1039A000672E823E910511F40C94C6250CF072C06E
:1039B0008B39910509F418C49CF58837910509F4F1
:1039C00035C6A4F48637910509F48DC50CF0CAC537
:1039D0008537910511F00C94672E60E080912F0FD0
:1039E0009091300F0E94D0CA0C94672E8D379105AC
:1039F00009F422C45CF48937910511F00C94672E08
:103A00001092B5081092B4080C94672E8C3891056A
:103A100009F4C4C38139910509F40FC60C94672ECB
:103A20008C3C910509F402C7F4F4883C910509F433
:103A30007DC634F48E3B910509F4DAC30C94672EED
:103A4000893C910509F4BAC68B3C910511F00C94A0
:103A5000672E44E8E42E45E1F42E09E712E054E035
:103A6000D52ED00ED4C6833D910509F4B8C734F4E1
:103A70008D3C910509F446C70C94672E8C3D910549
:103A800011F40C946D258D3D910511F40C947C2559
:103A90000C94672E893921E0920711F40C941C2CA8
:103AA0000CF040C08F3241E0940711F40C949C2735
:103AB000DCF48C32A1E09A0711F40C9403263CF458
:103AC0008232914011F40C94F5250C94672E8D32BE
:103AD000F1E09F0711F40C942D268E32914011F4E1
:103AE0000C9448270C94672E833631E0930711F429
:103AF0000C944C2D3CF48033914011F40C94CB2663
:103B00000C94672E8039A1E09A0711F40C94192CBB
:103B10008839914011F00C94672E81E080934E0C0F
:103B20000C94672E873FE1E09E0711F40C94252C3E
:103B3000FCF4843F21E0920711F40C941F2C4CF408
:103B40008A39914011F00C94672E0E9482B50C9432
:103B5000672E853F51E0950711F40C94222C863F87
:103B6000914011F00C94672E0E9439C00C94672E7E
:103B7000803AB3E09B0709F440C23CF48835924098
:103B800011F40C94312C0C94672E873E23E092079D
:103B900011F40C948C2D893D974011F40C94A12DB7
:103BA0000C94672EA0902F0FB090300F80E50E94EC
:103BB0005237882359F00E94B0366B017C0111E026
:103BC000672B682B692B31F410E004C010E0C12C86
:103BD000D12C760183E50E9452378823F1F00E94B0
:103BE000F03620E030E04AE754E40E9449F10E94B8
:103BF00044F66B017C01111112C0672B682B692BF5
:103C000071F4A114B10459F0D5018C91882339F0D5
:103C100061E0C5010E94D0CA0FC0112391F360E09A
:103C200082E792E00E9450B5109208151092091593
:103C300010920A1510920B1583E090E09093D60F26
:103C40008093D50F81E0809307150E94A9A50E945B
:103C50002538C114D104E104F104F1F08091BD0FC5
:103C60009091BE0FA091BF0FB091C00FC80ED91E8A
:103C7000EA1EFB1E0E9468B0DC01CB018C199D0975
:103C8000AE09BF09B7FF1EC0809107158823D1F088
:103C900080E00E94B896EECF80910715882321F02E
:103CA00080E00E94B896F8CF8091D4089091D50812
:103CB00060E0029719F483E692E002C084E592E0A6
:103CC0000E9450B5109207150C94672E84918F01B5
:103CD0000F5F1F4F882321F00E94E439F801F6CFCF
:103CE0001092BB0B1092BA0B40E050E0BA0184E492
:103CF00099E00E949A648BE1E4E4F9E0DE01159614
:103D000001900D928A95E1F78091420990914309C3
:103D10009C838B8381E892E09A83898340E050E022
:103D2000BE016F5F7F4F83E793E00E942257CE0171
:103D300001960E945496EEE8F2E084918F010F5FA5
:103D40001F4F882311F40C94672E0E94E439F80168
:103D5000F4CF0E94E4920C94672E1092E408109223
:103D6000E5080C94672E803209F410823196808128
:103D70008111F9CF40E061E080912F0F9091300FD9
:103D80000E94A78F0C94672E19821A821B821C82B4
:103D900018A219A21AA21BA28091000C882341F03C
:103DA00040E0BE016F5F7F4FCE0180960E9429994F
:103DB0000E941C5D0E94B7940C94672E0E942836C6
:103DC0000C94672E8091E508882311F40C94672EDB
:103DD00083E50E94523781110C94492F0C94672E71
:103DE0000E9420CF0C94672E8091E508882311F45F
:103DF0000C94672E88E09BE00E949F6588E09BE022
:103E00000E94D1651092E3081092E208E0902F0F13
:103E1000F090300F8091E508882311F40C94672E00
:103E20000E94E25AFE0131966F01CF010E94BBA1B0
:103E300080E499E09093600980935F09D7018C91A9
:103E40008F3209F060C06FE270E0C7010E9456F83F
:103E50008C010F5F1F4F09F45CC06FE270E0C80176
:103E60000E9456F85C01009709F454C0081719071E
:103E700008F050C04C01801A910AA401B801CE018B
:103E800080960E947FF8E0E2F0E0EC0FFD1FE80D65
:103E9000F91D10828E01005E1F4FF80181918F0184
:103EA000882319F00E94E439F8CF8AE00E94E439AF
:103EB00060915F09709160096115710511F06C5F87
:103EC0007F4F21E0AE01405E5F4FCE0105960E941C
:103ED000736B811112C0BE01605E7F4F84ED92E072
:103EE0000E94C64C8EE20E94E4398AE00E94E439C6
:103EF000C6010E9454960C94672ED0926009C0921D
:103F00005F098501A6CF81E699E0909360098093CF
:103F10005F09870160915F09709160096115710502
:103F200011F06C5F7F4F18A21BA222E0A801CE0106
:103F300080960E94736B811102C0F12C14C0CE01D7
:103F400080960E9490568823C1F361E0CE0180964E
:103F50000E948365009789F325EEDC012C931BA258
:103F60000E94C5A1F82ECE0180960E94CD37FF2079
:103F700019F1EEEAF2E084917F01BFEFEB1AFB0A40
:103F8000882321F00E94E439F701F5CFF8018191EF
:103F90008F01882319F00E94E439F8CF8AE00E944B
:103FA000E43910923C0910923D0910923E0910929A
:103FB0003F090E94A85918C0ECEBF2E084917F0100
:103FC0002FEFE21AF20A882321F00E94E439F70168
:103FD000F5CFD8018D918D01882319F00E94E43925
:103FE000F8CF8EE20E94E439C6010E9454960C94E8
:103FF000672E0E9467BA0C94672E80912F0F9091C4
:10400000300F21E02093E30840E060E00E94A78F9A
:104010000C94672E0E94A3BA0C94672E0E9413BAC8
:104020000C94672E0E9406CF0C94672E8EE40E949B
:104030005237882311F40C94672E0E94C036609387
:10404000D70C7093D80C8093D90C9093DA0C0C9405
:10405000672E83E50E942337882359F083E50E9469
:104060005237882319F00E94D03601C080E0809337
:104070006808E8EDFDE084918F010F5F1F4F8823F2
:1040800021F00E94E439F801F6CFE6EFF2E08491E6
:104090008F010F5F1F4F882321F00E94E439F80140
:1040A000F6CF809168088823A1F188EEC82E82E0BF
:1040B000D82EE12CF12C20E08091680890E00E2CA5
:1040C00002C0959587950A94E2F780FF17C0BB243C
:1040D000B394B20E222319F08CE20E94E439F60167
:1040E00025913491F901849189010F5F1F4F882335
:1040F00021F00E94E4399801F5CF2B2DFFEFEF1A44
:10410000FF0A32E0C30ED11C45E0E416F104A1F62B
:104110000CC0E2EFF2E084918F010F5F1F4F882304
:1041200021F00E94E439F801F6CF8AE00E94E439D8
:104130000C94672E109278020C94672E8DEF92E00B
:104140000E94679683E50E945237882369F00E9497
:10415000D0368D3320F4809366020C94672E8CE366
:10416000809366020C94672EE8EDFDE084918F0148
:104170000F5F1F4F882321F00E94E439F801F6CF2A
:104180004091660250E060E070E086E093E00E94BB
:10419000FEAD8AE00E94E4390C94672E8091680895
:1041A00083FF02C00C94672E83E50E945237882358
:1041B00011F40C94672E0E94F0360E943FF66E3781
:1041C000710514F06DE770E070933B1560933A153C
:1041D0000E9438890C94672E0E94A1B91092D60FC4
:1041E0001092D50F0C9428330E9473B90C94672E4B
:1041F0008091680883FF02C00C94672E60E08BE119
:1042000093E00E9450B583E50E94523768968FAFC5
:10421000689781110C94592F82E50E9452378111C1
:104220000C94592F0C94672E0E9450B90C94672E51
:104230000E9441B90C94672E0E94E1B50C94672E40
:104240000E94CE890E94A9A50E945E9610923F15F9
:1042500010923E1568EE73E080E090E00E94ABB4EF
:104260000E94A9A50E94B03560E088E293E00E9418
:1042700050B50C94672E1092AB030C94672E81E01E
:104280008093AB030C94672E83E50E9452378823FA
:10429000A1F00E94F03620E030E04AE754E40E94AA
:1042A00049F10E9444F6609367027093680280931C
:1042B000690290936A020C94672E88E50E94233766
:1042C00081110C94C03089E50E94233781110C9430
:1042D000C0308AE50E94233781110C94C03085E4F8
:1042E0000E94233781110C94C0300E94A9A50E941E
:1042F0005E960C94672E83E50E942337882311F481
:104300000C94672E0E94F03620E030E04AE754E437
:104310000E9449F10E9444F66093C10F7093C20F4E
:104320008093C30F9093C40F0C94672E19E7C12E8E
:1043300012E0D12E08E6E02E05E1F02E10E0D601C5
:104340008D916D010E942337882309F46DC01330CD
:1043500009F063C00E94F0364B015C0120E030E0C0
:1043600040EA51E40E94E4F087FF4EC0A5019401A9
:1043700060917415709175158091761590917715EF
:104380000E94D7F52B013C019B01AC0160914A0CC6
:1043900070914B0C80914C0C90914D0C0E9449F106
:1043A00060934A0C70934B0C80934C0C90934D0C83
:1043B000A3019201609190157091911580919215D1
:1043C000909193150E9449F1609390157093911507
:1043D00080939215909393156091570870915808A7
:1043E0008091590890915A080E94E8F0A301920127
:1043F0000E9449F10E9444F6609357087093580850
:104400008093590890935A0880927415909275156C
:10441000A0927615B092771507C00E94F036F7018A
:1044200060837183828393831F5FF4E0EF0EF11C3E
:10443000143009F084CF0E944B4E0C94672EECEEA2
:10444000F3E084918F010F5F1F4F882321F00E94BA
:10445000E439F801F6CF60E08CED93E00E946AB693
:1044600061E085ED93E00E946AB661E08AEC93E03A
:104470000E946AB661E08AEB93E00E946AB660E04F
:1044800081EB93E00E946AB661E087EA93E00E94C4
:104490006AB660E08DE993E00E946AB660E085E963
:1044A00093E00E946AB660E087E893E00E946AB6F3
:1044B00060E089E793E00E946AB660E08AE693E0F4
:1044C0000E946AB661E08CE593E00E946AB661E002
:1044D00086E493E00E946AB660E085E393E00E9480
:1044E0006AB60C94672E85E40E945237882319F02F
:1044F0000E94E13603C085E40E942337882361F0DF
:10450000E8EDFDE084918F010F5F1F4F882321F0BC
:104510000E94E439F801F6CF81E40E9452378823E3
:1045200019F00E94E13603C081E40E9423378823FA
:1045300061F0E1EBF4E084918F010F5F1F4F88235E
:1045400021F00E94E439F801F6CF00912F0F10916D
:10455000300FD8018D918D01882309F4E6CD0E949A
:10456000E439F7CFEDECF4E084918F010F5F1F4F3A
:10457000882321F00E94E439F801F6CFE5ECF4E05D
:1045800084918F010F5F1F4F882321F00E94E4392F
:10459000F801F6CF029B03C00BEE12E002C000EF61
:1045A00012E0F80181918F01882319F00E94E4390B
:1045B000F8CF8AE00E94E439EDEBF4E084918F01BA
:1045C0000F5F1F4F882321F00E94E439F801F6CFD6
:1045D000069B03C00BEE12E002C000EF12E0D80110
:1045E0008D918D01882319F00E94E439F8CF8AE07B
:1045F0000E94E439E5EBF4E084918F010F5F1F4FD7
:10460000882321F00E94E439F801F6CF379B03C0DC
:104610000BEE12E002C000EF12E0F80181918F0171
:10462000882309F482CD0E94E439F7CF81E080939A
:10463000B5088093B4080C94672E83E50E94523726
:10464000882319F00E94C03602C060E070E08B0140
:10465000112702301105D4F0EFE1F7E184918F01C9
:104660000F5F1F4F882321F00E94E439F801F6CF35
:10467000E7EEF4E084918F010F5F1F4F882311F460
:104680000C94672E0E94E439F801F4CF88E40E946C
:1046900052378823A1F00E94C0366A3A710534F07F
:1046A0006B3F71052CF06AEF70E002C06AEA70E0BF
:1046B000F801EE0FFF1FE552F44F7183608386E42B
:1046C0000E9452378823A9F00E94C036F801EE0FED
:1046D000FF1FE152F44F718360836F3F710519F042
:1046E00014F06FEF70E077FF02C060E070E071835C
:1046F000608382E40E945237882311F40C94672E61
:104700000E94C0366530710534F06F3671052CF0AB
:104710006EE670E002C065E070E0000F111FF80166
:10472000E952F44F718360830C94672E88EC90E01B
:104730000E94FB3C81110C94672E84E40E94233775
:104740008823C1F10E94F03611E020E030E0A90199
:104750000E94E4F0811101C010E01093530C11236A
:1047600049F10E94F036E091750C24E0E29FF001DF
:104770001124E15BF34F608371838283938320E094
:1047800030E0A90160914F0C7091500C8091510C58
:104790009091520C0E94E4F081110CC080E090E0F6
:1047A000A0EEBFE380934F0C9093500CA093510C5C
:1047B000B093520C0E94EB3D0C94672E64E9E62EF8
:1047C00065E1F62E09E712E074E0D72ED00ED8018D
:1047D0008D918D010E942337882349F00E94F03685
:1047E0000E9444F6F7016083718382839383F4E02F
:1047F000EF0EF11CD012EBCF0E941E4D0C94672ED1
:10480000F4E0EF0EF11CD01611F40C94672ED801D1
:104810008D918D010E942337882391F30E94F036F9
:10482000F7016083718382839383EACF83E50E94DB
:1048300023378823D9F00E94F036AB01BC014093A6
:10484000AC155093AD156093AE157093AF154093B2
:10485000A4155093A5156093A6157093A71583E62C
:1048600095E00E94904C8AE00E94E43980E50E9425
:104870002337882399F00E94F036AB01BC014093A6
:10488000AC155093AD156093AE157093AF1586E4DB
:1048900095E00E94904C8AE00E94E43982E50E94F3
:1048A0002337882399F00E94F036AB01BC01409376
:1048B000A8155093A9156093AA157093AB1587E2BC
:1048C00095E00E94904C8AE00E94E43984E50E94C1
:1048D0002337882311F40C94672E0E94F036AB0125
:1048E000BC014093A4155093A5156093A615709331
:1048F000A71589E095E00E94904C8AE00E94E43977
:104900000C94672E83E50E942337882351F00E9480
:10491000F036609380157093811580938215909383
:10492000831584E50E942337882351F00E94F036D6
:1049300060937C1570937D1580937E1590937F1501
:1049400082E40E942337882351F00E94B03660939E
:104950004708709348088093490890934A0888E56F
:104960000E942337882351F00E94F03660933E0C5A
:1049700070933F0C8093400C9093410C89E50E940A
:104980002337882351F00E94F0366093420C7093D5
:10499000430C8093440C9093450C8AE50E94233786
:1049A000882351F00E94F0366093460C7093470CB8
:1049B0008093480C9093490C85E40E942337882308
:1049C00011F40C94672E0E94F03660934A0C709399
:1049D0004B0C80934C0C90934D0C0C94672EE8ED8F
:1049E000FDE084918F010F5F1F4F882321F00E940B
:1049F000E439F801F6CF83E50E942337882321F0BC
:104A00000E94E13680937702E3EBF5E084918F0119
:104A10000F5F1F4F882321F00E94E439F801F6CF81
:104A200080917702811103C0EFEAF5E002C0EBEA62
:104A3000F5E084918F010F5F1F4F882321F00E94C2
:104A4000E439F801F6CFE3EAF5E084918F010F5FD6
:104A50001F4F882321F00E94E439F801F6CF40E08F
:104A600050E0BA0181EA95E00E94904C40E050E0AD
:104A7000BA018EE995E00E94904C40E050E0BA0106
:104A80008BE995E00E94904CE3E9F5E084918F0179
:104A90000F5F1F4F882321F00E94E439F801F6CF01
:104AA00040E050E06CE573E481E995E00E94904CB1
:104AB00040E050E06CE573E48EE895E00E94904C95
:104AC00040E050E062E873E48BE895E00E94904C8F
:104AD0008AE00E94E4390C94672E83E50E945237E5
:104AE000882311F40C94672E0E94C036709315022F
:104AF000609314020C94672E8DED90E00E94FB3CB5
:104B000081110C94672E83E50E945237882311F49B
:104B10000C94672E0091750C10E00E94C036000FB7
:104B2000111FF801EE5EFD4F718360838091750C5B
:104B300090E08C01000F111F000F111F9801225FE0
:104B40003D4F7901880F991FFC01EE5EFD4F60819A
:104B50007181072E000C880B990B0E94EAF02AE065
:104B600037ED43E25CE30E9449F1F801E759F74F62
:104B700020813181428153810E9449F1D7016D9397
:104B80007D938D939C9313970C94672E80E50E94E0
:104B90002337882311F40C94672E0E94C0366B01D2
:104BA0007C0183E50E945237882321F00E94C036A1
:104BB0008B0102C00FEF1FEFC8010196039710F0A1
:104BC0000C94672ED7FE02C00C94672E9C2DE3EC4C
:104BD000F5E088E28E0F2491921711F40C94672E61
:104BE00031968E13F8CF0C94FF328AE50E9452372B
:104BF00081110C94DF3083E50E94523781110C94AF
:104C0000DF300C94672E83E50E945237882319F019
:104C10000E94C03602C064E071E079A368A380E519
:104C20000E945237882339F00E94C0366938B3E1B8
:104C30007B0730F402C068EE73E07A83698304C0B6
:104C400088E893E19A838983BE01605E7F4FCE013D
:104C500001960E946B940C94672E85E40E94523753
:104C6000811110C080E50E942337882391F00E94B3
:104C7000F0366093CA0B7093CB0B8093CC0B909360
:104C8000CD0B07C00E94D036882361F3EFE1F7E136
:104C900071C089E40E942337882381F00E94F03696
:104CA0002CEA35EC47E25EE30E9449F16093D20BB7
:104CB0007093D30B8093D40B9093D50B84E40E9414
:104CC0002337882381F00E94F0362CEA35EC47E246
:104CD0005EE30E94D7F56093CE0B7093CF0B809369
:104CE000D00B9093D10BE8EDFDE084918F010F5F25
:104CF0001F4F882321F00E94E439F801F6CF40913C
:104D0000CA0B5091CB0B6091CC0B7091CD0B83EF04
:104D100095E00E94904C2CEA35EC47E25EE360910E
:104D2000D20B7091D30B8091D40B9091D50B0E9434
:104D3000D7F5AB01BC018FEE95E00E94734C2CEAD5
:104D400035EC47E25EE36091CE0B7091CF0B809122
:104D5000D00B9091D10B0E9449F1AB01BC018BEEBD
:104D600095E00E94734C8AE00E94E439B0C70E942B
:104D7000E439F80184918F010F5F1F4F8111F7CF44
:104D800002E013E0F80181918F01882309F4CDC975
:104D90000E94E439F7CF80E50E942337882351F041
:104DA0000E94F0366093690C70936A0C80936B0CD0
:104DB00090936C0C89E40E942337882381F00E9431
:104DC000F0362CEA35EC47E25EE30E9449F160934D
:104DD000650C7093660C8093670C9093680C84E468
:104DE0000E942337882381F00E94F0362CEA35ECAC
:104DF00047E25EE30E94D7F56093610C7093620C0A
:104E00008093630C9093640CE8EDFDE084918F0136
:104E10000F5F1F4F882321F00E94E439F801F6CF7D
:104E20004091690C50916A0C60916B0C70916C0C04
:104E30008FEF95E00E94904C2CEA35EC47E25EE360
:104E40006091650C7091660C8091670C9091680C74
:104E50000E94D7F5AB01BC018BEF95E00E94734C2B
:104E60002CEA35EC47E25EE36091610C7091620CD4
:104E70008091630C9091640C0E9449F1AB01BC01DC
:104E800087EF95E00E94734C8AE00E94E4391FC7C7
:104E900083E50E942337182F882371F00E94F03693
:104EA0000E943FF6709371026093700221E0672BBD
:104EB00009F020E02093DE1480E50E942337882348
:104EC00059F02091700230917102232B11F00E9451
:104ED000E1368093DE14FBC61111F9C6E8EDFDE062
:104EE00084918F010F5F1F4F882321F00E94E439C6
:104EF000F801F6CF8091DE14811103C06AEF72E0F1
:104F000002C06DEE72E088E196E00E94C64C6091AE
:104F100070027091710287E096E00E94AD4CE3E070
:104F2000F6E084918F010F5F1F4F882309F4CFC6ED
:104F30000E94E439F801F5CF85E40E9452378823B6
:104F400021F00E94C0367B0102C0E12CF12C83E4E9
:104F50000E945237882341F00E94C036CB57DF4F62
:104F60006883C558D04006C045E0CB57DF4F488323
:104F7000C558D04085E50E945237882319F00E9419
:104F8000E13603C085E50E942337CF56DF4F888383
:104F9000C159D040F7FC07C0812C912C86E1A82E86
:104FA00083E4B82E06C0812C912C0CE8A02E02E4DC
:104FB000B02E83E50E945237882321F00E94F036FC
:104FC0004B015C01E114F10411F41092750C289668
:104FD000EFAE28970E9468B02B013C0128965FAD88
:104FE000289757FD02C00CE301C004EB61E06E0D91
:104FF000623028F413E1E12E13E0F12E0BC006E23B
:1050000013E0D8018D918D01882309F48EC80E9488
:10501000E439F7CFF70181917F01882319F00E94CD
:10502000E439F8CF8AE00E94E4390E94CE892896BC
:10503000FFAD2897F7FF04C08FE78093740C0AC078
:1050400028962FAD2897E22F220FFF0BED58F34F34
:105050008FE78083C501B4010E943FF6072E000C44
:10506000880B990B0E94EAF060966FAF6097649688
:105070007FAF64976C968FAF6C97A0969FAFA09709
:10508000A02F000FBB0B28EE33E00E940AF8CE568B
:10509000DF4F688379838A839B83C259D040DC01C8
:1050A000CB01840D951DA61DB71DC256DF4F888309
:1050B0009983AA83BB83CE59D04081E08093780244
:1050C000C757DF4F488259826A827B82C958D040D5
:1050D000CA56DF4F488259826A827B82C659D040C5
:1050E000C857DF4F1882C858D040C656DF4F1882C5
:1050F00019821A821B82CA59D040E8961FAEE897DF
:1051000090E4EC969FAFEC97ACE1E096AFAFE09700
:10511000B6E4E496BFAFE497C158DF4F1882CF578B
:10512000D040C058DF4F1882C058D040CF57DF4F13
:105130001882C158D040CE57DF4F1882C258D04095
:10514000AF961CAE1DAE1EAE1FAEAF97AB961CAE9B
:105150001DAE1EAE1FAEAB97C12CD12C7601AFE7B2
:105160008A2E912CA12CB12C2FE730E040E050E0AA
:105170006B962CAF3DAF4EAF5FAF6B97C357DF4F12
:10518000188219821A821B82CD58D04031E0C9574B
:10519000DF4F3883C758D040A5961FAE1EAEA597E7
:1051A00010E0212C312C00E028964FAD2897842F59
:1051B000440F990BDC01AD58B34FCE55DF4FB98387
:1051C000A883C25AD040880F991F880F991FFC01ED
:1051D000E652FB4ECD57DF4FF983E883C358D040EA
:1051E000CB57DF4F2881C558D040022E000C330B1F
:1051F000CB57DF4F39832883C558D0408091780240
:10520000882309F446C10E9468B02F966CAF7DAF29
:105210008EAF9FAF2F978091710C882309F415C131
:105220000E948D8A28963FAD289737FF09C01091BC
:105230000F0C2090100C3090110C0091120C0FC02C
:10524000CD57DF4FA881B981C358D0401C9111962A
:105250002C90119712963C90129713960C91212F37
:10526000322D432D502FC158DF4F6881CF57D0408A
:10527000C058DF4F7881C058D040CF57DF4F88816A
:10528000C158D040CE57DF4F9881C258D0400E94BD
:10529000E4F087FF14C0C158DF4F1883CF57D040C8
:1052A000C058DF4F2882C058D040CF57DF4F3882D8
:1052B000C158D040CE57DF4F0883C258D040212F6D
:1052C000322D432D502FE8966FADE897EC967FADC9
:1052D000EC97E0968FADE097E4969FADE4970E943F
:1052E00021F7181664F4E8961FAFE897EC962FAEF6
:1052F000EC97E0963FAEE097E4960FAFE497C9577E
:10530000DF4FB881C758D04060962FAD6097649644
:105310003FAD64976C964FAD6C97A0965FADA0972C
:10532000612F722D832D902FBB2309F470C00E9432
:1053300021F718160CF089C02F964CAD5DAD6EADFF
:105340007FAD2F974419550966097709DB01CA011A
:1053500088589341A109B109B7FD77C06B968CAD10
:105360009DADAEADBFAD6B9788199909AA09BB0970
:105370002896EFAD2897B595A79597958795E7FF60
:1053800003C08093740C07C0CE55DF4FE881F981CC
:10539000C25AD0408083C357DF4F488359836A8302
:1053A0007B83CD58D0406096FFAD6097C158DF4FEA
:1053B000F883CF57D04064962FAD6497C058DF4F25
:1053C0002883C058D0406C963FAD6C97CF57DF4FC5
:1053D0003883C158D040A0964FADA097CE57DF4F2D
:1053E0004883C258D0402F968CAD9DADAEADBFADB9
:1053F0002F97C757DF4F88839983AA83BB83C958E8
:10540000D040C957DF4F1882C758D0401EC00E94F5
:10541000E4F087FF1AC02F968CAD9DADAEADBFAD49
:105420002F97C757DF4F288139814A815B81C9583F
:10543000D040821B930BA40BB50BAC01BD014858A7
:1054400053416109710977FFF3C620E030E040EA7B
:1054500051E460966FAD609764967FAD64976C96EB
:105460008FAD6C97A0969FADA0970E94FBF49B0117
:10547000AC01612F722D832D902F0E9421F71816F9
:105480007CF4E6E2F7E084918F010F5F1F4F8111FA
:1054900003C00E94CE891BC40E94E439F801F3CFF7
:1054A0002F968CAD9DADAEADBFAD2F97CA56DF4FD9
:1054B000288139814A815B81C659D040821B930B78
:1054C000A40BB50BB7FDC1C00E94AC888AE00E9456
:1054D000E4392F968CAD9DADAEADBFAD2F97805307
:1054E000984FAF4FBF4FCA56DF4F88839983AA8327
:1054F000BB83C659D040C857DF4F9881C858D040A9
:1055000091117EC0C656DF4F288139814A815B8167
:10551000CA59D040612F722D832D902F0E9421F700
:1055200018160CF054C020E030E040EC50E46096D7
:105530006FAD609764967FAD64976C968FAD6C97F6
:10554000A0969FADA0970E94FAF49B01AC01A1E048
:10555000C857DF4FA883C858D040612F722D832DC4
:10556000902F0E9421F718162CF0C857DF4F188291
:10557000C858D04020E030E040E050E4612F722D68
:10558000832D902F0E94FBF4C656DF4F68837983EA
:105590008A839B83CA59D0402F962CAD3DAD4EAD2A
:1055A0005FAD2F97CE56DF4F88819981AA81BB814D
:1055B000C259D040280F391F4A1F5B1FC256DF4F08
:1055C000288339834A835B83CE59D0403EC02F96CF
:1055D0008CAD9DADAEADBFAD2F97C256DF4F2881CC
:1055E00039814A815B81CE59D040821B930BA40B39
:1055F000B50BB7FD2AC048E057E067E177E020C06F
:1056000020E030E040EA51E460966FAD6097649628
:105610007FAD64976C968FAD6C97A0969FADA09769
:105620000E94FAF49B01AC01612F722D832D902F03
:105630000E94E4F087FF09C048EE56E068EF76E08C
:1056400028968FAD28970E94AF8A2F968CAD9DAD7E
:10565000AEADBFAD2F97880F991FAA1FBB1FC757AD
:10566000DF4F288139814A815B81C958D040821B34
:10567000930BA40BB50B84199509A609B7098138BA
:105680009F44A241B10568F0EAECF6E084918F01F5
:105690000F5F1F4F882309F4FCCE0E94E439F80104
:1056A000F5CFA5964EAD5FADA597CB57DF4F88815F
:1056B0009981C558D040841795070CF0B7C0EDE626
:1056C000F6E084918F010F5F1F4F882321F00E9425
:1056D000E439F801F6CF28969FAD289797FD03C0CF
:1056E00003E713E002C00EEF12E0B8018BE596E08D
:1056F0000E94C64CB701A60187E596E00E94904C37
:105700008AE00E94E439B80185E496E00E94C64C24
:10571000AB964CAD5DAD6EAD7FADAB9781E496E0E1
:105720000E94904C8AE00E94E439B8018FE296E032
:105730000E94C64CAF964CAD5DAD6EAD7FADAF97E0
:105740008BE296E00E94904C8AE00E94E439CF56AA
:10575000DF4FA881C159D040AA2309F4B8C22896C6
:10576000BFAD2897B7FF31C0C092690CD0926A0CC8
:10577000E0926B0CF0926C0C2CEA35EC47E25EE3A5
:10578000AB966CAD7DAD8EAD9FADAB970E9449F1F0
:105790006093650C7093660C8093670C9093680C13
:1057A0002CEA35EC47E25EE3AF966CAD7DAD8EAD95
:1057B0009FADAF970E94D7F56093610C7093620C18
:1057C0008093630C9093640C82C2C092CA0BD092F7
:1057D000CB0BE092CC0BF092CD0B2CEA35EC47E2F0
:1057E0005EE3AB966CAD7DAD8EAD9FADAB970E9489
:1057F00049F16093D20B7093D30B8093D40B9093A9
:10580000D50B2CEA35EC47E25EE3AF966CAD7DAD8F
:105810008EAD9FADAF970E94D7F56093CE0B70937E
:10582000CF0B8093D00B9093D10B51C20E94E2CA50
:10583000E5CC0E94A9A54BC210924E0C48C20E9412
:105840009A9C45C20E9467C142C283E50E942337E9
:10585000882321F00E94E13691E089270E94ADBCA7
:1058600036C280E090E0A0E4B0E489839A83AB8301
:10587000BC838D839E83AF83B88780E090E0A0E2F5
:10588000B1E489879A87AB87BC870E942ACE882398
:1058900019F081E00E94303885E40E942337882384
:1058A00019F00E94F03604C060E070E080E090ECF7
:1058B00027966CAF7DAF8EAF9FAF27978AE50E948A
:1058C0005237882379F08AE50E945237882319F0ED
:1058D0000E94F03603C060E070E0CB0169877A87F0
:1058E0008B879C8788E50E945237882379F088E56A
:1058F0000E945237882319F00E94F03603C060E0FE
:1059000070E0CB0169837A838B839C8389E50E9455
:105910005237882379F089E50E945237882319F09D
:105920000E94F03603C060E070E0CB016D837E839F
:105930008F83988785E50E942337882319F00E947A
:10594000F03604C060E070E088EC93EC23966CAF16
:105950007DAF8EAF9FAF23978CE40E9423378823BF
:1059600019F00E94F03604C060E070E088EC93E427
:105970006BAF7CAF8DAF9EAF82E40E94523788231D
:1059800021F00E94C036162F01C015E0E090D40827
:10599000F090D5088091000C811177C001E0212F93
:1059A000AE01415C5F4FBE016F5F7F4FCE018D5BEB
:1059B0009F4F0E94616C882309F467C083E090E0E8
:1059C0009093D60F8093D50F81E080930715809137
:1059D0000715882309F43FC060E0812F3AD78091F2
:1059E00075088823A1F188E090E00E94F37580910A
:1059F0000715882321F081E00E94B896F8CF109215
:105A00006D0C10926E0C10926F0C1092700C109224
:105A100075080E948389C5D682E090E00E94F375E4
:105A20000E9468B0DC01CB0188539045AF4FBF4F57
:105A300080936D0C90936E0CA0936F0CB093700CD0
:105A4000109275080093071561E0812F02D781E05D
:105A50000E94B896BCCF81E090E09093D60F8093DF
:105A6000D50F80E090E0A8E4B2E488A399A3AAA3AC
:105A7000BBA38091000C882341F0412FBE01605EE2
:105A80007F4FCE01CB960E942999EA94EF2809F026
:105A90001EC10E94B7941BC180E50E945237882323
:105AA00031F00E94D0368093270411E001C010E04D
:105AB00083E50E945237882329F00E94E1368093C3
:105AC000280401C011110E9473B5E8EDFDE0849136
:105AD0008F010F5F1F4F882321F00E94E439F801E6
