:100000000C9493150C94C4150C94C4150C94C4153D
:100010000C94C4150C94C4150C94C4150C94C415FC
:100020000C94C4150C94C4150C94C4150C94C415EC
:100030000C94C4150C94C4150C94C4150C94C415DC
:100040000C94C4150C94AE690C94C4150C94C4158E
:100050000C94C4150C94C4150C945D480C942EC1DA
:100060000C94C4150C945E950C94C4150C94C41592
:100070000C94C4150C94C4150C94C4150C94C4159C
:100080000C94C4150C94C4150C94C4150C94C4158C
:100090000C94C4150C94C4150C94C4150C94C4157C
:1000A0000C94C4150C94C4150C94C4150C94C4156C
:1000B0000C94C4150C94C4150C94C4150C94C4155C
:1000C0000C94C4150C94C4150C94C4150C94C4154C
:1000D0000C94C4150C94C4150C94C4150C94C4153C
:1000E0000C94C415084AD73B3BCE016E84BCBFFDBF
:1000F000C12F3D6C74319ABD56833DDA3D00C77FF8
:1001000011BED9E4BB4C3E916BAAAABE0000008090
:100110003F05A84CCDB2D44EB93836A9020C50B91F
:10012000918688083CA6AAAA2ABE000000803F004B
:100130000C94D5440C9402CA0C94D4BD0C9441B3D5
:100140000C94502F0C949DBD0C9407D10C945439F1
:100150000C946DB30C9490720C94CB620C9435C4D7
:100160000C94432A0C94C53C0C94F3CD0C94D13AD6
:100170000C9461BB0C947FE20C9476D40C94C6155D
:100180000C944E390C9403CF0C947EE00C9481BDFA
:100190000C94652D0C946FBD0C942BC40C94ACD3B3
:1001A0000C94E1B20C943EB30C94D6CC0C945B2826
:1001B0000C94E8BD0C9420D00C944BB30C94A7BDC8
:1001C0000C9452500C945A390C94C8620C94F84414
:1001D0000C9493360C94B6BD0C94C0BD0C948DD287
:1001E0000C9461720C94EED10C9461280C94DEBDD9
:1001F0000C9447B30C9463B30C9467280C945BBDC8
:100200000C94185F0C9460390C9479BD0C94D73A17
:100210000C944EBD0C9465BD0C942CB30C942C52D4
:100220000C94614F0C945FB30C948BCF0C94973F5C
:100230000C9441170C94CABD0C9436B30C9467B35C
:100240000C949DE20C9455280C9460720C94EF3041
:100250000C9489BD0C943AB30C94E1C80C94AF286B
:100260000C946CB30C94F8C90C94C53A0C940A54D1
:100270000C94BF5F0C944ECC0C9440160C949CB81C
:100280000C9451B30C94F4150C9455B30C943F1783
:100290000C9495320C94DCCB0C947BCE0C9432B342
:1002A0000C9490C50C94CE3B0C9453680C945ECD8A
:1002B0000C94DD150C9459B30C9493BD0C943E3DF5
:1002C0000C9448390C94CB3A0C941CC70C9471B321
:1002D0000C94337B0C942CC20C94402B0C9456BD84
:1002E0000C94D7C44E414E494E495459494E46CDBF
:1002F000CCCC3D0AD7233C17B7D13877CC2B3295DD
:1003000095E6241FB14F0A000020410000C84200BA
:10031000401C4620BCBE4CCA1B0E5AAEC59D74295B
:100320000A002062797465733B2063726320005376
:10033000657474696E67732053746F7265642028E6
:1003400000446F776E0A00290A5772697465206647
:10035000696C65206E616D6520416D69743A20009D
:100360002062797465733B206372632000506F775D
:1003700065726F66662053746F726564202800444E
:100380006F776E0020213D200063726320657272DA
:100390006F723A20000A726561642066696C65209C
:1003A0006E616D653A2000290A7265616420666994
:1003B0006C65206469723A20002062797465733B31
:1003C000206372632000706F7765726F66662073BA
:1003D000746F7265642073657474696E67732072DC
:1003E0006574726965766564202800202863616CF5
:1003F00063756C6174656429210A0020213D200029
:10040000454550524F4D20435243206D69736D61F5
:10041000746368202D202873746F7265642920002E
:10042000290A002062797465733B2063726320009F
:100430002073746F7265642073657474696E67737A
:1004400020726574726965766564202800204D61AC
:10045000726C696E3D563131290A0028454550526B
:100460004F4D3D00454550524F4D207665727369A2
:100470006F6E206D69736D617463682000486172EE
:1004800064636F6465642044656661756C742053B1
:10049000657474696E6773204C6F616465640A00EB
:1004A000F4010000F401000064000000E803000013
:1004B0000000FA430000FA430000A0400000C841D9
:1004C0000000A0420000A0420000C8430000BA4261
:1004D00020440020490020204D333034205000209B
:1004E000440020490020204D333031205000504935
:1004F000442073657474696E67733A0A002046007D
:1005000020420020480020204D3134352053004D3A
:100510006174657269616C206865617475702070C2
:100520006172616D65746572733A0A00204500203E
:100530005A0020590020580020420020540020205A
:100540004D323035205300416476616E6365643A04
:1005500020533C6D696E5F66656564726174653ECB
:1005600020543C6D696E5F74726176656C5F666580
:100570006564726174653E20423C6D696E5F7365AF
:10058000676D656E745F74696D655F75733E205845
:100590003C6D61785F78795F6A65726B3E205A3C8A
:1005A0006D61785F7A5F6A65726B3E20453C6D6174
:1005B000785F655F6A65726B3E0A002054002052C6
:1005C0000020204D323034205000416363656C655B
:1005D000726174696F6E2028756E6974732F73323F
:1005E000293A20503C7072696E745F616363656C78
:1005F0003E20523C726574726163745F616363652F
:100600006C3E20543C74726176656C5F6163636517
:100610006C3E0A00204500205A0020590020204D41
:100620003230312058004D6178696D756D2041631D
:1006300063656C65726174696F6E2028756E69748C
:10064000732F7332293A0A00204500205A0020599E
:100650000020204D3230332058004D6178696D758F
:100660006D206665656472617465732028756E69B6
:1006700074732F73293A0A00204500205A0020592C
:100680000020204D3932205800537465707320705B
:10069000657220756E69743A0A0020204D32303040
:1006A0002044300A0020204D3230302044002044C5
:1006B000697361626C65640A0046696C616D656EA0
:1006C000742073657474696E67733A0020204D312D
:1006D00034392043203B20556E69747320696E20A5
:1006E00043656C736975730A0020204732312020FE
:1006F00020203B20556E69747320696E206D6D0A51
:100700000020746F6F206C6F6E672065787472754F
:1007100073696F6E2070726576656E7465640A0029
:1007200020636F6C6420657874727573696F6E20D6
:1007300070726576656E7465640A0024F4D4305076
:10074000C38E20C2A24017828B7011127A910D8144
:100750006CD90AA861E108C7586607615143061EB3
:100760004B5D05C145A7041A411104093D98037169
:100770003931034036DB0265339102D430540280B4
:100780002E1D02632CEE01752AC501B028A00110B0
:100790002781018F2564012B244B01E0223401AC19
:1007A000211F018D200D01801FFC00841EED00978C
:1007B0001DDF00B81CD200E61BC600201BBC006475
:1007C0001AB200B219A8000A19A0006A189900D13B
:1007D00017910040178B00B516840031167E00B3C8
:1007E0001579003A157300C7146F0058146A00EEAB
:1007F0001366008813630025135E00C7125B006C4C
:1008000012570015125400C111510070114F0021F0
:10081000114B00D61049008D1047004610440002CD
:10082000104200C00F4000800F3E00420F3C000607
:100830000F3B00CB0E3800930E37005C0E350027BF
:100840000E3400F30D3200C10D3100900D30006008
:100850000D2E00320D2D00050D2C00D90C2B00AEF5
:100860000C2900850C29005C0C2700350C27000E94
:100870000C2600E80B2400C40B2400A00B23007DF1
:100880000B23005A0B2100390B2100180B2000F814
:100890000A1F00D90A1E00BB0A1E009D0A1D008007
:1008A0000A1D00630A1C00470A1B002C0A1B0011CA
:1008B0000A1A00F7091A00DD091900C4091900AB6A
:1008C000091900920917007B091800630917004CE9
:1008D00009160036091600200916000A091500F548
:1008E000081500E0081400CC081400B8081400A48F
:1008F000081400900813007D0812006B08130058BC
:1009000008120046081200340811002308110012D2
:1009100008110001081100F0071000E0071000D0D6
:10092000071000C0071000B0070F00A107100091CA
:10093000070E0083070F0074070F0065070E0057AE
:10094000070E0049070E003B070D002E070E002082
:10095000070D0013070D0006070D00F9060C00ED4A
:10096000060D00E0060C00D4060C00C8060C00BC06
:10097000060C00B0060C00A4060B0099060C008DB6
:10098000060B0082060B0077060B006C060B00615D
:10099000060A0057060B004C060A0042060A0038F9
:1009A000060A002E060A0024060A001A060A00108B
:1009B00006090007060A00FD050900F4050900EB19
:1009C000050900E2050900D9050900D0050900C79D
:1009D000050900BE050900B5050800AD050800A51C
:1009E0000509009C050800940508008C0508008492
:1009F0000508007C050800740508006C0507006503
:100A00000508005D050700560508004E050700476C
:100A10000507004005080038050700310507002AD2
:100A2000050700230507001C050600160507000F33
:100A30000507000805060002050700FB040600F58F
:100A4000040700EE040600E8040600E2040700DBE9
:100A5000040600D5040600CF040600C9040600C33E
:100A6000040600BD040600B7040600B1040500AC8E
:100A7000040600A6040600A00405009B04060095D9
:100A8000040500900406008A040500850405008022
:100A90000406007A04050075040500700405006B67
:100AA00004050066040500610405005C04050057A8
:100AB000040500520405004D0405004804050043E8
:100AC0000405003E0404003A040500350405003026
:100AD0000404002C04050027040400230405001E60
:100AE0000404001A04040016040500110404000D97
:100AF000040400090405000404040000040400FCCC
:100B0000030400F8030400F4030400F0030400EC01
:100B1000030400E8030400E4030400E0030400DC31
:100B2000030400D8030400D4030400D0030400CC61
:100B3000030400C8030300C503030024F404D92000
:100B40001BC40C5C0E9804C4095F0265077101F4B4
:100B500005F900FB04B30048048700C1036900588D
:100B600003550003034500BE023A008402310053DE
:100B7000022A002902250004022000E4011C00C80A
:100B8000011900AF011700980114008401130071CE
:100B90000110006101100051010E0043010D0036EB
:100BA000010B002B010B0020010B00150109000CAB
:100BB00001090003010800FB000800F3000800EB36
:100BC000000700E4000600DE000600D8000600D2A0
:100BD000000600CC000500C7000500C2000500BDEE
:100BE000000400B9000400B5000400B1000400AD29
:100BF000000400A9000400A5000300A20003009F58
:100C00000004009B0003009800030095000200937D
:100C1000000300900003008D0002008B0003008899
:100C20000002008600020084000300810002007FB1
:100C30000002007D0002007B0002007900020077C4
:100C400000010076000200740002007200010071D1
:100C50000002006F0002006D0001006C0002006ADB
:100C600000010069000200670001006600010065E4
:100C700000010064000200620001006100010060E8
:100C80000001005F0002005D0001005C0001005BEC
:100C90000001005A000100590001005800010057EE
:100CA00000010056000100550001005400010053EE
:100CB00000000053000100520001005100010050EB
:100CC0000001004F0001004E0000004E0001004DE9
:100CD0000001004C0001004B0000004B0001004AE5
:100CE00000010049000100480000004800010047E1
:100CF00000010046000000460001004500000045DC
:100D000000010044000100430000004300010042D4
:100D100000000042000100410000004100010040CD
:100D20000001003F0000003F0001003E0000003EC7
:100D30000001003D0000003D0001003C0000003CBF
:100D40000000003C0001003B0000003B0001003AB5
:100D50000000003A000100390000003900010038AD
:100D600000000038000000380001003700000037A4
:100D7000000100360000003600000036000100359A
:100D80000000003500000035000100340000003490
:100D90000000003400010033000000330000003385
:100DA000000100320000003200000032000100317A
:100DB0000000003100000031000100300000003070
:100DC000000000300001002F0000002F0000002F65
:100DD0000000002F0001002E0000002E0000002E59
:100DE0000001002D0000002D0000002D0000002D4E
:100DF0000001002C0000002C0000002C0000002C42
:100E00000001002B0000002B0000002B0000002B35
:100E10000001002A0000002A0000002A0000002A29
:100E2000000100290000002900000029000000291D
:100E30000000002900010028000000280000002810
:100E40000000002800000028000100270000002703
:100E500000000027000000270000002700010026F6
:100E600000000026000000260000002600000026EA
:100E700000010025000000250000002500000025DD
:100E800000000025000000250001002400000024CF
:100E900000000024000000240000002400010023C2
:100EA00000000023000000230000002300000023B6
:100EB00000000023000000230001002200000022A7
:100EC000000000220000002200000022000000229A
:100ED000000100210000002100000021000000218D
:100EE000000000210000002100000021000100207E
:100EF0000000002000000020000000200000002072
:100F00000000002000000020000000200001001F61
:100F10000000001F0000001F0000001F0000001F55
:100F20000000001F0000001F0001001E0000001E46
:100F30000000001E0000001E0000004D3834205844
:100F40002059205A2045005A25752C45256C752CB2
:100F500050256C752C5425752C4225752C004D613F
:100F6000676E6120312072656164792E004D616782
:100F70006E6120312072656164792E004572723A8B
:100F80004E6F2046696C616D656E74006265640A1F
:100F9000002C2073797374656D2073746F707065A5
:100FA0006421204865617465725F49443A200048B5
:100FB000656174696E67206661696C656400486587
:100FC0006174696E67206661696C6564004865617B
:100FD00074696E67206661696C6564004865617458
:100FE000696E67206661696C65640070012C019010
:100FF000012701B0012201C0011D01F001180110FB
:1010000002130130020E016002090190020401C0C6
:1010100002FF000003FA004003F5008003F000D057
:1010200003EB002004E6007004E100E004DC004073
:1010300005D700C005D2004006CD00D006C800800C
:1010400007C3003008BE00F008B900C009B400B002
:101050000AAF00B00BAA00D00CA500000EA00050F3
:101060000F9B00C01096005012910000148C00C01D
:10107000158700B0178200B0197D00D01B780000E2
:101080001E730040206E0090226900F0246400402E
:10109000275F0090295A00E02B5500102E500020A9
:1010A000304B0010324600E033410090353C0010D8
:1010B00037370070383200A0392D00B03A2800A030
:1010C0003B2300603C1E00103D1900903D140010B1
:1010D0003E0F00703E0A00C03E0500003F00004089
:1010E0003FFBFF803FF6FFC03FF1FF4572723A20A1
:1010F0004D494E54454D5020424544004572723A88
:10110000204D494E54454D50004D494E54454D508B
:1011100020747269676765726564004572723A206F
:101120004D415854454D5020424544004572723A55
:10113000204D415854454D50004D415854454D5057
:101140002074726967676572656400202F00204211
:10115000403A0020403A00001C1F11111F000000FF
:1011600006191803130C00040E1F041C00000000D5
:101170001010101010100000141414141414000097
:1011800015151515151500000E1315110E00001C70
:1011900010181705060500040A0A0A0A11110E0C98
:1011A00012120C00000000001F1511151F00000096
:1011B000000000010204040000001C1C0C040404D4
:1011C0000201000000000004081000000000004DB3
:1011D00031303420532575004739322045257500BC
:1011E000473932205A25752E2575004D353030008F
:1011F00043616E63656C207072696E740052657332
:10120000756D65207072696E7400506F776572201D
:101210006F75746167650025753A25303275002554
:101220003032753A25303275002D2D2D0053440093
:101230005A00590058005072696E742070617573BD
:101240006564004D31323500002573004D323400A5
:101250005072696E742061626F7274656400473207
:101260003820585900473930004731204631303056
:1012700030205A323000473931004E6F205344201D
:1012800063617264005072696E742066726F6D20C3
:1012900053440053746F70207072696E740052650D
:1012A00073756D65207072696E740041626F75743C
:1012B000205072696E74657200506175736520709C
:1012C00072696E7400436F6E74726F6C0050726559
:1012D000706172650054756E6500496E666F2073AB
:1012E000637265656E004261627973746570205A3D
:1012F000004D363030204230004368616E67652013
:1013000066696C616D656E740042616279737465C3
:1013100070205A00466C6F7700466C6F770046610C
:101320006E2073706565640046616E20737065653C
:10133000640042656400426564004E6F7A7A6C65B1
:10134000004E6F7A7A6C6500537065656400537067
:10135000656564004D61696E005072656865617411
:1013600020504C4120456E64005072656865617480
:1013700020504C412042656400507265686561747C
:1013800020504C410050726570617265005072656A
:10139000686561742041425320456E640050726557
:1013A0006865617420414253204265640050726553
:1013B00068656174204142530050726570617265C6
:1013C000004261636B004E65787420636F726E65D6
:1013D00072005072656865617420504C4100436F23
:1013E0006F6C646F776E004368616E676520666935
:1013F0006C616D656E740050726568656174204142
:1014000042530044697361626C6520737465707047
:10141000657273004D3834004C6576656C20636FDF
:10142000726E657273004175746F20686F6D650030
:10143000473238004D6F76652061786973004D61E1
:10144000696E004D6F76652058004D6F76652059A6
:10145000004D6F7665205A00457874727564657228
:10146000004D6F766520302E316D6D004D6F7665C5
:1014700020316D6D004D6F76652031306D6D004D02
:101480006F7665206178697300486F74656E6420BB
:10149000746F6F20636F6C64004578747275646557
:1014A00072004D6F7665205A004D6F7665205900A9
:1014B0004D6F7665205800457874727564657200CA
:1014C0004D6F7665205A004D6F76652059004D6F3F
:1014D00076652058005072657061726500496E69CA
:1014E0007469616C697A6520454550524F4D0043DF
:1014F0006F6E74726F6C00526573746F72652066E4
:1015000061696C73616665004C6F6164207365741A
:1015100074696E67730053746F72652073657474B9
:10152000696E677300496E697469616C697A6520D8
:10153000454550524F4D0046696C616D656E7400B3
:101540004D6F74696F6E0054656D7065726174756E
:101550007265004D61696E004D3330332055312086
:1015600045256920532569005072656865617420BE
:1015700041425320636F6E66005072656865617406
:1015800020504C4120636F6E6600504944204175E5
:10159000746F74756E6500504944204175746F74A2
:1015A000756E65005049442D44005049442D440057
:1015B0005049442D49005049442D49005049442D7B
:1015C00050005049442D50002002204661637400B1
:1015D00020022046616374002002204D61780020C3
:1015E00002204D6178002002204D696E002002200B
:1015F0004D696E004F6666004F6E20004175746F36
:1016000074656D700046616E207370656564004698
:10161000616E2073706565640042656400426564B4
:10162000004E6F7A7A6C65004E6F7A7A6C65004373
:101630006F6E74726F6C0053746F72652073657493
:1016400074696E67730042656400426564004E6FA2
:101650007A7A6C65004E6F7A7A6C650046616E200E
:1016600073706565640046616E2073706565640023
:1016700054656D706572617475726500565472615F
:1016800076206D696E005654726176206D696E0029
:10169000566D696E00566D696E00566D6178204515
:1016A00000566D6178204500566D6178205A0056CD
:1016B0006D6178205A00566D6178205900566D6131
:1016C00078205900566D6178205800566D61782059
:1016D00058004D6F74696F6E00416D617820450050
:1016E000416D6178204500416D6178205A00416D5F
:1016F0006178205A00416D6178205900416D617810
:10170000205900416D6178205800416D6178205862
:1017100000412D74726176656C00412D74726176A2
:10172000656C00412D7265747261637400412D72A5
:1017300065747261637400416363656C0041636347
:10174000656C004D6F74696F6E0056652D6A657229
:101750006B0056652D6A65726B00567A2D6A65724C
:101760006B00567A2D6A65726B0056792D6A657228
:101770006B0056792D6A65726B0056782D6A65721A
:101780006B0056782D6A65726B004D6F74696F6ED1
:10179000004573746570732F6D6D004573746570CB
:1017A000732F6D6D005A73746570732F6D6D005AD1
:1017B00073746570732F6D6D005973746570732F3A
:1017C0006D6D005973746570732F6D6D005873746F
:1017D0006570732F6D6D005873746570732F6D6D28
:1017E000004D6F74696F6E0053746570732F6D6D6B
:1017F000004A65726B00416363656C657261746970
:101800006F6E0056656C6F6369747900436F6E7418
:10181000726F6C004F6E200052756E6F757420737E
:10182000656E736F72730046696C2E204469612E79
:101830000046696C2E204469612E004F6666004F99
:101840006E20004520696E206D6D33004F66660086
:10185000436F6E74726F6C00434F4D4D554E49434C
:101860004154494F4E0044525952554E0045525230
:101870004F525300494E464F004543484F004B4995
:101880004C4C45442E200053544F505045442E207C
:10189000005072696E7465722073746F7070656445
:1018A0002064756520746F206572726F72732E20CC
:1018B00046697820746865206572726F7220616E67
:1018C0006420757365204D39393920746F20726535
:1018D00073746172742E202854656D706572617422
:1018E0007572652069732072657365742E20536567
:1018F0007420697420616674657220726573746106
:101900007274696E67290A004E6F20436865636BC5
:1019100073756D2077697468206C696E65206E75CB
:101920006D6265722C204C617374204C696E653A4F
:101930002000636865636B73756D206D69736D61FD
:101940007463682C204C617374204C696E653A2076
:10195000004C696E65204E756D626572206973205A
:101960006E6F74204C617374204C696E65204E75E7
:101970006D6265722B312C204C617374204C696E42
:10198000653A20004D313130004D33310047312070
:101990004631303030205830205932313000473213
:1019A0003820585900534420726561642065727272
:1019B0006F720A00446F6E65207072696E74696E92
:1019C000672066696C650A0020496E76616C6964FF
:1019D00020657874727564657220004D313235006F
:1019E00044656C6574696F6E206661696C65642C12
:1019F0002046696C653A200046696C652064656C18
:101A0000657465643A006F70656E206661696C6527
:101A1000642C2046696C653A200048656174696EE3
:101A20006720646F6E652E0020573A0045256920B7
:101A30002573004D61676E612031207265616479A4
:101A40002E00205A3A0020593A0020436F756E74D8
:101A500020583A0020453A00205A3A0020593A00CE
:101A6000583A003A004361703A004B642000236406
:101A70006566696E65202044454641554C545F00BB
:101A80004B69200023646566696E652020444546E5
:101A900041554C545F004B70200023646566696EAD
:101AA00065202044454641554C545F005049442030
:101AB0004175746F74756E652066696E69736865CB
:101AC00064212050757420746865206C61737420E3
:101AD0004B702C204B6920616E64204B6420636F37
:101AE0006E7374616E74732066726F6D2062656CC4
:101AF0006F7720696E746F20436F6E6669677572C9
:101B00006174696F6E2E680A0050494420417574F3
:101B10006F74756E65206661696C656421207469F7
:101B20006D656F75740A00544845524D414C205202
:101B3000554E4157415900546865726D616C205291
:101B4000756E617761790048656174696E672066BA
:101B500061696C65640048656174696E67206661DF
:101B6000696C656400504944204175746F74756EEA
:101B700065206661696C6564212054656D706572CD
:101B8000617475726520746F6F20686967680A00F8
:101B9000204B643A2000204B693A2000204B703AD9
:101BA00020000A20436C617373696320504944200C
:101BB0000A002054753A2000204B753A2000206D11
:101BC00061783A2000206D696E3A200020643A2046
:101BD0000020626961733A200020746F6F206C6F7F
:101BE0006E6720657874727573696F6E20707265A8
:101BF00076656E7465640A0020636F6C6420657896
:101C000074727573696F6E2070726576656E746537
:101C1000640A0054454D5020544F4F204C4F5721DB
:101C20000047322F47332062616420706172616D1A
:101C300065746572730A00536C6565702E2E2E00F4
:101C4000526573756D696E67207072696E74004DB0
:101C500061676E6120312072656164792E00436C8A
:101C600069636B20746F20726573756D652E2E2EFF
:101C7000004E6F206D6F76652E00456E642066699C
:101C80006C65206C6973740A00426567696E206632
:101C9000696C65206C6973740A0025697300256995
:101CA0006D20256973002569682025696D202569E7
:101CB0007300256964202569682025696D202569E0
:101CC00073002569792025696420256968202569C4
:101CD0006D20256973005072696E742074696D659A
:101CE0003A200050726F7465637465642050696EA9
:101CF0000A00452569202573004D61676E6120311A
:101D00002072656164792E006F6666007918741818
:101D10006D186618581844454255473A004B494CCF
:101D20004C45442E20004D3131332053006F6B0061
:101D300042656420646F6E652E0020573A0042654C
:101D4000642048656174696E672E004D61676E613D
:101D50002031204F66662E00454D455247454E4383
:101D6000595F50415253455200434153455F4C49DE
:101D70004748545F4252494748544E4553530054D4
:101D80004F47474C455F4C494748545300534F46D3
:101D900054574152455F504F574552004255494CA8
:101DA000445F50455243454E54004C4556454C49BE
:101DB0004E475F44415441005A5F50524F424500E4
:101DC0004155544F4C4556454C005052494E545F76
:101DD0004A4F420050524F475245535300415554C9
:101DE0004F5245504F52545F54454D5000564F4C42
:101DF000554D455452494300454550524F4D0053AF
:101E0000455249414C5F584F4E5F584F4646004639
:101E100049524D574152455F4E414D453A4D6172D1
:101E20006C696E20312E312E382E3320284769748C
:101E30006875622920534F555243455F434F4445CF
:101E40005F55524C3A68747470733A2F2F676974F7
:101E50006875622E636F6D2F4D61726C696E466995
:101E6000726D776172652F4D61726C696E20505290
:101E70004F544F434F4C5F56455253494F4E3A31A2
:101E80002E30204D414348494E455F545950453A04
:101E90004D61676E6120312045585452554445527A
:101EA0005F434F554E543A3120555549443A636586
:101EB0006465326132662D343161322D3437343805
:101EC0002D396231322D633535633632663336371C
:101ED00066660A002F2F20007A5F6D696E3A200037
:101EE000795F6D696E3A2000785F6D696E3A200007
:101EF0005265706F7274696E6720656E6473746F7B
:101F000070207374617475730A004D313435205339
:101F10003C696E6465783E206F7574206F66207230
:101F2000616E67652028302D31290A00536574746D
:101F3000696E672054726176656C20416363656CDD
:101F400065726174696F6E3A200053657474696ECE
:101F500067205265747261637420416363656C65C8
:101F6000726174696F6E3A200053657474696E67AC
:101F7000205072696E7420416363656C6572617490
:101F8000696F6E3A200053657474696E67205072F1
:101F9000696E7420616E642054726176656C2041B4
:101FA0006363656C65726174696F6E3A2000205AD4
:101FB00000205900580020204D61783A2000205A16
:101FC00000205900580020204D696E3A20004F6EC5
:101FD00020004F666600536F667420656E647374EC
:101FE0006F70733A2000000125272318FF1F211D61
:101FF0001CFF19171B1EFFFF0C0409FFFFFF2E2CEF
:102000000CFFFF04400AFF41FFFFFFFFFFFF2064BA
:102010003A0020693A0020703A0020643A002069B2
:102020003A0020703A0043290A0061626C6564201E
:10203000286D696E2074656D702000436F6C64209C
:102040006578747275646573206172652000436100
:102050007365206C696768743A2000290A00466934
:1020600078656420706172616D6574657220627953
:102070007465733B20637263200046697865642051
:10208000706172616D6574657220280048565F73D7
:1020900065745F6F6B0A00416374697665204578EB
:1020A0007472756465723A2000556E6B6E6F776E50
:1020B00020636F6D6D616E643A2022005265736516
:1020C0006E643A20006F6B00627573793A2070611C
:1020D0007573656420666F7220696E7075740A008E
:1020E000627573793A2070617573656420666F72EA
:1020F00020757365720A00627573793A2070726F89
:1021000063657373696E670A004B494C4C45442EF6
:1021100020004B494C4C20636175736564206279E3
:1021200020746F6F206D75636820696E61637469D8
:1021300076652074696D65202D2063757272656EF9
:102140007420636F6D6D616E643A2000506C656140
:102150007365207265736574005052494E54455240
:102160002048414C544544005072696E7465722099
:1021700068616C7465642E206B696C6C282920631F
:10218000616C6C6564210A000000E0C0000000C1C1
:10219000000000000000C8420000C8420000A0414A
:1021A000000000005761726E696E673A20486F6DDB
:1021B000696E672042756D702044697669736F722D
:1021C000203C20310A000202040000A0400000A0D0
:1021D00040000000400000634300006443000082B0
:1021E00043FFFFFF4D36303020486F74656E64202A
:1021F000746F6F20636F6C6420746F206368616E0E
:1022000067652066696C616D656E740A007C3C3E92
:102210005E2B3D3F2F5B5D3B2C2A225C004572729A
:102220006F722077726974696E6720746F204545FC
:1022300050524F4D210A0043616E6E6F7420656EDF
:10224000746572207375626469723A2000052E2EDF
:10225000004D61696E004D61782054656D703A20C3
:10226000313235004D696E2054656D703A2035006D
:10227000544265643A4550434F53203130304B004F
:102280004D61782054656D703A20323635004D69C5
:102290006E2054656D703A20350054303A20455018
:1022A000434F53203130304B005053553A2047654F
:1022B0006E657269630050726F746F636F6C3A2061
:1022C000312E3000202020204857205665723A20B9
:1022D00056004657205665723A2056322E3100423B
:1022E0006175643A20323530303030004754323531
:1022F00036302056342E300045787472756465721D
:10230000733A203100687474703A2F2F68656C6CD2
:10231000626F742E78797A004D61676E61203100AA
:10232000323031372D31322D32352031323A3030A2
:1023300000312E312E382E33004D61726C696E00E3
:10234000546865726D6973746F727300426F617265
:102350006420496E666F005072696E746572204920
:102360006E666F004D61696E0020204E6F7A7A6C48
:10237000653A20004261636B004D696E696D756D51
:102380002054656D70206973203137302E00486508
:102390006174696E67206661696C65640045787474
:1023A00072756465206D6F726500526573756D6539
:1023B000207072696E7400524553554D45204F5040
:1023C00054494F4E533A0020204E6F7A7A6C653A4A
:1023D00020006368616E6765006F66207468652021
:1023E00066696C616D656E74005761697420666F13
:1023F00072207374617274005052494E54205041DF
:10240000555345440020204E6F7A7A6C653A20007F
:1024100066696C616D656E7420756E6C6F616400C9
:102420005761697420666F72005052494E542050B3
:1024300041555345440020204E6F7A7A6C653A200E
:1024400000506C6561736520776169742E2E2E00D3
:1024500048656174696E67206E6F7A7A6C650050AA
:1024600052494E54205041555345440020204E6F50
:102470007A7A6C653A200068656174206E6F7A7AAA
:102480006C652E00507265737320627574746F6E84
:1024900020746F005052494E5420504155534544CA
:1024A0000020204E6F7A7A6C653A2000746F2063AA
:1024B0006F6E74696E75652E2E2E00616E642070CD
:1024C0007265737320627574746F6E00496E736504
:1024D00072742066696C616D656E74005052494E6D
:1024E00054205041555345440020204E6F7A7A6C59
:1024F000653A200066696C616D656E74206C6F6171
:1025000064005761697420666F72005052494E54DE
:10251000205041555345440020204E6F7A7A6C6517
:102520003A200066696C616D656E7420657874721E
:10253000756465005761697420666F720050524976
:102540004E542050415553454400746F20726573BA
:10255000756D65005761697420666F7220707269CD
:102560006E74005052494E5420504155534544001A
:10257000436172642072656D6F76656400436172B9
:102580006420696E73657274656400000021002424
:102590000027002A002D0030003300010100000454
:1025A0000107010A0100002200250028002B002E4F
:1025B000003100340002010000050108010B010098
:1025C0000020002300260029002C002F00320000EC
:1025D00001000003010601090105050505070508BD
:1025E000080808020202020A0A0808040404040196
:1025F00001010101010101030303030303030304B8
:102600000707070C0C0C0C0C0C0C0C020202020647
:10261000060606060606060B0B0B0B0B0B0B0B0137
:1026200002102020080810204010204080020102E3
:1026300001080402010102040810204080804020AB
:1026400010080402018004020180402010080402E6
:102650000108040201010204081020408001020464
:10266000081020408000000A0B02090C0D0E08071C
:102670000304010000000000000000000000000052
:10268000000000000000000000000000000000004A
:102690000012111000000000000000000000000007
:1026A0000000000000000000000000200D466978D6
:1026B000656420706172616D65746572206E627907
:1026C0007465733B20637263206572726F722000C1
:1026D000200D0A466978656420706172616D6574C9
:1026E00065722062797465733B2063726320657242
:1026F000726F722000290A002062797465733B2092
:102700006372632000466978656420706172616D50
:102710006574657220280020686172647761726553
:102720002076657273696F6E3A002D2D2D2D2D2D3B
:102730002D007C48454C4C424F547C002D2D2D2DB6
:102740002D2D2D00687474703A2F2F68656C6C62A3
:102750006F742E78797A00687474703A2F2F6865D8
:102760006C6C626F742E78797A0020312E312E389D
:102770002E33002020506C616E6E65724275666665
:10278000657242797465733A20002046726565204F
:102790004D656D6F72793A2000436F6D70696C659D
:1027A000643A2041756720323120323032300A00DD
:1027B000207C20417574686F723A20286E6F6E65B8
:1027C0002C2064656661756C7420636F6E66696742
:1027D000290A00323031372D31322D323520313255
:1027E0003A303000204C6173742055706461746518
:1027F000643A2000312E312E382E330A004D61729A
:102800006C696E0020536F66747761726520526543
:102810007365740A00205761746368646F6720529F
:10282000657365740A002042726F776E206F75744D
:102830002052657365740A002045787465726E6174
:102840006C2052657365740A00506F77657255701D
:102850000A0073746172740A006572726F72207775
:10286000726974696E6720746F2066696C650A000E
:10287000456E6473746F7073202563202563202573
:102880006320256300205A3A0020593A0020583A24
:1028900000656E6473746F7073206869743A200009
:1028A00047323820580066696C616D656E74206F20
:1028B00075740A004D33322053256C752021257321
:1028C000004D33322053256C7520212F25732F2581
:1028D00073004730204631303030205A25752E2580
:1028E00075004732382059004732382058004D31A2
:1028F0003036202053323535004D313039205430B8
:1029000020532575004D3139302053257500446F13
:102910006E6520736176696E672066696C652E0A44
:10292000004D3239005344207072696E74696E67CD
:10293000206279746520004E6F74205344207072B9
:10294000696E74696E670A00486F6D65202573258E
:1029500073257320666972737400206669727374DC
:102960000A005A0059005800486F6D6520005772E0
:102970006974696E6720746F2066696C653A20001F
:102980006F70656E206661696C65642C2046696CA9
:10299000653A20006F70656E206661696C65642C15
:1029A0002046696C653A200046696C652073656C49
:1029B00065637465640A002053697A653A200046AD
:1029C000696C65206F70656E65643A20006F706594
:1029D0006E206661696C65642C2046696C653A20DE
:1029E000002066696C653A2000646F696E67006656
:1029F00072657368004E6F772000454E4420535532
:102A000042524F5554494E450A002220706F7300C0
:102A10002220706172656E743A2200535542524F03
:102A20005554494E452043414C4C207461726765B2
:102A3000743A22004B494C4C45442E200074727964
:102A4000696E6720746F2063616C6C207375622DF2
:102A500067636F64652066696C6573207769746865
:102A600020746F6F206D616E79206C6576656C7374
:102A70002E204D4158206C6576656C2069733A00B4
:102A800053442063617264206F6B0A006F70656E3F
:102A9000526F6F74206661696C65640A00766F6CB2
:102AA000756D652E696E6974206661696C65640A6E
:102AB000004572726F723A00534420696E69742047
:102AC0006661696C0A0043616E6E6F74206F706599
:102AD0006E2073756264697220006175746F256978
:102AE0002E67004D3234004D323320257300656E61
:102AF0007175657565696E672022006563686F3A58
:102B000000544845524D414C2052554E4157415971
:102B100000546865726D616C2052756E61776179E1
:102B200000009DE27FE211241FBECFEFD1E2DEBFA5
:102B3000CDBF00E00CBF13E0A0E0B2E0ECEEFCEE95
:102B400001E00BBF02C007900D92A83BB107D9F777
:102B500025E1A8EBB3E001C01D92A43CB207E1F768
:102B600015E1C2E9D5E100E006C021970109802FF7
:102B7000FE010E94CEF5C139D10780E00807A9F710
:102B80000E9498E30C9464F60C9400002CEA35EC57
:102B900047E25EE36091DD097091DE098091DF0913
:102BA0009091E0090E9474F36093C9087093CA0879
:102BB0008093CB089093CC0808952CEA35EC47E23B
:102BC0005EE36091E1097091E2098091E3099091DF
:102BD000E4090E94B0EE6093CD087093CE08809314
:102BE000CF089093D008089560910F027091100261
:102BF000072E000C880B990B0E9451EE2AE037ED4E
:102C000043E25CE30E94B0EE2091C0083091C1081D
:102C10004091C2085091C3080E94B0EE60930B022D
:102C200070930C0280930D0290930E020895880F0A
:102C3000991F880F991FFC01EC53F44F408151817B
:102C4000628173818F56944FFC014083518362836C
:102C50007383E0919D08F0919E0882899389A489ED
:102C6000B5898093580990935909A0935A09B09354
:102C70005B098FEF9FEF9093A00880939F080895C2
:102C8000CF92DF92EF92FF9280912709882309F477
:102C900057C0C0902309D0902409E0902509F090F6
:102CA000260920E030E0A901C701B6010E944AEEE2
:102CB000882309F445C020E030E040E05FE3C7012D
:102CC000B6010E94B0EE9B01AC010E94B0EE2BED6C
:102CD0003FE049E450E40E94B0EE9B01AC0160E0AB
:102CE00070E080E89FE30E9474F36B017C01C09266
:102CF000C008D092C108E092C208F092C308609167
:102D00000F0270911002072E000C880B990B0E9485
:102D100051EE2AE037ED43E25CE30E94B0EEA701FA
:102D200096010E94B0EE60930B0270930C028093A8
:102D30000D0290930E02FF90EF90DF90CF900895D8
:102D4000C12CD12C80E8E82E8FE3F82ED0CF0F9342
:102D50001F93CF93DF9300919D0810919E08F80177
:102D600082819381A481B581181619061A061B0663
:102D7000ECF48091510980FF19C08091290990B12C
:102D800096959695909590FB80F9982F80932909B8
:102D9000809128098170892349F080919D0B816081
:102DA00080939D0B90E080E00E941716F8018681C9
:102DB0009781A085B185181619061A061B0644F5D9
:102DC0008091510981FF24C08091290990B1929589
:102DD00096959695937021E092279170C92FF0E017
:102DE000DF2FD195C195D109C827C270DD278C2767
:102DF00080932909C0912809C270C82349F08091A5
:102E00009D0B826080939D0B81E090E00E941716DD
:102E1000F80182859385A485B585181619061A06CA
:102E20001B0624F58091510982FF20C020912909B9
:102E300086B1082E000C990B80959095990F880B00
:102E4000982F822784709927922F98279093290989
:102E5000809128098470892349F080919D0B8460BA
:102E600080939D0B82E090E00E94171680912909C3
:102E700080932809DF91CF911F910F9108950C94B1
:102E8000F9BD0F931F93CF93DF93CDB7DEB76E9746
:102E90000FB6F894DEBF0FBECDBF809115028F93A1
:102EA000809114028F931F921F9288E595E19F9362
:102EB0008F938E010F5F1F4F1F930F930E94E1EDC1
:102EC000C8010E942AB50FB6F894DEBF0FBECDBF71
:102ED0006E960FB6F894DEBF0FBECDBFDF91CF91D7
:102EE0001F910F910895CF92DF92EF92FF92CF93AF
:102EF000C82F0E94EDBD6B017C0124EA30E74DE74D
:102F00005FE36091D3097091D4098091D5099091C4
:102F1000D6090E944AEE87FD18C08AEF90E0A0E033
:102F2000B0E08C0D9D1DAE1DBF1D8093560B909380
:102F3000570BA093580BB093590BC0932B02CF9112
:102F4000FF90EF90DF90CF90089580E090E0DC015B
:102F5000E8CFCF93DF9300D01F92CDB7DEB78823A1
:102F600049F00E9427CA0F900F900F900F90DF91A9
:102F7000CF91089588EB91E09C838B8384E190E06E
:102F80009A838983BE016D5F7F4FCE0101960E94B7
:102F900047B7E9CFEF92FF920F931F93CF93DF9341
:102FA00000D000D01F921F92CDB7DEB78E010F5F09
:102FB0001F4FD80130E020E0FB01E20FF31FE49146
:102FC000ED932F5F3F4F28303105B1F7877028E030
:102FD000829FC001112480640E9487BB780188E031
:102FE000E80EF11CF80161918F0181E092E10E94ED
:102FF00061BBE016F106B1F728960FB6F894DEBF74
:103000000FBECDBFDF91CF911F910F91FF90EF9039
:1030100008954F925F926F927F92AF92BF92CF923C
:10302000DF92EF92FF920F931F93CF93DF938C0168
:10303000EB01FC0147A050A461A472A4AFA0B8A406
:10304000C9A4DAA49501A601C301B2010E944AEE07
:1030500087FF3EC0A3019201C301B2010E94B0EEFE
:103060002B013C01F80163A974A985A996A9905880
:103070009B01AC010E947AF2F80127A530A941A971
:1030800052A90E94B0EE9B01AC01C301B2010E94A3
:1030900079F20E9428F57B018C019B01AC01B501FE
:1030A000C6010E944AEE87FF02C0750186019701A2
:1030B000A801B501C6010E944AEE882349F0C70164
:1030C000D8018FA398A7A9A7BAA788818160888310
:1030D000DF91CF911F910F91FF90EF90DF90CF90F4
:1030E000BF90AF907F906F905F904F9008954F92F8
:1030F0005F926F927F928F929F92AF92BF92CF9288
:10310000DF92EF92FF92CF93DF93CDB7DEB76A974E
:103110000FB6F894DEBF0FBECDBF9A8F898F5B01CB
:103120004A01DC01D7966D917D918D919C91DA9742
:103130000E944FEE6B017C01F501208131814281BB
:1031400053810E94B0EE0E9458F30E94EDF33B01C0
:103150005C01D4012D913D914D915C91C701B60167
:103160000E94B0EE0E9458F30E94EDF36D827E82C1
:10317000AF82B8862D813E814F8158852837310531
:103180004105510540F428E730E040E050E02D8350
:103190003E834F83588769837A838B839C8389819D
:1031A0009A81AB81BC8188379105A105B10540F4B6
:1031B00028E730E040E050E029833A834B835C838A
:1031C000E98DFA8DED5BFF4F80819181A281B38102
:1031D0008D879E87AF87B88BBC01CD010E9451EED1
:1031E00069877A878B879C876D817E818F8198859F
:1031F0000E944FEE698B7A8B8B8B9C8B20E030E0AA
:10320000A90169857A858B859C850E944AEE882371
:1032100009F432C1A7019601C701B6010E94B0EEC0
:103220004B015C0129893A894B895C89CA01B90142
:103230000E94B0EE9B01AC01C501B4010E9479F27D
:103240004B015C0129853A854B855C85CA01B90132
:103250000E947AF29B01AC01C501B4010E9474F393
:103260000E9458F30E94E6F32B013C016D857E8598
:103270008F85988990958095709561957F4F8F4F38
:103280009F4F0E9451EE4B015C0169817A818B81D5
:103290009C810E944FEE6D877E878F87988B20E000
:1032A00030E0A901C501B4010E944AEE882309F467
:1032B000E7C02D853E854F855889CA01B9010E9416
:1032C000B0EE6D8B7E8B8F8B988FA7019601C70117
:1032D000B6010E94B0EE9B01AC016D897E898F8999
:1032E000988D0E9479F26B017C01A5019401C501C2
:1032F000B4010E947AF29B01AC01C701B6010E94A1
:1033000074F30E941CF4A98DBA8D52968D909D90F5
:10331000AD90BC90559775016401C418D508E608B6
:10332000F7080E94E6F3C61AD70AE80AF90AF7FE78
:1033300067C020E030E0A90169857A858B859C858E
:103340000E944AEE882309F49FC0C501B4010E947F
:103350004FEE6B017C0129853A854B855C85CA015E
:10336000B9010E947AF29B01AC01C701B6010E942B
:10337000B0EE6B017C0129893A894B895C89CA01CD
:10338000B9010E94B0EE9B01AC01C701B6010E94D9
:1033900079F26B017C012D853E854F855889CA01E4
:1033A000B9010E94B0EE9B01AC01C701B6010E94B9
:1033B0007AF26B017C0120E030E040E850E469855E
:1033C0007A858B859C850E94B0EE9B01AC01C7017C
:1033D000B6010E9474F30E9458F30E94E6F32B0199
:1033E0003C0177FE03C0412C512C32014814590492
:1033F0006A047B0410F024013501C12CD12C760124
:103400008FB7F894E98DFA8D908193FD1FC0DF018D
:10341000468A578A608E718EC40CD51CE61CF71C38
:10342000C28ED38EE48EF58E2D813E814F815885DC
:1034300023AF34AF45AF56AFDF9629813A814B8138
:103440005C812D933D934D935C9313978FBF6A9648
:103450000FB6F894DEBF0FBECDBFDF91CF91FF90C6
:10346000EF90DF90CF90BF90AF909F908F907F9024
:103470006F905F904F90089560E070E0CB01F0CEC8
:1034800060E070E0CB013DCF60E070E0CB01A3CF06
:103490002F923F924F925F926F927F928F929F9264
:1034A000AF92BF92CF92DF92EF92FF920F931F9352
:1034B000CF93DF93CDB7DEB7C056D1090FB6F894DE
:1034C000DEBF0FBECDBF2D969FAF8EAF2D974BABFE
:1034D0005BA76BAF21967FAF2197322EDC01CD9099
:1034E000DD90ED90FC9080912D1290912E12A09184
:1034F0002F12B0913012C81AD90AEA0AFB0A2D9687
:10350000EEADFFAD2D974481558166817781809125
:10351000311290913212A0913312B09134122A01DB
:103520003B01481A590A6A0A7B0A4FAA58AE69AE8B
:103530007AAE408551856285738580913512909170
:103540003612A0913712B09138122A013B01481A65
:10355000590A6A0A7B0A4FA658AA69AA7AAA8484D9
:103560009584A684B7848091391290913A12A091E3
:103570003B12B0913C1224013501481A590A6A0ADB
:103580007B0A09F497C080916E0B811139C060915C
:103590002C0270912D02072E000C880B990B0E94B3
:1035A00051EE9B01AC016091FD117091FE11809173
:1035B000FF11909100120E944AEE87FF21C0809275
:1035C000391290923A12A0923B12B0923C120BEF39
:1035D0001AE2F80184910F5F1F4F81110BC000E2C6
:1035E00017E0F80184910F5F1F4F882331F00E948C
:1035F0004E83F7CF0E944E83ECCF412C512C3201E9
:10360000F4E03F9E80011124055F1D4FC301B2010C
:103610000E9451EED8012D913D914D915C910E94F7
:10362000B0EE0E94E6F34B015C01B7FE08C0B09417
:10363000A09490948094811C911CA11CB11C609159
:10364000F00B7091F10B8091F20B9091F30B0E94B3
:10365000E6F39B01AC01A0E9B1E00E945FF26815BE
:1036600079058A059B054CF52D96EEADFFAD2D979E
:1036700084859585A685B7858093391290933A12F3
:10368000A0933B12B0933C120BEF1AE2F801849125
:103690000F5F1F4F81110BC001E017E0F80184910B
:1036A0000F5F1F4F882331F00E944E83F7CF0E9497
:1036B0004E83ECCF412C512C3201D701C601882713
:1036C000B7FD83959927AA27BB27182F2FA938ADB7
:1036D00049AD5AAD57FD12608FA598A9A9A9BAA9FD
:1036E000B7FD146077FC1860A4E03A9EC001112475
:1036F000FC01E55FFD4F5F01C301B2010E9451EE85
:10370000D5012D913D914D915C910E94B0EE4B0100
:103710005C0120E030E0A9010E94DAF4181604F5FB
:1037200020E030E040E05FE3C501B4010E947AF29E
:103730000E94E6F36CAF7DAF8EAF9FAF80913D12DC
:103740008F5F8F706D968FAF6D9780913E126D96E3
:103750004FAC6D9784110DC080E00E94FC88F5CFBE
:10376000A501940160E070E080E09FE30E9479F29F
:10377000DFCF50903D1268965FAE6897652C712C34
:103780007AA669A60DE4509EF0011124E353FC4F84
:10379000108212A3D701C601F7FE07C08827992718
:1037A000DC018C199D09AE09BF0982839383A48330
:1037B000B5838DE449A45AA4849DF001859DF00D44
:1037C0001124E353FC4F8FA998ADA9ADBAADB7FF53
:1037D00007C0B095A095909581959F4FAF4FBF4F73
:1037E00086839783A087B1878DE469A47AA4869D98
:1037F000F001879DF00D1124E353FC4F8FA598A98C
:10380000A9A9BAA9B7FF07C0B095A09590958195D1
:103810009F4FAF4FBF4F82879387A487B5878DE4B3
:1038200009A51AA5809FF001819FF00D1124E35393
:10383000FC4F4CAC5DAC6EAC7FAC46865786608A64
:10384000718A428153816481758106811781208547
:103850003185041715072607370714F48A019B01E1
:103860008DE469A47AA4869DF001879DF00D112452
:10387000E353FC4F82859385A485B5858017910716
:10388000A207B3070CF4B8C64CAC5DAC6EAC7FAC11
:1038900084159505A605B7050CF0B9C6D301C2017C
:1038A000B6C64CAC5DAC6EAC7FAC4528462847280C
:1038B00009F47BC460910E0970910F098091100981
:1038C000909111092BA53CA54DA55EA50E94B0EED7
:1038D0000E9458F30E94EDF36B017C0180912F0947
:1038E00090913009A0913109B09132094FA458A8A4
:1038F00069A87AA884159505A605B70508F45EC4DD
:1039000081149104A104B10421F16091BD0370916F
:10391000BE038091BF039091C0036C157D058E0599
:103920009F05B8F4A30192010E942DF22B013C01E6
:10393000A5019401C701B6010E942DF24616570653
:103940006806790630F4C301B2010E943DF26901B4
:103950007A018DE469A47AA4869DF001879DF00D1B
:103960001124E353FC4F86809780A084B184811496
:103970009104A104B10441F16091C1037091C203AB
:103980008091C3039091C4036C157D058E059F053E
:10399000D8F42FA538A949A95AA90E942DF22B01C4
:1039A0003C01A7019601C501B4010E942DF2461603
:1039B00057066806790640F4C301B201A5019401D7
:1039C0000E943DF269017A018DE409A51AA5809F44
:1039D000F001819FF00D1124E353FC4F8284938406
:1039E000A484B58481149104A104B10441F16091CF
:1039F000C5037091C6038091C7039091C8036C15ED
:103A00007D058E059F05D8F42FA538A949A95AA987
:103A10000E942DF22B013C01A7019601C501B401C2
:103A20000E942DF2461657066806790640F4C30137
:103A3000B201A50194010E943DF269017A018DE471
:103A400049A45AA4849DF001859DF00D1124E353EF
:103A5000FC4F86849784A088B18881149104A104C6
:103A6000B10441F16091C9037091CA038091CB0305
:103A70009091CC036C157D058E059F05D8F42FA57C
:103A800038A949A95AA90E942DF22B013C01A7018E
:103A90009601C501B4010E942DF24616570668062C
:103AA000790640F4C301B201A50194010E943DF2E0
:103AB00069017A018DE469A47AA4869D8001879DBD
:103AC000100D112403531C4FF801ED5BFF4FC08212
:103AD000D182E282F382C701B6010E944FEE6B01F0
:103AE0007C012BA53CA54DA55EA50E9474F36596AF
:103AF0006CAF7DAF8EAF9FAF6597D801D3966D93B6
:103B00007D938D939C93D69720E030E040E85BE472
:103B1000C701B6010E94B0EE20E034E244EF59E460
:103B20000E9474F30E94E6F3F801668F778F80A3FA
:103B300091A343A04BAE54A021965FAE219765A000
:103B400023966FAE239776A027967FAE279702E144
:103B500019E067961FAF0EAF67974FA858AC10E1FA
:103B6000410E511C62E1262E69E0362E6FA878AC1A
:103B70000BAD0CAF21961FAD21971FA723960FAD5C
:103B800023970BAB27961FAD27971BA710E0D301F8
:103B90008D909D90AD90BD903D01E894B7F8F101F6
:103BA000C190D190E190F1901F01A7019601C5014C
:103BB000B4010E94DAF418165CF5112309F410C45C
:103BC000A70196016BAD21967FAD219723968FAD0E
:103BD000239727969FAD27970E94B0EE6B017C013B
:103BE0002CAD3FA54BA95BA5C501B4010E94B0EE69
:103BF000A70196010E94DAF4181654F4A501940165
:103C0000C701B6010E9474F36CAF7FA78BAB9BA773
:103C10004614570409F0BBCF2B964FAC2B9744208A
:103C200009F415C4C0901912D0901A12E0901B121A
:103C3000F0901C122DEB37E346E855E3B601C701BF
:103C40000E944AEE87FD03C42BAD21963FAD21971C
:103C500023964FAD239727965FAD2797B601C701EF
:103C60000E94DAF47C2C6D2C8701181654F47BAC7E
:103C700021966FAC219723960FAD239727961FAD02
:103C800027979601A701672D762DC8010E9474F32E
:103C9000A1966CAF7DAF8EAF9FAFA1972DE132E1C2
:103CA0002F963FAF2EAF2F97212C312C50E8452E69
:103CB0005FE3552E2B961FAE2B972F96AEADBFAD63
:103CC0002F976D917D918D919D912F96BFAFAEAF46
:103CD0002F97A1962CAD3DAD4EAD5FADA1970E9443
:103CE000B0EE4B015C01EFA9F8ADC190D190E1902D
:103CF000F190F8AFEFAB2B96FFAD2B97FF2371F050
:103D0000A20191010E94B0EE4B015C01A201910160
:103D1000C701B6010E94B0EE6B017C01A7019601BC
:103D2000C501B4010E94DAF420E030E0A9011816C0
:103D30000CF06CC3C701B6010E94DAF418164CF0FF
:103D400020E030E0A901C501B4010E944AEE87FFDE
:103D50004DC3A7019601C501B4010E9479F26B0120
:103D60007C016796AEADBFAD67978D909D90AD908D
:103D7000BD906796BFAFAEAF6797A5019401C7012D
:103D8000B6010E94DAF41816ACF4A7019601C50139
:103D9000B4010E9474F39B01AC01C201B1010E9405
:103DA000B0EE1B012C012B96BFAD2B97BF5F2B965E
:103DB000BFAF2B97EDE2F2E12F962EAD3FAD2F97DF
:103DC000E217F30709F079CF2B963FAD2B973323FA
:103DD00051F0A2019101672D762DC8010E94B0EE2D
:103DE000762E672E8C0124EA30E74DE75FE3672DDE
:103DF000762DC8010E94B0EE6B017C01AC019B01E5
:103E000060912A0970912B0980912C0990912D09BC
:103E10000E94DAF41816DCF4A70196016CAD7FA5B8
:103E20008BA99BA50E94DAF418168CF48DE449A4A2
:103E30005AA4849DF001859DF00D1124E353FC4F9D
:103E40008081846080837CAC6FA40BA91BA58DE46A
:103E500049A45AA4849DF001859DF00D1124E353DB
:103E6000FC4F872D962DD80183A794A7A5A7B6A7A9
:103E700065966CAD7DAD8EAD9FAD659790589B01FD
:103E8000AC010E947AF26C962CAD3DAD4EAD5FADAB
:103E90006C970E94B0EE9B01AC016BE077ED83E282
:103EA0009BE30E9479F20E9428F56B017C01272D8B
:103EB000362DA8010E94DAF418161CF07C2C6D2C0B
:103EC00087018DE449A45AA4849DF001859DF00DDD
:103ED0001124E353FC4F872D962DD80187A390A77B
:103EE000A1A7B2A7B0809601A7016BAD21967FADC7
:103EF000219723968FAD239727969FAD27970E94F2
:103F00004AEE18160CF4ACC283E04DE4C42E49A46A
:103F10005AA4C49CF001C59CF00D1124E353FC4F3E
:103F2000B82AB08280E1FE017196ADE1B2E1019064
:103F30000D928A95E1F78BAD21969FAD219723963F
:103F4000AFAD23972796BFAD279780931912909313
:103F50001A12A0931B12B0931C128CAD9FA5ABA993
:103F6000BBA580932A0990932B09A0932C09B093A9
:103F70002D092BAD21963FAD219723964FAD239769
:103F800027965FAD279760E070E080E89FE30E948E
:103F900074F34B015C01AC019B016CAD7FA58BA957
:103FA0009BA50E94B0EE6DA37EA38FA398A7A50149
:103FB0009401672D762DC8010E94B0EE69A37AA303
:103FC0008BA39CA368965FAC68975C9CC00111248E
:103FD000AE014B5D5F4FBE016F5D7F4F83539C4FC2
:103FE0000E9477186D966FAC6D9760923D1280E1DC
:103FF0002D96EEADFFAD2D97ADE2B2E101900D92A1
:104000008A95E1F780913D1290913E12891B8F7045
:10401000843008F4A5C020903E1223942394022DEE
:104020000F70202E10913D1211501F702C2D120276
:1040300060011124A60143535C4F6A013DE4332E15
:1040400011501F70812E012E000C9908389CC00160
:10405000399C900D1124DC01A353BC4F7D014C9081
:1040600042FC7EC0B32D1B02C0011124FC01E353AE
:10407000FC4FFAA7E9A7D7019B965C909B979C966B
:104080006C909C979D967C909D979E960C919E9788
:1040900097962D913D914D915C919A97652D762D36
:1040A000872D902F0E944AEE882309F457C041FCC7
:1040B00043C0F601A7A0B0A4C1A4D2A4A601950153
:1040C000652D762D872D902F0E944AEE1816A4F5A7
:1040D000A6019501C601B5010E94B0EE5B016C011D
:1040E000D701D3966D917D918D919C91D6979058E3
:1040F0009B01AC010E947AF2E9A5FAA527A530A997
:1041000041A952A90E94B0EE9B01AC01C601B501C4
:104110000E9479F20E9428F56B017C019B01AC01A1
:10412000652D762D872D902F0E944AEE87FD04C0C5
:104130005C2C6D2C7E2C0F2D389CF001399CF00DE1
:104140001124E353FC4F852D962DA72DB02F87A367
:1041500090A7A1A7B2A7842D81608083211282C17C
:1041600010913E12F12C00E090E080E02DE4E22E70
:1041700020913D12211709F478C11E9D9001112450
:10418000A90143535C4F6A01009741F0DC012C9177
:1041900021FD04C06F2D702F0E9409181F5F1F7032
:1041A0008F2D902FFC2C0D2DE3CF6091060970917F
:1041B0000709809108099091090984CB8114910421
:1041C000A104B104A9F16091BD037091BE03809177
:1041D000BF039091C0036C157D058E059F0540F5CA
:1041E0000E944FEE2BA93CA94DA95EA90E94B0EEFA
:1041F0002B013C01C501B4010E9451EE4B015C0151
:10420000C701B6010E944FEEA50194010E94B0EED5
:10421000A30192010E94DAF4181654F4A501940146
:10422000C301B2010E9474F30E94EDF36B017C01A3
:104230008DE469A47AA4869DF001879DF00D112478
:10424000E353FC4F468057806084718441145104CD
:1042500061047104A9F16091C1037091C20380915E
:10426000C3039091C4036C157D058E059F0540F531
:104270000E944FEE2BA93CA94DA95EA90E94B0EE69
:104280004B015C01C301B2010E9451EE2B013C01C4
:10429000C701B6010E944FEEA30192010E94B0EE49
:1042A000A50194010E94DAF4181654F4A3019201B6
:1042B000C501B4010E9474F30E94EDF36B017C010F
:1042C0008DE409A51AA5809FF001819FF00D1124AE
:1042D000E353FC4F42845384648475844114510435
:1042E00061047104A9F16091C5037091C6038091C6
:1042F000C7039091C8036C157D058E059F0540F599
:104300000E944FEE2BA93CA94DA95EA90E94B0EED8
:104310004B015C01C301B2010E9451EE2B013C0133
:10432000C701B6010E944FEEA30192010E94B0EEB8
:10433000A50194010E94DAF4181654F4A301920125
:10434000C501B4010E9474F30E94EDF36B017C017E
:104350008DE449A45AA4849DF001859DF00D11249B
:10436000E353FC4F86849784A088B188811491041C
:10437000A104B10409F49ECB6091C9037091CA03F2
:104380008091CB039091CC036C157D058E059F0524
:1043900008F090CB0E944FEE2BA93CA94DA95EA935
:1043A0000E94B0EE2B013C01C501B4010E9451EE08
:1043B0004B015C01C701B6010E944FEEA5019401BB
:1043C0000E94B0EEA30192010E94DAF418160CF0DC
:1043D00071CBA5019401C301B2010E9474F322C400
:1043E000CCAEDFA6EBAAFBA611E012CCF7FAF09454
:1043F000F7F8F094A7019601C501B4010E94DAF420
:1044000018160CF0AECC75016401ABCCC701B60137
:104410000E944AEE87FD09C020E030E0A901C501F5
:10442000B4010E94DAF418162CF4A5019401C70116
:10443000B60193CCB7FAB094B7F8B094A501940143
:10444000C701B6010E944AEE87FF8BCCDCCF8DE41A
:1044500069A47AA4869DF001879DF00D1124EECC0D
:1044600081E053CDC9A4DAA4EBCD009741F0FC0163
:10447000208121FD04C06F2D702F0E940918F0903B
:104480003E1210E000E08DE4E82EAF2C0F2C000C63
:10449000BB0880913D128A151B0409F45DC0FF2DF5
:1044A0002E2DF202C0011124AC0143535C4F6A016E
:1044B0000115110509F44AC0D8018C9180FD0AC08C
:1044C000EA9CF001EB9CF00D1124E353FC4F80813A
:1044D00080FF3CC0F80123A134A145A156A160E0B2
:1044E00070E080E89FE30E9474F32B013C01EA9C9A
:1044F000F001EB9CF00D1124E353FC4FAC019B0148
:1045000067A170A581A592A50E94B0EE69A37AA3C8
:104510008BA39CA3A3019201D80197966D917D91E5
:104520008D919C919A970E94B0EE6DA37EA38FA36C
:1045300098A7AE014F5D5F4FBE016B5D7F4FC80115
:104540000E947718F80180818E7F8083F394FF2D7D
:10455000FF70FF2E860199CF0115110599F1D80141
:1045600093962D913D914D915C91969760E070E00E
:1045700080E89FE30E9474F36B017C012DEC3CEC1E
:104580004CE45DE30E94B0EE69A37AA38BA39CA3E5
:10459000A7019601F80167A170A581A592A50E94C7
:1045A000B0EE6DA37EA38FA398A7AE014F5D5F4FC2
:1045B000BE016B5D7F4FC8010E947718D8018C91B6
:1045C0008E7F8C93C05ADF4F0FB6F894DEBF0FBEBC
:1045D000CDBFDF91CF911F910F91FF90EF90DF90B2
:1045E000CF90BF90AF909F908F907F906F905F9093
:1045F0004F903F902F9008958CAD9DADAEADBFAD67
:1046000080179107A207B30714F4D901C8012DE45C
:1046100009A51AA5209FF001219FF00D1124E35355
:10462000FC4F828B938BA48BB58B0697A105B105AC
:1046300048F2DF01A95BBF4F8091B70B9091B80B97
:104640008D939C933182452B462B472B09F0429842
:104650008DE449A45AA4849DF001859DF00D112498
:10466000E353FC4F86819781A085B185892B8A2BE6
:104670008B2B09F017988DE469A47AA4869DF0012C
:10468000879DF00D1124E353FC4F82859385A4850B
:10469000B585892B8A2B8B2B09F015984CAC5DAC1A
:1046A0006EAC7FAC45284628472809F4C1C28091EA
:1046B0002E09882319F0815080932E09311004C0EF
:1046C0002E9880E280932E092090E2083090E30833
:1046D0000091E4081091E5082BA93BA54BAD21966C
:1046E0005FAD2197B101C8010E94DAF4181634F0C9
:1046F0002BA83BA40BAD21961FAD2197C701B60196
:104700000E9451EE2091810B3091820B4091830BDE
:104710005091840B0E94B0EE2B013C0149825A82D9
:104720006B827C826FA978AD89AD9AAD0E9451EE03
:104730002091850B3091860B4091870B5091880B0F
:104740000E94B0EE6FAB78AF89AF9AAF6D837E8376
:104750008F8398876FA578A989A99AA90E9451EE9D
:104760002091890B30918A0B40918B0B50918C0BCF
:104770000E94B0EE6B017C01C986DA86EB86FC866E
:1047800020918D0B30918E0B40918F0B5091900B9F
:10479000C501B4010E94B0EE6D877E878F87988B2C
:1047A0002DE449A55AA5249FF001259FF00D112461
:1047B000E353FC4F82809380A480B58056E0851639
:1047C0009104A104B104ACF486809780A084B184E4
:1047D000A6E08A169104A104B1045CF48284938457
:1047E000A484B5849F77B6E08B169104A104B1042C
:1047F00084F1A3019201C301B2010E94B0EE2B012A
:104800003C012FA938AD49AD5AADCA01B9010E948A
:10481000B0EE9B01AC01C301B2010E947AF24B01E0
:104820005C01A7019601C701B6010E94B0EE9B0191
:10483000AC01C501B4010E947AF20E9428F52DE472
:1048400049A45AA4249DF001259DF00D1124E353A1
:10485000FC4F67A770AB81AB92AB8DE469A47AA4DF
:10486000869DF001879DF00D1124E353FC4F27A591
:1048700030A941A952A960E070E080E89FE30E945E
:1048800074F361966CAF7DAF8EAF9FAF61979B0164
:10489000AC01B101C8010E94B0EE6B017C018091B6
:1048A0003D1290913E12891B8F702B968FAF2B97E4
:1048B000A701960160E074E284E799E40E9474F332
:1048C0000E94E7F44B015C012B968FAD2B97825031
:1048D0008630C0F58091B9039091BA03A091BB03D3
:1048E000B091BC0388169906AA06BB0658F5BC0110
:1048F000CD01681979098A099B09660F771F881FFE
:10490000991F2B967FAC2B97272D30E050E040E08D
:104910000E943DF2CA01B9010E944FEE0E94E6F3E7
:10492000860E971EA81EB91EC501B4010E944FEE47
:104930009B01AC0160E074E284E799E40E9474F3A7
:104940006B017C018FB7F89440915A0B50915B0B2F
:1049500060915C0B70915D0B840E951EA61EB71EB8
:1049600080925A0B90925B0BA0925C0BB0925D0B05
:104970008FBF8DE449A45AA4849D8001859D100DAC
:10498000112403531C4FD8019F964D905D906D905C
:104990007C90D2976C964CAE5DAE6EAE7FAE6C974F
:1049A000A3019201C701B6010E94B0EE26966CAF3A
:1049B0007DAF8EAF9FAF2697F80163A374A385A345
:1049C00096A342885388648875884FA658AA69AA16
:1049D0007AAAC301B2010E944FEE6BAB7CAB8DABE8
:1049E0009EAB9B01AC01C701B6010E94B0EE0E94D4
:1049F00058F30E94EDF32A966CAF7DAF8EAF9FAF58
:104A00002A97F80167AB70AF81AF92AF8E010F5F4D
:104A10001F4F22961FAF0EAF2297005F1F4F18AF98
:104A20000FAB06EE18E063961FAF0EAF63974FA86B
:104A300058AC67965FAE4EAE6797212C312C00E8DC
:104A40000BA71FE31BAF2296AEADBFAD22972D91F2
:104A50003D914D915D912296BFAFAEAF2297C701B8
:104A6000B6010E94B0EE6796EEADFFAD6797619319
:104A70007193819391936796FFAFEEAF67974B0168
:104A80005C01E894B7F86396AEADBFAD63974D9007
:104A90005D906D907D906396BFAFAEAF6397A501BB
:104AA0009401C301B2010E944AEE87FF12C0A50122
:104AB0009401C301B2010E9474F35B018C01910166
:104AC0004BA55BAD0E944AEE87FF03C015010BA703
:104AD0001BAF4FA858AC22966EAC7FAC2297461401
:104AE000570409F0B0CF20E030E040E85FE3B101C7
:104AF0008BA59BAD0E944AEE87FF4BC0620100E18F
:104B0000C00ED11C7201D7012D913D914D915D9147
:104B10007D018D0104501109B1018BA59BAD0E944F
:104B2000B0EEF8016083718382839383CE14DF0437
:104B300051F78DE449A45AA4849D8001859D100DF0
:104B4000112403531C4F26962CAD3DAD4EAD5FADE9
:104B50002697B1018BA59BAD0E94B0EED80193962C
:104B60006D937D938D939C9396972A966CAD7DADB6
:104B70008EAD9FAD2A970E944FEE91014BA55BAD84
:104B80000E94B0EE0E94EDF3F80167AB70AF81AF09
:104B900092AF61962CAD3DAD4EAD5FAD61976BA907
:104BA0007CA98DA99EA90E94B0EE6BA77CA78DA7BA
:104BB0009EA78DE449A45AA4849DF001859DF00D23
:104BC0001124E353FC4F82809380A480B58081142C
:104BD0009104A104B10411F00C94511C86819781B9
:104BE000A085B185892B8A2B8B2B11F00C94511C3D
:104BF00082859385A485B585892B8A2B8B2B11F013
:104C00000C94511C20910A0930910B0940910C0918
:104C100050910D096BA57CA58DA59EA50E94B0EEB7
:104C20000E9458F30E94EDF36B017C010C945A1D15
:104C30002090DE083090DF080091E0081091E10834
:104C40004BCD8091C6098630D8F496E0899FF0015B
:104C50001124EE55F64F20913A0230913B023183F8
:104C600020834091A20B5091A30B6091A40B7091F3
:104C7000A50B42835383648375838F5F8093C6093A
:104C80000895EF92FF920F93CF93DF93D82F7A017D
:104C9000C22F80E00E948DBBD11101C0C0E28C2FD9
:104CA0000E947EBBC2E1F7016491662359F0CC23D8
:104CB00089F081E092E10E9461BBC150FFEFEF1AE1
:104CC000FF0AF1CFC15030F060E281E092E10E9432
:104CD00061BBF8CF802FDF91CF910F91FF90EF90C4
:104CE0000C947EBB8F929F92AF92BF92CF92DF9235
:104CF000EF92FF92CF93DF93682F8BE00E948DBBE2
:104D00000E94FDCAD82FC091C408C7FF79C0809007
:104D1000B5089090B608A090B708B090B808609118
:104D2000B50B7091B60B072E000C880B990B0E94E7
:104D300051EE6B017C0182E00E947EBB20E030E0FE
:104D400040E05FE3C501B4010E947AF20E94E6F3FD
:104D5000CB010E947FC80E9414B86FE281E092E10B
:104D60000E9461BB8091F311C7FD8091F211D111B6
:104D700054C0882309F451C060E281E092E10E94AE
:104D800061BB20E030E040E251E4C701B6010E947F
:104D9000DAF487FD05C060E281E092E10E9461BB28
:104DA00020E030E048EC52E4C701B6010E94DAF49A
:104DB00087FD05C060E281E092E10E9461BB81E075
:104DC0000E947EBB60E281E092E10E9461BB20E034
:104DD00030E040E251E4C701B6010E944AEE87FF8D
:104DE0002CC060E281E092E1DF91CF91FF90EF90E3
:104DF000DF90CF90BF90AF909F908F900C9461BB4D
:104E00008090FD119090FE11A090FF11B0900012C3
:104E10006091FB117091FC1186CF20E030E040E002
:104E20005FE3C701B6010E947AF20E94E6F3CB016C
:104E30000E9454C80E9414B8C2CFDF91CF91FF9056
:104E4000EF90DF90CF90BF90AF909F908F9008959C
:104E5000CF93DF93EC01FE018491882321F00E941F
:104E60007EBB2196F8CFDF91CF910895CF93DF934A
:104E7000EC018991882319F00E947EBBFACFDF9163
:104E8000CF9108950F931F93CF93DF938C01EB0184
:104E900061E081E00E948DBBC8010E942827209715
:104EA00031F16AE381E092E10E9461BBC8010E9496
:104EB00035CB0196FE019F012C1B3D0B4191411109
:104EC000FACF820F931F61E042970CF062E082E11B
:104ED000821B0E948DBB60E281E092E10E9461BB77
:104EE000CE01DF91CF911F910F910C943627DF9166
:104EF000CF911F910F910895CF9390919D0998178D
:104F000009F44CC0C82F80939D09823071F4C4E02D
:104F1000C15008F443C088E0C89FB0011124615516
:104F20007E4E8C2F0E94CA17F3CF67EA71E180E0B2
:104F30000E94CA176FE971E181E00E94CA1767E910
:104F400071E182E00E94CA176FE871E186E00E9479
:104F5000CA1767E871E187E00E94CA17C13081F47F
:104F60006FE771E185E00E94CA1767E771E184E0AD
:104F70000E94CA176FE671E183E0CF910C94CA17C3
:104F800067E671E183E00E94CA176FE571E184E092
:104F90000E94CA1767E571E185E0EFCFCF910895D0
:104FA000CF92DF92EF92FF920F931F93CF93DF93F5
:104FB000EC016A017B0180913A0290913B028C17CF
:104FC0009D07C9F124E4C83FD20709F03DC08759C5
:104FD0009F4371F40E94EDBD6E517B4F8F4F9F4FE9
:104FE00060939E0970939F098093A0099093A109F3
:104FF000D0933B02C0933A02C092A20BD092A30B73
:10500000E092A40BF092A50B8FE3C739D80721F4E7
:1050100010925E0B1092C6090E943DBC81E0C759F8
:10502000DF4309F080E00E947C2782E08093390210
:1050300081E08093540BDF91CF911F910F91FF90EE
:10504000EF90DF90CF9008952FE3C739D20781F614
:10505000885F944419F0C7E9DFE3CACF0E94EDBD31
:1050600000919E0910919F092091A0093091A109FA
:10507000601B710B820B930B97FFEDCFC7E6D8E255
:10508000B7CF21E020935E0B6093D3097093D409CE
:105090008093D5099093D60940E050E0BA01809101
:1050A000D8099091D9090C94D02760E070E080E293
:1050B00091E40C94412860E070E080E89FE30C9458
:1050C00041286DEC7CEC8CEC9DE30C94412840E095
:1050D00050E0BA0185EC9CE30E94D0271092C909E8
:1050E0001092CA091092CB091092CC0981E08093EA
:1050F0005E0B08958091BF0883FD18C080916E0BF0
:10510000811114C020912C0230912D028091FB114D
:105110009091FC11821793074CF40E94212640E0E5
:1051200050E0BA0187E091ED0C94D02781E08093A4
:105130005E0B40E050E0BA018BE89FEC0E94D02764
:1051400081EF92E190932F0E80932E0E0C941E818E
:1051500040E050E0BA0187E99FE30C94D0272F92FA
:105160003F924F925F926F927F928F929F92AF92F7
:10517000BF92CF92DF92EF92FF920F931F93CF9344
:10518000DF93CDB7DEB7CD54D1090FB6F894DEBFAB
:105190000FBECDBF1092630B8091A20B9091A30B19
:1051A000A091A40BB091A50B81309048A105B10549
:1051B00040F01092A20B1092A30B1092A40B10922D
:1051C000A50B1091A20B8091C7091816DCF4282FAB
:1051D000082E000C330B21503109412F012E000CF9
:1051E000550B4217530774F01FEF180F812F90E0F3
:1051F000B0E0A0E08093A20B9093A30BA093A40B2C
:10520000B093A50B1092540B8091550B181714F402
:105210001093550B8091550B082E000C990B03969B
:10522000212F012E000C330B8217930724F48DEFEE
:10523000810F8093550B3090550B34E0330D2C9635
:105240003FAF2C9781E09BEE492E91E1592EFE0154
:1052500031967F0192E093192D969FAF2D972AE00A
:10526000622E712C30EEC32E31E1D32E48EDA42EE8
:1052700041E1B42E5FEC852E51E1952EF82FF31904
:105280002E96FFAF2E97232C219431102FC0882308
:10529000B1F01116A4F08091A20B9091A30BA091F4
:1052A000A40BB091A50B0196A11DB11D8093A20B7B
:1052B0009093A30BA093A40BB093A50B1F5F8091B9
:1052C0003902882341F030E020E041E06AE072E1F9
:1052D000822D0E947BCB80E033942C963FAD2C979F
:1052E0003312D3CF83E08093C70964C021E0321228
:1052F0007BC08091640B811112C080913902882398
:1053000051F381E0113009F080E000E22EE34DEF2F
:1053100051E12E966FAD2E970E944126DCCF1130C1
:1053200061F71092220C0E94A8281093220C159865
:105330008091140C9091150CB3010E9487F59F93F6
:105340008F937F936F93DF92CF92FF92EF920E94A1
:10535000E1EDC7010E942AB58091210C8F938091C5
:10536000200C8F9380911F0C8F9380911E0C8F9334
:10537000BF92AF92FF92EF920E94E1EDC7010E94AF
:105380002AB58091170C8F938091160C8F939F9262
:105390008F92FF92EF920E94E1EDC7010E942AB521
:1053A0000FB6F894DEBF0FBECDBF8091540B88239B
:1053B00009F4A3CFC35BDF4F0FB6F894DEBF0FBE77
:1053C000CDBFDF91CF911F910F91FF90EF90DF90B4
:1053D000CF90BF90AF909F908F907F906F905F9095
:1053E0004F903F902F90089592E0391274CF8091A2
:1053F000640B811111C080913902882309F46BCFAD
:1054000081E0123009F080E000E22EE340EF51E14C
:105410002D966FAD2D9780CF123069F71092220C28
:105420001092FA0BE7E0FCE02DE011922A95E9F7E3
:105430005F924F92FF92EF920E94E1EDC7010E94AE
:105440002AB50E94A8280F900F900F900F9080917E
:10545000540B882381F2AECFE091C609EE2389F088
:10546000E150E093C60986E0E89FF0011124EE5573
:10547000F64F4281538164817581808191810C94C2
:10548000D0270C94A8280F931F93CF93DF931092EB
:10549000630B8091A20B9091A30BA091A40BB091F0
:1054A000A50B81309048A105B10540F01092A20BE8
:1054B0001092A30B1092A40B1092A50BC091A20BFB
:1054C0008091EB091816DCF4282F082E000C330B02
:1054D000215031094C2F0C2E000C550B421753074D
:1054E00074F0CFEFC80F8C2F90E0B0E0A0E0809375
:1054F000A20B9093A30BA093A40BB093A50B1092B7
:10550000540B8091550BC81714F4C093550B809120
:10551000550B082E000C990B03962C2F0C2E000C0B
:10552000330B8217930724F48DEF8C0F8093550B68
:105530001091550BD0E0111127C08091640B81119F
:1055400016C080913902882351F081E0C11180E0BA
:1055500003E023E04CE058E16D2F0E9441261F5FDD
:10556000DF5FD43041F785E08093EB0908C0C111BB
:10557000E8CF0E942C2A8091540B882311F3DF91ED
:10558000CF911F910F9108951130E1F48091640B38
:1055900081110DC080913902882309F381E0C13067
:1055A00009F080E00EE32EE343E058E1D5CFC130AF
:1055B00089F780E49BE20E9469D48091540B882390
:1055C00049F3DDCF123009F044C08091640B8111A2
:1055D0000DC080913902882311F281E0C23009F0B8
:1055E00080E00EE32EE346EF57E1B6CFC23089F7F5
:1055F00085E69DE20E9469D48091540B882349F38B
:10560000BECF8091640B81110EC080913902882336
:1056100009F4A5CF81E0C33009F080E00EE32EE36A
:1056200041EF57E199CFC33081F780E59FE20E94B7
:1056300069D48091540B882341F3A1CFC43091F4F5
:105640008FEE90E30E9469D48091540B882351F02F
:1056500096CF1330B1F2143009F081CF8091640BF2
:105660008111ECCF80913902882309F478CF81E051
:10567000C43009F080E00EE32EE348EE57E16CCF32
:105680002F923F924F925F926F927F928F929F9252
:10569000AF92BF92CF92DF92EF92FF920F931F9340
:1056A000CF93DF931092630B8091A20B9091A30B89
:1056B000A091A40BB091A50B81309048A105B10534
:1056C00040F01092A20B1092A30B1092A40B109218
:1056D000A50BC091A20B8091E7091816DCF4282FC6
:1056E000082E000C330B215031094C2F0C2E000CCE
:1056F000550B4217530774F0CFEFC80F8C2F90E073
:10570000B0E0A0E08093A20B9093A30BA093A40B16
:10571000B093A50B1092540B8091550BC81714F43D
:10572000C093550B8091550B082E000C990B0396D6
:105730002C2F0C2E000C330B8217930724F48DEFC3
:105740008C0F8093550B5090550BD0E063E0462EA4
:1057500077EE372E22242394EAE9CE2EE6E1DE2EE0
:10576000F8EAAF2EF6E1BF2EA6EB8A2EA6E19A2E1E
:10577000B4EC6B2EB6E17B2E511035C08091640BDA
:10578000811116C080913902882351F081E0C11146
:1057900080E003E023E042ED56E16D2F0E944126B8
:1057A0005394DF5FD43041F787E08093E70908C066
:1057B000C111E8CF0E942C2A8091540B882311F349
:1057C000DF91CF911F910F91FF90EF90DF90CF90DD
:1057D000BF90AF909F908F907F906F905F904F9011
:1057E0003F902F90089581E0581239C08091640B4A
:1057F00081111FC080913902882391F24F923F920C
:105800001F922F9286EE98E09F938F937F926F92D4
:10581000DF9381E0C13009F080E08F930E94C8C817
:105820008DB79EB70A960FB6F8949EBF0FBE8DBF78
:10583000B7CFC130F9F6E12C10ECF12E09E714E4F2
:1058400020E030E040E85FE366EE78E08BEC96E144
:105850000E94C9D58091540B882361F2B1CF92E0A8
:105860005912FEC08091640B811120C080913902D1
:10587000882309F495CF4F923F921F922F928AEE80
:1058800098E09F938F939F928F92DF9381E0C23035
:1058900009F080E08F930E94C8C88DB79EB70A9622
:1058A0000FB6F8949EBF0FBE8DBF7ACFC230F1F60F
:1058B000E12C10ECF12E09E714E420E030E040E8A0
:1058C0005FE36AEE78E08DEB96E10E94C9D58091A6
:1058D000540B882359F274CF8091640B811120C03E
:1058E00080913902882309F45BCF4F923F921F9237
:1058F0002F928EEE98E09F938F93BF92AF92DF939B
:1059000081E0C33009F080E08F930E94C8C88DB752
:105910009EB70A960FB6F8949EBF0FBE8DBF40CFBC
:10592000C330F1F6E12C10ECF12E09E714E420E08D
:1059300030E040E85FE36EEE78E08FEA96E10E94A7
:10594000C9D58091540B882359F23ACF8091640BCA
:10595000811120C080913902882309F421CF4F9210
:105960003F921F922F9282EF98E09F938F93DF9246
:10597000CF92DF9381E0C43009F080E08F930E94E2
:10598000C8C88DB79EB70A960FB6F8949EBF0FBED3
:105990008DBF06CFC430F1F6E12C10ECF12E09E7F3
:1059A00014E420E030E040E85FE362EF78E081EA71
:1059B00096E10E94C9D58091540B882359F200CFFB
:1059C0008091640B811122C080913902882309F4EF
:1059D000E7CE4F923F921F921F9282EE98E09F93E4
:1059E0008F9380E996E19F938F93DF9381E0C53099
:1059F00009F080E08F930E94C8C88DB79EB70A96C1
:105A00000FB6F8949EBF0FBE8DBFCACEC530E1F66B
:105A1000E12C10ECF12E09E714E420E030E0A901BC
:105A200062EE78E085E996E10E94C9D58091540B39
:105A3000882351F2C5CEC63031F5E12C10ECF12EA1
:105A400009E714E420E030E0A9016EED78E086E893
:105A500096E10E94C9D58091540B8823A1F0B0CE65
:105A600093E0591609F438CF24E0521609F46ECFAA
:105A700085E0581609F4A4CF96E0591291CE809192
:105A8000640B8111D8CF80913902882309F488CE24
:105A90004F923F921F921F928EED98E09F938F93AB
:105AA0008CE796E19F938F93DF9381E0C63009F0F6
:105AB00080E08F930E94C8C88DB79EB70A960FB634
:105AC000F8949EBF0FBE8DBF6BCEEF92FF920F93E7
:105AD0001F93CF93DF9300D01F92CDB7DEB7109204
