:100000000C94861A0C94B71A0C94B71A0C94B71A5D
:100010000C94B71A0C94B71A0C94B71A0C94B71A1C
:100020000C94B71A0C94B71A0C94B71A0C94B71A0C
:100030000C94B71A0C94B71A0C94B71A0C94B71AFC
:100040000C94B71A0C94DFCE0C94B71A0C94B71A10
:100050000C94B71A0C94B71A0C947FC90C94D3F86B
:100060000C94B71A0C94744F0C94B71A0C94B71ADA
:100070000C94B71A0C94B71A0C94B71A0C94B71ABC
:100080000C9427D80C94B71A0C94B71A0C94B71A7E
:100090000C94B71A0C94B71A0C94B71A0C94B71A9C
:1000A0000C94B71A0C94B71A0C94F9D70C94B71A8D
:1000B0000C94B71A0C94B71A0C94B71A0C94CBD7AB
:1000C0000C94B71A0C94B71A0C94B71A0C94B71A6C
:1000D0000C94B71A0C94B71A0C94B71A0C94B71A5C
:1000E0000C94B71A084AD73B3BCE016E84BCBFFDC7
:1000F000C12F3D6C74319ABD56833DDA3D00C77FF8
:1001000011BED9E4BB4C3E916BAAAABE0000008090
:100110003F05A84CCDB2D44EB93836A9020C50B91F
:10012000918688083CA6AAAA2ABE000000803F004B
:100130000C9435E80C94BBEF0C94049F0C940D8A3E
:100140000C94E89C0C942D880C94E9BC0C9463E806
:100150000C9448E80C94F4F40C94E5B50C9472F506
:100160000C942BDB0C947CFC0C9445AD0C9459BE88
:100170000C94D0FB0C94B2C00C940DF50C9435FD8E
:100180000C94E6BB0C9442E80C943BF50C94F2BB47
:100190000D945F060D949D010D9410160C9423E8A8
:1001A0000C9454F50C94F9D90C94E31B0C94BC9E5C
:1001B0000C94D1F90C94CB8A0C9438E80C9469B067
:1001C0000C94ECF40C94C1FE0C9431F50D94860063
:1001D0000C94E0BB0C945EE80C94AA9E0C94BBA912
:1001E0000C9416880C94609C0C9468F50C941FF584
:1001F0000C9469BA0C9496A70C9453A60C9486F5AB
:100200000D9476080C9445F50C946FBA0C9429E87B
:100210000C94E21B0C9480F20C9463BA0C946CB0B6
:100220000C94C5A40C9417F50D94D1060D94A70158
:100230000C94F9F40C94D89B0C9450E80D94590745
:100240000C945EF50C944CE80C947CF50C940B8AA1
:100250000C9466B00C947FA10C943EE80C94DAFBED
:100260000C9490880C9456E80C941AC60C94FBC518
:100270000C94E0BD0C945AE80C94121C0C9475BAC2
:100280000C9444880C94D8E70C940BB70C94D7E5E5
:100290000D9454140C94ECBB0C94B09E0C94B69E2C
:1002A0000C94B3260C94AEB70C946AB40C942DE85D
:1002B0000C947BBA0C9407A30C945BA20C9464E896
:1002C0000C945FDD0C94A6AB0C9403F50C9498A0F1
:1002D0000D94E1070C9468E80C9431E80C9427F530
:1002E0000C94CADF0C9426A44E414E494E495459F1
:1002F000494E46CDCCCC3D0AD7233C17B7D13877F1
:10030000CC2B329595E6241FB14F0A000020410006
:1003100000C84200401C4620BCBE4CCA1B0E5AAE50
:10032000C59D74434F4D4D554E49434154494F4E21
:100330000044525952554E004552524F52530049B3
:100340004E464F004543484F004D65736820566147
:100350006C69646174696F6E2053746F707065644A
:100360002E00696E206D6F76655F746F2829206698
:100370006565645F76616C756520666F722058599B
:100380003A004C656176696E672047323600473225
:10039000362048656174696E67204E6F7A7A6C65A5
:1003A0002E004732362048656174696E67204265C9
:1003B000642E00446F6E65205072696D696E67002F
:1003C000446F6E65205072696D696E67004669788A
:1003D0006564204C656E677468205072696D652E87
:1003E00000557365722D436F6E74726F6C6C65642B
:1003F000205072696D65002C2065793D0029202D03
:100400003E202865783D002C2073793D0020436F05
:100410006E6E656374696E672077697468207665AF
:1004200072746963616C206C696E65202873783D15
:10043000002C2065793D0029202D3E202865783D3F
:10044000002C2073793D0020436F6E6E65637469E4
:100450006E67207769746820686F72697A6F6E744E
:10046000616C206C696E65202873783D004C656175
:1004700076696E6720473236002C2079693D00206E
:100480002020446F696E6720636972636C65206128
:10049000743A202878693D003F5370656369666946
:1004A000656420582C5920636F6F7264696E6174A3
:1004B00065206F7574206F6620626F756E64732E91
:1004C0000A003F28522965706561742076616C7559
:1004D00065206E6F7420706C61757369626C653B2A
:1004E000206D757374206265206174206C65617382
:1004F0007420312E0A003F53706563696669656434
:10050000206E6F7A7A6C652074656D7065726174A7
:10051000757265206E6F7420706C61757369626CA2
:10052000652E0A003F5370656369666965642066DD
:10053000696C616D656E742073697A65206E6F7485
:1005400020706C61757369626C652E0A003F537090
:1005500065636966696564207072696D65206C65A4
:100560006E677468206E6F7420706C617573696259
:100570006C652E0A003F5370656369666965642087
:100580006E6F7A7A6C652073697A65206E6F74205D
:10059000706C61757369626C652E0A003F526574F8
:1005A00072616374696F6E204D756C7469706C69EB
:1005B0006572206D75737420626520737065636960
:1005C000666965642E0A003F5370656369666965F4
:1005D000642052657472616374696F6E204D756C2E
:1005E0007469706C696572206E6F7420706C6175CF
:1005F0007369626C652E0A003F53706563696669B2
:100600006564206C6179657220686569676874202B
:100610006E6F7420706C61757369626C652E0A0070
:100620003F53706563696669656420626564207420
:10063000656D7065726174757265206E6F7420707F
:100640006C61757369626C652E0A004732362063EF
:100650006F6D6D616E6420737461727465642E20B9
:1006600057616974696E6720666F7220686561748E
:1006700065722873292E0A005061726164612064DA
:100680006520656D657267656E63696100446574B8
:10069000656E696461005072696E7465722073746E
:1006A0006F707065642064756520746F2065727268
:1006B0006F72732E204669782074686520657272A7
:1006C0006F7220616E6420757365204D3939392051
:1006D000746F20726573746172742E202854656D76
:1006E00070657261747572652069732072657365D7
:1006F000742E2053657420697420616674657220BD
:1007000072657374617274696E67290A004E6F2096
:10071000436865636B73756D2077697468206C69D5
:100720006E65206E756D6265722C204C617374204D
:100730004C696E653A2000636865636B73756D2064
:100740006D69736D617463682C204C617374204C07
:10075000696E653A20004C696E65204E756D626564
:1007600072206973206E6F74204C617374204C6921
:100770006E65204E756D6265722B312C204C617355
:1007800074204C696E653A20004D313130004D3394
:100790003100473120463130303020583020593236
:1007A0003130004732382058590053442072656177
:1007B00064206572726F720A00446F6E65207072F9
:1007C000696E74696E672066696C650A0020496EFF
:1007D00076616C6964206578747275646572200056
:1007E00042696C696E656172204C6576656C696EF4
:1007F0006720477269643A0A00473238205A20500D
:10080000726F68696269646F0A00473238205A2043
:1008100050726F68696269646F0020706F736974E9
:10082000696F6E206F7574206F662072616E6765E8
:100830002E0A003F50726F626520002028445259F2
:1008400052554E2900473239204175746F20426558
:1008500064204C6576656C696E6700284229616387
:100860006B00284629726F6E7400285229696768E8
:100870007400284C29656674003F28562965726209
:100880006F7365206C6576656C20697320696D7087
:100890006C61757369626C652028302D34292E0ACD
:1008A00000426164205A2076616C75650A004E6FC3
:1008B0002062696C696E65617220677269640A0002
:1008C0004D3132350044656C6574696F6E20666128
:1008D000696C65642C2046696C653A200046696C39
:1008E000652064656C657465643A006F70656E20A0
:1008F0006661696C65642C2046696C653A2000432A
:10090000616C656E74616D69656E746F206C69737E
:10091000746F0020573A00452569202573004D610A
:10092000676E612031206C697374612E00506C61B8
:100930007461666F726D612043616C69656E746588
:100940000020573A0043616C656E74616E646F20DD
:10095000506C61742E2E2E00205A3A0020593A0015
:1009600020436F756E7420583A0020453A00205A93
:100970003A0020593A00583A003A004361703A0070
:10098000205A00205900580020204D61783A20005C
:10099000205A00205900580020204D696E3A20004E
:1009A000456E63656E6465720041706167617200D7
:1009B000536F667420656E6473746F70733A2000B1
:1009C00020643A0020693A0020703A004B6420000D
:1009D00023646566696E65202044454641554C5444
:1009E0005F004B69200023646566696E65202044C2
:1009F000454641554C545F004B70200023646566AA
:100A0000696E65202044454641554C545F0050496D
:100A100044204175746F74756E652066696E6973E4
:100A2000686564212050757420746865206C61735A
:100A300074204B702C204B6920616E64204B642025
:100A4000636F6E7374616E74732066726F6D206273
:100A5000656C6F7720696E746F20436F6E6669678F
:100A600075726174696F6E2E680A005049442041A6
:100A700075746F74756E65206661696C656421209C
:100A800074696D656F75740A004572726F723A20F1
:100A900074656D7065726174757261005468657219
:100AA0006D616C2052756E61776179004572726F6D
:100AB000723A20616C2063616C656E7461720048EB
:100AC000656174696E67206661696C656400504990
:100AD00044204175746F74756E65206661696C653C
:100AE00064212054656D706572617475726520743F
:100AF0006F6F20686967680A00204B643A20002005
:100B00004B693A2000204B703A20000A20436C6168
:100B10007373696320504944200A002054753A20B9
:100B200000204B753A2000206D61783A2000206D3E
:100B3000696E3A200020643A200020626961733AAD
:100B400020004170616761720A0046616465204857
:100B500065696768742000426564204C6576656C41
:100B6000696E6720004661696C656420746F20655A
:100B70006E61626C6520426564204C6576656C69C7
:100B80006E670A0054454D5020544F4F204C4F572C
:100B9000210047322F473320626164207061726107
:100BA0006D65746572730A005265706F736F2E2ED7
:100BB0002E00205A3A200020593A20004265642035
:100BC000583A20004D65736820706F696E74206319
:100BD000616E6E6F74206265207265736F6C7665EE
:100BE000640A00526573756D69656E646F20696D86
:100BF0007072652E004D61676E612031206C6973E3
:100C000074612E004573706572616E646F206F723F
:100C100064656E65730053696E206D6F76696D69EA
:100C2000656E746F00456E642066696C65206C6942
:100C300073740A00426567696E2066696C65206C92
:100C40006973740A002569730025696D202569732D
:100C5000002569682025696D202569730025696470
:100C6000202569682025696D20256973002569792B
:100C700020256964202569682025696D2025697310
:100C8000005072696E742074696D653A200050726C
:100C90006F7465637465642050696E0A006F6E2E10
:100CA0000A006F66662E0A00473236204465627578
:100CB000672000452569202573004D61676E61201E
:100CC00031206C697374612E006F66660044033FC7
:100CD0000338033103230344454255473A0050612A
:100CE0007261646120646520656D657267656E631D
:100CF0006961004D3131332053006F6B004D6167E6
:100D00006E612031204170616761722E00454D4552
:100D10005247454E43595F5041525345520043415B
:100D200053455F4C494748545F4252494748544EE7
:100D300045535300544F47474C455F4C494748542F
:100D40005300534F4654574152455F504F574552F9
:100D5000004255494C445F50455243454E54004C67
:100D60004556454C494E475F44415441005A5F50F7
:100D7000524F4245004155544F4C4556454C00504A
:100D800052494E545F4A4F420050524F47524553CA
:100D900053004155544F5245504F52545F54454DA6
:100DA0005000564F4C554D4554524943004545500F
:100DB000524F4D0053455249414C5F584F4E5F587A
:100DC0004F4646004649524D574152455F4E414DB0
:100DD000453A4D61726C696E20312E312E382E33BA
:100DE00020284769746875622920534F555243453E
:100DF0005F434F44455F55524C3A68747470733A80
:100E00002F2F6769746875622E636F6D2F4D617245
:100E10006C696E4669726D776172652F4D61726C97
:100E2000696E2050524F544F434F4C5F56455253BA
:100E3000494F4E3A312E30204D414348494E455F8F
:100E4000545950453A4D61676E61203120455854E0
:100E500052554445525F434F554E543A31205555F3
:100E600049443A63656465326132662D34316132DA
:100E70002D343734382D396231322D6335356336B0
:100E8000326633363766660A002F2F20004D313424
:100E90003520533C696E6465783E206F7574206F11
:100EA000662072616E67652028302D31290A005353
:100EB000657474696E672054726176656C20416355
:100EC00063656C65726174696F6E3A200053657476
:100ED00074696E6720526574726163742041636344
:100EE000656C65726174696F6E3A20005365747445
:100EF000696E67205072696E7420416363656C652A
:100F0000726174696F6E3A200053657474696E671C
:100F1000205072696E7420616E642054726176652F
:100F20006C20416363656C65726174696F6E3A2011
:100F300000000125272318FF1F211D1CFF19171B67
:100F40001EFFFF0C0409FFFFFF2E2C0CFFFF0440C7
:100F50000AFF41FFFFFFFFFFFF3A200020536572A9
:100F6000766F2000206F7574206F662072616E6747
:100F7000650A00536572766F200020643A0020698C
:100F80003A0020703A0043290A0061626C656420CF
:100F9000286D696E2074656D702000436F6C64204D
:100FA00065787472756465732061726520004D65A3
:100FB000736820706F696E742063616E6E6F742049
:100FC0006265207265736F6C7665640A004D343219
:100FD0003120696E636F7272656374207061726133
:100FE0006D657465722075736167650A003A20004B
:100FF000207A5F6D696E3A20202D3230207A5F6D45
:1010000061783A202032300A0050726F6265205AAF
:10101000204F66667365740043617365206C696771
:1010200068743A2000290A00466978656420706176
:1010300072616D657465722062797465733B2063BB
:1010400072632000466978656420706172616D6525
:1010500074657220280048565F7365745F6F6B0A71
:1010600000416374697665204578747275646572B1
:101070003A2000556E6B6E6F776E20636F6D6D61F9
:101080006E643A202200526573656E643A20006FE8
:101090006B0020746F6F206C6F6E672065787472C0
:1010A0007573696F6E2070726576656E7465640A1B
:1010B0000020636F6C6420657874727573696F6E5D
:1010C0002070726576656E7465640A006275737966
:1010D0003A2070617573656420666F7220696E7066
:1010E00075740A00627573793A207061757365646E
:1010F00020666F7220757365720A00627573793AA3
:101100002070726F63657373696E670A0050617255
:1011100061646120646520656D657267656E6369F1
:1011200061004B494C4C20636175736564206279A2
:1011300020746F6F206D75636820696E61637469D8
:1011400076652074696D65202D2063757272656EF9
:101150007420636F6D6D616E643A2000506F722071
:101160006661766F722C207265696E6963696500CD
:10117000494D505245534F524120504152414441F4
:10118000005072696E7465722068616C7465642EBB
:10119000206B696C6C28292063616C6C6564210A82
:1011A000000000E0C0000000C1000000000000C816
:1011B000420000C8420000A04100000000576172D8
:1011C0006E696E673A20486F6D696E672042756D73
:1011D000702044697669736F72203C20310A0002E6
:1011E00002040000A0400000A040000000400000F9
:1011F00063430000644300008243FFFFFF4D36302D
:101200003020486F74656E6420746F6F20636F6C5C
:101210006420746F206368616E67652066696C6125
:101220006D656E740A007C3C3E5E2B3D3F2F5B5D1E
:101230003B2C2A225C004572726F722077726974AF
:10124000696E6720746F20454550524F4D210A004A
:10125000290A002062797465733B20637263200061
:1012600053657474696E67732053746F726564207C
:101270002800446F776E0A00290A57726974652046
:1012800066696C65206E616D6520416D69743A20F8
:10129000002062797465733B206372632000506F95
:1012A0007765726F66662053746F726564202800DC
:1012B000446F776E0020213D2000637263206572C9
:1012C000726F723A20000A726561642066696C650B
:1012D000206E616D653A2000290A7265616420669E
:1012E000696C65206469723A2000206279746573C4
:1012F0003B206372632000706F7765726F666620B3
:1013000073746F7265642073657474696E6773209B
:1013100072657472696576656420280020286361AF
:101320006C63756C6174656429210A0020213D207D
:1013300000454550524F4D20435243206D69736D17
:1013400061746368202D202873746F72656429208E
:1013500000290A002062797465733B206372632060
:10136000002073746F7265642073657474696E67AE
:101370007320726574726965766564202800204D5B
:1013800061726C696E3D563131290A00284545501D
:10139000524F4D3D00454550524F4D20766572737A
:1013A000696F6E206D69736D6174636820004861B8
:1013B0007264636F6465642044656661756C742053
:1013C00053657474696E6773204C6F616465640A59
:1013D00000F4010000F401000064000000E80300D4
:1013E000000000FA430000FA430000A0400000C8DB
:1013F000410000A0420000A0420000C8430000BA23
:101400004220204D383531205A005A2D50726F62DB
:1014100065204F666673657420286D6D293A0A0051
:1014200020440020490020204D333034205000203B
:10143000440020490020204D3330312050005049D5
:10144000442073657474696E67733A0A002046001D
:1014500020420020480020204D3134352053004DDB
:101460006174657269616C20686561747570207063
:101470006172616D65746572733A0A00205A0020CA
:10148000204D3432302053004175746F2042656422
:10149000204C6576656C696E673A0A00204500202D
:1014A0005A002059002058002042002054002020DB
:1014B0004D323035205300416476616E6365643A85
:1014C00020533C6D696E5F66656564726174653E4C
:1014D00020543C6D696E5F74726176656C5F666501
:1014E0006564726174653E20423C6D696E5F736530
:1014F000676D656E745F74696D655F75733E2058C6
:101500003C6D61785F78795F6A65726B3E205A3C0A
:101510006D61785F7A5F6A65726B3E20453C6D61F4
:10152000785F655F6A65726B3E0A00205400205246
:101530000020204D323034205000416363656C65DB
:10154000726174696F6E2028756E6974732F7332BF
:10155000293A20503C7072696E745F616363656CF8
:101560003E20523C726574726163745F61636365AF
:101570006C3E20543C74726176656C5F6163636598
:101580006C3E0A00204500205A0020590020204DC2
:101590003230312058004D6178696D756D2041639E
:1015A00063656C65726174696F6E2028756E69740D
:1015B000732F7332293A0A00204500205A0020591F
:1015C0000020204D3230332058004D6178696D7510
:1015D0006D206665656472617465732028756E6937
:1015E00074732F73293A0A00204500205A002059AD
:1015F0000020204D393220580053746570732070DC
:10160000657220756E69743A0A0020204D323030C0
:101610002044300A0020204D323030204400204445
:10162000697361626C65640A0046696C616D656E20
:10163000742073657474696E67733A0020204D31AD
:1016400034392043203B20556E69747320696E2025
:1016500043656C736975730A00202047323120207E
:1016600020203B20556E69747320696E206D6D0AD1
:10167000007A5F6D696E3A2000795F6D696E3A207D
:1016800000785F6D696E3A20005265706F72746900
:101690006E6720656E6473746F7020737461747507
:1016A000730A0020746F6F206C6F6E67206578740A
:1016B000727573696F6E2070726576656E7465649D
:1016C0000A0020636F6C6420657874727573696FAB
:1016D0006E2070726576656E7465640A0024F4D4B9
:1016E0003050C38E20C2A24017828B7011127A91A3
:1016F0000D816CD90AA861E108C75866076151439A
:10170000061E4B5D05C145A7041A411104093D9809
:1017100003713931034036DB0265339102D4305412
:1017200002802E1D02632CEE01752AC501B028A08F
:1017300001102781018F2564012B244B01E0223405
:1017400001AC211F018D200D01801FFC00841EEDC6
:1017500000971DDF00B81CD200E61BC600201BBC92
:1017600000641AB200B219A8000A19A0006A1899F8
:1017700000D117910040178B00B516840031167EFA
:1017800000B31579003A157300C7146F0058146A36
:1017900000EE1366008813630025135E00C7125B1A
:1017A000006C12570015125400C111510070114FF6
:1017B0000021114B00D61049008D104700461044FF
:1017C0000002104200C00F4000800F3E00420F3C5C
:1017D00000060F3B00CB0E3800930E37005C0E3531
:1017E00000270E3400F30D3200C10D3100900D3092
:1017F00000600D2E00320D2D00050D2C00D90C2B94
:1018000000AE0C2900850C29005C0C2700350C2744
:10181000000E0C2600E80B2400C40B2400A00B23B0
:10182000007D0B23005A0B2100390B2100180B20DF
:1018300000F80A1F00D90A1E00BB0A1E009D0A1DDF
:1018400000800A1D00630A1C00470A1B002C0A1BAB
:1018500000110A1A00F7091A00DD091900C4091954
:1018600000AB091900920917007B091800630917DA
:10187000004C09160036091600200916000A091541
:1018800000F5081500E0081400CC081400B808148E
:1018900000A4081400900813007D0812006B0813C0
:1018A00000580812004608120034081100230811DD
:1018B000001208110001081100F0071000E00710E5
:1018C00000D0071000C0071000B0070F00A10710DC
:1018D0000091070E0083070F0074070F0065070EC5
:1018E0000057070E0049070E003B070D002E070E9C
:1018F0000020070D0013070D0006070D00F9060C68
:1019000000ED060D00E0060C00D4060C00C8060C25
:1019100000BC060C00B0060C00A4060B0099060CD7
:10192000008D060B0082060B0077060B006C060B81
:101930000061060A0057060B004C060A0042060A20
:101940000038060A002E060A0024060A001A060AB3
:10195000001006090007060A00FD050900F4050944
:1019600000EB050900E2050900D9050900D00509C9
:1019700000C7050900BE050900B5050800AD05084A
:1019800000A50509009C050800940508008C0508C1
:1019900000840508007C050800740508006C050734
:1019A00000650508005D050700560508004E05079F
:1019B0000047050700400508003805070031050706
:1019C000002A050700230507001C05060016050769
:1019D000000F0507000805060002050700FB0406C6
:1019E00000F5040700EE040600E8040600E2040720
:1019F00000DB040600D5040600CF040600C9040677
:101A000000C3040600BD040600B7040600B10405C7
:101A100000AC040600A6040600A00405009B040612
:101A20000095040500900406008A0405008504055D
:101A300000800406007A04050075040500700405A2
:101A4000006B04050066040500610405005C0405E4
:101A50000057040500520405004D04050048040524
:101A600000430405003E0404003A04050035040563
:101A700000300404002C040500270404002304059E
:101A8000001E0404001A04040016040500110404D6
:101A9000000D04040009040500040404000004040B
:101AA00000FC030400F8030400F4030400F0030442
:101AB00000EC030400E8030400E4030400E0030472
:101AC00000DC030400D8030400D4030400D00304A2
:101AD00000CC030400C8030300C503030024F4047E
:101AE000D9201BC40C5C0E9804C4095F0265077101
:101AF00001F405F900FB04B30048048700C1036941
:101B0000005803550003034500BE023A0084023129
:101B10000053022A002902250004022000E4011CCF
:101B200000C8011900AF01170098011400840113C7
:101B300000710110006101100051010E0043010D00
:101B40000036010B002B010B0020010B00150109D1
:101B5000000C01090003010800FB000800F3000865
:101B600000EB000700E4000600DE000600D80006D7
:101B700000D2000600CC000500C7000500C2000529
:101B800000BD000400B9000400B5000400B1000469
:101B900000AD000400A9000400A5000300A200039A
:101BA000009F0004009B00030098000300950002C2
:101BB0000093000300900003008D0002008B0003DF
:101BC00000880002008600020084000300810002F9
:101BD000007F0002007D0002007B0002007900020D
:101BE000007700010076000200740002007200011C
:101BF00000710002006F0002006D0001006C000225
:101C0000006A00010069000200670001006600012F
:101C10000065000100640002006200010061000133
:101C200000600001005F0002005D0001005C000137
:101C3000005B0001005A000100590001005800013A
:101C4000005700010056000100550001005400013A
:101C50000053000000530001005200010051000138
:101C600000500001004F0001004E0000004E000136
:101C7000004D0001004C0001004B0000004B000132
:101C8000004A00010049000100480000004800012E
:101C9000004700010046000000460001004500002A
:101CA0000045000100440001004300000043000122
:101CB000004200000042000100410000004100011C
:101CC00000400001003F0000003F0001003E000016
:101CD000003E0001003D0000003D0001003C00000E
:101CE000003C0000003C0001003B0000003B000104
:101CF000003A0000003A00010039000000390001FC
:101D000000380000003800000038000100370000F3
:101D100000370001003600000036000000360001E8
:101D200000350000003500000035000100340000DF
:101D300000340000003400010033000000330000D4
:101D400000330001003200000032000000320001C8
:101D500000310000003100000031000100300000BF
:101D60000030000000300001002F0000002F0000B4
:101D7000002F0000002F0001002E0000002E0000A8
:101D8000002E0001002D0000002D0000002D00009D
:101D9000002D0001002C0000002C0000002C000091
:101DA000002C0001002B0000002B0000002B000085
:101DB000002B0001002A0000002A0000002A000079
:101DC000002A00010029000000290000002900006D
:101DD0000029000000290001002800000028000060
:101DE0000028000000280000002800010027000053
:101DF0000027000000270000002700000027000146
:101E0000002600000026000000260000002600003A
:101E1000002600010025000000250000002500002C
:101E2000002500000025000000250001002400001E
:101E30000024000000240000002400000024000111
:101E40000023000000230000002300000023000006
:101E500000230000002300000023000100220000F6
:101E600000220000002200000022000000220000EA
:101E700000220001002100000021000000210000DC
:101E800000210000002100000021000000210001CD
:101E900000200000002000000020000000200000C2
:101EA00000200000002000000020000000200001B1
:101EB000001F0000001F0000001F0000001F0000A6
:101EC000001F0000001F0000001F0001001E000096
:101ED000001E0000001E0000001E0000004D3834EF
:101EE00020582059205A2045005A25752C45256C2C
:101EF000752C50256C752C5425752C4225752C009D
:101F00004D61676E612031206C697374612E004DE4
:101F100061676E612031206C697374612E004572B7
:101F2000723A4E6F2046696C616D656E7400626531
:101F3000640A002C2073797374656D2073746F705C
:101F400070656421204865617465725F49443A2078
:101F5000004572726F723A20616C2063616C656E2D
:101F60007461720048656174696E67206661696CAE
:101F70006564004572726F723A20616C2063616C17
:101F8000656E7461720048656174696E6720666190
:101F9000696C65640070012C0190012701B0012279
:101FA00001C0011D01F00118011002130130020EE1
:101FB000016002090190020401C002FF000003FA5F
:101FC000004003F5008003F000D003EB002004E69E
:101FD000007004E100E004DC004005D700C005D239
:101FE000004006CD00D006C8008007C3003008BE00
:101FF00000F008B900C009B400B00AAF00B00BAAE5
:1020000000D00CA500000EA000500F9B00C0109641
:10201000005012910000148C00C0158700B0178288
:1020200000B0197D00D01B7800001E730040206EA8
:102030000090226900F024640040275F0090295A34
:1020400000E02B5500102E500020304B001032467F
:1020500000E033410090353C0010373700703832D3
:1020600000A0392D00B03A2800A03B2300603C1EA0
:1020700000103D1900903D1400103E0F00703E0A04
:1020800000C03E0500003F0000403FFBFF803FF6E0
:10209000FFC03FF1FF4572726F723A2054656D7058
:1020A000204D696E20506C6174004572726F723AF7
:1020B0002054656D70204D696E696D61004D494E0B
:1020C00054454D50207472696767657265640045B8
:1020D00072726F723A2054656D70204D6178205095
:1020E0006C6174004572726F723A2054656D702095
:1020F0004D6178696D61004D415854454D502074D3
:10210000726967676572656400202F002042403A5B
:102110000020403A00001C1F11111F00000006198A
:102120001803130C00040E1F041C00000000101004
:1021300010101010000014141414141400001515BD
:102140001515151500000E1315110E00001C1018A2
:102150001705060500040A0A0A0A11110E0C1212CC
:102160000C00000000001F1511151F0000000000EA
:1021700000010204040000001C1C0C040404020101
:10218000000000000004081000000000004D313085
:1021900034205325750047393220452575004739CD
:1021A00032205A25752E2575004D3530300043619B
:1021B0006E63656C207072696E74005265616E7535
:1021C00064617220696D70726573696F6E00506F23
:1021D000776572206F75746167650025753A2530E3
:1021E000327500253032753A25303275002D2D2D8F
:1021F000005344005A005900580053746F7720422E
:102200004C546F756368004D323830205030205385
:102210003930004465706C6F7920424C546F75639F
:1022200068004D3238302050302053313000424C5D
:10223000546F756368204175746F2D5072756562B7
:1022400061004D323830205030205331323000524E
:1022500065696E696369617220424C546F75636889
:10226000004D3238302050302053313630004D652B
:102270006E75207072696E636970616C005072696E
:102280006E7420706175736564004D3132350000E5
:102290002573004D323400496D70726573696F6E3D
:1022A0002063616E63656C61646100473238205859
:1022B0005900473930004731204631303030205AFC
:1022C000323000473931004E6F20686179207461E7
:1022D000726A657461205344004D656E75206465B3
:1022E00020534400446574656E657220696D707298
:1022F0006573696F6E005265616E75646172206905
:102300006D70726573696F6E00496E662E20496D3F
:10231000707265736F7261005061757361722069CC
:102320006D70726573696F6E00436F6E74726F6C5F
:1023300000507265706172617200416A75737461F8
:102340007200496E666F726D6163696F6E004D69F0
:1023500063726F7061736F205A004D3630302042C7
:10236000300043616D626961722066696C616D6500
:102370006E746F004D6963726F7061736F205A00E5
:10238000466C756A6F00466C756A6F0056656E74B0
:10239000696C61646F720056656E74696C61646F1C
:1023A0007200506C617461666F726D6100506C6197
:1023B0007461666F726D6100426F7175696C6C61FA
:1023C00000426F7175696C6C610056656C6F636972
:1023D0006461640056656C6F6369646164004D6597
:1023E0006E75207072696E636970616C0050726501
:1023F00063616C656E74617220504C4120456E645F
:102400000050726563616C656E74617220504C415E
:10241000506C617461666F726D61005072656361CA
:102420006C656E74617220504C4100507265706131
:102430007261720050726563616C656E74617220C6
:1024400041425320456E640050726563616C656E55
:1024500074617220414253506C617461666F726D99
:10246000610050726563616C656E746172204142F7
:1024700053005072657061726172004174726173D1
:10248000004E65787420636F726E6572004D32384D
:1024900030205030205331363000424C546F756339
:1024A00068204175746F2D507275656261004D3200
:1024B0003830205030205331323000507265636123
:1024C0006C656E74617220414253005072656361A5
:1024D0006C656E74617220504C4100456E66726985
:1024E00061720043616D626961722066696C616D41
:1024F000656E746F005265696E696369617220422E
:102500004C546F75636800417061676172206D6F34
:10251000746F726573004D3834004C6576656C20BD
:10252000636F726E657273004E6976656C617220BE
:10253000706C617461666F726D61004732380A4772
:102540003239004C6C6576617220616C206F726963
:1025500067656E00473238004D6F76657220656A98
:102560006573004D656E75207072696E6369706188
:102570006C004D6F7665722058004D6F7665722045
:1025800059004D6F766572205A00457874727573E4
:102590006F72004D6F76657220302E316D6D004D7B
:1025A0006F76657220316D6D004D6F7665722031EA
:1025B000306D6D004D6F76657220656A65730048F9
:1025C0006F74656E6420746F6F20636F6C64004578
:1025D00078747275736F72004D6F766572205A0051
:1025E0004D6F7665722059004D6F766572205800E8
:1025F0004578747275736F72004D6F766572205AEC
:10260000004D6F7665722059004D6F7665722058C7
:1026100000507265706172617200496E697469611F
:102620006C697A6520454550524F4D00436F6E747A
:10263000726F6C00526573746175726172206D65A2
:102640006D6F72696100436172676172206D656DC3
:102650006F72696100496E697469616C697A65209D
:10266000454550524F4D0047756172646172206D4F
:10267000656D6F72696100424C546F756368004606
:10268000696C616D656E746F004D6F76696D69651B
:102690006E746F0054656D7065726174757261005F
:1026A0004D656E75207072696E636970616C004D66
:1026B000333033205531204525692053256900509A
:1026C000726563616C656E74617220414253436F41
:1026D0006E6669670050726563616C656E746172E5
:1026E00020504C41436F6E66696700504944204159
:1026F00075746F74756E6500504944204175746F30
:1027000074756E65005049442D44005049442D4471
:10271000005049442D49005049442D490050494436
:102720002D50005049442D50002002204661637412
:102730000020022046616374002002204D61780071
:102740002002204D6178002002204D696E00200299
:10275000204D696E0041706167617200456E63656E
:102760006E6465720054656D706572617475726136
:10277000204175746F2E0056656E74696C61646FCC
:10278000720056656E74696C61646F7200506C61A2
:102790007461666F726D6100506C617461666F7216
:1027A0006D6100426F7175696C6C6100426F71758B
:1027B000696C6C6100436F6E74726F6C0047756179
:1027C00072646172206D656D6F72696100506C6139
:1027D0007461666F726D6100506C617461666F72D6
:1027E0006D6100426F7175696C6C6100426F71754B
:1027F000696C6C610056656E74696C61646F72001F
:1028000056656E74696C61646F720054656D7065B5
:102810007261747572610056656C2E207669616A0A
:1028200065206D696E0056656C2E207669616A655B
:10283000206D696E00566D696E00566D696E0056AA
:102840006D61784500566D61784500566D61785A26
:1028500000566D61785A00566D61785900566D6169
:10286000785900566D61785800566D617858004D62
:102870006F76696D69656E746F004163656C2E20BB
:102880006D617845004163656C2E206D617845006F
:102890004163656C2E206D61785A004163656C2E32
:1028A000206D61785A004163656C2E206D61785906
:1028B000004163656C2E206D617859004163656C41
:1028C0002E206D617858004163656C2E206D617813
:1028D00058004163656C2E205669616A650041634A
:1028E000656C2E205669616A65004163656C2E2017
:1028F0007265747261632E004163656C2E2072658F
:10290000747261632E004163656C65726163696F07
:102910006E004163656C65726163696F6E004D6F37
:1029200076696D69656E746F0056652D6A65726BA8
:102930000056652D6A65726B00567A2D6A65726B5A
:1029400000567A2D6A65726B0056792D6A65726B36
:102950000056792D6A65726B0056782D6A65726B28
:102960000056782D6A65726B004D6F76696D6965EA
:102970006E746F0045207061736F732F6D6D00452D
:10298000207061736F732F6D6D005A207061736FCB
:10299000732F6D6D005A207061736F732F6D6D0012
:1029A00059207061736F732F6D6D005920706173C2
:1029B0006F732F6D6D0058207061736F732F6D6D85
:1029C0000058207061736F732F6D6D004D6F7669C5
:1029D0006D69656E746F005061736F732F6D6D005C
:1029E0004A65726B004163656C65726163696F6E05
:1029F0000056656C6F636974790044657366617332
:102A000065205A0044657366617365205A00436F00
:102A10006E74726F6C00456E63656E646572005211
:102A2000756E6F75742073656E736F72730041708D
:102A3000616761720046696C2E204469612E004610
:102A4000696C2E204469612E0041706167617200DB
:102A5000456E63656E646572004520696E206D6D1C
:102A60003300436F6E74726F6C0043616E6E6F74EF
:102A700020656E746572207375626469723A200015
:102A8000052E2E004D656E75207072696E6369703B
:102A9000616C0054656D7065726174757261206D52
:102AA0006178696D613A203132350054656D706529
:102AB000726174757261206D696E696D613A20355D
:102AC00000544265643A4550434F53203130304BF7
:102AD0000054656D7065726174757261206D617806
:102AE000696D613A203236350054656D70657261EA
:102AF00074757261206D696E696D613A203500549C
:102B0000303A204550434F53203130304B0046750A
:102B1000656E746520646520706F6465723A204745
:102B2000656E657269630050726F746F636F6C6F6E
:102B30003A20312E30002020202048572056657240
:102B40003A2056004657205665723A2056322E31AA
:102B50000042617564696F733A203235303030302D
:102B6000004754323536302056342E300042696CDE
:102B7000696E656172204C6576656C696E670045AB
:102B800078747275736F7265733A2031006874746B
:102B9000703A2F2F68656C6C626F742E78797A00AA
:102BA0004D61676E61203100323031372D31322D69
:102BB00032352031323A303000312E312E382E333A
:102BC000004D61726C696E005465726D6973746F4B
:102BD00072657300496E662E20436F6E74726F6C5F
:102BE00061646F7200496E662E20496D7072657364
:102BF0006F7261004D656E75207072696E636970E9
:102C0000616C002020426F7175696C6C613A200024
:102C100041747261730054656D70204D696E696D09
:102C200061206573203137302E004572726F723A21
:102C300020616C2063616C656E746172004578740C
:102C400072756972206D617300526573756D69727A
:102C500020696D702E004F50432E205245494E4939
:102C600043494F3A002020426F7175696C6C613A9C
:102C7000200063616D626961720064656C20666941
:102C80006C616D656E746F004573706572616E6422
:102C90006F20696E696369617200494D50522E2040
:102CA00050415553414441002020426F7175696C79
:102CB0006C613A200066696C616D656E746F2065A9
:102CC0007870756C7361646F0045737065726164D0
:102CD0006F20706F7200494D50522E205041555355
:102CE000414441002020426F7175696C6C613A204B
:102CF0000045737065726520706F72206661766F33
:102D0000720043616C656E74616E646F20626F71F6
:102D100075696C6C6100494D50522E2050415553DD
:102D2000414441002020426F7175696C6C613A200A
:102D30000043616C656E746172206C6120626F711A
:102D400075696C6C61004F7072696D6120626F749F
:102D50006F6E207061726100494D50522E205041BB
:102D60005553414441002020426F7175696C6C617C
:102D70003A20007061726120636F6E74696E7561D4
:102D8000722E2E2E00792070726573696F6E652029
:102D9000656C20626F746F6E00496E736572746546
:102DA0002066696C616D656E746F00494D50522EDE
:102DB0002050415553414441002020426F717569B4
:102DC0006C6C613A20004361726761722066696CC5
:102DD000616D656E746F00457370657261646F201C
:102DE000706F7200494D50522E205041555341444E
:102DF00041002020426F7175696C6C613A2000457A
:102E00007874727569722066696C616D656E746F35
:102E100000457370657261646F20706F7200494D78
:102E200050522E205041555341444100706172610F
:102E300020726573756D6972004573706572616E9D
:102E4000646F20696D702E00494D50522E20504104
:102E50005553414441005461726A65746120726542
:102E6000746972616461005461726A65746120639F
:102E70006F6C6F6361646100000021002400270013
:102E80002A002D0030003300010100000401070179
:102E90000A0100002200250028002B002E0031002E
:102EA000340002010000050108010B0100002000B0
:102EB0002300260029002C002F0032000001000012
:102EC00003010601090105050505070508080808AD
:102ED000020202020A0A08080404040401010101B2
:102EE00001010101030303030303030304070707AD
:102EF0000C0C0C0C0C0C0C0C020202020606060652
:102F0000060606060B0B0B0B0B0B0B0B010210201E
:102F1000200808102040102040800201020108040F
:102F200002010102040810204080804020100804A3
:102F300002018004020180402010080402010804FC
:102F40000201010204081020408001020408102040
:102F5000408000000A0B02090C0D0E080703040153
:102F60000000000000000000000000000000000061
:102F7000000000000000000000000000000012112E
:102F80001000000000000000000000000000000031
:102F90000000000000000000200D466978656420F4
:102FA000706172616D65746572206E6279746573AB
:102FB0003B20637263206572726F722000200D0ADD
:102FC000466978656420706172616D657465722010
:102FD00062797465733B20637263206572726F72ED
:102FE0002000290A002062797465733B20637263B4
:102FF0002000466978656420706172616D65746552
:10300000722028002068617264776172652076659D
:103010007273696F6E3A002D2D2D2D2D2D2D007C94
:1030200048454C4C424F547C002D2D2D2D2D2D2DDF
:1030300000687474703A2F2F68656C6C626F742E20
:1030400078797A00687474703A2F2F68656C6C62B6
:103050006F742E78797A0020312E312E382E33007D
:103060002020506C616E6E657242756666657242B4
:10307000797465733A20002046726565204D656D50
:103080006F72793A2000436F6D70696C65643A2005
:103090004F637420203320323032300A00207C20ED
:1030A000417574686F723A20286E6F6E652C2064CB
:1030B000656661756C7420636F6E666967290A00C6
:1030C000323031372D31322D32352031323A3030F5
:1030D00000204C61737420557064617465643A20FB
:1030E00000312E312E382E330A004D61726C696E1C
:1030F0000020536F66747761726520526573657442
:103100000A00205761746368646F672052657365B5
:10311000740A002042726F776E206F7574205265BA
:103120007365740A002045787465726E616C205274
:10313000657365740A00506F77657255700A007385
:10314000746172740A006572726F722077726974AA
:10315000696E6720746F2066696C650A00456E644D
:1031600073746F70732025632025632025632025E9
:103170006300205A3A0020593A0020583A00656E00
:103180006473746F7073206869743A200047323832
:1031900020580066696C616D656E74206F75740AE5
:1031A000004D33322053256C7520212573004D339B
:1031B000322053256C7520212F25732F257300474E
:1031C00030204631303030205A25752E2575004785
:1031D00032382059004732382058004D31303620DF
:1031E0002053323535004D313039205430205325AD
:1031F00075004D3139302053257500446F6E6520C0
:10320000736176696E672066696C652E0A004D32BF
:10321000390050726F62696E67206661696C65641F
:103220000A0050726F62696E67206661696C65643E
:1032300000205A3A200020593A2000426564205864
:103240003A2000446574656E696461005072696E6D
:103250007465722073746F70706564206475652086
:10326000746F206572726F72732E204669782074B5
:103270006865206572726F7220616E642075736577
:10328000204D39393920746F2072657374617274FE
:103290002E202854656D70657261747572652069A1
:1032A000732072657365742E2053657420697420D1
:1032B00061667465722072657374617274696E6799
:1032C000290A0053544F502063616C6C656420627E
:1032D000656361757365206F6620424C546F75633A
:1032E00068206572726F72202D207265737461722E
:1032F000742077697468204D3939390A00534420A5
:103300007072696E74696E67206279746520004E10
:103310006F74205344207072696E74696E670A007E
:10332000486F6D652025732573257320696E696369
:103330002E0020696E69632E0A005A005900580059
:10334000486F6D65200057726974696E6720746FED
:103350002066696C653A20006F70656E2066616951
:103360006C65642C2046696C653A20006F70656E50
:10337000206661696C65642C2046696C653A2000A2
:1033800046696C652073656C65637465640A00202A
:1033900053697A653A200046696C65206F70656EE6
:1033A00065643A20006F70656E206661696C6564C3
:1033B0002C2046696C653A20002066696C653A20CD
:1033C00000646F696E67006672657368004E6F77A0
:1033D0002000454E4420535542524F5554494E45C6
:1033E0000A002220706F73002220706172656E7473
:1033F0003A2200535542524F5554494E45204341BD
:103400004C4C207461726765743A2200506172619D
:10341000646120646520656D657267656E636961CE
:1034200000747279696E6720746F2063616C6C2020
:103430007375622D67636F64652066696C657320C0
:103440007769746820746F6F206D616E79206C6588
:1034500076656C732E204D4158206C6576656C2026
:1034600069733A0053442063617264206F6B0A00F1
:103470006F70656E526F6F74206661696C65640A67
:1034800000766F6C756D652E696E69742066616972
:103490006C65640A004572726F723A005344206989
:1034A0006E6974206661696C0A0043616E6E6F74A8
:1034B000206F70656E20737562646972200061759B
:1034C000746F25692E67004D3234004D323320254C
:1034D0007300656E7175657565696E67202200659C
:1034E00063686F3A004572726F723A2074656D704E
:1034F0006572617475726100546865726D616C20EB
:1035000052756E6177617900CC00480111241FBEAD
:10351000CFEFD1E2DEBFCDBF00E00CBF13E0A0E0F3
:10352000B2E0E0E0F6E502E00BBF02C007900D92CA
:10353000A83DB107D9F727E1A8EDB3E001C01D927E
:10354000A535B207E1F71AE1C5E8DAE100E006C007
:1035500021970109802FFE010F94602AC438D107FA
:1035600080E00807A9F70F9425170D94EE2A0C9414
:103570000000CF93DF93EC0120E030E0A9016881E7
:1035800079818A819B810F94C32287FF04C01882AE
:1035900019821A821B8220E030E0A9016C817D81B2
:1035A0008E819F810F94C32287FF04C01C821D82DD
:1035B0001E821F8220E030E04CE553E4688179816F
:1035C0008A819B810F947A29181644F480E090E058
:1035D000ACE5B3E488839983AA83BB8320E030E021
:1035E0004CE553E46C817D818E819F810F947A2913
:1035F000181644F480E090E0ACE5B3E48C839D833E
:10360000AE83BF8320E030E0A901688579858A8593
:103610009B850F94C32287FF04C0188619861A86DB
:103620001B8620E030E042E853E4688579858A858E
:103630009B850F947A29181644F480E090E0A2E864
:10364000B3E488879987AA87BB87DF91CF910895D4
:103650002E9A0895429AEFE9FCE01082179A11829F
:10366000159A12820C94281BCF92DF92EF92FF9250
:10367000CF93DF936B017C01EA0121E338E040EE58
:1036800050EC0F947A2987FD23C022E430E04CE50A
:1036900053E4C701B6010F94C3221816CCF0C880BA
:1036A000D980EA80FB8029E134E040E051ECC70199
:1036B000B6010F947A2987FD0BC0C1E022E430E007
:1036C0004CE553E4C701B6010F94C32218160CF45D
:1036D000C0E08C2FDF91CF91FF90EF90DF90CF90E3
:1036E0000895CF92DF92EF92FF926091040670915D
:1036F0000506072E000C880B990B0F94CA226B014C
:103700007C012DEB37E346E855EB0F947A2987FDD2
:103710000BC02DEB37E346E855E3C701B6010F9424
:10372000C32218160CF043C0A701960160E070E0B8
:1037300080E89FE30F94142860939005709391059F
:103740008093920590939305609106067091070609
:10375000072E000C880B990B0F94CA226B017C0179
:103760002DEB37E346E855EB0F947A2987FD0AC025
:103770002DEB37E346E855E3C701B6010F94C322AA
:103780001816CCF4A701960160E070E080E89FE392
:103790000F94142860939405709395058093960573
:1037A00090939705FF90EF90DF90CF90089560E0A1
:1037B00070E0CB01C1CF60E070E0CB01EBCF809A2D
:1037C00088980895089590E080E008958FB7F89460
:1037D00090916B0520916A05291769F0E92FF0E0B7
:1037E000E651FB4F208130E09F5F9F7790936B0500
:1037F0008FBFC90108952FEF3FEFFACF80E1E3E0DB
:10380000F3E1A0EEBCE001900D928A95E1F70895F6
:1038100080E1E0EEFCE0A3E0B3E101900D928A9537
:10382000E1F708950F931F93CF93DF93EC010E946C
:10383000BEF50E811F8128853985011511052105E9
:10384000310579F52C85222339F1EA8521502C8721
:1038500021E02E0F2A873D85231301C01A86F0E050
:103860003196EE0FFF1FEE0FFF1FEC0FFD1F0285BD
:103870001385248535850A831B832C833D83600F44
:10388000711F811D911D6E837F83888799878C812D
:103890009D81892B09F05B9ADF91CF911F910F9148
:1038A0000895601B710B820B930B97FDF5CF5B980E
:1038B0001E821F8218861986EFCFCF92DF92EF9279
:1038C000FF921F93CF93DF9300D01F92CDB7DEB747
:1038D000182F662351F01092C0041092BC0410926D
:1038E000BD041092BE041092BF040E94BEF5AB014D
:1038F000BC018091BC049091BD04A091BE04B09124
:10390000BF046A017B01C81AD90AEA0AFB0AD70177
:10391000C601B7FD37C017FD41C08091C004212FFB
:10392000012E000C330B2C5F3F4FE82F082E000CAC
:10393000FF0B2E173F0734F1811784F180E991E0E6
:10394000A0E0B0E0840F951FA61FB71F8093BC04B2
:103950009093BD04A093BE04B093BF0480ED97E0A4
:103960009C838B838CE291E09A838983BE016D5F97
:103970007F4FCE0101960E94E2E98091C0048F5FE3
:103980008093C0040F900F900F900F90DF91CF9114
:103990001F91FF90EF90DF90CF90089584EC99E015
:1039A000A0E0B0E0CFCFEF920F931F93CF93DF93C0
:1039B000CDB7DEB760970FB6F894DEBF0FBECDBFB0
:1039C0006D877E878F87988BE090170BE0EEFCE089
:1039D00080859185A285B3854481558166817781F3
:1039E000008111812281338109831A832B833C83D7
:1039F0004D835E836F83788789879A87AB87BC877F
:103A0000AE01475F5F4FBE016B5F7F4FCE010196F6
:103A10000E949CE08E01035F1F4F2CEE3CE0AE0144
:103A2000475F5F4FBE016B5F7F4FCE0101960E94E3
:103A30002DDB60960FB6F894DEBF0FBECDBFDF91D1
:103A4000CF911F910F91EF900895CF92DF92EF9257
:103A5000FF92CF93DF936A017B01C3E0D3E1E09152
:103A6000170B24E0E29FF0011124EF5DFD4F208150
:103A7000318142815381FC01608171818281938116
:103A80000F9414282C853D854E855F850F941A2749
:103A90006C877D878E879F870E94FE1BC701B601BA
:103AA0000E94D31CDF91CF91FF90EF90DF90CF90D9
:103AB0000C9496CEEF920F931F93CF93DF93CDB7D5
:103AC000DEB72C970FB6F894DEBF0FBECDBFE090E7
:103AD000170BE3E0F3E180859185A285B3854481EE
:103AE000558166817781008111812281338109832B
:103AF0001A832B833C834D835E836F83788789870A
:103B00009A87AB87BC87AE01475F5F4FBE016B5F93
:103B10007F4FCE0101960E949CE00DE412E02FE061
:103B200033E1AE01475F5F4FBE016B5F7F4FCE0158
:103B300001960E942DDB2C960FB6F894DEBF0FBEC7
:103B4000CDBFDF91CF911F910F91EF90089580919C
:103B50004D0490914E04009731F04AE050E070E03F
:103B600060E00D94D81F60E070E0CB0108950E94E2
:103B7000A71D97FD0CC00E94A71D6F3F7105810511
:103B8000910509F034F40E94A71D862F089580E066
:103B900008958FEF089580914D0490914E04892BE4
:103BA00041F00E94B71D91E0811101C090E0892F82
:103BB000089591E0FCCF80914D0490914E040097C0
:103BC00031F04AE050E070E060E00D94062160E0E2
:103BD00070E0CB01089580916E0C82FF0BC063E60C
:103BE00089E493E00F94AC020E94C39A0F944A02B6
:103BF00081E0089580E008952F923F924F925F9266
:103C00006F927F928F929F92AF92BF92CF92DF92EC
:103C1000EF92FF920F931F93CF93DF93CDB7DEB751
:103C20006D970FB6F894DEBF0FBECDBF9A8F898F08
:103C30007C8F6B8F312C212C2FEF28873FEF3F8318
:103C40008FEF888B9FE4998BE3ECEA8BF7E4FB8B97
:103C500021E030E0022C02C0220F331F0A94E2F769
:103C6000388F2F8B88E194E09B878A8710E000E0F3
:103C70002D8EEA85FB8581919191FB87EA872F89BB
:103C8000388D82239323892B09F0EBC080910406A1
:103C900090910506289EB001299E700D389E700DEA
:103CA00011248091000690910106680F791F072E5C
:103CB000000C880B990B0F94CA226C877D878E8726
:103CC0009F878091060690910706089FB001099F83
:103CD000700D189F700D11248091020690910306BB
:103CE000680F791F072E000C880B990B0F94CA22BE
:103CF0006B017C012C853D854E855F85E98DFA8DB4
:103D000060817181828193810F9419272B013C017D
:103D1000A7019601EB8DFC8D608171818281938179
:103D20000F9419274B015C01A3019201C301B20159
:103D30000F9429232B013C01A5019401C501B40175
:103D40000F9429239B01AC01C301B2010F941A27E0
:103D50000F94C8294B015C012C853D854E855F85FC
:103D600060913C0470913D0480913E0490913F0429
:103D70000F9419272B013C01A7019601609138048B
:103D80007091390480913A0490913B040F94192763
:103D90006B017C01A3019201C301B2010F9429239D
:103DA0002B013C01A7019601C701B6010F942923FD
:103DB0009B01AC01C301B2010F941A270F94C829CB
:103DC00020E030E040E751E40F941428A50194016D
:103DD0000F941A276B017C0180904004909041045D
:103DE000A0904204B090430420E030E040E85FE35C
:103DF000C501B4010F947A291816F4F4C501B40171
:103E00000F9486284B015C0160E070E0CB01181430
:103E100019041A041B0434F40F94221EA501940102
:103E20000F94D8260F94CA229B01AC01B601C7019A
:103E30000F941A276B017C01288939894A895B898B
:103E4000B601C7010F94C32287FF0BC0FD8DF88711
:103E50000F83C986DC8AED8AFE8AC88AD98AEA8AF3
:103E6000FB8A0F5F1F4F0330110509F002CF2FEFC0
:103E7000221A320A33E02316310409F0E9CE8F8189
:103E8000E82FF0E0EE0FFF1FE85EFB4F21E030E08F
:103E9000088402C0220F331F0A94E2F780819181C7
:103EA000822B932B9183808389859C89AD89BE89E0
:103EB0008B839C83AD83BE83482F5C816D817E8123
:103EC00028853F8180E090E06D960FB6F894DEBFC4
:103ED0000FBECDBFDF91CF911F910F91FF90EF905B
:103EE000DF90CF90BF90AF909F908F907F906F901A
:103EF0005F904F903F902F900895AF92BF92CF92D6
:103F0000DF92EF92FF920F931F93CF93DF931F9255
:103F1000CDB7DEB76C018B0159018091DB058111B2
:103F20001BC07B01E40EF51EF601808191810F9488
:103F300090268983F80181938F01BE016F5F7F4FC7
:103F4000C5010E94AAEEF6018081918101969183BC
:103F50008083E016F10641F70F90DF91CF911F911A
:103F60000F91FF90EF90DF90CF90BF90AF900895AA
:103F7000FC0120E03EE2DB014D91BD01403249F001
:103F8000283011F430833196DB0111974C91408336
:103F900031962F5F2B3079F71082089561E0FC0194
:103FA00080810C94BCF18EBD0DB407FEFDCF089549
:103FB0008FEF8EBD0DB407FEFDCF8EB508958F92A5
:103FC0009F92AF92BF92EF92FF920F931F93CF9366
:103FD0007C01C62F49015A01FC019281892F806A18
:103FE00086958CBD90FD03C081E0963009F480E099
:103FF0008DBD60E0F70180810E94BCF18CE291E010
:104000000E9437F78C2F80640E94D31F08E110E0D4
:10401000D501C401002E04C0B695A7959795879544
:104020000A94D2F70E94D31F08501109083FFFEFEE
:104030001F0771F785E9CC2321F087E8C83009F024
:104040008FEF0E94D31FCC3011F40E94D81FC0E024
:104050000E94D81FF701838387FF04C0CF3F11F070
:10406000CF5FF6CFCF911F910F91FF90EF90BF9050
:10407000AF909F908F9008950F931F93CF93DF93EE
:10408000EC0189018C81833039F089E0440F551FA0
:10409000661F771F8A95D1F79A01AB0168E1CE01BF
:1040A0000E94DF1F882319F086E089833AC08EEFD3
:1040B0008EBDF801C8019E5F0DB407FEFDCF2081C3
:1040C0002EBD0DB407FEFDCF21812EBD3296E8171F
:1040D000F90791F70DB407FEFDCF8FEF0E94D31FB4
:1040E0008FEF0E94D31F0E94D81F8B838F71853062
:1040F00099F488E592E00E9437F7182F87E11123A1
:10410000A1F220E030E0A9016DE0CE010E94DF1FA6
:10411000882361F086E1C9CF83E18983CE010E94C3
:10412000CE1FCE010E94CE1F10E007C00E94D81FF4
:104130008111F0CFCE010E94CE1F812FDF91CF9150
:104140001F910F910895CF9380912C0FC1E0882388
:10415000A1F04091240F5091250F6091260F70918E
:10416000270F24E23DE080912D0F90912E0F0E94A9
:104170003C20C82F811104C0C0E08C2FCF9108953E
:104180004091280F5091290F60912A0F70912B0FA9
:10419000411551056105710591F024E23DE08091E2
:1041A0002D0F90912E0F0E943C20882329F310920E
:1041B000280F1092290F10922A0F10922B0F109295
:1041C0002C0FDBCFEF92FF920F931F93CF93DF93D0
:1041D000EC0179018C81833039F089E0440F551F5F
:1041E000661F771F8A95D1F79A01AB0161E1CE0175
:1041F0000E94DF1F882339F084E08983CE010E946A
:10420000CE1F80E03BC00E94BEF58B010E94D81FEC
:104210008B838F3F81F40E94BEF5601B710B6D3262
:104220007140A0F381E18983CE010E94CE1F8FEF00
:104230000E94D31FE6CF8E3F11F08FE0F4CF8FEFB7
:104240008EBDF701D701A150BE4F0DB407FEFDCFC3
:104250009EB591938EBDAE17BF07B9F70DB407FE9B
:10426000FDCF8EB58C930E94D81F0E94D81FCE011F
:104270000E94CE1F8FEF0E94D31F81E0DF91CF916C
:104280001F910F91FF90EF900895CF92DF92EF92E0
:10429000FF92CF936B017C01C42F8091240F9091EA
:1042A000250FA091260FB091270F8C159D05AE0507
:1042B000BF0501F10E94A320811108C0C0E08C2F2E
:1042C000CF91FF90EF90DF90CF90089524E23DE0F2
:1042D000B701A60180912D0F90912E0F0E94E22030
:1042E000882361F3C092240FD092250FE092260F0D
:1042F000F092270FCC2321F081E080932C0FDFCFA9
:10430000C1E0DDCF4F925F926F927F928F929F922A
:10431000AF92BF92CF92DF92EF92FF920F931F93D3
:10432000CF93DF93EC01423051056105710590F4A4
:1043300080E0DF91CF911F910F91FF90EF90DF9080
:10434000CF90BF90AF909F908F907F906F905F9035
:104350004F90089589859A85AB85BC850196A11DEE
:10436000B11D84179507A607B70710F38F89803111
:10437000C9F5852E962EA72EBB248B899C89AD89E5
:10438000BE89880E991EAA1EBB1E280139016A012A
:104390007B0141E0C501B4010E944521882341F21F
:1043A0009F89903181F5DD24EE24FF24F601EE0F84
:1043B000FF1FEC5DF24F118300839A89923008F45D
:1043C000B8CF4D815E816F817885840E951EA61EC3
:1043D000B71E8092280F9092290FA0922A0FB092B8
:1043E0002B0FA7CF803209F0A3CF8B899C89AD8991
:1043F000BE894A015B01E7E0B694A794979487943D
:10440000EA95D1F7BECFE894C7F8DD24EE24FF2467
:10441000F601EE0FFF1FEE0FFF1FEC5DF24F408223
:10442000518262827382C9CFCF92DF92EF92FF9264
:104430000F931F93CF93DF93FC0181859285A38512
:10444000B4850196A11DB11D84179507A607B7076E
:1044500050F480E0DF91CF911F910F91FF90EF908A
:10446000DF90CF90089587898031A9F5BB27A72FCA
:10447000962F852FC388D488E588F6888C0D9D1DDE
:10448000AE1DBF1DE9016A017B018F014091240F20
:104490005091250F6091260F7091270F8417950773
:1044A000A607B70749F5F8018789803169F5B70193
:1044B000A601552766277727440F551F4C5D524F9D
:1044C000FA0180819181B0E0A0E088839983AA837A
:1044D000BB8381E0BFCF803209F0BBCFC388D488D3
:1044E000E588F688DB01CA01C7E0B695A7959795E0
:1044F0008795CA95D1F7C2CF40E0BC01CD010E949B
:1045000045218111D0CFA5CFB701A6014F775527FF
:1045100066277727440F551F440F551F4C5D524F98
:10452000FA0180819181A281B381BF70CECF4F9279
:104530005F926F927F92AF92BF92CF92DF92EF9293
:10454000FF920F931F93CF93DF9300D01F92CDB7AD
:10455000DEB78C0149835A836B837C835901C12C5C
:10456000D12C7601412C82E0582E612C712C49818E
:104570005A816B817C819E012F5F3F4FC8010E9451
:104580001422882319F1F8018585A301920104C042
:10459000220F331F441F551F8A95D2F7DA01C90134
:1045A000C80ED91EEA1EFB1E49815A816B817C818F
:1045B00087898031F1F481E0483F5F4F61057105E3
:1045C000B0F2F501C082D182E282F3820F900F90A7
:1045D0000F900F90DF91CF911F910F91FF90EF906F
:1045E000DF90CF90BF90AF907F906F905F904F9093
:1045F000089581E0483F5F4F6F4F7F4008F4B7CF89
:10460000E0CF0F931F93CF93DF93FC0123812223ED
:1046100031F080E0DF91CF911F910F9108958B01D0
:10462000EC01FB018789803139F582E08B831D8A9B
:104630001E8A1F8A188E808D918DB0E0A0E025E043
:10464000880F991FAA1FBB1F2A95D1F7898B9A8BB8
:10465000AB8BBC8B1A8F098F81E0898318861986F2
:104660001A861B861C821D821E821F82188A1C8647
:104670001D861E861F86CECF803259F683E08B833F
:10468000428D538D648D758D4D8B5E8B6F8B788FC6
:104690009E012F5E3F4FC8010E9497228111DACF01
:1046A000B8CF8F929F92AF92BF92CF92DF92EF924C
:1046B000FF920F931F93CF93DF93EC018B818111B6
:1046C0000EC080E0DF91CF911F910F91FF90EF908E
:1046D000DF90CF90BF90AF909F908F900895098901
:1046E0001A892B893C89041715072607370748F3D1
:1046F0004A015B01823031F488869986AA86BB869E
:1047000081E0E0CF81149104A104B10449F418863A
:1047100019861A861B861C821D821E821F82F0CF7C
:10472000088519852A853B85E98DFA8D858590E078
:104730000996B901A8014150510961097109082E72
:1047400004C076956795579547950A94D2F77501F9
:104750006401E1E0CE1AD108E108F10804C0F69442
:10476000E794D794C7948A95D2F7C416D506E6067F
:10477000F70620F0012B022B032B11F58D899E8962
:10478000AF89B88D8C839D83AE83BF838E010C5F10
:104790001F4FC114D104E104F10409F4ADCF4C81E1
:1047A0005D816E817F819801898D9A8D0E9414228E
:1047B00091E0C91AD108E108F1088111EACF81CF4F
:1047C000C41AD50AE60AF70AE1CF40E050E0BA0180
:1047D0000C9451233F924F925F926F927F928F92EF
:1047E0009F92AF92BF92CF92DF92EF92FF920F9380
:1047F0001F93CF93DF93CDB7DEB72C970FB6F89406
:10480000DEBF0FBECDBF5C01DC0159968D909C9040
:10481000F40181859285A385B4859C01AD012F5F4C
:104820003F4F4F4F5F4F29873A874B875C87D501B2
:1048300014964D905D906D907C90179741145104A3
:104840006104710409F459C0BFEF4B1A5B0A6B0A8B
:104850007B0A312C730162011D821E821F82188621
:10486000F40181859285A385B4852D813E814F8198
:104870005885281739074A075B0708F056C089850D
:104880009A85AB85BC858C159D05AE05BF0550F49A
:1048900082E0C82ED12CE12CF12C92E0492E512C33
:1048A000612C712C9E012F5F3F4FB701A601C401FF
:1048B0000E9414228823C9F189819A81AB81BC812D
:1048C000892B8A2B8B2B01F1260137019FEF491A87
:1048D000590A690A790A2D813E814F8158852F5FD7
:1048E0003F4F4F4F5F4F2D833E834F8358873FEF9E
:1048F000C31AD30AE30AF30AB3CF4080518062801F
:10490000738033243394A6CFC414D504E604F7048B
:1049100011F70FEF1FEF2FEF3FE0B701A601C40122
:104920000E948221782E81111AC0712C872D2C961D
:104930000FB6F894DEBF0FBECDBFDF91CF911F91B0
:104940000F91FF90EF90DF90CF90BF90AF909F902E
:104950008F907F906F905F904F903F900895F501FA
:104960004481558166817781411551056105710545
:1049700039F097018601C4010E9482218823A9F29F
:10498000D5011496CD92DD92ED92FC9217973320CB
:1049900051F0D701C6010196A11DB11DF40180831C
:1049A0009183A283B383F50185899689A789B08D08
:1049B000892B8A2B8B2B09F0B9CFC58AD68AE78A37
:1049C000F08E818180688183B1CFCF93DF93EC013A
:1049D000462F41706C857D858E859F850E9445217F
:1049E000882351F0888920E2829FC00111248C5DC8
:1049F000924FDF91CF91089590E080E0FACFCF936E
:104A0000DF93EC018B81882349F1898187FF22C0E4
:104A100061E0CE010E94E524FC01892BF9F0808140
:104A2000853EE1F08B81823040F489899A89AB8997
:104A3000BC89848F958FA68FB78F8D899E89938F20
:104A4000828F8D899E89AF89B88DB58BA48B898122
:104A50008F778983DF91CF910C94A32081E08883A5
:104A600080E0DF91CF9108952F923F924F925F9215
:104A70006F927F928F929F92AF92BF92CF92DF926E
:104A8000EF92FF920F931F93CF93DF9300D01F926B
:104A9000CDB7DEB78C014B011A01DC0113968C9166
:104AA0001397813009F0CAC011968C9181FFC6C05E
:104AB00082FDB0C06101D80118964D915D916D9154
:104AC0007C911B97C114D10409F41AC159968D9198
:104AD0009C915A97FC0174802FEF270D2A013B010E
:104AE00039E076946794579447943A95D1F7722EAB
:104AF00074207A01F1E0FF22711020C0E114F1046A
:104B0000E9F414964D915D916D917C911797411543
:104B100051056105710509F097C055968D919D91DC
:104B20000D90BC91A02D0097A105B10509F0A5C07D
:104B3000C8010E94EA23882309F480C080E092E043
:104B40008E199F0956018C159D0508F45C01D8014A
:104B500059964D915C915A9714968D919D910D9017
:104B6000BC91A02D0297A109B109FA01258504C0C5
:104B7000880F991FAA1FBB1F2A95D2F74685578514
:104B800060897189840F951FA61FB71F9C01AD0115
:104B9000270D311D411D511D29013A01A11432E09B
:104BA000B30609F078C08091240F9091250FA09151
:104BB000260FB091270F481659066A067B0669F43E
:104BC00010922C0F8FEF9FEFDC018093240F9093B6
:104BD000250FA093260FB093270F9401B301A201D4
:104BE00080912D0F90912E0F0E943C20882331F14F
:104BF000F80180859185A285B3858A0D9B1DA11D35
:104C0000B11D80879187A287B3878A0C9B1CCA1825
:104C1000DB0851CFF8014189528963897489808505
:104C20009185A285B385481759076A077B0709F460
:104C300041CFC8010E94512381113CCF81E0D801AE
:104C40008C938FEF9FEF72C09E012F5F3F4F0E94AA
:104C50001422882399F389819A81AB81BC81F80160
:104C6000218D328DF9012789203169F4883FFFEFCA
:104C70009F07A105B10508F05BCFF80184839583F8
:104C8000A683B7835BCF883F2FEF9207A2072FE061
:104C9000B20798F34DCFE114F10451F5D8011896FD
:104CA0004D915D916D917C911B9751968D919D9148
:104CB0000D90BC91A02D481759076A077B07C0F0DB
:104CC0000E94A320882309F4B9CF81E080932C0FA0
:104CD0004092240F5092250F6092260F7092270F5A
:104CE000A501B401C7018C5D924F0F94842A80CF37
:104CF00041E0C301B2010E9445218111F1CF9ECF55
:104D0000F80181899289A389B48984179507A60738
:104D1000B70738F48181418B528B638B748B806829
:104D20008183F801818183FD18C0C1010F900F902C
:104D30000F900F90DF91CF911F910F91FF90EF9007
:104D4000DF90CF90BF90AF909F908F907F906F90AB
:104D50005F904F903F902F900895C8010E94FF24CC
:104D60008111E3CF6BCFCF93DF931F92CDB7DEB727
:104D7000698341E050E0BE016F5F7F4F04960E945F
:104D800034250F90DF91CF910895CF93DF93EC01FD
:104D90000E94FF241B82DF91CF910895FC012381A3
:104DA00021110C94C5260895CF93DF93EB01FC01EC
:104DB0002381211104C080E0DF91CF91089522501A
:104DC000223028F48FE28883198281E0F5CF60E0F9
:104DD0000E94E524009779F3DC0160E080E09EE228
:104DE0002D91203299F0883031F49E01260F311D2B
:104DF000F90190836F5F9E01260F311DAD01415077
:104E00005109FA014081F90140836F5F8F5F8B3058
:104E100039F7FE01E60FF11D1082D7CF0F931F93D4
:104E2000CF93DF938B01EA01DB016D917C910496B6
:104E30000E94D426D801ED91FC9111978881908130
:104E4000992349F08D38A0F43196ED93FC93888135
:104E50008F5F8883EFCF8D3858F48FE28083F8011D
:104E60008081918101969183808388818F5F88837F
:104E7000DF91CF911F910F9108952F923F924F9202
:104E80005F926F927F928F929F92AF92BF92CF92DA
:104E9000DF92EF92FF920F931F93CF93DF9300D097
:104EA0001F92CDB7DEB79C838B834B017A01DC0167
:104EB00013968C91811119C08FEF9FEF0F900F9077
:104EC0000F900F90DF91CF911F910F91FF90EF9076
:104ED000DF90CF90BF90AF909F908F907F906F901A
:104EE0005F904F903F902F900895EB81FC818181DE
:104EF00080FFE2CF01891289238934894085518559
:104F000062857385C701B0E0A0E028013901441A29
:104F1000550A660A770A481659066A067B0618F487
:104F20007801E41AF50A67018B819C8104969A83C3
:104F30008983612C32E0732EC114D10409F4B7C007
:104F4000AB81BC8118964D915D916D917C911B97C1
:104F50005A01B1E0BB22EB81FC81818D928D1A0157
:104F60002B0129E056944794379427942A95D1F73A
:104F70002381223091F5DC015A966D917D918D91BE
:104F80009C915D97620D731D841D951D83010A1907
:104F90001B09C016D10608F486010115B2E01B07F3
:104FA00071F42091240F3091250F4091260F5091DC
:104FB000270F621773078407950709F059C040E06F
:104FC0000E944521882309F477CFB5016C5D724FAB
:104FD000A801C4010F94842A57C0FC011481115008
:104FE0001221A114B10481F411110EC0452B462BDE
:104FF000472B79F5EB81FC8185899689A789B08D4E
:1050000084839583A683B783AB81BC815996ED9148
:10501000FC915A9714966D917D918D919C91179763
:105020006250710981099109258504C0660F771FB7
:10503000881F991F2A95D2F726853785408951897F
:10504000620F731F841F951F610F711D811D911DBC
:105050009DCFAB81BC8114964D915D916D917C91FA
:10506000179729813A810E9414228111CDCF24CF34
:105070009401AB01BC0180912D0F90912E0F0E94E5
:10508000E220882309F418CF800E911EEB81FC8169
:1050900080859185A285B385800F911FA11DB11DCB
:1050A00080879187A287B387C01AD10A45CFC701ED
:1050B00005CFDF92EF92FF920F931F93CF93DF9371
:1050C0008C01EB017A018DE0D82E40E250E0BE0168
:1050D000C8010E943D278032910571F021E0892BA3
:1050E00009F420E0822F8195DF91CF911F910F91DC
:1050F000FF90EF90DF90089528812223C1F1253E93
:1051000021F32E3211F3E114F10439F13B853F73A1
:105110003F3019F54A8D5B8D452BF9F42F713FEF28
:10512000320F3530D0F42150330BD29EC001D39EC4
:10513000900D1124D701A80FB91FFE0120E0AD0189
:10514000253078F431813D932F5F32962D30C1F7B1
:10515000288126FF02C0FA0115862B8523FDB5CFD5
:10516000C3CF2B3010F43481EECF3681ECCF80E00A
:10517000BBCF4F925F926F927F92AF92BF92CF92CE
:10518000DF92EF92FF920F931F93CF93DF931F92C3
:10519000CDB7DEB78C017B015A01C22EDB015996D7
:1051A0008D919C91F801928F818FCB010E94E52314
:1051B000712CF70180859185A285B385418952893B
:1051C0006389748984179507A607B70708F052C04A
:1051D00055E0B695A795979587955A95D1F7F82FED
:1051E000FF70DF2ED70113968C91823010F480E08F
:1051F000DBC041E050E0BE016F5F7F4FC7010E94FE
:105200003D270197A1F7F70180859185A285B38598
:105210004F96A11DB11D80879187A287B387F0E2C9
:10522000DF9EB00111246C5D724F61157105F9F2BA
:10523000DB018C91882341F0853E09F04CC077203A
:1052400029F077247394B5CF71100EC08091240F8C
:105250009091250FA091260FB091270FF801848718
:105260009587A687B787D08ADB018C918111E9CF1A
:10527000772473948C2D8274823409F0B8CF772010
:1052800009F4A2C0F801D08861E0C8010E94E524B9
:10529000009709F4ACCF20E2DC011D922A95E9F7D2
:1052A0002BE0F501DC0101900D922A95E1F721E256
:1052B00038E2FC01318B208B40E058E0578746876D
:1052C000338B228B318F208F578B468B0E94A320EC
:1052D000811109C08CCF4BE050E0C5010F94772AB3
:1052E000892B09F066CFF0E2DF9ED00111249D01E9
:1052F0002C5D324FF9018385817121F08C2D8271F3
:1053000009F0FCC0F801818D928D4091240F5091DD
:10531000250F6091260F7091270F44875587668768
:105320007787D08AFD01EC5DF24F44885588712C57
:10533000612C320155244424D80155964D925D923A
:105340006D927C925897428D538D70E060E04429B5
:1053500055296629772955964D935D936D937C93D6
:105360005897D9011B962C91287109F0B9C0848DEA
:10537000958DA68DB78DF801818B928BA38BB48B05
:1053800081E083838C2D8F70F801818314821582D4
:1053900016821782108611861286138681E0C4FE5B
:1053A00003C0C8010E9499EB0F90DF91CF911F912C
:1053B0000F91FF90EF90DF90CF90BF90AF907F90D4
:1053C0006F905F904F900895D70113968C9113972B
:1053D000823009F40CCF51968D919D910D90BC9126
:1053E000A02D803E9F4FAF41B10508F000CFC7010F
:1053F0000E94EA23882309F4FACE0E94A32088237E
:1054000009F4F5CED7015996ED91FC915A9714966F
:105410004D905D906D907C901797B2E04B1A5108BB
:1054200061087108858504C0440C551C661C771CF6
:105430008A95D2F786859785A089B189480E591E2D
:105440006A1E7B1E81E080932C0F4092240F5092A5
:10545000250F6092260F7092270FE4E2FDE080E0B6
:1054600092E0DF019C011D9221503040E1F7DD24E4
:10547000D394D7015996ED91FC918481D81698F474
:1054800024E23DE0B301A2014D0D511D611D711DCE
:1054900080912D0F90912E0F0E943C20882309F4BB
:1054A000A6CED394E6CF258580E092E0A0E0B0E0E0
:1054B00004C0880F991FAA1FBB1F2A95D2F7F701B6
:1054C0004189528963897489840F951FA61FB71F6C
:1054D000818B928BA38BB48B84E29DE0D12CDBCEAD
:1054E000203161F498012F5E3F4F0E94972288235C
:1054F00029F084E0D80113968C9344CFD8011396F9
:105500001C9275CE2F923F924F925F926F927F9234
:105510008F929F92AF92BF92CF92DF92EF92FF92C3
:105520000F931F93CF93DF93CDB7DEB7C354D10949
:105530000FB6F894DEBF0FBECDBF4C015B016A0110
:10554000222E19821C821C8E1F8E6115710521F579
:1055500010E0CE014C960E94CE26CE0101960E940C
:10556000CE26812FCD5BDF4F0FB6F894DEBF0FBE86
:10557000CDBFDF91CF911F910F91FF90EF90DF9002
:10558000CF90BF90AF909F908F907F906F905F90E3
:105590004F903F902F900895FC0183818111D8CFC7
:1055A000FA0180818F32A9F18B01CE0101967C0135
:1055B0003C0180E2382E2E019CE1490E511C2396BD
:1055C000EFAE23972496FFAE249722963FAE229704
:1055D00021963FAE21973FAE3EAE3DAE3CAE3BAED8
:1055E0003AAE39AE38AE3FAA960190E047E0D90115
:1055F0008D91882309F448C08F3209F445C0282FC3
:105600008E3209F54A3009F4A3CF98E04AE09D01B3
:10561000EECFFB01838182508B01823060F0618D7F
:10562000728DCE014C960E9401238E01045E1F4FA5
:10563000882309F48DCFC6016C010196F601208103
:105640002F32D1F3B2CFE6E2F2E13491332321F0ED
:1056500031968313FACF7CCF491708F479CF813282
:1056600008F476CF8F3709F473CF3FE9380F3A311A
:1056700010F420EE280FE7E3F0E0EC0FFD1FE90F38
:10568000F11D20839F5FC3CF8FA9803209F460CFC3
:105690006901F90180812F5F3F4F8F32C9F3882361
:1056A00001F121E0AE01495C5F4FB801C7010E94E2
:1056B000B928882309F44CCF0A151B0519F0C80135
:1056C0000E94C526942D852D6E147F0431F02396FB
:1056D0009FAD239724968FAD24978701E92EF82E4E
:1056E00074CF222DAE01495C5F4FB801C4010E9406
:1056F000B928182F2ECF2DEF32E0FC013183208303
:1057000004960C94CE26CF93DF93EC0190E080E0DA
:105710000E9477CE609398057093990580939A05BF
:1057200090939B0581E090E00E9477CE60939C056A
:1057300070939D0580939E0590939F0582E090E075
:105740000E9477CE6093A0057093A1058093A20577
:105750009093A30588E995E00E9469E0C436D105DD
:1057600061F48CE0E8E9F5E0A3E0B3E101900D928B
:105770008A95E1F7DF91CF910895CC0FDD1FCC0F13
:10578000DD1FFE01ED5FFC4EC856DA4F888199811E
:10579000AA81BB8180839183A283B383EBCF4F9295
:1057A0005F926F927F928F929F92AF92BF92CF92B1
:1057B000DF92EF92FF920F931F93CF93DF93EC0151
:1057C0006091000670910106072E000C880B990B62
:1057D0000F94CA229B01AC01688179818A819B81E7
:1057E0000F9419276B017C016091020670910306EA
:1057F000072E000C880B990B0F94CA229B01AC0159
:105800006C817D818E819F810F9419274B015C01F2
:10581000A701960160910A0270910B0280910C021F
:1058200090910D020F94C322882309F453C0C092B3
:105830000A02D0920B02E0920C02F0920D0220912B
:105840009005309191054091920550919305C701C3
:10585000B6010F9429232B013C010F94BC286B0146
:105860007C0120E030E0A9010F94C32287FD73C0C2
:1058700020E030E040E050E4C701B6010F947A29FF
:1058800018162CF4C12CD12CE12CC0E4FC2EA7015D
:105890009601C301B2010F9419272B013C0120E0AE
:1058A00030E0A9010F94C32287FD59C040928C05B6
:1058B00050928D0560928E0570928F05C701B601DA
:1058C0000F94862860938B0516160CF451C06F5FF9
:1058D00060938A0510910502D0918B05A501940172
:1058E000609106027091070280910802909109026E
:1058F0000F94C32281113EC01D138FC020916C05EF
:1059000030916D0540916E0550916F0560918C0549
:1059100070918D0580918E0590918F050F942923AC
:105920002091700530917105409172055091730579
:105930000F941A27DF91CF911F910F91FF90EF9055
:10594000DF90CF90BF90AF909F908F907F906F909F
:105950005F904F900895C12CD12C760198CF109272
:105960008C0510928D0510928E0510928F05A6CF92
:1059700062E0AECF8092060290920702A0920802E7
:10598000B0920902209194053091950540919605B9
:1059900050919705C501B4010F9429234B015C0177
:1059A0000F94BC286B017C0120E030E0A9010F942A
:1059B000C32287FDFBC020E030E040E050E4C70197
:1059C000B6010F947A2918162CF4C12CD12CE12C95
:1059D000B0E4FB2EA7019601C501B4010F9419276D
:1059E0004B015C0120E030E0A9010F94C32287FD48
:1059F000E1C08092860590928705A0928805B092BA
:105A00008905C701B6010F9486286093850516168F
:105A10000CF4D9C06F5F60938405C09185051D1398
:105A200005C0809104028C1709F475C0D09305025B
:105A3000C09304028D2FDD0F990B0C2E000CDD0B93
:105A4000AC01440F551F840F951FFC01EC0FFD1F87
:105A5000EE0FFF1FEE0FFF1FE452FA4F208131813E
:105A600042815381209380053093810540938205C4
:105A700050938305E09184050E2FEE0F110BDC018E
:105A8000A00FB11FAA0FBB1FAA0FBB1FA452BA4F72
:105A90006D917D918D919C910F94192760937C0558
:105AA00070937D0580937E0590937F0580918A0594
:105AB000282F880F330BC901880F991F820F931F5E
:105AC000C80FD91FCC0FDD1FCC0FDD1FC452DA4F1A
:105AD000288139814A815B8120937805309379054B
