:100000000C9463180C9494180C9494180C949418F1
:100010000C9494180C9494180C9494180C949418B0
:100020000C9494180C9494180C9494180C949418A0
:100030000C9494180C9494180C9494180C94941890
:100040000C9494180C9466CB0C9494180C949418FB
:100050000C9494180C9494180C940EC60C9408F5F7
:100060000C9494180C947C4C0C9494180C94941844
:100070000C9494180C9494180C9494180C94941850
:100080000C94ADD40C9494180C9494180C9494186B
:100090000C9494180C9494180C9494180C94941830
:1000A0000C9494180C9494180C947FD40C94941879
:1000B0000C9494180C9494180C9494180C9451D497
:1000C0000C9494180C9494180C9494180C94941800
:1000D0000C9494180C9494180C9494180C949418F0
:1000E0000C949418084AD73B3BCE016E84BCBFFDEC
:1000F000C12F3D6C74319ABD56833DDA3D00C77FF8
:1001000011BED9E4BB4C3E916BAAAABE0000008090
:100110003F05A84CCDB2D44EB93836A9020C50B91F
:10012000918688083CA6AAAA2ABE000000803F004B
:100130000D9419120D948A040D947A020D94EB0219
:100140000D945D100D9471030D94F7034E414E49CB
:100150004E495459494E46CDCCCC3D0AD7233C1785
:10016000B7D13877CC2B329595E6241FB14F0A00D2
:100170000020410000C84200401C4620BCBE4CCAC2
:100180001B0E5AAEC59D74434F4D4D554E494341CC
:1001900054494F4E0044525952554E004552524F09
:1001A000525300494E464F004543484F004D65733A
:1001B000682056616C69646174696F6E2053746F56
:1001C000707065642E00696E206D6F76655F746F68
:1001D000282920666565645F76616C756520666FA9
:1001E000722058593A004C656176696E6720473233
:1001F00036004732362048656174696E67204E6F5D
:100200007A7A6C652E004732362048656174696ED3
:1002100067204265642E00446F6E65205072696DE0
:10022000696E6700446F6E65205072696D696E6714
:10023000004669786564204C656E6774682050726A
:10024000696D652E00557365722D436F6E74726F04
:100250006C6C6564205072696D65002C2065793D79
:100260000029202D3E202865783D002C2073793D03
:100270000020436F6E6E656374696E6720776974E2
:100280006820766572746963616C206C696E6520A4
:100290002873783D002C2065793D0029202D3E20D3
:1002A0002865783D002C2073793D0020436F6E6EE9
:1002B000656374696E67207769746820686F726916
:1002C0007A6F6E74616C206C696E65202873783D5E
:1002D000004C656176696E6720473236002C2079C4
:1002E000693D00202020446F696E67206369726356
:1002F0006C652061743A202878693D003F53706531
:1003000063696669656420582C5920636F6F726455
:10031000696E617465206F7574206F6620626F75F9
:100320006E64732E0A003F2852296570656174203F
:1003300076616C7565206E6F7420706C6175736981
:10034000626C653B206D757374206265206174205A
:100350006C6561737420312E0A003F5370656369C8
:1003600066696564206E6F7A7A6C652074656D705D
:1003700065726174757265206E6F7420706C617542
:100380007369626C652E0A003F5370656369666924
:1003900065642066696C616D656E742073697A6549
:1003A000206E6F7420706C61757369626C652E0AC3
:1003B000003F537065636966696564207072696D9A
:1003C00065206C656E677468206E6F7420706C6158
:1003D000757369626C652E0A003F537065636966C8
:1003E000696564206E6F7A7A6C652073697A65201E
:1003F0006E6F7420706C61757369626C652E0A0093
:100400003F52657472616374696F6E204D756C74D0
:1004100069706C696572206D7573742062652073F4
:1004200070656369666965642E0A003F5370656391
:1004300069666965642052657472616374696F6E80
:10044000204D756C7469706C696572206E6F7420D4
:10045000706C61757369626C652E0A003F5370653C
:10046000636966696564206C617965722068656995
:10047000676874206E6F7420706C61757369626C4C
:10048000652E0A003F537065636966696564206282
:1004900065642074656D7065726174757265206E37
:1004A0006F7420706C61757369626C652E0A004709
:1004B000323620636F6D6D616E6420737461727487
:1004C00065642E2057616974696E6720666F7220BB
:1004D0006865617465722873292E0A004B494C4C7B
:1004E00045442E200053544F505045442E20005078
:1004F00072696E7465722073746F707065642064C5
:10050000756520746F206572726F72732E20466954
:100510007820746865206572726F7220616E642045
:10052000757365204D39393920746F207265737485
:100530006172742E202854656D70657261747572D5
:10054000652069732072657365742E20536574206D
:100550006974206166746572207265737461727467
:10056000696E67290A004E6F20436865636B737577
:100570006D2077697468206C696E65206E756D6298
:1005800065722C204C617374204C696E653A2000B2
:10059000636865636B73756D206D69736D617463FA
:1005A000682C204C617374204C696E653A20004CB5
:1005B000696E65204E756D626572206973206E6F7D
:1005C00074204C617374204C696E65204E756D62A9
:1005D00065722B312C204C617374204C696E653A26
:1005E00020004D313130004D33310047312046314C
:1005F00030303020583020593231300047323820E6
:1006000058590053442072656164206572726F729C
:100610000A00446F6E65207072696E74696E67209F
:1006200066696C650A0020496E76616C69642065B4
:1006300078747275646572200042696C696E6561D8
:1006400072204C6576656C696E6720477269643A02
:100650000A00473238205A20466F72626964646526
:100660006E0A00473238205A20466F72626964640D
:10067000656E0020706F736974696F6E206F75749A
:10068000206F662072616E67652E0A003F50726FA0
:1006900062652000202844525952554E29004732A5
:1006A00039204175746F20426564204C6576656C15
:1006B000696E670028422961636B00284629726FC2
:1006C0006E74002852296967687400284C29656691
:1006D00074003F2856296572626F7365206C6576D9
:1006E000656C20697320696D706C61757369626CEB
:1006F000652028302D34292E0A00426164205A20BA
:1007000076616C75650A004E6F2062696C696E6572
:10071000617220677269640A004D313235004465A8
:100720006C6574696F6E206661696C65642C204627
:10073000696C653A200046696C652064656C657477
:1007400065643A006F70656E206661696C65642C43
:100750002046696C653A200048656174696E6720BF
:10076000646F6E652E0020573A0045256920257379
:10077000004D61676E6120312072656164792E00E1
:1007800042656420646F6E652E0020573A00426512
:10079000642048656174696E672E00205A3A002013
:1007A000593A0020436F756E7420583A0020453A3C
:1007B00000205A3A0020593A00583A003A00436162
:1007C000703A00205A00205900580020204D6178CE
:1007D0003A2000205A00205900580020204D696E10
:1007E0003A20004F6E20004F666600536F667420FB
:1007F000656E6473746F70733A200020643A002051
:10080000693A0020703A004B6420002364656669F1
:100810006E65202044454641554C545F004B69208D
:100820000023646566696E65202044454641554C49
:10083000545F004B70200023646566696E6520205C
:1008400044454641554C545F00504944204175741D
:100850006F74756E652066696E69736865642120C2
:1008600050757420746865206C617374204B702C13
:10087000204B6920616E64204B6420636F6E73743B
:10088000616E74732066726F6D2062656C6F772085
:10089000696E746F20436F6E666967757261746903
:1008A0006F6E2E680A00504944204175746F74754C
:1008B0006E65206661696C6564212074696D656F81
:1008C00075740A00544845524D414C2052554E41D2
:1008D00057415900546865726D616C2052756E61A4
:1008E0007761790048656174696E67206661696C3B
:1008F00065640048656174696E67206661696C654E
:100900006400504944204175746F74756E652066AB
:1009100061696C6564212054656D706572617475E0
:10092000726520746F6F20686967680A00204B64E5
:100930003A2000204B693A2000204B703A20000AF0
:1009400020436C617373696320504944200A00207E
:1009500054753A2000204B753A2000206D61783A9A
:100960002000206D696E3A200020643A2000206249
:100970006961733A20004F66660A0046616465202B
:100980004865696768742000426564204C65766537
:100990006C696E6720004661696C656420746F2025
:1009A000656E61626C6520426564204C6576656C9D
:1009B000696E670A0054454D5020544F4F204C4FEC
:1009C00057210047322F47332062616420706172E3
:1009D000616D65746572730A00536C6565702E2EC7
:1009E0002E00205A3A200020593A20004265642007
:1009F000583A20004D65736820706F696E742063EB
:100A0000616E6E6F74206265207265736F6C7665BF
:100A1000640A00526573756D696E67207072696E45
:100A200074004D61676E6120312072656164792EBA
:100A300000436C69636B20746F20726573756D651C
:100A40002E2E2E004E6F206D6F76652E00456E6443
:100A50002066696C65206C6973740A004265676979
:100A60006E2066696C65206C6973740A0025697371
:100A70000025696D20256973002569682025696D49
:100A80002025697300256964202569682025696D22
:100A90002025697300256979202569642025696806
:100AA0002025696D20256973005072696E74207469
:100AB000696D653A200050726F74656374656420D7
:100AC00050696E0A006F6E2E0A006F66662E0A006D
:100AD0004732362044656275672000452569202528
:100AE00073004D61676E6120312072656164792EFB
:100AF000006F666600A801A3019C0195018701446F
:100B0000454255473A004B494C4C45442E20004D38
:100B10003131332053006F6B004D61676E612031BE
:100B2000204F66662E00454D455247454E43595F5E
:100B300050415253455200434153455F4C49474849
:100B4000545F4252494748544E45535300544F470F
:100B5000474C455F4C494748545300534F46545700
:100B60004152455F504F574552004255494C445FF2
:100B700050455243454E54004C4556454C494E470E
:100B80005F44415441005A5F50524F424500415525
:100B9000544F4C4556454C005052494E545F4A4FB5
:100BA000420050524F4752455353004155544F5203
:100BB00045504F52545F54454D5000564F4C554D83
:100BC000455452494300454550524F4D00534552FC
:100BD00049414C5F584F4E5F584F46460046495278
:100BE0004D574152455F4E414D453A4D61726C69DA
:100BF0006E20312E312E382E3320284769746875C7
:100C0000622920534F555243455F434F44455F553A
:100C1000524C3A68747470733A2F2F676974687510
:100C2000622E636F6D2F4D61726C696E4669726DD5
:100C3000776172652F4D61726C696E2050524F540E
:100C40004F434F4C5F56455253494F4E3A312E3029
:100C5000204D414348494E455F545950453A4D61F6
:100C6000676E6120312045585452554445525F43C8
:100C70004F554E543A3120555549443A63656465A1
:100C8000326132662D343161322D343734382D39AA
:100C90006231322D633535633632663336376666F8
:100CA0000A002F2F20004D31343520533C696E64EB
:100CB00065783E206F7574206F662072616E67657F
:100CC0002028302D31290A0053657474696E67201D
:100CD00054726176656C20416363656C6572617402
:100CE000696F6E3A200053657474696E67205265AF
:100CF000747261637420416363656C6572617469C9
:100D00006F6E3A200053657474696E672050726983
:100D10006E7420416363656C65726174696F6E3ACD
:100D2000200053657474696E67205072696E742078
:100D3000616E642054726176656C20416363656CFA
:100D400065726174696F6E3A2000000125272318CF
:100D5000FF1F211D1CFF19171B1EFFFF0C0409FF9D
:100D6000FFFF2E2C0CFFFF04400AFF41FFFFFFFF97
:100D7000FFFF3A200020536572766F2000206F75C8
:100D800074206F662072616E67650A005365727623
:100D90006F200020643A0020693A0020703A004336
:100DA000290A0061626C656420286D696E20746593
:100DB0006D702000436F6C64206578747275646593
:100DC000732061726520004D65736820706F696ED5
:100DD000742063616E6E6F74206265207265736F3C
:100DE0006C7665640A004D34323120696E636F722F
:100DF0007265637420706172616D657465722075CF
:100E0000736167650A003A2000207A5F6D696E3A67
:100E100020202D3230207A5F6D61783A20203230E8
:100E20000A0050726F6265205A204F6666736574BF
:100E30000043617365206C696768743A2000290A71
:100E400000466978656420706172616D65746572D1
:100E50002062797465733B20637263200046697871
:100E6000656420706172616D657465722028004848
:100E7000565F7365745F6F6B0A00416374697665D2
:100E80002045787472756465723A2000556E6B6EF9
:100E90006F776E20636F6D6D616E643A2022005231
:100EA0006573656E643A20006F6B0020746F6F206D
:100EB0006C6F6E6720657874727573696F6E2070E1
:100EC000726576656E7465640A0020636F6C6420D9
:100ED000657874727573696F6E2070726576656E71
:100EE0007465640A00627573793A20706175736580
:100EF0006420666F7220696E7075740A0062757383
:100F0000793A2070617573656420666F722075731D
:100F100065720A00627573793A2070726F63657347
:100F200073696E670A004B494C4C45442E20004BB8
:100F3000494C4C2063617573656420627920746F3D
:100F40006F206D75636820696E61637469766520D2
:100F500074696D65202D2063757272656E742063EF
:100F60006F6D6D616E643A2000506C656173652031
:100F70007265736574005052494E54455220484181
:100F80004C544544005072696E7465722068616CFF
:100F90007465642E206B696C6C28292063616C6C0D
:100FA0006564210A000000E0C0000000C1000000EC
:100FB000000000C8420000C8420000A0410000003C
:100FC000005761726E696E673A20486F6D696E678F
:100FD0002042756D702044697669736F72203C20E1
:100FE000310A000202040000A0400000A0400000FE
:100FF0000040000063430000644300008243FFFFA1
:10100000FF4D36303020486F74656E6420746F6F0A
:1010100020636F6C6420746F206368616E67652065
:1010200066696C616D656E740A007C3C3E5E2B3DAA
:101030003F2F5B5D3B2C2A225C004572726F722051
:1010400077726974696E6720746F20454550524FFE
:101050004D210A00290A002062797465733B2063E0
:101060007263200053657474696E67732053746FE4
:10107000726564202800446F776E0A00290A57724F
:101080006974652066696C65206E616D6520416DCF
:1010900069743A20002062797465733B206372633F
:1010A0002000506F7765726F66662053746F7265AB
:1010B00064202800446F776E0020213D2000637279
:1010C00063206572726F723A20000A726561642053
:1010D00066696C65206E616D653A2000290A72654B
:1010E00061642066696C65206469723A2000206240
:1010F000797465733B206372632000706F7765724B
:101100006F66662073746F726564207365747469AA
:101110006E67732072657472696576656420280055
:10112000202863616C63756C6174656429210A0011
:1011300020213D2000454550524F4D204352432031
:101140006D69736D61746368202D202873746F72EC
:101150006564292000290A002062797465733B20A8
:1011600063726320002073746F726564207365740A
:1011700074696E6773207265747269657665642040
:101180002800204D61726C696E3D563131290A008C
:1011900028454550524F4D3D00454550524F4D203A
:1011A00076657273696F6E206D69736D61746368C3
:1011B000200048617264636F646564204465666101
:1011C000756C742053657474696E6773204C6F611D
:1011D0006465640A00F4010000F40100006400008A
:1011E00000E80300000000FA430000FA430000A0FA
:1011F000400000C8410000A0420000A0420000C81A
:10120000430000BA4220204D383531205A005A2D73
:1012100050726F6265204F666673657420286D6D2D
:10122000293A0A0020440020490020204D33303460
:1012300020500020440020490020204D3330312030
:1012400050005049442073657474696E67733A0A9C
:101250000020460020420020480020204D31343537
:101260002053004D6174657269616C20686561741A
:10127000757020706172616D65746572733A0A00F1
:10128000205A0020204D3432302053004175746FB5
:1012900020426564204C6576656C696E673A0A0089
:1012A000204500205A0020590020580020420020EC
:1012B000540020204D323035205300416476616E59
:1012C0006365643A20533C6D696E5F666565647260
:1012D0006174653E20543C6D696E5F747261766521
:1012E0006C5F66656564726174653E20423C6D6941
:1012F0006E5F7365676D656E745F74696D655F754C
:10130000733E20583C6D61785F78795F6A65726BD7
:101310003E205A3C6D61785F7A5F6A65726B3E2051
:10132000453C6D61785F655F6A65726B3E0A0020BF
:10133000540020520020204D3230342050004163B0
:1013400063656C65726174696F6E2028756E69746F
:10135000732F7332293A20503C7072696E745F614A
:101360006363656C3E20523C726574726163745FA6
:10137000616363656C3E20543C74726176656C5F9A
:10138000616363656C3E0A00204500205A002059C5
:101390000020204D3230312058004D6178696D7544
:1013A0006D20416363656C65726174696F6E20289E
:1013B000756E6974732F7332293A0A002045002034
:1013C0005A0020590020204D3230332058004D6102
:1013D00078696D756D2066656564726174657320EA
:1013E00028756E6974732F73293A0A00204500200E
:1013F0005A0020590020204D39322058005374657E
:1014000070732070657220756E69743A0A0020202E
:101410004D3230302044300A0020204D3230302010
:1014200044002044697361626C65640A0046696C1B
:10143000616D656E742073657474696E67733A00CC
:1014400020204D3134392043203B20556E69747380
:1014500020696E2043656C736975730A002020470C
:101460003231202020203B20556E69747320696E34
:10147000206D6D0A007A5F6D696E3A2000795F6DAC
:10148000696E3A2000785F6D696E3A20005265708F
:101490006F7274696E6720656E6473746F70207309
:1014A00074617475730A0020746F6F206C6F6E67BF
:1014B00020657874727573696F6E207072657665D9
:1014C0006E7465640A0020636F6C642065787472C2
:1014D0007573696F6E2070726576656E7465640AE7
:1014E0000024F4D43050C38E20C2A24017828B70E7
:1014F00011127A910D816CD90AA861E108C758666A
:1015000007615143061E4B5D05C145A7041A4111F1
:1015100004093D9803713931034036DB026533918C
:1015200002D4305402802E1D02632CEE01752AC5B0
:1015300001B028A001102781018F2564012B244BC5
:1015400001E0223401AC211F018D200D01801FFC20
:1015500000841EED00971DDF00B81CD200E61BC6FC
:1015600000201BBC00641AB200B219A8000A19A01E
:10157000006A189900D117910040178B00B51684A6
:101580000031167E00B31579003A157300C7146F49
:101590000058146A00EE1366008813630025135E7A
:1015A00000C7125B006C12570015125400C1115194
:1015B0000070114F0021114B00D61049008D1047CB
:1015C000004610440002104200C00F4000800F3E51
:1015D00000420F3C00060F3B00CB0E3800930E3745
:1015E000005C0E3500270E3400F30D3200C10D31C2
:1015F00000900D3000600D2E00320D2D00050D2CD9
:1016000000D90C2B00AE0C2900850C29005C0C279E
:1016100000350C27000E0C2600E80B2400C40B2418
:1016200000A00B23007D0B23005A0B2100390B2156
:1016300000180B2000F80A1F00D90A1E00BB0A1E62
:10164000009D0A1D00800A1D00630A1C00470A1B3A
:10165000002C0A1B00110A1A00F7091A00DD0919EB
:1016600000C4091900AB091900920917007B091879
:1016700000630917004C09160036091600200916E8
:10168000000A091500F5081500E0081400CC08143C
:1016900000B8081400A4081400900813007D081274
:1016A000006B081300580812004608120034081195
:1016B00000230811001208110001081100F00710A2
:1016C00000E0071000D0071000C0071000B0070F9F
:1016D00000A107100091070E0083070F0074070F89
:1016E0000065070E0057070E0049070E003B070D67
:1016F000002E070E0020070D0013070D0006070D32
:1017000000F9060C00ED060D00E0060C00D4060CF6
:1017100000C8060C00BC060C00B0060C00A4060BAA
:101720000099060C008D060B0082060B0077060B55
:10173000006C060B0061060A0057060B004C060AF7
:101740000042060A0038060A002E060A0024060A8D
:10175000001A060A001006090007060A00FD05091E
:1017600000F4050900EB050900E2050900D90509A7
:1017700000D0050900C7050900BE050900B5050828
:1017800000AD050800A50509009C050800940508A2
:10179000008C050800840508007C05080074050815
:1017A000006C050700650508005D05070056050883
:1017B000004E0507004705070040050800380507EB
:1017C00000310507002A050700230507001C050650
:1017D00000160507000F05070008050600020507AB
:1017E00000FB040600F5040700EE040600E804060A
:1017F00000E2040700DB040600D5040600CF04065F
:1018000000C9040600C3040600BD040600B70406B0
:1018100000B1040500AC040600A6040600A00405FF
:10182000009B04060095040500900406008A040548
:101830000085040500800406007A0405007504058F
:1018400000700405006B04050066040500610405D2
:10185000005C04050057040500520405004D040512
:101860000048040500430405003E0404003A040552
:101870000035040500300404002C0405002704048E
:1018800000230405001E0404001A040400160405C5
:1018900000110404000D04040009040500040404FC
:1018A0000000040400FC030400F8030400F4030433
:1018B00000F0030400EC030400E8030400E4030464
:1018C00000E0030400DC030400D8030400D4030494
:1018D00000D0030400CC030400C8030300C50303C5
:1018E0000024F404D9201BC40C5C0E9804C4095FC6
:1018F0000265077101F405F900FB04B30048048791
:1019000000C10369005803550003034500BE023AB5
:10191000008402310053022A00290225000402201B
:1019200000E4011C00C8011900AF01170098011460
:101930000084011300710110006101100051010EBB
:101940000043010D0036010B002B010B0020010BA1
:1019500000150109000C01090003010800FB000843
:1019600000F3000800EB000700E4000600DE0006BC
:1019700000D8000600D2000600CC000500C7000514
:1019800000C2000500BD000400B9000400B5000459
:1019900000B1000400AD000400A9000400A500038C
:1019A00000A20003009F0004009B000300980003B6
:1019B000009500020093000300900003008D0002D8
:1019C000008B0003008800020086000200840003F0
:1019D00000810002007F0002007D0002007B000207
:1019E0000079000200770001007600020074000216
:1019F0000072000100710002006F0002006D000122
:101A0000006C0002006A000100690002006700012A
:101A10000066000100650001006400020062000130
:101A20000061000100600001005F0002005D000134
:101A3000005C0001005B0001005A00010059000138
:101A40000058000100570001005600010055000138
:101A50000054000100530000005300010052000137
:101A60000051000100500001004F0001004E000035
:101A7000004E0001004D0001004C0001004B000031
:101A8000004B0001004A000100490001004800002D
:101A90000048000100470001004600000046000128
:101AA0000045000000450001004400010043000023
:101AB000004300010042000000420001004100001C
:101AC0000041000100400001003F0000003F000114
:101AD000003E0000003E0001003D0000003D00010E
:101AE000003C0000003C0000003C0001003B000006
:101AF000003B0001003A0000003A000100390000FC
:101B000000390001003800000038000000380001F2
:101B100000370000003700010036000000360000EA
:101B200000360001003500000035000000350001DE
:101B300000340000003400000034000100330000D5
:101B400000330000003300010032000000320000CA
:101B500000320001003100000031000000310001BE
:101B6000003000000030000000300001002F0000B5
:101B7000002F0000002F0000002F0001002E0000A9
:101B8000002E0000002E0001002D0000002D00009E
:101B9000002D0000002D0001002C0000002C000092
:101BA000002C0000002C0001002B0000002B000086
:101BB000002B0000002B0001002A0000002A00007A
:101BC000002A0000002A000100290000002900006E
:101BD0000029000000290000002900010028000061
:101BE0000028000000280000002800000028000154
:101BF0000027000000270000002700000027000049
:101C0000002700010026000000260000002600003A
:101C1000002600000026000100250000002500002D
:101C2000002500000025000000250000002500011F
:101C30000024000000240000002400000024000014
:101C40000024000100230000002300000023000006
:101C500000230000002300000023000000230001F7
:101C600000220000002200000022000000220000EC
:101C700000220000002200010021000000210000DD
:101C800000210000002100000021000000210000D0
:101C900000210001002000000020000000200000C2
:101CA00000200000002000000020000000200000B4
:101CB00000200001001F0000001F0000001F0000A6
:101CC000001F0000001F0000001F0000001F000197
:101CD000001E0000001E0000001E0000001E00008C
:101CE000004D383420582059205A2045005A257577
:101CF0002C45256C752C50256C752C5425752C4263
:101D000025752C004D61676E61203120726561641C
:101D1000792E004D61676E612031207265616479B2
:101D20002E004572723A4E6F2046696C616D656E89
:101D300074006265640A002C2073797374656D20E9
:101D400073746F7070656421204865617465725F9B
:101D500049443A200048656174696E67206661698C
:101D60006C65640048656174696E67206661696CC2
:101D700065640048656174696E67206661696C65B9
:101D8000640048656174696E67206661696C6564AA
:101D90000070012C0190012701B0012201C0011D3A
:101DA00001F00118011002130130020E0160020956
:101DB0000190020401C002FF000003FA004003F595
:101DC000008003F000D003EB002004E6007004E183
:101DD00000E004DC004005D700C005D2004006CD7D
:101DE00000D006C8008007C3003008BE00F008B964
:101DF00000C009B400B00AAF00B00BAA00D00CA517
:101E000000000EA000500F9B00C0109600501291D1
:101E10000000148C00C0158700B0178200B0197D37
:101E200000D01B7800001E730040206E00902269D5
:101E300000F024640040275F0090295A00E02B55F1
:101E400000102E500020304B0010324600E033418D
:101E50000090353C001037370070383200A0392D23
:101E600000B03A2800A03B2300603C1E00103D1942
:101E700000903D1400103E0F00703E0A00C03E0569
:101E800000003F0000403FFBFF803FF6FFC03FF1F6
:101E9000FF4572723A204D494E54454D50204245FF
:101EA00044004572723A204D494E54454D50004D04
:101EB000494E54454D502074726967676572656478
:101EC000004572723A204D415854454D50204245CC
:101ED00044004572723A204D415854454D50004DD2
:101EE000415854454D502074726967676572656446
:101EF00000202F002042403A0020403A00001C1FE2
:101F000011111F00000006191803130C00040E1F06
:101F1000041C000000001010101010100000141419
:101F200014141414000015151515151500000E13C2
:101F300015110E00001C10181705060500040A0AEA
:101F40000A0A11110E0C12120C00000000001F15DD
:101F500011151F0000000000000102040400000031
:101F60001C1C0C0404040201000000000004081002
:101F700000000000004D31303420532575004739F2
:101F8000322045257500473932205A25752E257592
:101F9000004D3530300043616E63656C20707269AE
:101FA0006E7400526573756D65207072696E740091
:101FB000506F776572206F75746167650025753A9B
:101FC0002530327500253032753A25303275002DB6
:101FD0002D2D005344005A005900580053746F7758
:101FE00020424C546F756368004D323830205030B9
:101FF00020533930004465706C6F7920424C546F27
:10200000756368004D323830205030205331300035
:10201000424C546F7563682053656C662D5465732C
:1020200074004D323830205030205331323000525D
:102030006573657420424C546F756368004D323887
:10204000302050302053313630004D61696E0050E1
:1020500072696E7420706175736564004D3132353C
:1020600000002573004D3234005072696E74206197
:10207000626F7274656400473238205859004739DE
:1020800030004731204631303030205A323000475E
:102090003931004E6F2053442063617264005072E6
:1020A000696E742066726F6D2053440053746F70B4
:1020B000207072696E7400526573756D6520707260
:1020C000696E740041626F7574205072696E746538
:1020D00072005061757365207072696E7400436F91
:1020E0006E74726F6C005072657061726500547529
:1020F0006E6500496E666F2073637265656E00429F
:1021000061627973746570205A004D363030204218
:1021100030004368616E67652066696C616D656E4D
:1021200074004261627973746570205A00466C6F66
:102130007700466C6F770046616E2073706565644A
:102140000046616E207370656564004265640042FC
:102150006564004E6F7A7A6C65004E6F7A7A6C65B2
:10216000005370656564005370656564004D616976
:102170006E005072656865617420504C4120456E58
:1021800064005072656865617420504C412042655E
:1021900064005072656865617420504C4100507253
:1021A00065706172650050726568656174204142B6
:1021B0005320456E64005072656865617420414229
:1021C0005320426564005072656865617420414225
:1021D000530050726570617265004261636B004E1E
:1021E00065787420636F726E6572004D32383020EE
:1021F0005030205331363000424C546F75636820A4
:1022000053656C662D54657374004D323830205020
:10221000302053313230005072656865617420415E
:102220004253005072656865617420504C41004310
:102230006F6F6C646F776E004368616E67652066D0
:10224000696C616D656E7400526573657420424CF3
:10225000546F7563680044697361626C65207374C0
:10226000657070657273004D3834004C6576656C2E
:1022700020636F726E65727300426564204C6576F0
:10228000656C696E67004732380A4732390041751C
:10229000746F20686F6D6500473238004D6F76654A
:1022A0002061786973004D61696E004D6F7665201D
:1022B00058004D6F76652059004D6F7665205A00A5
:1022C0004578747275646572004D6F766520302EA6
:1022D000316D6D004D6F766520316D6D004D6F76FF
:1022E000652031306D6D004D6F76652061786973C2
:1022F00000486F74656E6420746F6F20636F6C6448
:10230000004578747275646572004D6F7665205A69
:10231000004D6F76652059004D6F76652058004559
:1023200078747275646572004D6F7665205A004D41
:102330006F76652059004D6F7665205800507265A4
:102340007061726500496E697469616C697A6520B3
:10235000454550524F4D00436F6E74726F6C005282
:102360006573746F7265206661696C736166650080
:102370004C6F61642073657474696E677300496E95
:10238000697469616C697A6520454550524F4D000A
:1023900053746F72652073657474696E677300425D
:1023A0004C546F7563680046696C616D656E7400AE
:1023B0004D6F74696F6E0054656D706572617475F0
:1023C0007265004D61696E004D3330332055312008
:1023D0004525692053256900507265686561742040
:1023E00041425320636F6E66005072656865617488
:1023F00020504C4120636F6E660050494420417567
:10240000746F74756E6500504944204175746F7423
:10241000756E65005049442D44005049442D4400D8
:102420005049442D49005049442D49005049442DFC
:1024300050005049442D5000200220466163740032
:1024400020022046616374002002204D6178002044
:1024500002204D6178002002204D696E002002208C
:102460004D696E004F6666004F6E20004175746FB7
:1024700074656D700046616E20737065656400461A
:10248000616E207370656564004265640042656436
:10249000004E6F7A7A6C65004E6F7A7A6C650043F5
:1024A0006F6E74726F6C0053746F72652073657415
:1024B00074696E67730042656400426564004E6F24
:1024C0007A7A6C65004E6F7A7A6C650046616E2090
:1024D00073706565640046616E20737065656400A5
:1024E00054656D70657261747572650056547261E1
:1024F00076206D696E005654726176206D696E00AB
:10250000566D696E00566D696E00566D6178204596
:1025100000566D6178204500566D6178205A00564E
:102520006D6178205A00566D6178205900566D61B2
:1025300078205900566D6178205800566D617820DA
:1025400058004D6F74696F6E00416D6178204500D1
:10255000416D6178204500416D6178205A00416DE0
:102560006178205A00416D6178205900416D617891
:10257000205900416D6178205800416D61782058E4
:1025800000412D74726176656C00412D7472617624
:10259000656C00412D7265747261637400412D7227
:1025A00065747261637400416363656C00416363C9
:1025B000656C004D6F74696F6E0056652D6A6572AB
:1025C0006B0056652D6A65726B00567A2D6A6572CE
:1025D0006B00567A2D6A65726B0056792D6A6572AA
:1025E0006B0056792D6A65726B0056782D6A65729C
:1025F0006B0056782D6A65726B004D6F74696F6E53
:10260000004573746570732F6D6D0045737465704C
:10261000732F6D6D005A73746570732F6D6D005A52
:1026200073746570732F6D6D005973746570732FBB
:102630006D6D005973746570732F6D6D00587374F0
:102640006570732F6D6D005873746570732F6D6DA9
:10265000004D6F74696F6E0053746570732F6D6DEC
:10266000004A65726B00416363656C6572617469F1
:102670006F6E0056656C6F63697479005A204F66FF
:1026800066736574005A204F666673657400436F05
:102690006E74726F6C004F6E200052756E6F7574A1
:1026A0002073656E736F7273004F66660046696CC7
:1026B0002E204469612E0046696C2E204469612EEB
:1026C000004F6666004F6E20004520696E206D6DDC
:1026D0003300436F6E74726F6C0043616E6E6F7483
:1026E00020656E746572207375626469723A2000A9
:1026F000052E2E004D61696E004D61782054656D88
:10270000703A20313235004D696E2054656D703A53
:10271000203500544265643A4550434F53203130D0
:10272000304B004D61782054656D703A203236355B
:10273000004D696E2054656D703A20350054303A72
:10274000204550434F53203130304B005053553AC1
:102750002047656E657269630050726F746F636FB6
:102760006C3A20312E30002020202048572056651A
:10277000723A2056004657205665723A2056322E3D
:102780003100426175643A203235303030300047D4
:1027900054323536302056342E300042696C696E22
:1027A000656172204C6576656C696E67004578746A
:1027B0007275646572733A203100687474703A2FD0
:1027C0002F68656C6C626F742E78797A004D616742
:1027D0006E61203100323031372D31322D323520CB
:1027E00031323A303000312E312E382E33004D61E7
:1027F000726C696E00546865726D6973746F727380
:1028000000426F61726420496E666F005072696E9B
:1028100074657220496E666F004D61696E002020FC
:102820004E6F7A7A6C653A20004261636B004D69A5
:102830006E696D756D2054656D7020697320313738
:10284000302E0048656174696E67206661696C6549
:10285000640045787472756465206D6F726500520E
:102860006573756D65207072696E740052455355BD
:102870004D45204F5054494F4E533A0020204E6F43
:102880007A7A6C653A20006368616E6765006F66EE
:10289000207468652066696C616D656E74005761AF
:1028A000697420666F7220737461727400505249AB
:1028B0004E54205041555345440020204E6F7A7AA3
:1028C0006C653A200066696C616D656E7420756E8A
:1028D0006C6F6164005761697420666F72005052BA
:1028E000494E54205041555345440020204E6F7AA4
:1028F0007A6C653A2000506C656173652077616978
:10290000742E2E2E0048656174696E67206E6F7A92
:102910007A6C65005052494E5420504155534544FD
:102920000020204E6F7A7A6C653A200068656174E9
:10293000206E6F7A7A6C652E005072657373206218
:102940007574746F6E20746F005052494E5420504D
:1029500041555345440020204E6F7A7A6C653A20E9
:1029600000746F20636F6E74696E75652E2E2E0075
:10297000616E6420707265737320627574746F6E1B
:1029800000496E736572742066696C616D656E7462
:10299000005052494E542050415553454400202088
:1029A0004E6F7A7A6C653A200066696C616D656E6F
:1029B00074206C6F6164005761697420666F7200E7
:1029C0005052494E54205041555345440020204E0A
:1029D0006F7A7A6C653A200066696C616D656E7419
:1029E0002065787472756465005761697420666F3C
:1029F00072005052494E5420504155534544007482
:102A00006F20726573756D65005761697420666F1C
:102A100072207072696E74005052494E54205041B9
:102A20005553454400436172642072656D6F76654D
:102A300064004361726420696E736572746564003A
:102A400000002100240027002A002D003000330060
:102A500001010000040107010A0100002200250015
:102A600028002B002E003100340002010000050177
:102A700008010B01000020002300260029002C0083
:102A80002F003200000100000301060109010505C5
:102A90000505070508080808020202020A0A0808D4
:102AA0000404040401010101010101010303030302
:102AB00003030303040707070C0C0C0C0C0C0C0C91
:102AC0000202020206060606060606060B0B0B0BA2
:102AD0000B0B0B0B010210202008081020401020C7
:102AE00040800201020108040201010204081020D2
:102AF00040808040201008040201800402018040D0
:102B00002010080402010804020101020408102038
:102B10004080010204081020408000000A0B0209D6
:102B20000C0D0E0807030401000000000000000067
:102B30000000000000000000000000000000000095
:102B40000000000000001211100000000000000052
:102B50000000000000000000000000000000000075
:102B6000200D466978656420706172616D657465D9
:102B700072206E62797465733B20637263206572A4
:102B8000726F722000200D0A4669786564207061BA
:102B900072616D657465722062797465733B206340
:102BA0007263206572726F722000290A00206279B8
:102BB0007465733B20637263200046697865642006
:102BC000706172616D6574657220280020686172A1
:102BD00064776172652076657273696F6E3A002D55
:102BE0002D2D2D2D2D2D007C48454C4C424F547CD5
:102BF000002D2D2D2D2D2D2D00687474703A2F2F42
:102C000068656C6C626F742E78797A006874747081
:102C10003A2F2F68656C6C626F742E78797A002079
:102C2000312E312E382E33002020506C616E6E65AF
:102C30007242756666657242797465733A20002047
:102C400046726565204D656D6F72793A2000436F5D
:102C50006D70696C65643A204175672032322032AC
:102C60003032300A00207C20417574686F723A203F
:102C7000286E6F6E652C2064656661756C742063C8
:102C80006F6E666967290A00323031372D31322D77
:102C900032352031323A303000204C617374205587
:102CA0007064617465643A2000312E312E382E3301
:102CB0000A004D61726C696E0020536F6674776113
:102CC00072652052657365740A00205761746368E9
:102CD000646F672052657365740A002042726F77D3
:102CE0006E206F75742052657365740A00204578F4
:102CF0007465726E616C2052657365740A00506F62
:102D000077657255700A0073746172740A00657297
:102D1000726F722077726974696E6720746F2066B3
:102D2000696C650A00456E6473746F707320256367
:102D300020256320256320256300205A3A0020596E
:102D40003A0020583A00656E6473746F707320689F
:102D500069743A200047323820580066696C616D0A
:102D6000656E74206F75740A004D33322053256CE4
:102D70007520212573004D33322053256C75202199
:102D80002F25732F257300473020463130303020F7
:102D90005A25752E2575004732382059004732389C
:102DA0002058004D313036202053323535004D311A
:102DB000303920543020532575004D31393020539F
:102DC000257500446F6E6520736176696E672066B5
:102DD000696C652E0A004D32390050726F62696E5F
:102DE00067206661696C65640A0050726F62696E83
:102DF00067206661696C656400205A3A200020599A
:102E00003A200042656420583A200053544F5050F5
:102E100045442E20005072696E7465722073746F81
:102E2000707065642064756520746F206572726FC0
:102E300072732E2046697820746865206572726FFF
:102E40007220616E6420757365204D3939392074A4
:102E50006F20726573746172742E202854656D70D2
:102E6000657261747572652069732072657365742B
:102E70002E20536574206974206166746572207217
:102E8000657374617274696E67290A0053544F50F8
:102E90002063616C6C656420626563617573652095
:102EA0006F6620424C546F756368206572726F7252
:102EB000202D2072657374617274207769746820A4
:102EC0004D3939390A005344207072696E74696E45
:102ED00067206279746520004E6F7420534420701F
:102EE00072696E74696E670A00486F6D652025739C
:102EF0002573257320666972737400206669727386
:102F0000740A005A0059005800486F6D6520005738
:102F1000726974696E6720746F2066696C653A2007
:102F2000006F70656E206661696C65642C2046696F
:102F30006C653A20006F70656E206661696C65642F
:102F40002C2046696C653A200046696C65207365E3
:102F50006C65637465640A002053697A653A2000E1
:102F600046696C65206F70656E65643A20006F700D
:102F7000656E206661696C65642C2046696C653AF3
:102F800020002066696C653A2000646F696E6700F6
:102F90006672657368004E6F772000454E4420537B
:102FA0005542524F5554494E450A002220706F73C6
:102FB000002220706172656E743A220053554252AD
:102FC0004F5554494E452043414C4C207461726723
:102FD00065743A22004B494C4C45442E20007472D3
:102FE00079696E6720746F2063616C6C2073756201
:102FF0002D67636F64652066696C657320776974FB
:103000006820746F6F206D616E79206C6576656CD9
:10301000732E204D4158206C6576656C2069733A9B
:103020000053442063617264206F6B0A006F706507
:103030006E526F6F74206661696C65640A00766F0A
:103040006C756D652E696E6974206661696C656466
:103050000A004572726F723A00534420696E6974B7
:10306000206661696C0A0043616E6E6F74206F7038
:10307000656E2073756264697220006175746F25D6
:10308000692E67004D3234004D32332025730065C0
:103090006E7175657565696E672022006563686F7E
:1030A0003A00544845524D414C2052554E415741EB
:1030B0005900546865726D616C2052756E6177615C
:1030C00079009800A00011241FBECFEFD1E2DEBF2F
:1030D000CDBF00E00CBF13E0A0E0B2E0E6EFFCE4FF
:1030E00002E00BBF02C007900D92AE3CB107D9F7CA
:1030F00027E1AEECB3E001C01D92AB34B207E1F7BB
:1031000018E1C2E6D8E100E006C021970109802F4E
:10311000FE010F94DD25C136D10780E00807A9F72D
:103120000F942E130D946A260C940000CF93DF9316
:10313000EC0120E030E0A901688179818A819B81DE
:103140000F94AA1E87FF04C0188219821A821B825C
:1031500020E030E0A9016C817D818E819F810F94F8
:10316000AA1E87FF04C01C821D821E821F8220E0CF
:1031700030E04CE553E4688179818A819B810F942A
:103180000825181644F480E090E0ACE5B3E48883A9
:103190009983AA83BB8320E030E04CE553E46C8143
:1031A0007D818E819F810F940825181644F480E05C
:1031B00090E0ACE5B3E48C839D83AE83BF8320E0D5
:1031C00030E0A901688579858A859B850F94AA1EC0
:1031D00087FF04C0188619861A861B8620E030E017
:1031E00042E853E4688579858A859B850F94082594
:1031F000181644F480E090E0A2E8B3E48887998749
:10320000AA87BB87DF91CF9108952E9A0895429A9D
:10321000E5E9FCE01082179A1182159A1282F5CF27
:10322000CF92DF92EF92FF92CF93DF936B017C01FD
:10323000EA0121E338E040EE50EC0F94082587FDC9
:1032400023C022E430E04CE553E4C701B6010F94FB
:10325000AA1E1816CCF0C880D980EA80FB8029E12C
:1032600034E040E051ECC701B6010F94082587FD1A
:103270000BC0C1E022E430E04CE553E4C701B601E5
:103280000F94AA1E18160CF4C0E08C2FDF91CF917A
:10329000FF90EF90DF90CF900895CF92DF92EF9262
:1032A000FF926091FA057091FB05072E000C880BC8
:1032B000990B0F94B01E6B017C012DEB37E346E8B0
:1032C00055EB0F94082587FD0BC02DEB37E346E83F
:1032D00055E3C701B6010F94AA1E18160CF043C09F
:1032E000A701960160E070E080E89FE30F94BE23A1
:1032F0006093860570938705809388059093890570
:103300006091FC057091FD05072E000C880B990B50
:103310000F94B01E6B017C012DEB37E346E855EBB3
:103320000F94082587FD0AC02DEB37E346E855E3E7
:10333000C701B6010F94AA1E1816CCF4A701960176
:1033400060E070E080E89FE30F94BE2360938A05FD
:1033500070938B0580938C0590938D05FF90EF9073
:10336000DF90CF90089560E070E0CB01C1CF60E0C6
:1033700070E0CB01EBCF809A88980895089590E093
:1033800080E008958FB7F8949091610520916005D1
:10339000291769F0E92FF0E0E052FB4F208130E07F
:1033A0009F5F9F77909361058FBFC90108952FEFAD
:1033B0003FEFFACF80E1E9EFF2E1A6EDBCE001904A
:1033C0000D928A95E1F7089580E1E6EDFCE0A9EF22
:1033D000B2E101900D928A95E1F708950F931F9342
:1033E000CF93DF93EC010E9400F20E811F812885AC
:1033F0003985011511052105310579F52C85222323
:1034000039F1EA8521502C8721E02E0F2A873D854E
:10341000231301C01A86F0E03196EE0FFF1FEE0F66
:10342000FF1FEC0FFD1F02851385248535850A8358
:103430001B832C833D83600F711F811D911D6E8343
:103440007F83888799878C819D81892B09F05B9A7E
:10345000DF91CF911F910F910895601B710B820B2B
:10346000930B97FDF5CF5B981E821F8218861986F5
:10347000EFCFCF92DF92EF92FF921F93CF93DF9324
:1034800000D01F92CDB7DEB7182F662351F01092EF
:10349000B6041092B2041092B3041092B4041092C5
:1034A000B5040E9400F2AB01BC018091B20490917E
:1034B000B304A091B404B091B5046A017B01C81AA9
:1034C000D90AEA0AFB0AD701C601B7FD37C017FDC2
:1034D00041C08091B604212F012E000C330B2C5FCC
:1034E0003F4FE82F082E000CFF0B2E173F0734F13B
:1034F000811784F180E991E0A0E0B0E0840F951F8E
:10350000A61FB71F8093B2049093B304A093B40492
:10351000B093B50480ED97E09C838B838CE291E0BF
:103520009A838983BE016D5F7F4FCE0101960E9411
:103530005AE68091B6048F5F8093B6040F900F9087
:103540000F900F90DF91CF911F91FF90EF90DF9040
:10355000CF90089584EC99E0A0E0B0E0CFCFEF9257
:103560000F931F93CF93DF93CDB7DEB760970FB65E
:10357000F894DEBF0FBECDBF6D877E878F87988B97
:10358000E0900D0BE6EDFCE080859185A285B3858A
:103590004481558166817781008111812281338147
:1035A00009831A832B833C834D835E836F837887E3
:1035B00089879A87AB87BC87AE01475F5F4FBE01A3
:1035C0006B5F7F4FCE0101960E9415DD8E01035F78
:1035D0001F4F22EE3CE0AE01475F5F4FBE016B5FC5
:1035E0007F4FCE0101960E94ACD760960FB6F8943B
:1035F000DEBF0FBECDBFDF91CF911F910F91EF9036
:103600000895CF92DF92EF92FF92CF93DF936A01FA
:103610007B01C9EFD2E1E0910D0B24E0E29FF001C4
:103620001124EF5DFD4F2081318142815381FC01E6
:1036300060817181828193810F94BE232C853D85A9
:103640004E855F850F94E2226C877D878E879F87EA
:10365000B1DEC701B60183DFDF91CF91FF90EF901C
:10366000DF90CF900C941DCBEF920F931F93CF93CD
:10367000DF93CDB7DEB72C970FB6F894DEBF0FBE41
:10368000CDBFE0900D0BE9EFF2E180859185A28539
:10369000B3854481558166817781008111812281C2
:1036A000338109831A832B833C834D835E836F832D
:1036B000788789879A87AB87BC87AE01475F5F4F62
:1036C000BE016B5F7F4FCE0101960E9415DD0DE4B8
:1036D00012E025E033E1AE01475F5F4FBE016B5F53
:1036E0007F4FCE0101960E94ACD72C960FB6F8946E
:1036F000DEBF0FBECDBFDF91CF911F910F91EF9035
:1037000008958091430490914404009731F04AE079
:1037100050E070E060E00D94C81B60E070E0CB0109
:103720000895EFDF97FD0AC0ECDF6F3F710581055B
:10373000910509F02CF4E5DF862F089580E00895C7
:103740008FEF08958091430490914404892B39F0C0
:10375000E8DF91E0811101C090E0892F089591E0A8
:10376000FCCF8091430490914404009731F04AE0EB
:1037700050E070E060E00D94F31C60E070E0CB017D
:1037800008958091640C82FF0BC063E68DEA91E09E
:103790000E94D1FE0E947E970E9471FE81E00895F2
:1037A00080E008952F923F924F925F926F927F92A6
:1037B0008F929F92AF92BF92CF92DF92EF92FF9241
:1037C0000F931F93CF93DF93CDB7DEB76D970FB6EF
:1037D000F894DEBF0FBECDBF9A8F898F7C8F6B8F21
:1037E000312C212C2FEF28873FEF3F838FEF888BE1
:1037F0009FE4998BE3ECEA8BF7E4FB8B21E030E06C
:10380000022C02C0220F331F0A94E2F7388F2F8B4D
:103810008EE094E09B878A8710E000E02D8EEA8599
:10382000FB8581919191FB87EA872F89388D8223CF
:103830009323892B09F0EBC08091FA059091FB0549
:10384000289EB001299E700D389E700D1124809124
:10385000F6059091F705680F791F072E000C880B6D
:10386000990B0F94B01E6C877D878E879F87809100
:10387000FC059091FD05089FB001099F700D189FF0
:10388000700D11248091F8059091F905680F791F4A
:10389000072E000C880B990B0F94B01E6B017C0156
:1038A0002C853D854E855F85E98DFA8D608171811E
:1038B000828193810F94E1222B013C01A7019601A3
:1038C000EB8DFC8D60817181828193810F94E12267
:1038D0004B015C01A3019201C301B2010F940F1FC0
:1038E0002B013C01A5019401C501B4010F940F1FE8
:1038F0009B01AC01C301B2010F94E2220F944D254C
:103900004B015C012C853D854E855F8560913204BD
:103910007091330480913404909135040F94E12226
:103920002B013C01A701960160912E0470912F0498
:1039300080913004909131040F94E1226B017C015D
:10394000A3019201C301B2010F940F1F2B013C018F
:10395000A7019601C701B6010F940F1F9B01AC018F
:10396000C301B2010F94E2220F944D2520E030E014
:1039700040E751E40F94BE23A50194010F94E22285
:103980006B017C018090360490903704A09038043D
:10399000B090390420E030E040E85FE3C501B401B5
:1039A0000F9408251816F4F4C501B4010F942624C9
:1039B0004B015C0160E070E0CB01181419041A049B
:1039C0001B0434F40F941B1AA50194010F94A62232
:1039D0000F94B01E9B01AC01B601C7010F94E22207
:1039E0006B017C01288939894A895B89B601C70145
:1039F0000F94AA1E87FF0BC0FD8DF8870F83C98621
:103A0000DC8AED8AFE8AC88AD98AEA8AFB8A0F5F35
:103A10001F4F0330110509F002CF2FEF221A320A8F
:103A200033E02316310409F0E9CE8F81E82FF0E06E
:103A3000EE0FFF1FE25FFB4F21E030E0088402C081
:103A4000220F331F0A94E2F780819181822B932BFE
:103A50009183808389859C89AD89BE898B839C8372
:103A6000AD83BE83482F5C816D817E8128853F8137
:103A700080E090E06D960FB6F894DEBF0FBECDBF2C
:103A8000DF91CF911F910F91FF90EF90DF90CF903A
:103A9000BF90AF909F908F907F906F905F904F906E
:103AA0003F902F900895AF92BF92CF92DF92EF9206
:103AB000FF920F931F93CF93DF931F92CDB7DEB783
:103AC0006C018B0159018091D10581111BC07B01D3
:103AD000E40EF51EF601808191810F945F228983A7
:103AE000F80181938F01BE016F5F7F4FC5010E9476
:103AF0001DEBF60180819181019691838083E01610
:103B0000F10641F70F90DF91CF911F910F91FF9038
:103B1000EF90DF90CF90BF90AF900895FC0120E030
:103B20003EE2DB014D91BD01403249F0283011F4F5
:103B300030833196DB0111974C91408331962F5F92
:103B40002B3079F71082089561E0FC0180810C949C
:103B50002DEE8EBD0DB407FEFDCF08958FEF8EBD07
:103B60000DB407FEFDCF8EB508958F929F92AF9250
:103B7000BF92EF92FF920F931F93CF937C01C62FBA
:103B800049015A01FC019281892F806A86958CBD7A
:103B900090FD03C081E0963009F480E08DBD60E0C7
:103BA000F70180810E942DEE8CE291E00E9475F376
:103BB0008C2F8064CEDF08E110E0D501C401002E17
:103BC00004C0B695A795979587950A94D2F7C1DF5B
:103BD00008501109083FFFEF1F0779F785E9CC234B
:103BE00021F087E8C83009F08FEFB3DFCC3009F45B
:103BF000B5DFC0E0B3DFF701838387FF04C0CF3FA9
:103C000011F0CF5FF7CFCF911F910F91FF90EF9001
:103C1000BF90AF909F908F9008950F931F93CF9375
:103C2000DF93EC0189018C81833039F089E0440F06
:103C3000551F661F771F8A95D1F79A01AB0168E17E
:103C4000CE0193DF882319F086E0898335C08EEF9B
:103C50008EBDF801C8019E5F0DB407FEFDCF208127
:103C60002EBD0DB407FEFDCF21812EBD3296E81783
:103C7000F90791F70DB407FEFDCF8FEF6ADF8FEFE5
:103C800068DF6CDF8B838F71853091F488E592E07B
:103C90000E9475F3182F87E11123B9F220E030E07C
:103CA000A9016DE0CE0161DF882351F086E1CDCF1F
:103CB00083E18983CE0148DFCE0146DF10E005C0F5
:103CC0004DDF8111F3CFCE013FDF812FDF91CF9107
:103CD0001F910F910895CF938091220FC1E0882307
:103CE00099F040911A0F50911B0F60911C0F709129
:103CF0001D0F2AE13DE08091230F9091240F8DDF6D
:103D0000C82F811104C0C0E08C2FCF91089540913D
:103D10001E0F50911F0F6091200F7091210F4115C0
:103D200051056105710589F02AE13DE08091230F7D
:103D30009091240F72DF882331F310921E0F10929E
:103D40001F0F1092200F1092210F1092220FDCCF24
:103D5000EF92FF920F931F93CF93DF93EC017901C2
:103D60008C81833039F089E0440F551F661F771F1F
:103D70008A95D1F79A01AB0161E1CE01F6DE882385
:103D800031F084E08983CE01DFDE80E034C00E9420
:103D900000F28B01E3DE8B838F3F71F40E9400F20F
:103DA000601B710B6D327140A8F381E18983CE01F4
:103DB000CBDE8FEFCEDEE9CF8E3F11F08FE0F6CF76
:103DC0008FEF8EBDF701D701A150BE4F0DB407FE96
:103DD000FDCF9EB591938EBDAE17BF07B9F70DB459
:103DE00007FEFDCF8EB58C93B9DEB8DECE01ACDE1A
:103DF0008FEFAFDE81E0DF91CF911F910F91FF90A8
:103E0000EF900895CF92DF92EF92FF92CF936B01E4
:103E10007C01C42F80911A0F90911B0FA0911C0F51
:103E2000B0911D0F8C159D05AE05BF05F1F053DF58
:103E3000811108C0C0E08C2FCF91FF90EF90DF90F0
:103E4000CF9008952AE13DE0B701A6018091230FAC
:103E50009091240F7DDF882369F3C0921A0FD092CE
:103E60001B0FE0921C0FF0921D0FCC2321F081E07C
:103E70008093220FE0CFC1E0DECF4F925F926F922E
:103E80007F928F929F92AF92BF92CF92DF92EF92EA
:103E9000FF920F931F93CF93DF93EC0142305105B4
:103EA0006105710590F480E0DF91CF911F910F9132
:103EB000FF90EF90DF90CF90BF90AF909F908F904A
:103EC0007F906F905F904F90089589859A85AB851C
:103ED000BC850196A11DB11D84179507A607B707DC
:103EE00010F38F898031C1F5852E962EA72EBB2425
:103EF0008B899C89AD89BE89880E991EAA1EBB1E1E
:103F0000280139016A017B0141E0C501B4017ADF72
:103F1000882349F29F89903181F5DD24EE24FF2426
:103F2000F601EE0FFF1FE65EF24F118300839A89C0
:103F3000923008F4B9CF4D815E816F817885840E0F
:103F4000951EA61EB71E80921E0F90921F0FA09264
:103F5000200FB092210FA8CF803209F0A4CF8B8917
:103F60009C89AD89BE894A015B01E7E0B694A794BC
:103F700097948794EA95D1F7BFCFE894C7F8DD24EA
:103F8000EE24FF24F601EE0FFF1FEE0FFF1FE65E8B
:103F9000F24F4082518262827382C9CFCF92DF9208
:103FA000EF92FF920F931F93CF93DF93FC018185D4
:103FB0009285A385B4850196A11DB11D841795072F
:103FC000A607B70750F480E0DF91CF911F910F91C2
:103FD000FF90EF90DF90CF90089587898031A9F509
:103FE000BB27A72F962F852FC388D488E588F6880E
:103FF0008C0D9D1DAE1DBF1DE9016A017B018F0166
:1040000040911A0F50911B0F60911C0F70911D0F62
:1040100084179507A607B70749F5F8018789803106
:1040200061F5B701A601552766277727440F551F6D
:10403000465E524FFA0180819181B0E0A0E0888312
:104040009983AA83BB8381E0BFCF803209F0BBCFC5
:10405000C388D488E588F688DB01CA01C7E0B69535
:10406000A79597958795CA95D1F7C2CF40E0BC0137
:10407000CD01C8DE8111D1CFA6CFB701A6014F7700
:10408000552766277727440F551F440F551F465E57
:10409000524FFA0180819181A281B381BF70CFCF4D
:1040A0004F925F926F927F92AF92BF92CF92DF92C8
:1040B000EF92FF920F931F93CF93DF9300D01F9245
:1040C000CDB7DEB78C0149835A836B837C8359015A
:1040D000C12CD12C7601412C82E0582E612C712C00
:1040E00049815A816B817C819E012F5F3F4FC801BE
:1040F00055DF882319F1F8018585A301920104C0D9
:10410000220F331F441F551F8A95D2F7DA01C901C8
:10411000C80ED91EEA1EFB1E49815A816B817C8123
:1041200087898031F1F481E0483F5F4F6105710577
:10413000B8F2F501C082D182E282F3820F900F9033
:104140000F900F90DF91CF911F910F91FF90EF9003
:10415000DF90CF90BF90AF907F906F905F904F9027
:10416000089581E0483F5F4F6F4F7F4008F4B8CF1C
:10417000E0CF0F931F93CF93DF93FC012381222382
:1041800031F080E0DF91CF911F910F9108958B0165
:10419000EC01FB018789803139F582E08B831D8A30
:1041A0001E8A1F8A188E808D918DB0E0A0E025E0D8
:1041B000880F991FAA1FBB1F2A95D1F7898B9A8B4D
:1041C000AB8BBC8B1A8F098F81E089831886198687
:1041D0001A861B861C821D821E821F82188A1C86DC
:1041E0001D861E861F86CECF803259F683E08B83D4
:1041F000428D538D648D758D4D8B5E8B6F8B788F5B
:104200009E012F5E3F4FC8014BDF8111DBCFB9CF3D
:104210008F929F92AF92BF92CF92DF92EF92FF92D6
:104220000F931F93CF93DF93EC018B8181110EC00D
:1042300080E0DF91CF911F910F91FF90EF90DF9081
:10424000CF90BF90AF909F908F90089509891A8961
:104250002B893C89041715072607370748F34A01BD
:104260005B01823031F488869986AA86BB8681E01C
:10427000E0CF81149104A104B10449F41886198691
:104280001A861B861C821D821E821F82F0CF088523
:1042900019852A853B85E98DFA8D858590E00996FB
:1042A000B901A8014150510961097109082E04C0E2
:1042B00076956795579547950A94D2F775016401ED
:1042C000E1E0CE1AD108E108F10804C0F694E794C1
:1042D000D794C7948A95D2F7C416D506E606F70692
:1042E00020F0012B022B032B09F58D899E89AF89C4
:1042F000B88D8C839D83AE83BF838E010C5F1F4F6F
:10430000C114D104E104F10409F4ADCF4C815D8105
:104310006E817F819801898D9A8D40DE91E0C91A66
:10432000D108E108F1088111EBCF82CFC41AD50A78
:10433000E60AF70AE2CF40E050E0BA0169CF3F92C7
:104340004F925F926F927F928F929F92AF92BF92A5
:10435000CF92DF92EF92FF920F931F93CF93DF9351
:10436000CDB7DEB72C970FB6F894DEBF0FBECDBF2A
:104370005C01DC0159968D909C90F40181859285B9
:10438000A385B4859C01AD012F5F3F4F4F4F5F4F19
:1043900029873A874B875C87D50114964D905D90AD
:1043A0006D907C901797411451046104710409F4D5
:1043B00058C0BFEF4B1A5B0A6B0A7B0A312C7301A2
:1043C00062011D821E821F821886F40181859285FA
:1043D000A385B4852D813E814F81588528173907E3
:1043E0004A075B0708F054C089859A85AB85BC8570
:1043F0008C159D05AE05BF0550F482E0C82ED12C6A
:10440000E12CF12C92E0492E512C612C712C9E0153
:104410002F5F3F4FB701A601C401C0DD8823C1F162
:1044200089819A81AB81BC81892B8A2B8B2B01F1ED
:10443000260137019FEF491A590A690A790A2D8125
:104440003E814F8158852F5F3F4F4F4F5F4F2D83E8
:104450003E834F8358873FEFC31AD30AE30AF30A18
:10446000B4CF408051806280738033243394A7CFCF
:10447000C414D504E604F70411F70FEF1FEF2FEF74
:104480003FE0B701A601C401F8DC782E81111AC003
:10449000712C872D2C960FB6F894DEBF0FBECDBFC2
:1044A000DF91CF911F910F91FF90EF90DF90CF9010
:1044B000BF90AF909F908F907F906F905F904F9044
:1044C0003F900895F50144815581668177814115BA
:1044D00051056105710531F097018601C401CDDCFC
:1044E0008823B1F2D5011496CD92DD92ED92FC9223
:1044F0001797332051F0D701C6010196A11DB11DB8
:10450000F40180839183A283B383F5018589968921
:10451000A789B08D892B8A2B8B2B09F0BACFC58A3E
:10452000D68AE78AF08E818180688183B2CFCF936B
:10453000DF93EC01462F41706C857D858E859F85CC
:1045400061DC882351F0888920E2829FC001112418
:10455000865E924FDF91CF91089590E080E0FACF90
:10456000CF93DF93EC018B81882339F1898187FF19
:1045700021C061E0CE01DBDFFC01892BF1F08081FD
:10458000853ED9F08B81823040F489899A89AB8944
:10459000BC89848F958FA68FB78F8D899E89938FC5
:1045A000828F8D899E89AF89B88DB58BA48B8981C7
:1045B0008F778983DF91CF918ECB81E0888380E0F4
:1045C000DF91CF9108952F923F924F925F926F9219
:1045D0007F928F929F92AF92BF92CF92DF92EF9293
:1045E000FF920F931F93CF93DF9300D01F92CDB70D
:1045F000DEB78C014B011A01DC0113968C911397E5
:10460000813009F0C7C011968C9181FFC3C082FD33
:10461000AEC06101D80118964D915D916D917C916C
:104620001B97C114D10409F414C159968D919C9122
:104630005A97FC0174802FEF270D2A013B0139E0C6
:1046400076946794579447943A95D1F7722E7420D4
:104650007A01F1E0FF2271101FC0E114F104E1F4CE
:1046600014964D915D916D917C911797411551056F
:104670006105710509F094C055968D919D910D903D
:10468000BC91A02D0097A105B10509F0A1C0C801FA
:1046900056DE882309F47EC080E092E08E199F09DF
:1046A00056018C159D0508F45C01D80159964D9171
:1046B0005C915A9714968D919D910D90BC91A02D6F
:1046C0000297A109B109FA01258504C0880F991F35
:1046D000AA1FBB1F2A95D2F7468557856089718925
:1046E000840F951FA61FB71F9C01AD01270D311D1B
:1046F000411D511D29013A01A11432E0B30609F010
:1047000075C080911A0F90911B0FA0911C0FB09152
:104710001D0F481659066A067B0669F41092220F8F
:104720008FEF9FEFDC0180931A0F90931B0FA093E4
:104730001C0FB0931D0F9401B301A2018091230FB0
:104740009091240F6ADA882329F1F80180859185F8
:10475000A285B3858A0D9B1DA11DB11D8087918700
:10476000A287B3878A0C9B1CCA18DB0853CFF801B9
:10477000418952896389748980859185A285B38531
:10478000481759076A077B0709F443CFC80140DD82
:1047900081113FCF81E0D8018C938FEF9FEF6FC0E5
:1047A0009E012F5F3F4FFADB8823A1F389819A8115
:1047B000AB81BC81F801218D328DF901278920312F
:1047C00069F4883FFFEF9F07A105B10508F05FCFAF
:1047D000F80184839583A683B7835ECF883F2FEF4C
:1047E0009207A2072FE0B20798F351CFE114F1042A
:1047F00049F5D80118964D915D916D917C911B976B
:1048000051968D919D910D90BC91A02D48175907FF
:104810006A077B07B8F05FDA882309F4BBCF81E031
:104820008093220F40921A0F50921B0F60921C0F20
:1048300070921D0FA501B401C701865E924F0F94BF
:10484000002683CF41E0C301B201DCDA8111F2CF4F
:10485000A1CFF80181899289A389B489841795072A
:10486000A607B70738F48181418B528B638B748B19
:1048700080688183F801818183FD18C0C1010F9098
:104880000F900F900F90DF91CF911F910F91FF909C
:10489000EF90DF90CF90BF90AF909F908F907F90E0
:1048A0006F905F904F903F902F900895C80158DE11
:1048B0008111E4CF6FCFCF93DF931F92CDB7DEB7D7
:1048C000698341E050E0BE016F5F7F4F04967BDE5D
:1048D0000F90DF91CF910895CF93DF93EC0140DEED
:1048E0001B82DF91CF910895FC0123812111F4CF28
:1048F0000895CF93DF93EB01FC012381211104C0C4
:1049000080E0DF91CF9108952250223028F48FE289
:104910008883198281E0F5CF60E009DE009781F39A
:10492000DC0160E080E09EE22D91203299F0883039
:1049300031F49E01260F311DF90190836F5F9E01B6
:10494000260F311DAD0141505109FA014081F90195
:1049500040836F5F8F5F8B3039F7FE01E60FF11DEB
:104960001082D8CF0F931F93CF93DF938B01EA016F
:10497000DB016D917C910496BCDFD801ED91FC9137
:10498000119788819081992349F08D38A0F4319650
:10499000ED93FC9388818F5F8883EFCF8D3858F437
:1049A0008FE28083F80180819181019691838083D9
:1049B00088818F5F8883DF91CF911F910F91089538
:1049C0002F923F924F925F926F927F928F929F921F
:1049D000AF92BF92CF92DF92EF92FF920F931F930D
:1049E000CF93DF9300D01F92CDB7DEB79C838B832C
:1049F0004B017A01DC0113968C91811119C08FEF64
:104A00009FEF0F900F900F900F90DF91CF911F911C
:104A10000F91FF90EF90DF90CF90BF90AF909F905D
:104A20008F907F906F905F904F903F902F90089560
:104A3000EB81FC81818180FFE2CF0189128923898A
:104A400034894085518562857385C701B0E0A0E057
:104A500028013901441A550A660A770A4816590688
:104A60006A067B0618F47801E41AF50A67018B815F
:104A70009C8104969A838983612C32E0732EC11441
:104A8000D10409F4B4C0AB81BC8118964D915D91FD
:104A90006D917C911B975A01B1E0BB22EB81FC81A7
:104AA000818D928D1A012B0129E0569447943794F9
:104AB00027942A95D1F72381223089F5DC015A9673
:104AC0006D917D918D919C915D97620D731D841DFB
:104AD000951D83010A191B09C016D10608F4860129
:104AE0000115B2E01B0771F420911A0F30911B0FD2
:104AF00040911C0F50911D0F621773078407950793
:104B000009F057C040E07ED9882309F478CFB50179
:104B1000665E724FA801C4010F94002655C0FC01C7
:104B2000148111501221A114B10481F411110EC08D
:104B3000452B462B472B79F5EB81FC81858996899E
:104B4000A789B08D84839583A683B783AB81BC810D
:104B50005996ED91FC915A9714966D917D918D9196
:104B60009C9117976250710981099109258504C0AC
:104B7000660F771F881F991F2A95D2F726853785DC
:104B800040895189620F731F841F951F610F711D2A
:104B9000811D911D9ECFAB81BC8114964D915D917D
:104BA0006D917C91179729813A81F8D98111CECFE7
:104BB00026CF9401AB01BC018091230F9091240F6B
:104BC000C7D8882309F41BCF800E911EEB81FC818E
:104BD00080859185A285B385800F911FA11DB11D90
:104BE00080879187A287B387C01AD10A48CFC701AF
:104BF00008CFDF92EF92FF920F931F93CF93DF9333
:104C00008C01EB017A018DE0D82E40E250E0BE012C
:104C1000C801D6DE8032910571F021E0892B09F4BC
:104C200020E0822F8195DF91CF911F910F91FF900E
:104C3000EF90DF90089528812223C1F1253E29F3CA
:104C40002E3219F3E114F10439F13B853F733F3003
:104C500019F54A8D5B8D452BF9F42F713FEF320F1B
:104C60003530D0F42150330BD29EC001D39E900D2D
:104C70001124D701A80FB91FFE0120E0AD01253096
:104C800078F431813D932F5F32962D30C1F7288122
:104C900026FF02C0FA0115862B8523FDB6CFC3CFB0
:104CA0002B3010F43481EECF3681ECCF80E0BBCFD7
:104CB0004F925F926F927F92AF92BF92CF92DF92AC
:104CC000EF92FF920F931F93CF93DF931F92CDB775
:104CD000DEB78C017B015A01C22EDB0159968D9102
:104CE0009C91F801928F818FCB0125DB712CF7010C
:104CF00080859185A285B3854189528963897489AC
:104D000084179507A607B70708F051C055E0B69578
:104D1000A795979587955A95D1F7F82FFF70DF2EB5
:104D2000D70113968C91823010F480E0D9C041E015
:104D300050E0BE016F5F7F4FC70142DE0197A9F7C8
:104D4000F70180859185A285B3854F96A11DB11D80
:104D500080879187A287B387F0E2DF9EB00111249C
:104D6000665E724F6115710501F3DB018C9188233A
:104D700041F0853E09F04BC0772029F077247394E9
:104D8000B6CF71100EC080911A0F90911B0FA09199
:104D90001C0FB0911D0FF80184879587A687B787F0
:104DA000D08ADB018C918111E9CF772473948C2D0B
:104DB0008274823409F0B9CF772009F4A1C0F801D8
:104DC000D08861E0C801B3DB009709F4AECF20E2E0
:104DD000DC011D922A95E9F72BE0F501DC01019039
:104DE0000D922A95E1F721E238E2FC01318B208B0C
:104DF00040E058E057874687338B228B318F208FD6
:104E0000578B468B0E946B1E811109C08ECF4BE0E1
:104E100050E0C5010F94F325892B09F068CFF0E22B
:104E2000DF9ED00111249D01265E324FF90183855A
:104E3000817121F08C2D827109F0FAC0F801818D09
:104E4000928D40911A0F50911B0F60911C0F709121
:104E50001D0F4487558766877787D08AFD01E65EF8
:104E6000F24F44885588712C612C3201552444241A
:104E7000D80155964D925D926D927C925897428DD5
:104E8000538D70E060E044295529662977295596AD
:104E90004D935D936D937C935897D9011B962C91FC
:104EA000287109F0B8C0848D958DA68DB78DF80155
:104EB000818B928BA38BB48B81E083838C2D8F703D
:104EC000F80181831482158216821782108611865A
:104ED0001286138681E0C4FE03C0C8010E940FE859
:104EE0000F90DF91CF911F910F91FF90EF90DF9086
:104EF000CF90BF90AF907F906F905F904F9008954C
:104F0000D70113968C911397823009F40ECF5196E6
:104F10008D919D910D90BC91A02D803E9F4FAF41F2
:104F2000B10508F002CFC7010ADA882309F4FDCEE3
:104F30000E946B1E882309F4F8CED7015996ED9193
:104F4000FC915A9714964D905D906D907C901797B8
:104F5000B2E04B1A510861087108858504C0440C01
:104F6000551C661C771C8A95D2F786859785A08983
:104F7000B189480E591E6A1E7B1E81E08093220F64
:104F800040921A0F50921B0F60921C0F70921D0FCF
:104F9000EAE1FDE080E092E0DF019C011D922150FA
:104FA0003040E1F7DD24D394D7015996ED91FC917F
:104FB0008481D81698F42AE13DE0B301A2014D0D99
:104FC000511D611D711D8091230F9091240F0E942E
:104FD0000D1E882309F4A9CED394E6CF258580E061
:104FE00092E0A0E0B0E004C0880F991FAA1FBB1F89
:104FF0002A95D2F7F7014189528963897489840F10
:10500000951FA61FB71F818B928BA38BB48B8AE150
:105010009DE0D12CDCCE203159F498012F5E3F4F1A
:105020003FD8882329F084E0D80113968C9346CF8B
:10503000D80113961C9279CE2F923F924F925F9295
:105040006F927F928F929F92AF92BF92CF92DF9298
:10505000EF92FF920F931F93CF93DF93CDB7DEB7FD
:10506000C354D1090FB6F894DEBF0FBECDBF4C01BB
:105070005B016A01222E19821C821C8E1F8E611513
:10508000710511F510E0CE014C962EDCCE01019693
:105090002BDC812FCD5BDF4F0FB6F894DEBF0FBE48
:1050A000CDBFDF91CF911F910F91FF90EF90DF90D7
:1050B000CF90BF90AF909F908F907F906F905F90B8
:1050C0004F903F902F900895FC0183818111DACF9A
:1050D000FA0180818F32A9F18B01CE0101967C010A
:1050E0003C0180E2382E2E019CE1490E511C239692
:1050F000EFAE23972496FFAE249722963FAE2297D9
:1051000021963FAE21973FAE3EAE3DAE3CAE3BAEAC
:105110003AAE39AE38AE3FAA960190E047E0D901E9
:105120008D91882309F447C08F3209F444C0282F99
:105130008E3201F54A3009F4A5CF98E04AE09D018E
:10514000EECFFB01838182508B01823058F0618D5C
:10515000728DCE014C960DD88E01045E1F4F8823B0
:1051600009F490CFC6016C010196F60120812F321F
:10517000D1F3B3CFEAE2F0E13491332321F0319659
:105180008313FACF7FCF491708F47CCF813208F41C
:1051900079CF8F3709F476CF3FE9380F3A3110F4E1
:1051A00020EE280FE7E3F0E0EC0FFD1FE90FF11D03
:1051B00020839F5FC4CF8FA9803209F463CF690138
:1051C000F90180812F5F3F4F8F32C9F38823F1F0BF
:1051D00021E0AE01495C5F4FB801C70169DD88235A
:1051E00009F450CF0A151B0511F0C80175DB942D89
:1051F000852D6E147F0431F023969FAD239724965E
:105200008FAD24978701E92EF82E77CF222DAE019E
:10521000495C5F4FB801C4014BDD182F34CF2DEF2F
:1052200032E0FC013183208304965ECBCF93DF9381
:10523000EC0190E080E00E94FECA60938E057093BE
:105240008F05809390059093910581E090E00E94F6
:10525000FECA609392057093930580939405909392
:10526000950582E090E00E94FECA609396057093D7
:10527000970580939805909399058EE895E00E9494
:10528000E2DCC436D10561F48CE0EEE8F5E0A9EF8C
:10529000B2E101900D928A95E1F7DF91CF910895E7
:1052A000CC0FDD1FCC0FDD1FFE01E750FD4EC257B6
:1052B000DA4F88819981AA81BB8180839183A283FF
:1052C000B383EBCF4F925F926F927F928F929F92B8
:1052D000AF92BF92CF92DF92EF92FF920F931F9304
:1052E000CF93DF93EC016091F6057091F705072EDF
:1052F000000C880B990B0F94B01E9B01AC016881C8
:1053000079818A819B810F94E1226B017C016091FC
:10531000F8057091F905072E000C880B990B0F9476
:10532000B01E9B01AC016C817D818E819F810F94A9
:10533000E1224B015C01A701960160910A02709184
:105340000B0280910C0290910D020F94AA1E8823EB
:1053500009F453C0C0920A02D0920B02E0920C02F0
:10536000F0920D02209186053091870540918805C5
:1053700050918905C701B6010F940F1F2B013C0105
:105380000F9457246B017C0120E030E0A9010F94B9
:10539000AA1E87FD73C020E030E040E050E4C70162
:1053A000B6010F94082518162CF4C12CD12CE12C31
:1053B000C0E4FC2EA7019601C301B2010F94E122C3
:1053C0002B013C0120E030E0A9010F94AA1E87FDCB
:1053D00059C0409282055092830560928405709274
:1053E0008505C701B6010F94262460938105161622
:1053F0000CF451C06F5F6093800510910502D0914D
:105400008105A501940160910602709107028091C7
:105410000802909109020F94AA1E81113EC01D132B
:105420008FC02091620530916305409164055091D1
:105430006505609182057091830580918405909146
:1054400085050F940F1F20916605309167054091E7
:105450006805509169050F94E222DF91CF911F9169
:105460000F91FF90EF90DF90CF90BF90AF909F9003
:105470008F907F906F905F904F900895C12CD12CAA
:10548000760198CF109282051092830510928405C0
:1054900010928505A6CF62E0AECF80920602909270
:1054A0000702A0920802B092090220918A05309169
:1054B0008B0540918C0550918D05C501B4010F9469
:1054C0000F1F4B015C010F9457246B017C0120E0FE
:1054D00030E0A9010F94AA1E87FDFBC020E030E058
:1054E00040E050E4C701B6010F94082518162CF4CB
:1054F000C12CD12CE12CB0E4FB2EA7019601C501F3
:10550000B4010F94E1224B015C0120E030E0A901DD
:105510000F94AA1E87FDE1C080927C0590927D05C4
:10552000A0927E05B0927F05C701B6010F94262494
:1055300060937B0516160CF4D9C06F5F60937A05F3
:10554000C0917B051D1305C0809104028C1709F4DE
:1055500075C0D0930502C09304028D2FDD0F990B07
:105560000C2E000CDD0BAC01440F551F840F951F52
:10557000FC01EC0FFD1FEE0FFF1FEE0FFF1FEE52A1
:10558000FA4F2081318142815381209376053093F7
:1055900077054093780550937905E0917A050E2FB1
:1055A000EE0F110BDC01A00FB11FAA0FBB1FAA0F3A
:1055B000BB1FAE52BA4F6D917D918D919C910F940E
:1055C000E122609372057093730580937405909344
:1055D000750580918005282F880F330BC901880F2E
:1055E000991F820F931FC80FD91FCC0FDD1FCC0F3F
:1055F000DD1FCE52DA4F288139814A815B812093A9
:105600006E0530936F054093700550937105FC0152
:10561000E00FF11FEE0FFF1FEE0FFF1FEE52FA4FCC
:1056200060817181828193810F94E12260936A0588
:1056300070936B0580936C0590936D0580907C054D
:1056400090907D05A0907E05B0907F052091720519
:10565000309173054091740550917505C501B401F1
:105660000F940F1F209176053091770540917805B2
:10567000509179050F94E2226B017C01C09266057E
:10568000D0926705E0926805F092690520916A055D
:1056900030916B0540916C0550916D05C501B401C9
:1056A0000F940F1F20916E0530916F05409170058A
:1056B000509171050F94E222A70196010F94E12207
:1056C000609362057093630580936405909365050C
:1056D000A8CEC12CD12C760110CF10927C0510924F
:1056E0007D0510927E0510927F051ECF62E026CFC9
:1056F00061E086E00E94BBEF80916E0C60916D0CC2
:1057000070E0811102C070E060E086E00C94F8F077
:10571000BC0184ED93E10E94ACD367E771E080E0C7
:1057200090E00C94D1FD2F923F924F925F926F9236
:105730007F928F929F92AF92BF92CF92DF92EF9221
:10574000FF920F931F93CF93DF9300D01F92CDB79B
:10575000DEB79A8389831B018A013C832B834090A7
:105760004D0250904E0260904F0270905002F9012D
:10577000E080F1809280838020E030E0A901B701D1
:10578000892D982D0F94AA1E811109C0E9EBFFE025
:1057900085919591A591B4917C019A2E8B2EF8015B
:1057A00020813181428153816091011370910213F4
:1057B00080910313909104130F94AA1E87FF1AC0BF
:1057C000C701A92DB82D80934D0290934E02A0934E
:1057D0004F02B0935002F80180819181A281B38180
:1057E0008093011390930213A0930313B0930413B7
:1057F0000E94341BEB81FC81A080B180C280D380E9
:1058000020E030E0A901C601B5010F94AA1E811164
:1058100008C0A0904902B0904A02C0904B02D090BC
:105820004C02A0924D02B0924E02C0924F02D09212
:105830005002E981FA8180819181A281B3818093B4
:10584000F9129093FA12A093FB12B093FC12F1019B
:1058500080819181A281B3818093FD129093FE1289
:10586000A093FF12B09300130E94341BF801208113
:1058700031814281538160910113709102138091B3
:105880000313909104130F9408251816D4F4C7013C
:10589000A92DB82D80934D0290934E02A0934F02F4
:1058A000B0935002F80180819181A281B3818093ED
:1058B000011390930213A0930313B09304130E9457
:1058C000341B0E941DCB40924D0250924E026092BA
:1058D0004F02709250020F900F900F900F90DF9137
:1058E000CF911F910F91FF90EF90DF90CF90BF90DD
:1058F000AF909F908F907F906F905F904F903F9070
:105900002F9008959B01AC016DEF72E189EF92E158
:105910000ACFCF92DF92EF92FF921F93CF93DF9344
:10592000CDB7DEB72C970FB6F894DEBF0FBECDBF54
:1059300090916C0C981709F469C0182F80E090E0E2
:10594000A0E2B1E48D839E83AF83B887C090B80C8A
:10595000D090B90CE090BA0CF090BB0C20E030E095
:10596000A901C701B6010F94AA1E87FF0CC0A701A9
:10597000960160E070E080E291E40F94E1226D8393
:105980007E838F8398872D813E814F8158856091DA
:1059900001137091021380910313909104130F94DB
:1059A000AA1E87FF0AC019821A821B821C82BE01AE
:1059B0006F5F7F4FCE010596A5DF8091F912909120
:1059C000FA12A091FB12B091FC1289879A87AB87DB
:1059D000BC878091FD129091FE12A091FF12B091B0
:1059E00000138D839E83AF83B88719821A821B822E
:1059F0001C829E012F5F3F4F41E053E1BE016B5F70
:105A00007F4FCE0109968FDE10936C0C80E02C96B0
:105A10000FB6F894DEBF0FBECDBFDF91CF911F91BF
:105A2000FF90EF90DF90CF9008959091E712E92FCB
:105A3000F0E0E159F34F80839F5F9A3040F49093F8
:105A4000E7128091E8128F5F8093E8120895109218
:105A5000E712F7CFDF92EF92FF920F931F93CF934E
:105A6000DF93CDB7DEB76E970FB6F894DEBF0FBEEB
:105A7000CDBF6091250F7091260F6115710569F1F9
:105A80004DE150E08E010F5F1F4FC8010F941A1EA9
:105A90001E8EF8017F01E01AF10AD190DD2019F085
:105AA0008AE0D812F7CFF801EE0DFF1D1082C80171
:105AB0000E94CCE6882389F090E080E0DD2049F068
:105AC0008FEFE81AF80A8091250F9091260F8E0D1E
:105AD0009F1D9093260F8093250F81E02091250F25
