:100000000C94D8160C9409170C9409170C94091722
:100010000C9409170C9409170C9409170C940917E0
:100020000C9409170C9409170C9409170C940917D0
:100030000C9409170C9409170C9409170C940917C0
:100040000C9409170C94F36A0C9409170C94091773
:100050000C9409170C9409170C94A2490C9473C2C0
:100060000C9409170C94A3960C9409170C94091777
:100070000C9409170C9409170C9409170C94091780
:100080000C9409170C9409170C9409170C94091770
:100090000C9409170C9409170C9409170C94091760
:1000A0000C9409170C9409170C9409170C94091750
:1000B0000C9409170C9409170C9409170C94091740
:1000C0000C9409170C9409170C9409170C94091730
:1000D0000C9409170C9409170C9409170C94091720
:1000E0000C940917084AD73B3BCE016E84BCBFFD78
:1000F000C12F3D6C74319ABD56833DDA3D00C77FF8
:1001000011BED9E4BB4C3E916BAAAABE0000008090
:100110003F05A84CCDB2D44EB93836A9020C50B91F
:10012000918688083CA6AAAA2ABE000000803F004B
:100130000C9471530C94AC290C949AB40C948CB418
:100140000C9447CB0C947FB40C94103C0C94A029D5
:100150000C9493BE0C943DCB0C94A6290C94D573AF
:100160000C9483B40C94163C0C9490B40C94A6504C
:100170000C9438CF0C941C3C0C94ECBE0C94ACB496
:100180000C9485170C94787C0C940A3E0C947BB4E8
:100190000C9422170C9423BF0C94FBBE0C94E1B971
:1001A0000C943D460C9439170C94E2BE0C94A8B400
:1001B0000C94F1D40C94AA2E0C9493CD0C9496B478
:1001C0000C94A3CE0C9497510C94CEBE0C94C0CF3B
:1001D0000C9471C30C949BBE0C94133D0C94833E01
:1001E0000C94BBD50C94DA330C9426B40C94852C67
:1001F0000C941BCE0C94A53A0C94B2B40C94A6BCEF
:100200000C94882B0C9498690C9421CD0C9433D3C6
:100210000C941A460C94C4E30C9461C80C94A57316
:100220000C940B170C9486180C94D2D30C944F5545
:100230000C94B6B40C94B4BE0C94D8370C94A4B4FB
:100240000C94BEBE0C9410640C9471B40C94993A46
:100250000C942DBF0C94D5C60C94AABE0C943432C9
:100260000C947AC50C941CC60C9484180C94F42934
:100270000C9404610C9495300C94B1B40C9465D139
:100280000C940A3C0C9448D00C949EB40C948D3A77
:100290000C94A6730C94DC400C94933A0C9405BF18
:1002A0000C9477B40C94D0D00C94D8BE0C9426CA7D
:1002B0000C949A290C94C6BE0C940D640C945D6049
:1002C0000C94A0BE0C94E2E30C949F3A0C940FBFE4
:1002D0000C944CD20C9419BF0C9470C50C94C3E1CF
:1002E0000C9486B44E414E494E495459494E46CD20
:1002F000CCCC3D0AD7233C17B7D13877CC2B3295DD
:1003000095E6241FB14F0A000020410000C84200BA
:10031000401C4620BCBE4CCA1B0E5AAEC59D74295B
:100320000A002062797465733B2063726320005376
:10033000657474696E67732053746F7265642028E6
:1003400000446F776E0A00290A5772697465206647
:10035000696C65206E616D6520416D69743A20009D
:100360002062797465733B206372632000506F775D
:1003700065726F66662053746F726564202800444E
:100380006F776E0020213D200063726320657272DA
:100390006F723A20000A726561642066696C65209C
:1003A0006E616D653A2000290A7265616420666994
:1003B0006C65206469723A20002062797465733B31
:1003C000206372632000706F7765726F66662073BA
:1003D000746F7265642073657474696E67732072DC
:1003E0006574726965766564202800202863616CF5
:1003F00063756C6174656429210A0020213D200029
:10040000454550524F4D20435243206D69736D61F5
:10041000746368202D202873746F7265642920002E
:10042000290A002062797465733B2063726320009F
:100430002073746F7265642073657474696E67737A
:1004400020726574726965766564202800204D61AC
:10045000726C696E3D563131290A0028454550526B
:100460004F4D3D00454550524F4D207665727369A2
:100470006F6E206D69736D617463682000486172EE
:1004800064636F6465642044656661756C742053B1
:10049000657474696E6773204C6F616465640A00EB
:1004A000F4010000F401000064000000E803000013
:1004B0000000FA430000FA430000A0400000C841D9
:1004C0000000A0420000A0420000C8430000BA4261
:1004D00020440020490020204D333034205000209B
:1004E000440020490020204D333031205000504935
:1004F000442073657474696E67733A0A002046007D
:1005000020420020480020204D3134352053004D3A
:100510006174657269616C206865617475702070C2
:100520006172616D65746572733A0A00204500203E
:100530005A0020590020580020420020540020205A
:100540004D323035205300416476616E6365643A04
:1005500020533C6D696E5F66656564726174653ECB
:1005600020543C6D696E5F74726176656C5F666580
:100570006564726174653E20423C6D696E5F7365AF
:10058000676D656E745F74696D655F75733E205845
:100590003C6D61785F78795F6A65726B3E205A3C8A
:1005A0006D61785F7A5F6A65726B3E20453C6D6174
:1005B000785F655F6A65726B3E0A002054002052C6
:1005C0000020204D323034205000416363656C655B
:1005D000726174696F6E2028756E6974732F73323F
:1005E000293A20503C7072696E745F616363656C78
:1005F0003E20523C726574726163745F616363652F
:100600006C3E20543C74726176656C5F6163636517
:100610006C3E0A00204500205A0020590020204D41
:100620003230312058004D6178696D756D2041631D
:1006300063656C65726174696F6E2028756E69748C
:10064000732F7332293A0A00204500205A0020599E
:100650000020204D3230332058004D6178696D758F
:100660006D206665656472617465732028756E69B6
:1006700074732F73293A0A00204500205A0020592C
:100680000020204D3932205800537465707320705B
:10069000657220756E69743A0A0020204D32303040
:1006A0002044300A0020204D3230302044002044C5
:1006B000697361626C65640A0046696C616D656EA0
:1006C000742073657474696E67733A0020204D312D
:1006D00034392043203B20556E69747320696E20A5
:1006E00043656C736975730A0020204732312020FE
:1006F00020203B20556E69747320696E206D6D0A51
:100700000020746F6F206C6F6E672065787472754F
:1007100073696F6E2070726576656E7465640A0029
:1007200020636F6C6420657874727573696F6E20D6
:1007300070726576656E7465640A0024F4D4305076
:10074000C38E20C2A24017828B7011127A910D8144
:100750006CD90AA861E108C7586607615143061EB3
:100760004B5D05C145A7041A411104093D98037169
:100770003931034036DB0265339102D430540280B4
:100780002E1D02632CEE01752AC501B028A00110B0
:100790002781018F2564012B244B01E0223401AC19
:1007A000211F018D200D01801FFC00841EED00978C
:1007B0001DDF00B81CD200E61BC600201BBC006475
:1007C0001AB200B219A8000A19A0006A189900D13B
:1007D00017910040178B00B516840031167E00B3C8
:1007E0001579003A157300C7146F0058146A00EEAB
:1007F0001366008813630025135E00C7125B006C4C
:1008000012570015125400C111510070114F0021F0
:10081000114B00D61049008D1047004610440002CD
:10082000104200C00F4000800F3E00420F3C000607
:100830000F3B00CB0E3800930E37005C0E350027BF
:100840000E3400F30D3200C10D3100900D30006008
:100850000D2E00320D2D00050D2C00D90C2B00AEF5
:100860000C2900850C29005C0C2700350C27000E94
:100870000C2600E80B2400C40B2400A00B23007DF1
:100880000B23005A0B2100390B2100180B2000F814
:100890000A1F00D90A1E00BB0A1E009D0A1D008007
:1008A0000A1D00630A1C00470A1B002C0A1B0011CA
:1008B0000A1A00F7091A00DD091900C4091900AB6A
:1008C000091900920917007B091800630917004CE9
:1008D00009160036091600200916000A091500F548
:1008E000081500E0081400CC081400B8081400A48F
:1008F000081400900813007D0812006B08130058BC
:1009000008120046081200340811002308110012D2
:1009100008110001081100F0071000E0071000D0D6
:10092000071000C0071000B0070F00A107100091CA
:10093000070E0083070F0074070F0065070E0057AE
:10094000070E0049070E003B070D002E070E002082
:10095000070D0013070D0006070D00F9060C00ED4A
:10096000060D00E0060C00D4060C00C8060C00BC06
:10097000060C00B0060C00A4060B0099060C008DB6
:10098000060B0082060B0077060B006C060B00615D
:10099000060A0057060B004C060A0042060A0038F9
:1009A000060A002E060A0024060A001A060A00108B
:1009B00006090007060A00FD050900F4050900EB19
:1009C000050900E2050900D9050900D0050900C79D
:1009D000050900BE050900B5050800AD050800A51C
:1009E0000509009C050800940508008C0508008492
:1009F0000508007C050800740508006C0507006503
:100A00000508005D050700560508004E050700476C
:100A10000507004005080038050700310507002AD2
:100A2000050700230507001C050600160507000F33
:100A30000507000805060002050700FB040600F58F
:100A4000040700EE040600E8040600E2040700DBE9
:100A5000040600D5040600CF040600C9040600C33E
:100A6000040600BD040600B7040600B1040500AC8E
:100A7000040600A6040600A00405009B04060095D9
:100A8000040500900406008A040500850405008022
:100A90000406007A04050075040500700405006B67
:100AA00004050066040500610405005C04050057A8
:100AB000040500520405004D0405004804050043E8
:100AC0000405003E0404003A040500350405003026
:100AD0000404002C04050027040400230405001E60
:100AE0000404001A04040016040500110404000D97
:100AF000040400090405000404040000040400FCCC
:100B0000030400F8030400F4030400F0030400EC01
:100B1000030400E8030400E4030400E0030400DC31
:100B2000030400D8030400D4030400D0030400CC61
:100B3000030400C8030300C503030024F404D92000
:100B40001BC40C5C0E9804C4095F0265077101F4B4
:100B500005F900FB04B30048048700C1036900588D
:100B600003550003034500BE023A008402310053DE
:100B7000022A002902250004022000E4011C00C80A
:100B8000011900AF011700980114008401130071CE
:100B90000110006101100051010E0043010D0036EB
:100BA000010B002B010B0020010B00150109000CAB
:100BB00001090003010800FB000800F3000800EB36
:100BC000000700E4000600DE000600D8000600D2A0
:100BD000000600CC000500C7000500C2000500BDEE
:100BE000000400B9000400B5000400B1000400AD29
:100BF000000400A9000400A5000300A20003009F58
:100C00000004009B0003009800030095000200937D
:100C1000000300900003008D0002008B0003008899
:100C20000002008600020084000300810002007FB1
:100C30000002007D0002007B0002007900020077C4
:100C400000010076000200740002007200010071D1
:100C50000002006F0002006D0001006C0002006ADB
:100C600000010069000200670001006600010065E4
:100C700000010064000200620001006100010060E8
:100C80000001005F0002005D0001005C0001005BEC
:100C90000001005A000100590001005800010057EE
:100CA00000010056000100550001005400010053EE
:100CB00000000053000100520001005100010050EB
:100CC0000001004F0001004E0000004E0001004DE9
:100CD0000001004C0001004B0000004B0001004AE5
:100CE00000010049000100480000004800010047E1
:100CF00000010046000000460001004500000045DC
:100D000000010044000100430000004300010042D4
:100D100000000042000100410000004100010040CD
:100D20000001003F0000003F0001003E0000003EC7
:100D30000001003D0000003D0001003C0000003CBF
:100D40000000003C0001003B0000003B0001003AB5
:100D50000000003A000100390000003900010038AD
:100D600000000038000000380001003700000037A4
:100D7000000100360000003600000036000100359A
:100D80000000003500000035000100340000003490
:100D90000000003400010033000000330000003385
:100DA000000100320000003200000032000100317A
:100DB0000000003100000031000100300000003070
:100DC000000000300001002F0000002F0000002F65
:100DD0000000002F0001002E0000002E0000002E59
:100DE0000001002D0000002D0000002D0000002D4E
:100DF0000001002C0000002C0000002C0000002C42
:100E00000001002B0000002B0000002B0000002B35
:100E10000001002A0000002A0000002A0000002A29
:100E2000000100290000002900000029000000291D
:100E30000000002900010028000000280000002810
:100E40000000002800000028000100270000002703
:100E500000000027000000270000002700010026F6
:100E600000000026000000260000002600000026EA
:100E700000010025000000250000002500000025DD
:100E800000000025000000250001002400000024CF
:100E900000000024000000240000002400010023C2
:100EA00000000023000000230000002300000023B6
:100EB00000000023000000230001002200000022A7
:100EC000000000220000002200000022000000229A
:100ED000000100210000002100000021000000218D
:100EE000000000210000002100000021000100207E
:100EF0000000002000000020000000200000002072
:100F00000000002000000020000000200001001F61
:100F10000000001F0000001F0000001F0000001F55
:100F20000000001F0000001F0001001E0000001E46
:100F30000000001E0000001E0000004D3834205844
:100F40002059205A2045005A25752C45256C752CB2
:100F500050256C752C5425752C4225752C004D613F
:100F6000676E612031206C697374612E004D61677A
:100F70006E612031206C697374612E004572723A83
:100F80004E6F2046696C616D656E74006265640A1F
:100F9000002C2073797374656D2073746F707065A5
:100FA0006421204865617465725F49443A200045B8
:100FB00072726F723A20616C2063616C656E74614D
:100FC000720048656174696E67206661696C65646A
:100FD000004572726F723A20616C2063616C656EBD
:100FE0007461720048656174696E67206661696C3E
:100FF00065640070012C0190012701B0012201C03D
:10100000011D01F00118011002130130020E0160F0
:1010100002090190020401C002FF000003FA00402F
:1010200003F5008003F000D003EB002004E600701D
:1010300004E100E004DC004005D700C005D2004018
:1010400006CD00D006C8008007C3003008BE00F0FF
:1010500008B900C009B400B00AAF00B00BAA00D0B4
:101060000CA500000EA000500F9B00C01096005071
:1010700012910000148C00C0158700B0178200B0D8
:10108000197D00D01B7800001E730040206E009078
:10109000226900F024640040275F0090295A00E094
:1010A0002B5500102E500020304B0010324600E02F
:1010B00033410090353C001037370070383200A0C3
:1010C000392D00B03A2800A03B2300603C1E0010E0
:1010D0003D1900903D1400103E0F00703E0A00C004
:1010E0003E0500003F0000403FFBFF803FF6FFC091
:1010F0003FF1FF4572726F723A2054656D70204D5A
:10110000696E20506C6174004572726F723A20549F
:10111000656D70204D696E696D61004D494E544595
:101120004D5020747269676765726564004572721C
:101130006F723A2054656D70204D617820506C615B
:1011400074004572726F723A2054656D70204D6163
:1011500078696D61004D415854454D502074726955
:1011600067676572656400202F002042403A0020C6
:10117000403A00001C1F11111F000000061918033F
:10118000130C00040E1F041C0000000010101010AF
:101190001010000014141414141400001515151563
:1011A000151500000E1315110E00001C1018170560
:1011B000060500040A0A0A0A11110E0C12120C008C
:1011C000000000001F1511151F00000000000001A5
:1011D0000204040000001C1C0C04040402010000B2
:1011E00000000004081000000000004D31303420E1
:1011F000532575004739322045257500473932207F
:101200005A25752E2575004D3530300043616E63CB
:10121000656C207072696E74005265616E756461F0
:101220007220696D70726573696F6E00506F7765BB
:1012300072206F75746167650025753A25303275C7
:1012400000253032753A25303275002D2D2D005392
:1012500044005A00590058005072696E7420706141
:1012600075736564004D31323500002573004D32D1
:101270003400496D70726573696F6E2063616E63CF
:10128000656C616461004732382058590047393035
:10129000004731204631303030205A323000473953
:1012A00031004E6F20686179207461726A657461E3
:1012B000205344004D656E752064652053440044FE
:1012C0006574656E657220696D70726573696F6EA5
:1012D000005265616E7564617220696D707265732C
:1012E000696F6E00496E662E20496D707265736F6E
:1012F00072610050617573617220696D70726573FF
:10130000696F6E00436F6E74726F6C00507265701F
:101310006172617200416A757374617200496E6630
:101320006F726D6163696F6E004D6963726F70619A
:10133000736F205A004D3630302042300043616DCB
:10134000626961722066696C616D656E746F004DD3
:101350006963726F7061736F205A00466C756A6FB3
:1013600000466C756A6F0056656E74696C61646FD7
:10137000720056656E74696C61646F7200506C61C6
:101380007461666F726D6100506C617461666F723A
:101390006D6100426F7175696C6C6100426F7175AF
:1013A000696C6C610056656C6F63696461640056BA
:1013B000656C6F6369646164004D656E7520707261
:1013C000696E636970616C0050726563616C656E13
:1013D00074617220504C4120456E64005072656308
:1013E000616C656E74617220504C41506C61746127
:1013F000666F726D610050726563616C656E7461D9
:101400007220504C410050726570617261720050E0
:10141000726563616C656E74617220414253204550
:101420006E640050726563616C656E746172204118
:101430004253506C617461666F726D6100507265E9
:1014400063616C656E746172204142530050726535
:101450007061726172004174726173004E657874DC
:1014600020636F726E65720050726563616C656EA9
:1014700074617220504C4100456E66726961720061
:1014800043616D626961722066696C616D656E743D
:101490006F0050726563616C656E746172204142C9
:1014A0005300417061676172206D6F746F72657374
:1014B000004D3834004C6576656C20636F726E6544
:1014C0007273004C6C6576617220616C206F72697A
:1014D00067656E00473238004D6F76657220656A29
:1014E0006573004D656E75207072696E6369706119
:1014F0006C004D6F7665722058004D6F76657220D6
:1015000059004D6F766572205A0045787472757374
:101510006F72004D6F76657220302E316D6D004D0B
:101520006F76657220316D6D004D6F76657220317A
:10153000306D6D004D6F76657220656A6573004889
:101540006F74656E6420746F6F20636F6C64004508
:1015500078747275736F72004D6F766572205A00E1
:101560004D6F7665722059004D6F76657220580078
:101570004578747275736F72004D6F766572205A7C
:10158000004D6F7665722059004D6F766572205858
:1015900000507265706172617200496E69746961B0
:1015A0006C697A6520454550524F4D00436F6E740B
:1015B000726F6C00526573746175726172206D6533
:1015C0006D6F72696100436172676172206D656D54
:1015D0006F7269610047756172646172206D656D3B
:1015E0006F72696100496E697469616C697A65201E
:1015F000454550524F4D0046696C616D656E746F84
:10160000004D6F76696D69656E746F0054656D701D
:1016100065726174757261004D656E7520707269D6
:101620006E636970616C004D333033205531204555
:101630002569205325690050726563616C656E747D
:10164000617220414253436F6E6669670050726554
:1016500063616C656E74617220504C41436F6E66BD
:10166000696700504944204175746F74756E650058
:10167000504944204175746F74756E65005049443B
:101680002D44005049442D44005049442D490050F8
:1016900049442D49005049442D50005049442D5093
:1016A00000200220466163740020022046616374BA
:1016B000002002204D6178002002204D617800203A
:1016C00002204D696E002002204D696E004170615C
:1016D00067617200456E63656E6465720054656D86
:1016E0007065726174757261204175746F2E005659
:1016F000656E74696C61646F720056656E74696CB6
:1017000061646F7200506C617461666F726D61002C
:10171000506C617461666F726D6100426F717569C2
:101720006C6C6100426F7175696C6C6100436F6E27
:1017300074726F6C0047756172646172206D656DC3
:101740006F72696100506C617461666F726D6100E7
:10175000506C617461666F726D6100426F71756982
:101760006C6C6100426F7175696C6C610056656EDE
:1017700074696C61646F720056656E74696C616443
:101780006F720054656D7065726174757261005698
:10179000656C2E207669616A65206D696E005665FC
:1017A0006C2E207669616A65206D696E00566D69E0
:1017B0006E00566D696E00566D61784500566D611C
:1017C000784500566D61785A00566D61785A00561A
:1017D0006D61785900566D61785900566D61785881
:1017E00000566D617858004D6F76696D69656E744D
:1017F0006F004163656C2E206D6178450041636523
:101800006C2E206D617845004163656C2E206D6102
:10181000785A004163656C2E206D61785A004163EF
:10182000656C2E206D617859004163656C2E206DCA
:10183000617859004163656C2E206D6178580041D4
:1018400063656C2E206D617858004163656C2E20B5
:101850005669616A65004163656C2E205669616A4C
:1018600065004163656C2E207265747261632E00A1
:101870004163656C2E207265747261632E00416352
:10188000656C65726163696F6E004163656C65725A
:101890006163696F6E004D6F76696D69656E746F17
:1018A0000056652D6A65726B0056652D6A65726B10
:1018B00000567A2D6A65726B00567A2D6A65726BD6
:1018C0000056792D6A65726B0056792D6A65726BC8
:1018D0000056782D6A65726B0056782D6A65726BBA
:1018E000004D6F76696D69656E746F00452070619B
:1018F000736F732F6D6D0045207061736F732F6D63
:101900006D005A207061736F732F6D6D005A2070D7
:1019100061736F732F6D6D0059207061736F732F3A
:101920006D6D0059207061736F732F6D6D005820BD
:101930007061736F732F6D6D0058207061736F73DA
:101940002F6D6D004D6F76696D69656E746F005017
:1019500061736F732F6D6D004A65726B0041636533
:101960006C65726163696F6E0056656C6F63697454
:101970007900436F6E74726F6C00456E63656E64C0
:1019800065720052756E6F75742073656E736F7239
:10199000730046696C2E204469612E0046696C2EE6
:1019A000204469612E0041706167617200456E6379
:1019B000656E646572004520696E206D6D3300416F
:1019C000706167617200436F6E74726F6C00434F99
:1019D0004D4D554E49434154494F4E004452595282
:1019E000554E004552524F525300494E464F004506
:1019F00043484F0050617261646120646520656DE9
:101A0000657267656E63696100446574656E6964DB
:101A100061005072696E7465722073746F707065C6
:101A2000642064756520746F206572726F72732E06
:101A30002046697820746865206572726F72206133
:101A40006E6420757365204D39393920746F2072AA
:101A50006573746172742E202854656D70657261AF
:101A6000747572652069732072657365742E2053D6
:101A70006574206974206166746572207265737480
:101A8000617274696E67290A004E6F20436865634E
:101A90006B73756D2077697468206C696E65206E54
:101AA000756D6265722C204C617374204C696E6593
:101AB0003A2000636865636B73756D206D69736DA3
:101AC000617463682C204C617374204C696E653AB4
:101AD00020004C696E65204E756D626572206973D9
:101AE000206E6F74204C617374204C696E65204EBB
:101AF000756D6265722B312C204C617374204C69BA
:101B00006E653A20004D313130004D3331004731A0
:101B100020463130303020583020593231300047A3
:101B20003238205859005344207265616420657230
:101B3000726F720A00446F6E65207072696E74690C
:101B40006E672066696C650A0020496E76616C6973
:101B50006420657874727564657220004D31323589
:101B60000044656C6574696F6E206661696C6564BC
:101B70002C2046696C653A200046696C65206465D6
:101B80006C657465643A006F70656E206661696C9F
:101B900065642C2046696C653A200043616C656E73
:101BA00074616D69656E746F206C6973746F002069
:101BB000573A00452569202573004D61676E612005
:101BC00031206C697374612E00205A3A0020593A12
:101BD0000020436F756E7420583A0020453A00206B
:101BE0005A3A0020593A00583A003A004361703A94
:101BF000004B64200023646566696E6520204445BF
:101C00004641554C545F004B69200023646566696A
:101C10006E65202044454641554C545F004B702072
:101C20000023646566696E65202044454641554C35
:101C3000545F00504944204175746F74756E65207F
:101C400066696E69736865642120507574207468D4
:101C500065206C617374204B702C204B6920616E81
:101C600064204B6420636F6E7374616E74732066BE
:101C7000726F6D2062656C6F7720696E746F2043A0
:101C80006F6E66696775726174696F6E2E680A009F
:101C9000504944204175746F74756E6520666169A2
:101CA0006C6564212074696D656F75740A004572F6
:101CB000726F723A2074656D7065726174757261CD
:101CC00000546865726D616C2052756E6177617940
:101CD000004572726F723A20616C2063616C656EB0
:101CE0007461720048656174696E67206661696C31
:101CF000656400504944204175746F74756E6520A9
:101D00006661696C6564212054656D7065726174EB
:101D100075726520746F6F20686967680A00204BD0
:101D2000643A2000204B693A2000204B703A200092
:101D30000A20436C617373696320504944200A0090
:101D40002054753A2000204B753A2000206D6178B0
:101D50003A2000206D696E3A200020643A2000206D
:101D6000626961733A200020746F6F206C6F6E6738
:101D700020657874727573696F6E20707265766510
:101D80006E7465640A0020636F6C642065787472F9
:101D90007573696F6E2070726576656E7465640A1E
:101DA0000054454D5020544F4F204C4F5721004771
:101DB000322F47332062616420706172616D6574F7
:101DC0006572730A005265706F736F2E2E2E00526B
:101DD0006573756D69656E646F20696D7072652ECF
:101DE000004D61676E612031206C697374612E0053
:101DF0004573706572616E646F206F7264656E65A5
:101E0000730053696E206D6F76696D69656E746FCE
:101E100000456E642066696C65206C6973740A0005
:101E2000426567696E2066696C65206C6973740A27
:101E3000002569730025696D20256973002569688F
:101E40002025696D2025697300256964202569684E
:101E50002025696D2025697300256979202569642D
:101E6000202569682025696D2025697300507269F5
:101E70006E742074696D653A200050726F746563EA
:101E80007465642050696E0A004525692025730039
:101E90004D61676E612031206C697374612E006F33
:101EA000666600EF19EA19E319DC19CE19444542B8
:101EB00055473A0050617261646120646520656D28
:101EC000657267656E636961004D3131332053007F
:101ED0006F6B00506C617461666F726D612043615D
:101EE0006C69656E74650020573A0043616C656EDD
:101EF00074616E646F20506C61742E2E2E004D61E3
:101F0000676E612031204170616761722E00454D1E
:101F1000455247454E43595F504152534552004345
:101F20004153455F4C494748545F425249474854E2
:101F30004E45535300544F47474C455F4C49474823
:101F4000545300534F4654574152455F504F5745E5
:101F500052004255494C445F50455243454E54004F
:101F60004C4556454C494E475F44415441005A5FE9
:101F700050524F4245004155544F4C4556454C0038
:101F80005052494E545F4A4F420050524F475245BB
:101F90005353004155544F5245504F52545F54458E
:101FA0004D5000564F4C554D455452494300454500
:101FB00050524F4D0053455249414C5F584F4E5F70
:101FC000584F4646004649524D574152455F4E4193
:101FD0004D453A4D61726C696E20312E312E382E8E
:101FE0003320284769746875622920534F5552433E
:101FF000455F434F44455F55524C3A687474707363
:102000003A2F2F6769746875622E636F6D2F4D616B
:10201000726C696E4669726D776172652F4D61727F
:102020006C696E2050524F544F434F4C5F5645528F
:1020300053494F4E3A312E30204D414348494E4589
:102040005F545950453A4D61676E612031204558C3
:102050005452554445525F434F554E543A312055E2
:102060005549443A63656465326132662D343161A5
:10207000322D343734382D396231322D63353563A2
:1020800036326633363766660A002F2F20007A5FB5
:102090006D696E3A2000795F6D696E3A2000785F55
:1020A0006D696E3A20005265706F7274696E6720B8
:1020B000656E6473746F70207374617475730A0055
:1020C0004D31343520533C696E6465783E206F7520
:1020D00074206F662072616E67652028302D31296B
:1020E0000A0053657474696E672054726176656C7A
:1020F00020416363656C65726174696F6E3A20009C
:1021000053657474696E67205265747261637420DC
:10211000416363656C65726174696F6E3A20005348
:10212000657474696E67205072696E7420416363D0
:10213000656C65726174696F6E3A200053657474E2
:10214000696E67205072696E7420616E64205472EB
:102150006176656C20416363656C65726174696F5B
:102160006E3A2000205A00205900580020204D616E
:10217000783A2000205A00205900580020204D694C
:102180006E3A2000456E63656E6465720041706151
:1021900067617200536F667420656E6473746F704C
:1021A000733A2000000125272318FF1F211D1CFF63
:1021B00019171B1EFFFF0C0409FFFFFF2E2C0CFF3D
:1021C000FF04400AFF41FFFFFFFFFFFF20643A00CA
:1021D00020693A0020703A0020643A0020693A00F1
:1021E00020703A0043290A0061626C656420286D02
:1021F000696E2074656D702000436F6C6420657893
:102200007472756465732061726520004361736543
:10221000206C696768743A2000290A00466978656D
:102220006420706172616D65746572206279746595
:10223000733B206372632000466978656420706197
:1022400072616D6574657220280048565F7365740D
:102250005F6F6B0A0041637469766520457874721C
:10226000756465723A2000556E6B6E6F776E2063F1
:102270006F6D6D616E643A202200526573656E6405
:102280003A20006F6B00627573793A207061757344
:10229000656420666F7220696E7075740A006275DD
:1022A00073793A2070617573656420666F7220756A
:1022B0007365720A00627573793A2070726F636594
:1022C0007373696E670A00506172616461206465AE
:1022D00020656D657267656E636961004B494C4CA2
:1022E0002063617573656420627920746F6F206D5F
:1022F00075636820696E6163746976652074696DC1
:1023000065202D2063757272656E7420636F6D6D2C
:10231000616E643A2000506F72206661766F722C95
:10232000207265696E6963696500494D5052455375
:102330004F524120504152414441005072696E74E5
:1023400065722068616C7465642E206B696C6C2802
:10235000292063616C6C6564210A000000E0C00004
:102360000000C1000000000000C8420000C8420098
:1023700000A041000000005761726E696E673A204C
:10238000486F6D696E672042756D7020446976698B
:10239000736F72203C20310A000202040000A0404A
:1023A0000000A040000000400000634300006443C0
:1023B00000008243FFFFFF4D36303020486F7465C8
:1023C0006E6420746F6F20636F6C6420746F206381
:1023D00068616E67652066696C616D656E740A0080
:1023E0007C3C3E5E2B3D3F2F5B5D3B2C2A225C00FC
:1023F0004572726F722077726974696E6720746FAC
:1024000020454550524F4D210A0043616E6E6F7456
:1024100020656E746572207375626469723A20007B
:10242000052E2E004D656E75207072696E636970A1
:10243000616C0054656D7065726174757261206DB8
:102440006178696D613A203132350054656D70658F
:10245000726174757261206D696E696D613A2035C3
:1024600000544265643A4550434F53203130304B5D
:102470000054656D7065726174757261206D61786C
:10248000696D613A203236350054656D7065726150
:1024900074757261206D696E696D613A2035005402
:1024A000303A204550434F53203130304B00467571
:1024B000656E746520646520706F6465723A2047AC
:1024C000656E657269630050726F746F636F6C6FD5
:1024D0003A20312E300020202020485720566572A7
:1024E0003A2056004657205665723A2056322E3111
:1024F0000042617564696F733A2032353030303094
:10250000004754323536302056342E30004578742A
:102510007275736F7265733A203100687474703A23
:102520002F2F68656C6C626F742E78797A004D611C
:10253000676E61203100323031372D31322D323526
:102540002031323A303000312E312E382E33004DCA
:1025500061726C696E005465726D6973746F726537
:102560007300496E662E20436F6E74726F6C6164E7
:102570006F7200496E662E20496D707265736F72BE
:1025800061004D656E75207072696E636970616C73
:10259000002020426F7175696C6C613A20004174B3
:1025A0007261730054656D70204D696E696D6120B4
:1025B0006573203137302E004572726F723A206198
:1025C0006C2063616C656E7461720045787472751D
:1025D0006972206D617300526573756D697220694F
:1025E0006D702E004F50432E205245494E494349AD
:1025F0004F3A002020426F7175696C6C613A20007F
:1026000063616D626961720064656C2066696C610A
:102610006D656E746F004573706572616E646F20D6
:10262000696E696369617200494D50522E205041B4
:102630005553414441002020426F7175696C6C61B3
:102640003A200066696C616D656E746F2065787004
:10265000756C7361646F00457370657261646F209F
:10266000706F7200494D50522E20504155534144D5
:1026700041002020426F7175696C6C613A20004501
:10268000737065726520706F72206661766F72007C
:1026900043616C656E74616E646F20626F71756901
:1026A0006C6C6100494D50522E20504155534144AD
:1026B00041002020426F7175696C6C613A200043C3
:1026C000616C656E746172206C6120626F717569F6
:1026D0006C6C61004F7072696D6120626F746F6E17
:1026E000207061726100494D50522E205041555367
:1026F000414441002020426F7175696C6C613A2041
:10270000007061726120636F6E74696E7561722E04
:102710002E2E00792070726573696F6E6520656C6E
:1027200020626F746F6E00496E7365727465206607
:10273000696C616D656E746F00494D50522E20506A
:10274000415553414441002020426F7175696C6CC2
:10275000613A20004361726761722066696C616D45
:10276000656E746F00457370657261646F20706F81
:102770007200494D50522E20504155534144410062
:102780002020426F7175696C6C613A200045787445
:10279000727569722066696C616D656E746F004553
:1027A0007370657261646F20706F7200494D505292
:1027B0002E20504155534144410070617261207296
:1027C0006573756D6972004573706572616E646FD3
:1027D00020696D702E00494D50522E2050415553A6
:1027E000414441005461726A657461207265746984
:1027F00072616461005461726A65746120636F6C18
:102800006F636164610000002100240027002A003A
:102810002D003000330001010000040107010A010E
:1028200000002200250028002B002E00310034007B
:1028300002010000050108010B0100002000230037
:10284000260029002C002F003200000100000301A7
:102850000601090105050505070508080808020223
:1028600002020A0A0808040404040101010101012A
:1028700001010303030303030303040707070C0C0D
:102880000C0C0C0C0C0C02020202060606060606D4
:1028900006060B0B0B0B0B0B0B0B01021020200879
:1028A00008102040102040800201020108040201AB
:1028B000010204081020408080402010080402011A
:1028C0008004020180402010080402010804020173
:1028D00001020408102040800102040810204080FA
:1028E00000000A0B02090C0D0E080703040100008A
:1028F00000000000000000000000000000000000D8
:102900000000000000000000000000001211100094
:1029100000000000000000000000000000000000B7
:10292000000000000000200D466978656420706199
:1029300072616D65746572206E62797465733B2097
:10294000637263206572726F722000200D0A4669FF
:1029500078656420706172616D657465722062795A
:102960007465733B20637263206572726F7220001E
:10297000290A002062797465733B2063726320002A
:10298000466978656420706172616D657465722056
:1029900028002068617264776172652076657273C1
:1029A000696F6E3A002D2D2D2D2D2D2D007C484563
:1029B0004C4C424F547C002D2D2D2D2D2D2D00687B
:1029C0007474703A2F2F68656C6C626F742E78790E
:1029D0007A00687474703A2F2F68656C6C626F743B
:1029E0002E78797A0020312E312E382E3300202097
:1029F000506C616E6E65724275666665724279747E
:102A000065733A20002046726565204D656D6F72D2
:102A1000793A2000436F6D70696C65643A204F63AA
:102A20007420203320323032300A00207C2041755F
:102A300074686F723A20286E6F6E652C206465662C
:102A400061756C7420636F6E666967290A003230A5
:102A500031372D31322D32352031323A30300020AD
:102A60004C61737420557064617465643A20003160
:102A70002E312E382E330A004D61726C696E0020A3
:102A8000536F6674776172652052657365740A00CE
:102A9000205761746368646F672052657365740AB8
:102AA000002042726F776E206F75742052657365D7
:102AB000740A002045787465726E616C20526573EB
:102AC00065740A00506F77657255700A00737461FF
:102AD00072740A006572726F722077726974696E1F
:102AE0006720746F2066696C650A00456E647374B4
:102AF0006F707320256320256320256320256300E4
:102B0000205A3A0020593A0020583A00656E647302
:102B1000746F7073206869743A2000473238205807
:102B20000066696C616D656E74206F75740A004D86
:102B300033322053256C7520212573004D3332200C
:102B400053256C7520212F25732F257300473020C6
:102B50004631303030205A25752E257500473238E1
:102B60002059004732382058004D3130362020534C
:102B7000323535004D313039205430205325750021
:102B80004D3139302053257500446F6E65207361D7
:102B900076696E672066696C652E0A004D323900D1
:102BA0005344207072696E74696E6720627974652F
:102BB00020004E6F74205344207072696E74696EE9
:102BC000670A00486F6D652025732573257320699A
:102BD0006E69632E0020696E69632E0A005A0059DF
:102BE000005800486F6D65200057726974696E6700
:102BF00020746F2066696C653A20006F70656E20E6
:102C00006661696C65642C2046696C653A20006FCA
:102C100070656E206661696C65642C2046696C6520
:102C20003A200046696C652073656C656374656461
:102C30000A002053697A653A200046696C65206F66
:102C400070656E65643A20006F70656E206661691C
:102C50006C65642C2046696C653A20002066696CBE
:102C6000653A2000646F696E67006672657368007C
:102C70004E6F772000454E4420535542524F5554D5
:102C8000494E450A002220706F7300222070617245
:102C9000656E743A2200535542524F5554494E4581
:102CA0002043414C4C207461726765743A22005095
:102CB000617261646120646520656D657267656E2F
:102CC00063696100747279696E6720746F20636153
:102CD0006C6C207375622D67636F64652066696C28
:102CE0006573207769746820746F6F206D616E79E9
:102CF000206C6576656C732E204D4158206C65768E
:102D0000656C2069733A0053442063617264206FDC
:102D10006B0A006F70656E526F6F74206661696C2C
:102D200065640A00766F6C756D652E696E69742036
:102D30006661696C65640A004572726F723A00538D
:102D40004420696E6974206661696C0A0043616E93
:102D50006E6F74206F70656E207375626469722087
:102D6000006175746F25692E67004D3234004D3255
:102D70003320257300656E7175657565696E672012
:102D800022006563686F3A004572726F723A207470
:102D9000656D706572617475726100546865726DFD
:102DA000616C2052756E617761790000E2E3C4E3E3
:102DB00011241FBECFEFD1E2DEBFCDBF00E00CBFBC
:102DC00013E0A0E0B2E0E6E7FFEE01E00BBF02C0D7
:102DD00007900D92AA3BB107D9F725E1AAEBB3E022
:102DE00001C01D92A63CB207E1F716E1C7EDD6E19E
:102DF00000E006C021970109802FFE010E9413F711
:102E0000C63DD10780E00807A9F70E94DDE40C94D5
:102E1000A9F70C9400002CEA35EC47E25EE36091E0
:102E2000DF097091E0098091E1099091E2090E9427
:102E3000B9F46093CB087093CC088093CD0890933D
:102E4000CE0808952CEA35EC47E25EE36091E30991
:102E50007091E4098091E5099091E6090E94F5EFEF
:102E60006093CF087093D0088093D1089093D208D4
:102E7000089560910F0270911002072E000C880BCC
:102E8000990B0E9496EF2AE037ED43E25CE30E9443
:102E9000F5EF2091C2083091C3084091C4085091C9
:102EA000C5080E94F5EF60930B0270930C028093AB
:102EB0000D0290930E020895880F991F880F991F95
:102EC000FC01EA53F44F40815181628173818D5638
:102ED000944FFC014083518362837383E0919F0888
:102EE000F091A00882899389A489B58980935A09B1
:102EF00090935B09A0935C09B0935D098FEF9FEFFE
:102F00009093A2088093A1080895CF92DF92EF9248
:102F1000FF9280912909882309F457C0C0902509A0
:102F2000D0902609E0902709F090280920E030E0B1
:102F3000A901C701B6010E948FEF882309F445C09B
:102F400020E030E040E05FE3C701B6010E94F5EF0A
:102F50009B01AC010E94F5EF2BED3FE049E450E40A
:102F60000E94F5EF9B01AC0160E070E080E89FE318
:102F70000E94B9F46B017C01C092C208D092C308D0
:102F8000E092C408F092C50860910F02709110029F
:102F9000072E000C880B990B0E9496EF2AE037ED64
:102FA00043E25CE30E94F5EFA70196010E94F5EF72
:102FB00060930B0270930C0280930D0290930E02AB
:102FC000FF90EF90DF90CF900895C12CD12C80E836
:102FD000E82E8FE3F82ED0CF0F931F93CF93DF937C
:102FE00000919F081091A008F80182819381A4812B
:102FF000B581181619061A061B06ECF480915309C0
:1030000080FF19C080912B0990B196959695909567
:1030100090FB80F9982F80932B0980912A09817069
:10302000892349F080919F0B816080939F0B90E0F2
:1030300080E00E945C17F80186819781A085B185A8
:10304000181619061A061B0644F58091530981FFCC
:1030500024C080912B0990B1929596959695937086
:1030600021E092279170C92FF0E0DF2FD195C19513
:10307000D109C827C270DD278C2780932B09C09106
:103080002A09C270C82349F080919F0B8260809307
:103090009F0B81E090E00E945C17F8018285938588
:1030A000A485B585181619061A061B0624F5809105
:1030B000530982FF20C020912B0986B1082E000CF5
:1030C000990B80959095990F880B982F8227847083
:1030D0009927922F982790932B0980912A09847021
:1030E000892349F080919F0B846080939F0B82E03D
:1030F00090E00E945C1780912B0980932A09DF9150
:10310000CF911F910F9108950C943EBF0F931F9381
:10311000CF93DF93CDB7DEB76E970FB6F894DEBFCF
:103120000FBECDBF809115028F93809114028F93B3
:103130001F921F9287E296E19F938F938E010F5FFC
:103140001F4F1F930F930E9426EFC8010E946FB676
:103150000FB6F894DEBF0FBECDBF6E960FB6F894D3
:10316000DEBF0FBECDBFDF91CF911F910F910895AC
:10317000CF92DF92EF92FF92CF93C82F0E9432BF7F
:103180006B017C0124EA30E74DE75FE36091D509EC
:103190007091D6098091D7099091D8090E948FEF3C
:1031A00087FD18C08AEF90E0A0E0B0E08C0D9D1D77
:1031B000AE1DBF1D8093580B9093590BA0935A0BD3
:1031C000B0935B0BC0932B02CF91FF90EF90DF90F9
:1031D000CF90089580E090E0DC01E8CFCF93DF93BB
:1031E00000D01F92CDB7DEB7882349F00E946CCB88
:1031F0000F900F900F900F90DF91CF91089588EB73
:1032000091E09C838B8384E190E09A838983BE0163
:103210006D5F7F4FCE0101960E948CB8E9CFEF928F
:10322000FF920F931F93CF93DF9300D000D01F9294
:103230001F92CDB7DEB78E010F5F1F4FD80130E070
:1032400020E0FB01E20FF31FE491ED932F5F3F4F6E
:1032500028303105B1F7877028E0829FC001112422
:1032600080640E94CCBC780188E0E80EF11CF80173
:1032700061918F0183E092E10E94A6BCE016F10605
:10328000B1F728960FB6F894DEBF0FBECDBFDF9121
:10329000CF911F910F91FF90EF9008954F925F9201
:1032A0006F927F92AF92BF92CF92DF92EF92FF9296
:1032B0000F931F93CF93DF938C01EB01FC0147A089
:1032C00050A461A472A4AFA0B8A4C9A4DAA49501C3
:1032D000A601C301B2010E948FEF87FF3EC0A30188
:1032E0009201C301B2010E94F5EF2B013C01F801EC
:1032F00063A974A985A996A990589B01AC010E9465
:10330000BFF3F80127A530A941A952A90E94F5EF02
:103310009B01AC01C301B2010E94BEF30E946DF695
:103320007B018C019B01AC01B501C6010E948FEFAE
:1033300087FF02C0750186019701A801B501C6018A
:103340000E948FEF882349F0C701D8018FA398A767
:10335000A9A7BAA7888181608883DF91CF911F9147
:103360000F91FF90EF90DF90CF90BF90AF907F9044
:103370006F905F904F9008954F925F926F927F92FF
:103380008F929F92AF92BF92CF92DF92EF92FF9275
:10339000CF93DF93CDB7DEB76A970FB6F894DEBF51
:1033A0000FBECDBF9A8F898F5B014A01DC01D79692
:1033B0006D917D918D919C91DA970E9494EF6B01B4
:1033C0007C01F50120813181428153810E94F5EF1A
:1033D0000E949DF40E9432F53B015C01D4012D91C5
:1033E0003D914D915C91C701B6010E94F5EF0E949D
:1033F0009DF40E9432F56D827E82AF82B8862D8167
:103400003E814F815885283731054105510540F4EB
:1034100028E730E040E050E02D833E834F8358871B
:1034200069837A838B839C8389819A81AB81BC81F8
:1034300088379105A105B10540F428E730E040E068
:1034400050E029833A834B835C83E98DFA8DED5BF1
:10345000FF4F80819181A281B3818D879E87AF8745
:10346000B88BBC01CD010E9496EF69877A878B8764
:103470009C876D817E818F8198850E9494EF698BF6
:103480007A8B8B8B9C8B20E030E0A90169857A8553
:103490008B859C850E948FEF882309F432C1A70198
:1034A0009601C701B6010E94F5EF4B015C01298925
:1034B0003A894B895C89CA01B9010E94F5EF9B01E9
:1034C000AC01C501B4010E94BEF34B015C0129852A
:1034D0003A854B855C85CA01B9010E94BFF39B0107
:1034E000AC01C501B4010E94B9F40E949DF40E9490
:1034F0002BF52B013C016D857E858F8598899095F4
:103500008095709561957F4F8F4F9F4F0E9496EFEA
:103510004B015C0169817A818B819C810E9494EFCF
:103520006D877E878F87988B20E030E0A901C501E9
:10353000B4010E948FEF882309F4E7C02D853E85F2
:103540004F855889CA01B9010E94F5EF6D8B7E8BBA
:103550008F8B988FA7019601C701B6010E94F5EFE6
:103560009B01AC016D897E898F89988D0E94BEF385
:103570006B017C01A5019401C501B4010E94BFF358
:103580009B01AC01C701B6010E94B9F40E9461F52C
:10359000A98DBA8D52968D909D90AD90BC90559707
:1035A00075016401C418D508E608F7080E942BF5D8
:1035B000C61AD70AE80AF90AF7FE67C020E030E029
:1035C000A90169857A858B859C850E948FEF882368
:1035D00009F49FC0C501B4010E9494EF6B017C0106
:1035E00029853A854B855C85CA01B9010E94BFF3E4
:1035F0009B01AC01C701B6010E94F5EF6B017C0194
:1036000029893A894B895C89CA01B9010E94F5EF81
:103610009B01AC01C701B6010E94BEF36B017C01A6
:103620002D853E854F855889CA01B9010E94F5EF65
:103630009B01AC01C701B6010E94BFF36B017C0185
:1036400020E030E040E850E469857A858B859C85F0
:103650000E94F5EF9B01AC01C701B6010E94B9F4CD
:103660000E949DF40E942BF52B013C0177FE03C0C4
:10367000412C512C3201481459046A047B0410F087
:1036800024013501C12CD12C76018FB7F894E98D36
:10369000FA8D908193FD1FC0DF01468A578A608EA4
:1036A000718EC40CD51CE61CF71CC28ED38EE48E22
:1036B000F58E2D813E814F81588523AF34AF45AFC4
:1036C00056AFDF9629813A814B815C812D933D93E2
:1036D0004D935C9313978FBF6A960FB6F894DEBF35
:1036E0000FBECDBFDF91CF91FF90EF90DF90CF90D5
:1036F000BF90AF909F908F907F906F905F904F9012
:10370000089560E070E0CB01F0CE60E070E0CB01A6
:103710003DCF60E070E0CB01A3CF2F923F924F925C
:103720005F926F927F928F929F92AF92BF92CF9251
:10373000DF92EF92FF920F931F93CF93DF93CDB75A
:10374000DEB7C056D1090FB6F894DEBF0FBECDBFAD
:103750002D969FAF8EAF2D974BAB5BA76BAF21968E
:103760007FAF2197322EDC01CD90DD90ED90FC9063
:1037700080912F1290913012A0913112B09132129B
:10378000C81AD90AEA0AFB0A2D96EEADFFAD2D97AD
:1037900044815581668177818091331290913412F2
:1037A000A0913512B09136122A013B01481A590AEC
:1037B0006A0A7B0A4FAA58AE69AE7AAE4085518537
:1037C000628573858091371290913812A0913912D9
:1037D000B0913A122A013B01481A590A6A0A7B0A37
:1037E0004FA658AA69AA7AAA84849584A684B78425
:1037F00080913B1290913C12A0913D12B0913E12EB
:1038000024013501481A590A6A0A7B0A09F497C04B
:103810008091700B811139C060912C0270912D0242
:10382000072E000C880B990B0E9496EF9B01AC01B0
:103830006091FF117091001280910112909102121B
:103840000E948FEF87FF21C080923B1290923C1222
:10385000A0923D12B0923E1202E81DE2F80184915E
:103860000F5F1F4F81110BC000E217E0F801849138
:103870000F5F1F4F882331F00E949384F7CF0E947F
:103880009384ECCF412C512C3201F4E03F9E800117
:103890001124055F1D4FC301B2010E9496EFD801AC
:1038A0002D913D914D915C910E94F5EF0E942BF579
:1038B0004B015C01B7FE08C0B094A0949094809432
:1038C000811C911CA11CB11C6091F20B7091F30B37
:1038D0008091F40B9091F50B0E942BF59B01AC01AC
:1038E000A0E9B1E00E94A4F3681579058A059B055B
:1038F0004CF52D96EEADFFAD2D9784859585A6856B
:10390000B78580933B1290933C12A0933D12B093E5
:103910003E1202E81DE2F80184910F5F1F4F8111F2
:103920000BC001E017E0F80184910F5F1F4F88235F
:1039300031F00E949384F7CF0E949384ECCF412C06
:10394000512C3201D701C6018827B7FD83959927ED
:10395000AA27BB27182F2FA938AD49AD5AAD57FD5F
:1039600012608FA598A9A9A9BAA9B7FD146077FC20
:103970001860A4E03A9EC0011124FC01E55FFD4FF0
:103980005F01C301B2010E9496EFD5012D913D91D7
:103990004D915C910E94F5EF4B015C0120E030E01D
:1039A000A9010E941FF6181604F520E030E040E05F
:1039B0005FE3C501B4010E94BFF30E942BF56CAF19
:1039C0007DAF8EAF9FAF80913F128F5F8F706D96EE
:1039D0008FAF6D97809140126D964FAC6D978411AB
:1039E0000DC080E00E94418AF5CFA501940160E0FE
:1039F00070E080E09FE30E94BEF3DFCF50903F1263
:103A000068965FAE6897652C712C7AA669A60DE45E
:103A1000509EF0011124E153FC4F108212A3D701F4
:103A2000C601F7FE07C088279927DC018C199D097C
:103A3000AE09BF0982839383A483B5838DE449A42F
:103A40005AA4849DF001859DF00D1124E153FC4F93
:103A50008FA998ADA9ADBAADB7FF07C0B095A09535
:103A6000909581959F4FAF4FBF4F86839783A087D7
:103A7000B1878DE469A47AA4869DF001879DF00D3D
:103A80001124E153FC4F8FA598A9A9A9BAA9B7FFA2
:103A900007C0B095A095909581959F4FAF4FBF4FB0
:103AA00082879387A487B5878DE409A51AA5809F8F
:103AB000F001819FF00D1124E153FC4F4CAC5DAC43
:103AC0006EAC7FAC46865786608A718A428153818C
:103AD000648175810681178120853185041715075A
:103AE0002607370714F48A019B018DE469A47AA4A0
:103AF000869DF001879DF00D1124E153FC4F8285D6
:103B00009385A485B58580179107A207B3070CF4A8
:103B1000B8C64CAC5DAC6EAC7FAC84159505A60503
:103B2000B7050CF0B9C6D301C201B6C64CAC5DAC4A
:103B30006EAC7FAC45284628472809F47BC46091C9
:103B400010097091110980911209909113092BA508
:103B50003CA54DA55EA50E94F5EF0E949DF40E9434
:103B600032F56B017C018091310990913209A0916D
:103B70003309B09134094FA458A869A87AA88415CC
:103B80009505A605B70508F45EC481149104A10447
:103B9000B10421F16091BF037091C0038091C10312
:103BA0009091C2036C157D058E059F05B8F4A301A5
:103BB00092010E9472F32B013C01A5019401C701FF
:103BC000B6010E9472F3461657066806790630F46D
:103BD000C301B2010E9482F369017A018DE469A4F4
:103BE0007AA4869DF001879DF00D1124E153FC4FCE
:103BF00086809780A084B18481149104A104B104CB
:103C000041F16091C3037091C4038091C503909109
:103C1000C6036C157D058E059F05D8F42FA538A920
:103C200049A95AA90E9472F32B013C01A7019601F0
:103C3000C501B4010E9472F346165706680679065C
:103C400040F4C301B201A50194010E9482F369010D
:103C50007A018DE409A51AA5809FF001819FF00DDE
:103C60001124E153FC4F82849384A484B58481148D
:103C70009104A104B10441F16091C7037091C8039C
:103C80008091C9039091CA036C157D058E059F052F
:103C9000D8F42FA538A949A95AA90E9472F32B017B
:103CA0003C01A7019601C501B4010E9472F34616BA
:103CB00057066806790640F4C301B201A5019401D4
:103CC0000E9482F369017A018DE449A45AA4849D7B
:103CD000F001859DF00D1124E153FC4F86849784FB
:103CE000A088B18881149104A104B10441F16091CC
:103CF000CB037091CC038091CD039091CE036C15D2
:103D00007D058E059F05D8F42FA538A949A95AA984
:103D10000E9472F32B013C01A7019601C501B40179
:103D20000E9472F3461657066806790640F4C301EE
:103D3000B201A50194010E9482F369017A018DE428
:103D400069A47AA4869D8001879D100D11240153DA
:103D50001C4FF801ED5BFF4FC082D182E282F382FB
:103D6000C701B6010E9494EF6B017C012BA53CA515
:103D70004DA55EA50E94B9F465966CAF7DAF8EAF80
:103D80009FAF6597D801D3966D937D938D939C9348
:103D9000D69720E030E040E85BE4C701B6010E941E
:103DA000F5EF20E034E244EF59E40E94B9F40E94B8
:103DB0002BF5F801668F778F80A391A343A04BAEBC
:103DC00054A021965FAE219765A023966FAE2397EE
:103DD00076A027967FAE279704E119E067961FAF7C
:103DE0000EAF67974FA858AC10E1410E511C64E12B
:103DF000262E69E0362E6FA878AC0BAD0CAF21965D
:103E00001FAD21971FA723960FAD23970BAB2796C6
:103E10001FAD27971BA710E0D3018D909D90AD900B
:103E2000BD903D01E894B7F8F101C190D190E190C7
:103E3000F1901F01A7019601C501B4010E941FF670
:103E400018165CF5112309F410C4A70196016BAD97
:103E500021967FAD219723968FAD239727969FAD0F
:103E600027970E94F5EF6B017C012CAD3FA54BA974
:103E70005BA5C501B4010E94F5EFA70196010E9460
:103E80001FF6181654F4A5019401C701B6010E944B
:103E9000B9F46CAF7FA78BAB9BA74614570409F00E
:103EA000BBCF2B964FAC2B97442009F415C4C09080
:103EB0001B12D0901C12E0901D12F0901E122DEBE0
:103EC00037E346E855E3B601C7010E948FEF87FD4F
:103ED00003C42BAD21963FAD219723964FAD239779
:103EE00027965FAD2797B601C7010E941FF67C2C6D
:103EF0006D2C8701181654F47BAC21966FAC21977A
:103F000023960FAD239727961FAD27979601A701FC
:103F1000672D762DC8010E94B9F4A1966CAF7DAFD4
:103F20008EAF9FAFA1972FE132E12F963FAF2EAF1B
:103F30002F97212C312C50E8452E5FE3552E2B96E0
:103F40001FAE2B972F96AEADBFAD2F976D917D9184
:103F50008D919D912F96BFAFAEAF2F97A1962CADAF
:103F60003DAD4EAD5FADA1970E94F5EF4B015C01F9
:103F7000EFA9F8ADC190D190E190F190F8AFEFAB1F
:103F80002B96FFAD2B97FF2371F0A20191010E94A8
:103F9000F5EF4B015C01A2019101C701B6010E943E
:103FA000F5EF6B017C01A7019601C501B4010E94E8
:103FB0001FF620E030E0A90118160CF06CC3C70111
:103FC000B6010E941FF618164CF020E030E0A9015F
:103FD000C501B4010E948FEF87FF4DC3A701960171
:103FE000C501B4010E94BEF36B017C016796AEADC2
:103FF000BFAD67978D909D90AD90BD906796BFAF18
:10400000AEAF6797A5019401C701B6010E941FF6E4
:104010001816ACF4A7019601C501B4010E94B9F4C9
:104020009B01AC01C201B1010E94F5EF1B012C0103
:104030002B96BFAD2B97BF5F2B96BFAF2B97EFE2B1
:10404000F2E12F962EAD3FAD2F97E217F30709F05F
:1040500079CF2B963FAD2B97332351F0A2019101DD
:10406000672D762DC8010E94F5EF762E672E8C0104
:1040700024EA30E74DE75FE3672D762DC8010E9403
:10408000F5EF6B017C01AC019B0160912C097091F3
:104090002D0980912E0990912F090E941FF6181664
:1040A000DCF4A70196016CAD7FA58BA99BA50E94AE
:1040B0001FF618168CF48DE449A45AA4849DF001CF
:1040C000859DF00D1124E153FC4F80818460808335
:1040D0007CAC6FA40BA91BA58DE449A45AA4849DB4
:1040E000F001859DF00D1124E153FC4F872D962D95
:1040F000D80183A794A7A5A7B6A765966CAD7DAD9B
:104100008EAD9FAD659790589B01AC010E94BFF3A7
:104110006C962CAD3DAD4EAD5FAD6C970E94F5EF4A
:104120009B01AC016BE077ED83E29BE30E94BEF361
:104130000E946DF66B017C01272D362DA8010E948F
:104140001FF618161CF07C2C6D2C87018DE449A4F9
:104150005AA4849DF001859DF00D1124E153FC4F7C
:10416000872D962DD80187A390A7A1A7B2A7B080CD
:104170009601A7016BAD21967FAD219723968FAD58
:10418000239727969FAD27970E948FEF18160CF460
:10419000ACC283E04DE4C42E49A45AA4C49CF001EF
:1041A000C59CF00D1124E153FC4FB82AB08280E188
:1041B000FE017196AFE1B2E101900D928A95E1F7AF
:1041C0008BAD21969FAD21972396AFAD2397279670
:1041D000BFAD279780931B1290931C12A0931D12C2
:1041E000B0931E128CAD9FA5ABA9BBA580932C09E3
:1041F00090932D09A0932E09B0932F092BAD2196F2
:104200003FAD219723964FAD239727965FAD279714
:1042100060E070E080E89FE30E94B9F44B015C012C
:10422000AC019B016CAD7FA58BA99BA50E94F5EF0E
:104230006DA37EA38FA398A7A5019401672D762D6A
:10424000C8010E94F5EF69A37AA38BA39CA368968B
:104250005FAC68975C9CC0011124AE014B5D5F4F61
:10426000BE016F5D7F4F81539C4F0E94BC196D96BC
:104270006FAC6D9760923F1280E12D96EEADFFAD71
:104280002D97AFE2B2E101900D928A95E1F780910E
:104290003F1290914012891B8F70843008F4A5C0A2
:1042A0002090401223942394022D0F70202E109101
:1042B0003F1211501F702C2D120260011124A60113
:1042C00041535C4F6A013DE4332E11501F70812E23
:1042D000012E000C9908389CC001399C900D1124C6
:1042E000DC01A153BC4F7D014C9042FC7EC0B32D3C
:1042F0001B02C0011124FC01E153FC4FFAA7E9A7FE
:10430000D7019B965C909B979C966C909C979D96F2
:104310007C909D979E960C919E9797962D913D919E
:104320004D915C919A97652D762D872D902F0E9447
:104330008FEF882309F457C041FC43C0F601A7A0C2
:10434000B0A4C1A4D2A4A6019501652D762D872D18
:10435000902F0E948FEF1816A4F5A6019501C601B3
:10436000B5010E94F5EF5B016C01D701D3966D9109
:104370007D918D919C91D69790589B01AC010E94A4
:10438000BFF3E9A5FAA527A530A941A952A90E9422
:10439000F5EF9B01AC01C601B5010E94BEF30E947E
:1043A0006DF66B017C019B01AC01652D762D872D8F
:1043B000902F0E948FEF87FD04C05C2C6D2C7E2C0B
:1043C0000F2D389CF001399CF00D1124E153FC4F66
:1043D000852D962DA72DB02F87A390A7A1A7B2A7B3
:1043E000842D81608083211282C110914012F12CB2
:1043F00000E090E080E02DE4E22E20913F122117B2
:1044000009F478C11E9D90011124A90141535C4F0C
:104410006A01009741F0DC012C9121FD04C06F2D51
:10442000702F0E944E191F5F1F708F2D902FFC2C34
:104430000D2DE3CF609108097091090980910A0957
:1044400090910B0984CB81149104A104B104A9F1CA
:104450006091BF037091C0038091C1039091C2032A
:104460006C157D058E059F0540F50E9494EF2BA9E4
:104470003CA94DA95EA90E94F5EF2B013C01C501A5
:10448000B4010E9496EF4B015C01C701B6010E9486
:1044900094EFA50194010E94F5EFA30192010E94FF
:1044A0001FF6181654F4A5019401C301B2010E942D
:1044B000B9F40E9432F56B017C018DE469A47AA401
:1044C000869DF001879DF00D1124E153FC4F46803D
:1044D0005780608471844114510461047104A9F10E
:1044E0006091C3037091C4038091C5039091C6038A
:1044F0006C157D058E059F0540F50E9494EF2BA954
:104500003CA94DA95EA90E94F5EF4B015C01C301D6
:10451000B2010E9496EF2B013C01C701B6010E9437
:1045200094EFA30192010E94F5EFA50194010E946E
:104530001FF6181654F4A3019201C501B4010E949C
:10454000B9F40E9432F56B017C018DE409A51AA52E
:10455000809FF001819FF00D1124E153FC4F4284B4
:104560005384648475844114510461047104A9F175
:104570006091C7037091C8038091C9039091CA03E9
:104580006C157D058E059F0540F50E9494EF2BA9C3
:104590003CA94DA95EA90E94F5EF4B015C01C30146
:1045A000B2010E9496EF2B013C01C701B6010E94A7
:1045B00094EFA30192010E94F5EFA50194010E94DE
:1045C0001FF6181654F4A3019201C501B4010E940C
:1045D000B9F40E9432F56B017C018DE449A45AA420
:1045E000849DF001859DF00D1124E153FC4F8684DC
:1045F0009784A088B18881149104A104B10409F4BE
:104600009ECB6091CB037091CC038091CD039091B0
:10461000CE036C157D058E059F0508F090CB0E949A
:1046200094EF2BA93CA94DA95EA90E94F5EF2B019F
:104630003C01C501B4010E9496EF4B015C01C7012A
:10464000B6010E9494EFA50194010E94F5EFA30129
:1046500092010E941FF618160CF071CBA50194016F
:10466000C301B2010E94B9F422C4CCAEDFA6EBAA0A
:10467000FBA611E012CCF7FAF094F7F8F094A7013A
:104680009601C501B4010E941FF618160CF0AECCBD
:1046900075016401ABCCC701B6010E948FEF87FDA5
:1046A00009C020E030E0A901C501B4010E941FF655
:1046B00018162CF4A5019401C701B60193CCB7FAE2
:1046C000B094B7F8B094A5019401C701B6010E9457
:1046D0008FEF87FF8BCCDCCF8DE469A47AA4869D15
:1046E000F001879DF00D1124EECC81E053CDC9A4DB
:1046F000DAA4EBCD009741F0FC01208121FD04C03C
:104700006F2D702F0E944E19F090401210E000E0C3
:104710008DE4E82EAF2C0F2C000CBB0880913F12CB
:104720008A151B0409F45DC0FF2D2E2DF202C00175
:104730001124AC0141535C4F6A010115110509F4C4
:104740004AC0D8018C9180FD0AC0EA9CF001EB9C24
:10475000F00D1124E153FC4F808180FF3CC0F80133
:1047600023A134A145A156A160E070E080E89FE359
:104770000E94B9F42B013C01EA9CF001EB9CF00D86
:104780001124E153FC4FAC019B0167A170A581A5E9
:1047900092A50E94F5EF69A37AA38BA39CA3A30122
:1047A0009201D80197966D917D918D919C919A97E8
:1047B0000E94F5EF6DA37EA38FA398A7AE014F5D76
:1047C0005F4FBE016B5D7F4FC8010E94BC19F801AD
:1047D00080818E7F8083F394FF2DFF70FF2E8601F2
:1047E00099CF0115110599F1D80193962D913D911D
:1047F0004D915C91969760E070E080E89FE30E94A5
:10480000B9F46B017C012DEC3CEC4CE45DE30E94BF
:10481000F5EF69A37AA38BA39CA3A7019601F801E6
:1048200067A170A581A592A50E94F5EF6DA37EA357
:104830008FA398A7AE014F5D5F4FBE016B5D7F4FA9
:10484000C8010E94BC19D8018C918E7F8C93C05AEC
:10485000DF4F0FB6F894DEBF0FBECDBFDF91CF9113
:104860001F910F91FF90EF90DF90CF90BF90AF908E
:104870009F908F907F906F905F904F903F902F9080
:1048800008958CAD9DADAEADBFAD80179107A20769
:10489000B30714F4D901C8012DE409A51AA5209F76
:1048A000F001219FF00D1124E153FC4F828B938B7B
:1048B000A48BB58B0697A105B10548F2DF01A95B72
:1048C000BF4F8091B90B9091BA0B8D939C9331821D
:1048D000452B462B472B09F042988DE449A45AA456
:1048E000849DF001859DF00D1124E153FC4F8681DC
:1048F0009781A085B185892B8A2B8B2B09F017987E
:104900008DE469A47AA4869DF001879DF00D1124A1
:10491000E153FC4F82859385A485B585892B8A2B2D
:104920008B2B09F015984CAC5DAC6EAC7FAC452878
:104930004628472809F4C1C280913009882319F01C
:10494000815080933009311004C02E9880E280930A
:1049500030092090E4083090E5080091E6081091B5
:10496000E7082BA93BA54BAD21965FAD2197B1017F
:10497000C8010E941FF6181634F02BA83BA40BADFB
:1049800021961FAD2197C701B6010E9496EF209195
:10499000830B3091840B4091850B5091860B0E94C4
:1049A000F5EF2B013C0149825A826B827C826FA910
:1049B00078AD89AD9AAD0E9496EF2091870B30912A
:1049C000880B4091890B50918A0B0E94F5EF6FABD9
:1049D00078AF89AF9AAF6D837E838F8398876FA5F9
:1049E00078A989A99AA90E9496EF20918B0B309102
:1049F0008C0B40918D0B50918E0B0E94F5EF6B014B
:104A00007C01C986DA86EB86FC8620918F0B30917B
:104A1000900B4091910B5091920BC501B4010E94F3
:104A2000F5EF6D877E878F87988B2DE449A55AA572
:104A3000249FF001259FF00D1124E153FC4F82804B
:104A40009380A480B58056E085169104A104B1043A
:104A5000ACF486809780A084B184A6E08A16910485
:104A6000A104B1045CF482849384A484B5849F7708
:104A7000B6E08B169104A104B10484F1A301920164
:104A8000C301B2010E94F5EF2B013C012FA938AD03
:104A900049AD5AADCA01B9010E94F5EF9B01AC01C5
:104AA000C301B2010E94BFF34B015C01A701960153
:104AB000C701B6010E94F5EF9B01AC01C501B4012D
:104AC0000E94BFF30E946DF62DE449A45AA4249DD0
:104AD000F001259DF00D1124E153FC4F67A770AB49
:104AE00081AB92AB8DE469A47AA4869DF001879D89
:104AF000F00D1124E153FC4F27A530A941A952A97B
:104B000060E070E080E89FE30E94B9F461966CAFCA
:104B10007DAF8EAF9FAF61979B01AC01B101C80122
:104B20000E94F5EF6B017C0180913F129091401241
:104B3000891B8F702B968FAF2B97A701960160E092
:104B400074E284E799E40E94B9F40E942CF64B01C8
:104B50005C012B968FAD2B9782508630C0F58091EB
:104B6000BB039091BC03A091BD03B091BE03881616
:104B70009906AA06BB0658F5BC01CD01681979094A
:104B80008A099B09660F771F881F991F2B967FAC98
:104B90002B97272D30E050E040E00E9482F3CA01BD
:104BA000B9010E9494EF0E942BF5860E971EA81E55
:104BB000B91EC501B4010E9494EF9B01AC0160E0F5
:104BC00074E284E799E40E94B9F46B017C018FB729
:104BD000F89440915C0B50915D0B60915E0B70916D
:104BE0005F0B840E951EA61EB71E80925C0B9092E2
:104BF0005D0BA0925E0BB0925F0B8FBF8DE449A45A
:104C00005AA4849D8001859D100D112401531C4FD1
:104C1000D8019F964D905D906D907C90D2976C9648
:104C20004CAE5DAE6EAE7FAE6C97A3019201C70134
:104C3000B6010E94F5EF26966CAF7DAF8EAF9FAFA9
:104C40002697F80163A374A385A396A3428853888B
:104C5000648875884FA658AA69AA7AAAC301B201C6
:104C60000E9494EF6BAB7CAB8DAB9EAB9B01AC0118
:104C7000C701B6010E94F5EF0E949DF40E9432F533
:104C80002A966CAF7DAF8EAF9FAF2A97F80167ABC6
:104C900070AF81AF92AF8E010F5F1F4F22961FAF93
:104CA0000EAF2297005F1F4F18AF0FAB08EE18E052
:104CB00063961FAF0EAF63974FA858AC67965FAE71
:104CC0004EAE6797212C312C00E80BA71FE31BAFDA
:104CD0002296AEADBFAD22972D913D914D915D9144
:104CE0002296BFAFAEAF2297C701B6010E94F5EF83
:104CF0006796EEADFFAD6797619371938193919342
:104D00006796FFAFEEAF67974B015C01E894B7F889
:104D10006396AEADBFAD63974D905D906D907D9005
:104D20006396BFAFAEAF6397A5019401C301B20113
:104D30000E948FEF87FF12C0A5019401C301B20149
:104D40000E94B9F45B018C0191014BA55BAD0E94FF
:104D50008FEF87FF03C015010BA71BAF4FA858ACFF
:104D600022966EAC7FAC22974614570409F0B0CF60
:104D700020E030E040E85FE3B1018BA59BAD0E94ED
:104D80008FEF87FF4BC0620100E1C00ED11C7201A2
:104D9000D7012D913D914D915D917D018D01045083
:104DA0001109B1018BA59BAD0E94F5EFF80160835D
:104DB000718382839383CE14DF0451F78DE449A479
:104DC0005AA4849D8001859D100D112401531C4F10
:104DD00026962CAD3DAD4EAD5FAD2697B1018BA5AE
:104DE0009BAD0E94F5EFD80193966D937D938D93C3
:104DF0009C9396972A966CAD7DAD8EAD9FAD2A970C
:104E00000E9494EF91014BA55BAD0E94F5EF0E94CB
:104E100032F5F80167AB70AF81AF92AF61962CAD00
:104E20003DAD4EAD5FAD61976BA97CA98DA99EA9E3
:104E30000E94F5EF6BA77CA78DA79EA78DE449A4E0
:104E40005AA4849DF001859DF00D1124E153FC4F7F
:104E500082809380A480B58081149104A104B10460
:104E600011F00C94961D86819781A085B185892BC0
:104E70008A2B8B2B11F00C94961D82859385A4852B
:104E8000B585892B8A2B8B2B11F00C94961D2091C4
:104E90000C0930910D0940910E0950910F096BA535
:104EA0007CA58DA59EA50E94F5EF0E949DF40E9411
:104EB00032F56B017C010C949F1E2090E00830902D
:104EC000E1080091E2081091E3084BCD8091C809F8
:104ED0008630D8F496E0899FF0011124EC55F64F06
:104EE00020913A0230913B02318320834091A40B00
:104EF0005091A50B6091A60B7091A70B4283538331
:104F0000648375838F5F8093C8090895EF92FF9241
:104F10000F93CF93DF93D82F7A01C22F80E00E94A6
:104F2000D2BCD11101C0C0E28C2F0E94C3BCC2E12F
:104F3000F7016491662359F0CC2389F083E092E174
:104F40000E94A6BCC150FFEFEF1AFF0AF1CFC1507B
:104F500030F060E283E092E10E94A6BCF8CF802F9F
:104F6000DF91CF910F91FF90EF900C94C3BC8F9283
:104F70009F92AF92BF92CF92DF92EF92FF92CF9328
:104F8000DF93682F8BE00E94D2BC0E9442CCD82FC6
:104F9000C091C608C7FF79C08090B7089090B80844
:104FA000A090B908B090BA086091B70B7091B80B97
:104FB000072E000C880B990B0E9496EF6B017C0169
:104FC00082E00E94C3BC20E030E040E05FE3C50126
:104FD000B4010E94BFF30E942BF5CB010E94C4C90B
:104FE0000E9459B96FE283E092E10E94A6BC8091D1
:104FF000F511C7FD8091F411D11154C0882309F433
:1050000051C060E283E092E10E94A6BC20E030E063
:1050100040E251E4C701B6010E941FF687FD05C0BA
:1050200060E283E092E10E94A6BC20E030E048EC20
:1050300052E4C701B6010E941FF687FD05C060E279
:1050400083E092E10E94A6BC81E00E94C3BC60E2C2
:1050500083E092E10E94A6BC20E030E040E251E40F
:10506000C701B6010E948FEF87FF2CC060E283E08A
:1050700092E1DF91CF91FF90EF90DF90CF90BF90C2
:10508000AF909F908F900C94A6BC8090FF11909051
:105090000012A0900112B09002126091FD11709167
:1050A000FE1186CF20E030E040E05FE3C701B601AB
:1050B0000E94BFF30E942BF5CB010E9499C90E9468
:1050C00059B9C2CFDF91CF91FF90EF90DF90CF9091
:1050D000BF90AF909F908F900895CF93DF93EC0196
:1050E000FE018491882321F00E94C3BC2196F8CF51
:1050F000DF91CF910895CF93DF93EC0189918823BD
:1051000019F00E94C3BCFACFDF91CF9108950F939D
:105110001F93CF93DF938C01EB0161E081E00E944C
:10512000D2BCC8010E946D28209731F16AE383E068
:1051300092E10E94A6BCC8010E947ACC0196FE01B1
:105140009F012C1B3D0B41914111FACF820F931F00
:1051500061E042970CF062E082E1821B0E94D2BCC7
:1051600060E283E092E10E94A6BCCE01DF91CF9184
:105170001F910F910C947B28DF91CF911F910F917C
:105180000895CF9390919F09981709F44CC0C82FA8
:1051900080939F09823071F4C4E0C15008F443C089
:1051A00088E0C89FB001112465537E4E8C2F0E9469
:1051B0000F19F3CF63EC71E180E00E940F196BEBE4
:1051C00071E181E00E940F1963EB71E182E00E94BE
:1051D0000F196BEA71E186E00E940F1963EA71E131
:1051E00087E00E940F19C13081F46BE971E185E01D
:1051F0000E940F1963E971E184E00E940F196BE8C6
:1052000071E183E0CF910C940F1963E871E183E0C1
:105210000E940F196BE771E184E00E940F1963E7A8
:1052200071E185E0EFCFCF910895CF92DF92EF92B9
:10523000FF920F931F93CF93DF93EC016A017B01E1
:1052400080913A0290913B028C179D07C9F126E4A8
:10525000CD33D20709F03DC08C5D904471F40E94BB
:1052600032BF6E517B4F8F4F9F4F6093A009709359
:10527000A1098093A2099093A309D0933B02C09304
:105280003A02C092A40BD092A50BE092A60BF0922A
:10529000A70B80E4CC3DD80721F41092600B10924C
:1052A000C8090E9482BD81E0CC5DD04409F080E055
:1052B0000E94C12882E08093390281E08093560BDE
:1052C000DF91CF911F910F91FF90EF90DF90CF90E2
:1052D000089520E4CC3DD20781F68D53964419F011
:1052E000CCEDD0E4CACF0E9432BF0091A00910914A
:1052F000A1092091A2093091A309601B710B820BB7
:10530000930B97FFEDCFCCEAD9E2B7CF21E0209302
:10531000600B6093D5097093D6098093D709909359
:10532000D80940E050E0BA018091DA099091DB0998
:105330000C94152960E070E080E291E40C948629D9
:1053400060E070E080E89FE30C9486296DEC7CECD3
:105350008CEC9DE30C94862940E050E0BA018AE091
:105360009EE30E9415291092CB091092CC0910924D
:10537000CD091092CE0981E08093600B0895809151
:10538000C10883FD18C08091700B811114C0209159
:105390002C0230912D028091FD119091FE11821707
:1053A00093074CF40E94662740E050E0BA018CE479
:1053B00092ED0C94152981E08093600B40E050E061
:1053C000BA0180ED90ED0E94152985E393E1909359
:1053D000310E8093300E0C94638240E050E0BA01AD
:1053E0008CED90E40C9415292F923F924F925F928E
:1053F0006F927F928F929F92AF92BF92CF92DF92E5
:10540000EF92FF920F931F93CF93DF93CDB7DEB749
:10541000CD54D1090FB6F894DEBF0FBECDBF1092A8
:10542000650B8091A40B9091A50BA091A60BB09158
:10543000A70B81309048A105B10540F01092A40B54
:105440001092A50B1092A60B1092A70B1091A40B13
:105450008091C9091816DCF4282F082E000C330B94
:1054600021503109412F012E000C550B42175307D3
:1054700074F01FEF180F812F90E0B0E0A0E0809350
:10548000A40B9093A50BA093A60BB093A70B10921F
:10549000560B8091570B181714F41093570B8091EB
:1054A000570B082E000C990B0396212F012E000C90
:1054B000330B8217930724F48DEF810F8093570BE2
:1054C0003090570B34E0330D2C963FAF2C9781E092
:1054D00097E0492E92E1592EFE0131967F0192E02C
:1054E00093192D969FAF2D972AE0622E712C3CEFD9
:1054F000C32E31E1D32E44EFA42E41E1B42E5BEE56
:10550000852E51E1952EF82FF3192E96FFAF2E9789
:10551000232C219431102FC08823B1F01116A4F050
:105520008091A40B9091A50BA091A60BB091A70B15
:105530000196A11DB11D8093A40B9093A50BA09380
:10554000A60BB093A70B1F5F80913902882341F00F
:1055500030E020E041E06CE272E1822D0E94C0CC9C
:1055600080E033942C963FAD2C973312D3CF83E059
:105570008093C90964C021E032127BC08091660B20
:10558000811112C080913902882351F381E01130DA
:1055900009F080E000E22EE349E152E12E966FAD82
:1055A0002E970E948627DCCF113061F71092240CD1
:1055B0000E94ED291093240C15988091160C90915F
:1055C000170CB3010E94CCF69F938F937F936F9338
:1055D000DF92CF92FF92EF920E9426EFC7010E94C6
:1055E0006FB68091230C8F938091220C8F938091C2
:1055F000210C8F938091200C8F93BF92AF92FF92DA
:10560000EF920E9426EFC7010E946FB68091190C9D
:105610008F938091180C8F939F928F92FF92EF92AD
:105620000E9426EFC7010E946FB60FB6F894DEBF46
:105630000FBECDBF8091560B882309F4A3CFC35B67
:10564000DF4F0FB6F894DEBF0FBECDBFDF91CF9115
:105650001F910F91FF90EF90DF90CF90BF90AF9090
:105660009F908F907F906F905F904F903F902F9082
:10567000089592E0391274CF8091660B811111C0A8
:1056800080913902882309F46BCF81E0123009F050
:1056900080E000E22EE34CE052E12D966FAD2D97B5
:1056A00080CF123069F71092240C1092FC0BE9E0C5
:1056B000FCE02DE011922A95E9F75F924F92FF925C
:1056C000EF920E9426EFC7010E946FB60E94ED295B
:1056D0000F900F900F900F908091560B882381F2BE
:1056E000AECFE091C809EE2389F0E150E093C809FC
:1056F00086E0E89FF0011124EC55F64F428153817A
:1057000064817581808191810C9415290C94ED2917
:105710000F931F93CF93DF931092650B8091A40B8F
:105720009091A50BA091A60BB091A70B813090484A
:10573000A105B10540F01092A40B1092A50B109298
:10574000A60B1092A70BC091A40B8091ED0918161F
:10575000DCF4282F082E000C330B215031094C2F7C
:105760000C2E000C550B4217530774F0CFEFC80FE7
:105770008C2F90E0B0E0A0E08093A40B9093A50B59
:10578000A093A60BB093A70B1092560B8091570BCA
:10579000C81714F4C093570B8091570B082E000CB8
:1057A000990B03962C2F0C2E000C330B82179307AA
:1057B00024F48DEF8C0F8093570B1091570BD0E092
:1057C000111127C08091660B811116C0809139029A
:1057D000882351F081E0C11180E003E023E042E73B
:1057E00059E16D2F0E9486271F5FDF5FD43041F79C
:1057F00085E08093ED0908C0C111E8CF0E94712BAC
:105800008091560B882311F3DF91CF911F910F9157
:1058100008951130E1F48091660B81110DC08091E3
:105820003902882309F381E0C13009F080E00EE3FA
:105830002EE349E659E1D5CFC13089F785E89CE2EE
:105840000E94AED58091560B882349F3DDCF1230EC
:1058500009F044C08091660B81110DC0809139021E
:10586000882311F281E0C23009F080E00EE32EE3DC
:105870004DE559E1B6CFC23089F78AEA9EE20E942F
:10588000AED58091560B882349F3BECF8091660B2D
:1058900081110EC080913902882309F4A5CF81E0DF
:1058A000C33009F080E00EE32EE348E559E199CFDB
:1058B000C33081F785E990E30E94AED58091560B05
:1058C000882341F3A1CFC43091F484E392E30E9492
:1058D000AED58091560B882351F096CF1330B1F29C
:1058E000143009F081CF8091660B8111ECCF80914B
:1058F0003902882309F478CF81E0C43009F080E0D0
:105900000EE32EE34FE459E16CCF2F923F924F927A
:105910005F926F927F928F929F92AF92BF92CF923F
:10592000DF92EF92FF920F931F93CF93DF9310922A
:10593000650B8091A40B9091A50BA091A60BB09143
:10594000A70B81309048A105B10540F01092A40B3F
:105950001092A50B1092A60B1092A70BC091A40B4E
:105960008091E9091816DCF4282F082E000C330B5F
:10597000215031094C2F0C2E000C550B42175307A8
:1059800074F0CFEFC80F8C2F90E0B0E0A0E08093D0
:10599000A40B9093A50BA093A60BB093A70B10920A
:1059A000560B8091570BC81714F4C093570B809176
:1059B000570B082E000C990B03962C2F0C2E000C65
:1059C000330B8217930724F48DEF8C0F8093570BC2
:1059D0005090570BD0E063E0462E77EE372E22240E
:1059E0002394E7EBCE2EE7E1DE2EF3ECAF2EF7E1CA
:1059F000BF2EAFEC8A2EA7E19A2EBBED6B2EB7E13E
:105A00007B2E511035C08091660B811116C080919C
:105A10003902882351F081E0C11180E003E023E0E6
:105A200047EE57E16D2F0E9486275394DF5FD430F5
:105A300041F787E08093E90908C0C111E8CF0E94CF
:105A4000712B8091560B882311F3DF91CF911F9119
:105A50000F91FF90EF90DF90CF90BF90AF909F900D
:105A60008F907F906F905F904F903F902F90089510
:105A700081E0581239C08091660B81111FC080915E
:105A80003902882391F24F923F921F922F9288EE13
:105A900098E09F938F937F926F92DF9381E0C13064
:105AA00009F080E08F930E940DCA8DB79EB70A96C9
:105AB0000FB6F8949EBF0FBE8DBFB7CFC130F9F6B9
:105AC000E12C10ECF12E09E714E420E030E040E88E
:105AD0005FE368EE78E081EE97E10E940ED7809157
