:100000000C94EB180C941C190C941C190C941C19CE
:100010000C941C190C941C190C941C190C941C198C
:100020000C941C190C941C190C941C190C941C197C
:100030000C941C190C941C190C941C190C941C196C
:100040000C941C190C94E99A0C941C190C941C190E
:100050000C941C190C941C190C94BF7D0C949CEDF1
:100060000C941C190C94D9370C941C190C941C1961
:100070000C941C190C941C190C941C190C941C192C
:100080000C940EA40C941C190C941C190C941C199F
:100090000C941C190C941C190C941C190C941C190C
:1000A0000C941C190C941C190C94E0A30C941C19AE
:1000B0000C941C190C941C190C941C190C94B2A3CC
:1000C0000C941C190C941C190C941C190C941C19DC
:1000D0000C941C190C941C190C941C190C941C19CC
:1000E0000C941C19E491ED91F791009209922492DD
:1000F00031923A9212921B9289EB8CEB7BEB7FEB65
:1001000085EBC3EB90EB94EB9AEB9EEBA2EBA8EBA9
:10011000ACEBB0EBC3EBB6EBBAEBBEEBB8ECBDECC3
:10012000C2ECCCECD6EC4FEDE0ECE8ECF0ECFAEC09
:1001300004ED0EED1DED27ED4FED31ED3BED45ED01
:10014000084AD73B3BCE016E84BCBFFDC12F3D6C3E
:1001500074319ABD56833DDA3D00C77F11BED9E4A4
:10016000BB4C3E916BAAAABE000000803F05A84C84
:10017000CDB2D44EB93836A9020C50B99186880850
:100180003CA6AAAA2ABE000000803F000D94180CCD
:100190000D94E70D0D94DF1F0D944F060D946F0322
:1001A0000D944A060D9472060D946D060D948517F4
:1001B0000D942A010D9445060D9471030D941C08AD
:1001C0000D9412080D9417080D9477030D94AD0645
:1001D0000D9468060D94370B0D94C60C0D947403A2
:1001E0000D9440064E414E494E495459494E46CD14
:1001F000CCCC3D0AD7233C17B7D13877CC2B3295DE
:1002000095E6241FB14F0A000020410000C84200BB
:10021000401C4620BCBE4CCA1B0E5AAEC59D744342
:100220004F4D4D554E49434154494F4E004452594C
:1002300052554E004552524F525300494E464F00C0
:100240004543484F0054454D5020544F4F204C4F8C
:1002500057210047322F473320626164207061725A
:10026000616D65746572730A00205A3A2000205946
:100270003A200042656420583A20004E6F206D6F8E
:1002800076652E00456E642066696C65206C697326
:10029000740A00426567696E2066696C65206C6946
:1002A00073740A0046696C652064656C65746564E6
:1002B0003A0044656C6574696F6E206661696C65AF
:1002C000642C2046696C653A20006F70656E20666C
:1002D00061696C65642C2046696C653A200025696B
:1002E000730025696D2025697300256968202569DB
:1002F0006D202569730025696420256968202569BA
:100300006D20256973002569792025696420256998
:10031000682025696D20256973005072696E74200C
:1003200074696D653A2000000125272318FF1F21FD
:100330001D1CFF19171B1EFFFF0C0409FFFFFF2EDA
:100340002C0CFFFF04400AFF41FFFFFFFFFFFF509F
:10035000726F7465637465642050696E0A006F6E15
:100360002E0A006F66662E0A004732362044656208
:1003700075672000452569202573004D61676E6112
:1003800020312072656164792E0040023B02340204
:100390002D021F026F66660044454255473A004BE6
:1003A000494C4C45442E20004D3131332053006FD1
:1003B0006B0042656420646F6E652E0020573A0022
:1003C0004265642048656174696E672E004D6167FF
:1003D0006E612031204F66662E00454D45524745DF
:1003E0004E43595F50415253455200434153455F7C
:1003F0004C494748545F4252494748544E4553532D
:1004000000544F47474C455F4C49474854530053AD
:100410004F4654574152455F504F57455200425541
:10042000494C445F50455243454E54004C45564557
:100430004C494E475F44415441005A5F50524F422D
:1004400045004155544F4C4556454C005052494E7D
:10045000545F4A4F420050524F4752455353004158
:1004600055544F5245504F52545F54454D500056CD
:100470004F4C554D455452494300454550524F4D00
:100480000053455249414C5F584F4E5F584F4646C6
:10049000004649524D574152455F4E414D453A4DF8
:1004A00061726C696E20312E312E382E3320284730
:1004B00069746875622920534F555243455F434F15
:1004C00044455F55524C3A68747470733A2F2F67E5
:1004D00069746875622E636F6D2F4D61726C696E01
:1004E0004669726D776172652F4D61726C696E201D
:1004F00050524F544F434F4C5F56455253494F4E05
:100500003A312E30204D414348494E455F545950B1
:10051000453A4D61676E612031204558545255442B
:1005200045525F434F554E543A3120555549443A50
:1005300063656465326132662D343161322D343742
:1005400034382D396231322D6335356336326633B6
:10055000363766660A002F2F20007A5F6D696E3A83
:100560002000795F6D696E3A2000785F6D696E3AA0
:1005700020005265706F7274696E6720656E6473D7
:10058000746F70207374617475730A004D31343563
:1005900020533C696E6465783E206F7574206F66E9
:1005A0002072616E67652028302D31290A0053655D
:1005B0007474696E672054726176656C2041636360
:1005C000656C65726174696F6E3A2000536574746E
:1005D000696E67205265747261637420416363655C
:1005E0006C65726174696F6E3A200053657474694A
:1005F0006E67205072696E7420416363656C65722A
:100600006174696F6E3A200053657474696E672077
:100610005072696E7420616E642054726176656CEC
:1006200020416363656C65726174696F6E3A200086
:1006300020643A0020693A0020703A0043290A00F9
:1006400061626C656420286D696E2074656D702030
:1006500000436F6C64206578747275646573206103
:10066000726520004B64200023646566696E652016
:100670002044454641554C545F004B69200023649B
:100680006566696E65202044454641554C545F00BF
:100690004B70200023646566696E652020444546E2
:1006A00041554C545F00504944204175746F747536
:1006B0006E652066696E6973686564212050757483
:1006C00020746865206C617374204B702C204B691A
:1006D00020616E64204B6420636F6E7374616E746E
:1006E000732066726F6D2062656C6F7720696E741F
:1006F0006F20436F6E66696775726174696F6E2EE5
:10070000680A00504944204175746F74756E652005
:100710006661696C6564212074696D656F75740A22
:1007200000544845524D414C2052554E4157415975
:1007300000546865726D616C2052756E61776179E5
:100740000048656174696E67206661696C65640064
:1007500048656174696E67206661696C6564005004
:100760004944204175746F74756E65206661696CCB
:100770006564212054656D706572617475726520C1
:10078000746F6F20686967680A00204B643A200024
:10079000204B693A2000204B703A20000A20436C1D
:1007A000617373696320504944200A002054753AEC
:1007B0002000204B753A2000206D61783A200020FF
:1007C0006D696E3A200020643A20002062696173EE
:1007D0003A20004F66660A004661646520486569F4
:1007E0006768742000426564204C6576656C696EAC
:1007F0006720004661696C656420746F20656E61D6
:10080000626C6520426564204C6576656C696E6734
:100810000A004D65736820706F696E742063616EA5
:100820006E6F74206265207265736F6C7665640A02
:10083000004D34323120696E636F727265637420CB
:10084000706172616D657465722075736167650AA8
:10085000003A2000207A5F6D696E3A20202D3230F8
:10086000207A5F6D61783A202032300A0050726F32
:100870006265205A204F6666736574004361736534
:10088000206C696768743A2000290A004669786517
:100890006420706172616D6574657220627974653F
:1008A000733B206372632000466978656420706141
:1008B00072616D6574657220280048565F736574B7
:1008C0005F6F6B0A004163746976652045787472C6
:1008D000756465723A2000556E6B6E6F776E20639B
:1008E0006F6D6D616E643A2022004D65736820560D
:1008F000616C69646174696F6E2053746F707065A8
:10090000642E00696E206D6F76655F746F282920F4
:10091000666565645F76616C756520666F722058E8
:10092000593A004C656176696E6720473236004758
:1009300032362048656174696E67204E6F7A7A6C32
:10094000652E004732362048656174696E67204223
:1009500065642E00446F6E65205072696D696E6724
:1009600000446F6E65205072696D696E670046695C
:10097000786564204C656E677468205072696D6597
:100980002E00557365722D436F6E74726F6C6C65BB
:1009900064205072696D65002C2065793D00292026
:1009A0002D3E202865783D002C2073793D002043A2
:1009B0006F6E6E656374696E672077697468207600
:1009C0006572746963616C206C696E652028737848
:1009D0003D002C2065793D0029202D3E202865789A
:1009E0003D002C2073793D0020436F6E6E6563746B
:1009F000696E67207769746820686F72697A6F6EB4
:100A000074616C206C696E65202873783D004C65BC
:100A10006176696E6720473236002C2079693D0087
:100A2000202020446F696E6720636972636C6520C3
:100A300061743A202878693D003F537065636966A8
:100A400069656420582C5920636F6F7264696E6108
:100A50007465206F7574206F6620626F756E6473A5
:100A60002E0A003F28522965706561742076616CFA
:100A70007565206E6F7420706C61757369626C654A
:100A80003B206D757374206265206174206C656114
:100A9000737420312E0A003F53706563696669657F
:100AA00064206E6F7A7A6C652074656D7065726112
:100AB00074757265206E6F7420706C6175736962F5
:100AC0006C652E0A003F5370656369666965642032
:100AD00066696C616D656E742073697A65206E6FEE
:100AE0007420706C61757369626C652E0A003F53E7
:100AF0007065636966696564207072696D65206CF4
:100B0000656E677468206E6F7420706C61757369B0
:100B1000626C652E0A003F5370656369666965649F
:100B2000206E6F7A7A6C652073697A65206E6F74B7
:100B300020706C61757369626C652E0A003F53709A
:100B4000656369666965642052657472616374697E
:100B50006F6E204D756C7469706C696572206E6F74
:100B60007420706C61757369626C652E0A003F5267
:100B7000657472616374696F6E204D756C74697011
:100B80006C696572206D7573742062652073706581
:100B90006369666965642E0A003F53706563696620
:100BA000696564206C61796572206865696768743D
:100BB000206E6F7420706C61757369626C652E0AAB
:100BC000003F5370656369666965642062656420EF
:100BD00074656D7065726174757265206E6F7420D6
:100BE000706C61757369626C652E0A00473236203D
:100BF000636F6D6D616E6420737461727465642ED1
:100C00002057616974696E6720666F72206865613C
:100C10007465722873292E0A00200D466978656470
:100C200020706172616D65746572206E62797465A1
:100C3000733B20637263206572726F722000200D17
:100C40000A466978656420706172616D65746572C9
:100C50002062797465733B20637263206572726FE2
:100C6000722000290A002062797465733B20637248
:100C7000632000466978656420706172616D6574F7
:100C80006572202800206861726477617265207641
:100C9000657273696F6E3A004B494C4C45442E2087
:100CA00000202D20496E76616C696420657874722D
:100CB00075646572206E756D62657220210A002D63
:100CC0002D2D2D2D2D2D007C48454C4C424F547C14
:100CD000002D2D2D2D2D2D2D00687474703A2F2F81
:100CE00068656C6C626F742E78797A0068747470C1
:100CF0003A2F2F68656C6C626F742E78797A0020B9
:100D0000312E312E382E33002020506C616E6E65EE
:100D10007242756666657242797465733A20002086
:100D200046726565204D656D6F72793A2000436F9C
:100D30006D70696C65643A205365702032312032E1
:100D40003032300A00207C20417574686F723A207E
:100D5000286E6F6E652C2064656661756C74206307
:100D60006F6E666967290A00323031372D31322DB6
:100D700032352031323A303000204C6173742055C6
:100D80007064617465643A2000312E312E382E3340
:100D90000A004D61726C696E0020536F6674776152
:100DA00072652052657365740A0020576174636828
:100DB000646F672052657365740A002042726F7712
:100DC0006E206F75742052657365740A0020457833
:100DD0007465726E616C2052657365740A00506FA1
:100DE00077657255700A0073746172740A006572D7
:100DF000726F722077726974696E6720746F2066F3
:100E0000696C650A00456E6473746F7073202563A6
:100E100020256320256320256300205A3A002059AD
:100E20003A0020583A00656E6473746F70732068DE
:100E300069743A200047323820580066696C616D49
:100E4000656E74206F75740A004D33322053256C23
:100E50007520212573004D33322053256C752021D8
:100E60002F25732F25730047302046313030302036
:100E70005A25752E257500473238205900473238DB
:100E80002058004D313036202053323535004D3159
:100E9000303920543020532575004D3139302053DE
:100EA000257500446F6E6520736176696E672066F4
:100EB000696C652E0A004D3239004368616E6765C2
:100EC0002066696C616D656E74004261627973744D
:100ED0006570205A00466C6F7700466C6F7700464D
:100EE000616E2073706565640046616E2073706585
:100EF00065640042656400426564004E6F7A7A6CF6
:100F000065004E6F7A7A6C650053706565640053B6
:100F100070656564004D61696E0050726568656159
:100F20007420504C4120456E6400507265686561C4
:100F30007420504C412042656400507265686561C0
:100F40007420504C4100507265706172650050729F
:100F500065686561742041425320456E640050729B
:100F60006568656174204142532042656400507297
:100F7000656865617420414253005072657061720A
:100F800065004261636B004E65787420636F726E1A
:100F90006572004D323830205030205331363000E9
:100FA000424C546F7563682053656C662D546573AD
:100FB00074004D32383020503020533132300050E0
:100FC00072656865617420414253005072656865BE
:100FD000617420504C4100436F6F6C646F776E00FA
:100FE000526573657420424C546F756368004368A2
:100FF000616E67652066696C616D656E7400446939
:101000007361626C65207374657070657273004DF6
:101010003834004C6576656C20636F726E65727350
:1010200000426564204C6576656C696E67004732E6
:10103000380A473239004175746F20686F6D65005A
:10104000473238004D6F76652061786973004D61D5
:10105000696E004572726F722077726974696E678B
:1010600020746F20454550524F4D210A00290A0037
:101070002062797465733B2063726320005365744A
:1010800074696E67732053746F726564202800431F
:10109000616E6E6F74206F70656E20737562646927
:1010A000722000656E7175657565696E6720220036
:1010B0006563686F3A00544845524D414C20525583
:1010C0004E4157415900546865726D616C205275EC
:1010D0006E617761790020746F6F206C6F6E67208E
:1010E000657874727573696F6E2070726576656E5F
:1010F0007465640A0020636F6C642065787472758F
:1011000073696F6E2070726576656E7465640A002F
:10111000496E697469616C697A6520454550524F22
:101120004D00436F6E74726F6C00526573746F7212
:1011300065206661696C73616665004C6F6164204F
:1011400073657474696E677300496E697469616C64
:10115000697A6520454550524F4D0053746F726552
:101160002073657474696E677300424C546F7563C5
:10117000680046696C616D656E74004D6F74696FCF
:101180006E0054656D7065726174757265004D61B5
:10119000696E004D33303320553120452569205389
:1011A000256900507265686561742041425320636F
:1011B0006F6E66005072656865617420504C412006
:1011C000636F6E6600504944204175746F74756E8C
:1011D0006500504944204175746F74756E65005008
:1011E00049442D44005049442D44005049442D4960
:1011F000005049442D49005049442D500050494465
:101200002D500020022046616374002002204661B8
:101210006374002002204D6178002002204D617827
:10122000002002204D6178002002204D696E0020D0
:1012300002204D696E002002204D696E004F6666E7
:10124000004F6E20004175746F74656D70004661CB
:101250006E2073706565640046616E20737065650D
:10126000640042656400426564004E6F7A7A6C6582
:10127000004E6F7A7A6C6500436F6E74726F6C000B
:1012800053746F72652073657474696E677300427E
:10129000656400426564004E6F7A7A6C65004E6F3B
:1012A0007A7A6C650046616E2073706565640046ED
:1012B000616E2073706565640054656D7065726160
:1012C00074757265006265640A002C20737973740A
:1012D000656D2073746F707065642120486561745A
:1012E00065725F49443A200048656174696E672001
:1012F0006661696C65640048656174696E67206643
:1013000061696C65640048656174696E6720666137
:10131000696C65640048656174696E67206661691F
:101320006C65640070012C0190012701B00122015D
:10133000C0011D01F00118011002130130020E015D
:101340006002090190020401C002FF000003FA00DC
:101350004003F5008003F000D003EB002004E6001A
:101360007004E100E004DC004005D700C005D200B5
:101370004006CD00D006C8008007C3003008BE007C
:10138000F008B900C009B400B00AAF00B00BAA0061
:10139000D00CA500000EA000500F9B00C0109600BE
:1013A0005012910000148C00C0158700B017820005
:1013B000B0197D00D01B7800001E730040206E0025
:1013C00090226900F024640040275F0090295A00B1
:1013D000E02B5500102E500020304B0010324600FC
:1013E000E033410090353C00103737007038320050
:1013F000A0392D00B03A2800A03B2300603C1E001D
:10140000103D1900903D1400103E0F00703E0A0080
:10141000C03E0500003F0000403FFBFF803FF6FF5D
:10142000C03FF1FF4572723A204D494E54454D5030
:1014300020424544004572723A204D494E54454D74
:1014400050004D494E54454D502074726967676590
:10145000726564004572723A204D415854454D50B2
:1014600020424544004572723A204D415854454D42
:1014700050004D415854454D50207472696767655E
:1014800072656400202F002042403A0020403A005C
:10149000001C1F11111F00000006191803130C0077
:1014A000040E1F041C00000000101010101010008B
:1014B0000014141414141400001515151515150036
:1014C000000E1315110E00001C101817050605005C
:1014D000040A0A0A0A11110E0C12120C0000000074
:1014E000001F1511151F0000000000000102040478
:1014F0000000001C1C0C0404040201000000000099
:10150000040810000000000056652D6A65726B002B
:1015100056652D6A65726B0056652D6A65726B00A3
:10152000567A2D6A65726B00567A2D6A65726B0069
:1015300056792D6A65726B0056792D6A65726B005B
:1015400056792D6A65726B0056782D6A65726B004C
:1015500056782D6A65726B0056782D6A65726B003D
:101560004D6F74696F6E004573746570732F6D6D88
:10157000004573746570732F6D6D005A73746570D8
:10158000732F6D6D005A73746570732F6D6D0059F4
:1015900073746570732F6D6D005973746570732F5C
:1015A0006D6D005873746570732F6D6D0058737492
:1015B0006570732F6D6D004D6F74696F6E0053749D
:1015C0006570732F6D6D004A65726B0041636365D2
:1015D0006C65726174696F6E0056656C6F636974D7
:1015E00079005A204F6666736574005A204F66660C
:1015F00073657400436F6E74726F6C004F6E2000E1
:1016000052756E6F75742073656E736F7273004FD1
:1016100066660046696C2E204469612E0046696C3E
:101620002E204469612E004F6666004F6E200045F3
:1016300020696E206D6D3300436F6E74726F6C00A5
:1016400043616E6E6F7420656E746572207375628F
:101650006469723A2000052E2E004D61696E0020EB
:10166000204E6F7A7A6C653A20004261636B004DC0
:10167000696E696D756D2054656D702069732031D8
:1016800037302E0048656174696E67206661696C49
:1016900065640045787472756465206D6F726500CD
:1016A000526573756D65207072696E740052455392
:1016B000554D45204F5054494F4E533A0020204E2F
:1016C0006F7A7A6C653A20006368616E6765006FB7
:1016D00066207468652066696C616D656E7400577C
:1016E00061697420666F7220737461727400505265
:1016F000494E54205041555345440020204E6F7AA6
:101700007A6C653A200066696C616D656E7420754F
:101710006E6C6F6164005761697420666F7200506F
:1017200052494E54205041555345440020204E6F9D
:101730007A7A6C653A2000506C6561736520776138
:1017400069742E2E2E0048656174696E67206E6F75
:101750007A7A6C65005052494E5420504155534599
:10176000440020204E6F7A7A6C653A2000686561EB
:1017700074206E6F7A7A6C652E00507265737320D8
:10178000627574746F6E20746F005052494E54200D
:101790005041555345440020204E6F7A7A6C653A8B
:1017A0002000746F20636F6E74696E75652E2E2E27
:1017B00000616E6420707265737320627574746F5B
:1017C0006E00496E736572742066696C616D656E3A
:1017D00074005052494E5420504155534544002006
:1017E000204E6F7A7A6C653A200066696C616D658F
:1017F0006E74206C6F6164005761697420666F724B
:10180000005052494E542050415553454400202029
:101810004E6F7A7A6C653A200066696C616D656E10
:101820007420657874727564650057616974206608
:101830006F72005052494E54205041555345440058
:10184000746F20726573756D6500576169742066E9
:101850006F72207072696E74005052494E5420505D
:1018600041555345440020204D383531205A005A07
:101870002D50726F6265204F666673657420286D07
:101880006D293A0A0020440020490020204D3330C1
:101890003420500020440020490020204D333031B6
:1018A0002050005049442073657474696E67733A20
:1018B0000A0020460020420020480020204D3134FC
:1018C000352053004D6174657269616C20686561F3
:1018D00074757020706172616D65746572733A0A17
:1018E00000205A0020204D343230205300417574BE
:1018F0006F20426564204C6576656C696E673A0AB4
:1019000000204500205A00205900205800204200A5
:1019100020540020204D3230352053004164766140
:101920006E6365643A20533C6D696E5F66656564FD
:10193000726174653E20543C6D696E5F74726176AD
:10194000656C5F66656564726174653E20423C6DDE
:10195000696E5F7365676D656E745F74696D655FF1
:1019600075733E20583C6D61785F78795F6A657267
:101970006B3E205A3C6D61785F7A5F6A65726B3EA0
:1019800020453C6D61785F655F6A65726B3E0A0059
:1019900020540020520020204D323034205000418D
:1019A0006363656C65726174696F6E2028756E691A
:1019B00074732F7332293A20503C7072696E745FD1
:1019C000616363656C3E20523C726574726163743E
:1019D0005F616363656C3E20543C74726176656C34
:1019E0005F616363656C3E0A00204500205A002059
:1019F000590020204D3230312058004D6178696DFA
:101A0000756D20416363656C65726174696F6E20EA
:101A100028756E6974732F7332293A0A00204500C5
:101A2000205A0020590020204D3230332058004DDC
:101A30006178696D756D2066656564726174657342
:101A40002028756E6974732F73293A0A00204500A7
:101A5000205A0020590020204D393220580053745C
:101A60006570732070657220756E69743A0A002083
:101A7000204D3230302044300A0020204D323030AA
:101A80002044002044697361626C65640A00466901
:101A90006C616D656E742073657474696E67733AFA
:101AA0000020204D3134392043203B20556E69748D
:101AB0007320696E2043656C736975730A0020207A
:101AC000473231202020203B20556E6974732069F5
:101AD0006E206D6D0A0024F4D43050C38E20C2A253
:101AE0004017828B7011127A910D816CD90AA8610E
:101AF000E108C7586607615143061E4B5D05C145A5
:101B0000A7041A411104093D980371393103403685
:101B1000DB0265339102D4305402802E1D02632C07
:101B2000EE01752AC501B028A001102781018F257B
:101B300064012B244B01E0223401AC211F018D20D4
:101B40000D01801FFC00841EED00971DDF00B81CF6
:101B5000D200E61BC600201BBC00641AB200B219FA
:101B6000A8000A19A0006A189900D117910040171F
:101B70008B00B516840031167E00B31579003A1536
:101B80007300C7146F0058146A00EE1366008813C0
:101B9000630025135E00C7125B006C12570015121C
:101BA0005400C111510070114F0021114B00D6108B
:101BB00049008D1047004610440002104200C00F3B
:101BC0004000800F3E00420F3C00060F3B00CB0E52
:101BD0003800930E37005C0E3500270E3400F30DED
:101BE0003200C10D3100900D3000600D2E00320D1D
:101BF0002D00050D2C00D90C2B00AE0C2900850CF6
:101C000029005C0C2700350C27000E0C2600E80B81
:101C10002400C40B2400A00B23007D0B23005A0BCF
:101C20002100390B2100180B2000F80A1F00D90AE7
:101C30001E00BB0A1E009D0A1D00800A1D00630ACB
:101C40001C00470A1B002C0A1B00110A1A00F70986
:101C50001A00DD091900C4091900AB09190092091D
:101C600017007B091800630917004C091600360994
:101C70001600200916000A091500F5081500E008ED
:101C80001400CC081400B8081400A408140090082C
:101C900013007D0812006B08130058081200460854
:101CA0001200340811002308110012081100010865
:101CB0001100F0071000E0071000D0071000C00767
:101CC0001000B0070F00A107100091070E00830756
:101CD0000F0074070F0065070E0057070E00490735
:101CE0000E003B070D002E070E0020070D00130706
:101CF0000D0006070D00F9060C00ED060D00E006CC
:101D00000C00D4060C00C8060C00BC060C00B00683
:101D10000C00A4060B0099060C008D060B00820631
:101D20000B0077060B006C060B0061060A005706D5
:101D30000B004C060A0042060A0038060A002E066E
:101D40000A0024060A001A060A00100609000706FF
:101D50000A00FD050900F4050900EB050900E2058C
:101D60000900D9050900D0050900C7050900BE050D
:101D70000900B5050800AD050800A50509009C058A
:101D80000800940508008C050800840508007C05FF
:101D90000800740508006C050700650508005D056E
:101DA0000700560508004E050700470507004005D7
:101DB000080038050700310507002A05070023053C
:101DC00007001C050600160507000F05070008059B
:101DD000060002050700FB040600F5040700EE04F8
:101DE0000600E8040600E2040700DB040600D50450
:101DF0000600CF040600C9040600C3040600BD04A3
:101E00000600B7040600B1040500AC040600A604F1
:101E10000600A00405009B0406009504050090043C
:101E200006008A04050085040500800406007A0483
:101E3000050075040500700405006B0405006604C8
:101E40000500610405005C04050057040500520408
:101E500005004D04050048040500430405003E0448
:101E600004003A04050035040500300404002C0485
:101E7000050027040400230405001E0404001A04BE
:101E8000040016040500110404000D0404000904F4
:101E900005000404040000040400FC030400F8032B
:101EA0000400F4030400F0030400EC030400E8035E
:101EB0000400E4030400E0030400DC030400D8038E
:101EC0000400D4030400D0030400CC030400C803BE
:101ED0000300C503030024F404D9201BC40C5C0ECA
:101EE0009804C4095F0265077101F405F900FB0459
:101EF000B30048048700C103690058035500030379
:101F00004500BE023A008402310053022A00290231
:101F1000250004022000E4011C00C8011900AF01E3
:101F20001700980114008401130071011000610171
:101F3000100051010E0043010D0036010B002B0172
:101F40000B0020010B00150109000C010900030121
:101F50000800FB000800F3000800EB000700E400A5
:101F60000600DE000600D8000600D2000600CC0005
:101F70000500C7000500C2000500BD000400B9004F
:101F80000400B5000400B1000400AD000400A90085
:101F90000400A5000300A20003009F0004009B00B2
:101FA00003009800030095000200930003009000D6
:101FB00003008D0002008B000300880002008600F1
:101FC000020084000300810002007F0002007D0007
:101FD00002007B0002007900020077000100760019
:101FE00002007400020072000100710002006F0024
:101FF00002006D0001006C0002006A00010069002F
:102000000200670001006600010065000100640035
:1020100002006200010061000100600001005F0039
:1020200002005D0001005C0001005B0001005A003D
:10203000010059000100580001005700010056003E
:10204000010055000100540001005300000053003E
:1020500001005200010051000100500001004F003A
:1020600001004E0000004E0001004D0001004C0038
:1020700001004B0000004B0001004A000100490034
:102080000100480000004800010047000100460030
:10209000000046000100450000004500010044002A
:1020A0000100430000004300010042000000420024
:1020B00001004100000041000100400001003F001C
:1020C00000003F0001003E0000003E0001003D0016
:1020D00000003D0001003C0000003C0000003C000E
:1020E00001003B0000003B0001003A0000003A0004
:1020F00001003900000039000100380000003800FC
:1021000000003800010037000000370001003600F1
:1021100000003600000036000100350000003500E8
:1021200000003500010034000000340000003400DD
:1021300001003300000033000000330001003200D2
:1021400000003200000032000100310000003100C8
:1021500000003100010030000000300000003000BD
:1021600001002F0000002F0000002F0000002F00B2
:1021700001002E0000002E0000002E0001002D00A6
:1021800000002D0000002D0000002D0001002C009B
:1021900000002C0000002C0000002C0001002B008F
:1021A00000002B0000002B0000002B0001002A0083
:1021B00000002A0000002A0000002A000100290077
:1021C000000029000000290000002900000029006B
:1021D000010028000000280000002800000028005E
:1021E0000000280001002700000027000000270051
:1021F0000000270000002700010026000000260044
:102200000000260000002600000026000100250036
:10221000000025000000250000002500000025002A
:10222000000025000100240000002400000024001C
:10223000000024000000240001002300000023000F
:102240000000230000002300000023000000230002
:1022500000002300010022000000220000002200F4
:1022600000002200000022000000220001002100E6
:1022700000002100000021000000210000002100DA
:1022800000002100000021000100200000002000CB
:1022900000002000000020000000200000002000BE
:1022A000000020000000200001001F0000001F00AF
:1022B00000001F0000001F0000001F0000001F00A2
:1022C00000001F0001001E0000001E0000001E0094
:1022D00000001E0000004D383420582059205A209C
:1022E00045005A25752C45256C752C50256C752C90
:1022F0005425752C4225752C004D61676E61203187
:102300002072656164792E004D61676E6120312015
:1023100072656164792E004572723A4E6F2046698B
:102320006C616D656E7400526573656E643A200071
:102330006F6B0020746F6F206C6F6E672065787410
:10234000727573696F6E2070726576656E74656400
:102350000A0020636F6C6420657874727573696F0E
:102360006E2070726576656E7465640A00627573BE
:10237000793A2070617573656420666F7220696EAA
:102380007075740A00627573793A207061757365AF
:102390006420666F7220757365720A0062757379C6
:1023A0003A2070726F63657373696E670A004B49F8
:1023B0004C4C45442E20004B494C4C2063617573B6
:1023C000656420627920746F6F206D756368206981
:1023D0006E6163746976652074696D65202D206374
:1023E000757272656E7420636F6D6D616E643A20F4
:1023F00000205A3A0020593A0020436F756E74202D
:10240000583A0020453A00205A3A0020593A0058DC
:102410003A003A004361703A00205A0020590058AF
:102420000020204D61783A2000205A0020590058A1
:102430000020204D696E3A20004F6E20004F6666E6
:1024400000536F667420656E6473746F70733A2006
:1024500000206F7574206F662072616E67650A00D8
:10246000536572766F20003A200020536572766FB4
:10247000200020643A0020693A0020703A004D3173
:1024800030342053257500473932204525750047E3
:102490003932205A25752E2575004D3530300043D0
:1024A000616E63656C207072696E7400526573753D
:1024B0006D65207072696E7400506F776572206F61
:1024C00075746167650025753A25303275002530D1
:1024D00032753A25303275002D2D2D005344005AA7
:1024E000005900580020706F736974696F6E206F17
:1024F0007574206F662072616E67652E0A003F500A
:10250000726F62652000202844525952554E2900AE
:10251000473239204175746F20426564204C6576DE
:10252000656C696E670028422961636B0028462943
:10253000726F6E74002852296967687400284C29EC
:10254000656674003F2856296572626F7365206C5A
:102550006576656C20697320696D706C617573694F
:10256000626C652028302D34292E0A0042616420D7
:102570005A2076616C75650A004E6F2062696C693D
:102580006E65617220677269640A004D6573682028
:10259000706F696E742063616E6E6F742062652067
:1025A0007265736F6C7665640A00526573756D6948
:1025B0006E67207072696E74004D61676E612031C4
:1025C0002072656164792E00436C69636B20746FBF
:1025D00020726573756D652E2E2E004D31323500DB
:1025E00048656174696E6720646F6E652E002057C0
:1025F0003A00452569202573004D61676E612031E1
:102600002072656164792E004D36303020486F7439
:10261000656E6420746F6F20636F6C6420746F202C
:102620006368616E67652066696C616D656E740ACA
:10263000007C3C3E5E2B3D3F2F5B5D3B2C2A225CA9
:10264000004C696E65204E756D626572206973205D
:102650006E6F74204C617374204C696E65204E75EA
:102660006D6265722B312C204C617374204C696E45
:10267000653A20004B494C4C45442E200053544FA2
:10268000505045442E20005072696E74657220735C
:10269000746F707065642064756520746F20657256
:1026A000726F72732E204669782074686520657297
:1026B000726F7220616E6420757365204D393939EF
:1026C00020746F20726573746172742E20285465B3
:1026D0006D706572617475726520697320726573BF
:1026E00065742E2053657420697420616674657268
:1026F0002072657374617274696E67290A004E6F87
:1027000020436865636B73756D2077697468206C0E
:10271000696E65206E756D6265722C204C617374F4
:10272000204C696E653A2000636865636B73756D54
:10273000206D69736D617463682C204C6173742023
:102740004C696E653A20004D313130004D33310017
:102750004731204631303030205830205932313026
:102760000047323820585900534420726561642074
:102770006572726F720A00446F6E65207072696EC6
:1027800074696E672066696C650A0020496E76611F
:102790006C696420657874727564657220004361A9
:1027A00072642072656D6F766564004361726420A7
:1027B000696E7365727465640053544F505045449C
:1027C0002E20005072696E7465722073746F707081
:1027D00065642064756520746F206572726F727312
:1027E0002E2046697820746865206572726F7220A9
:1027F000616E6420757365204D39393920746F20FE
:10280000726573746172742E202854656D706572E0
:1028100061747572652069732072657365742E200A
:1028200053657420697420616674657220726573E3
:1028300074617274696E67290A0053544F502063A3
:10284000616C6C65642062656361757365206F6699
:1028500020424C546F756368206572726F72202D30
:1028600020726573746172742077697468204D39C1
:1028700039390A0042696C696E656172204C65766F
:10288000656C696E6720477269643A0A00536C652B
:1028900065702E2E2E00473238205A20466F726205
:1028A000696464656E0A00473238205A20466F72A8
:1028B00062696464656E00446F776E0A00290A5786
:1028C000726974652066696C65206E616D65204172
:1028D0006D69743A20002062797465733B206372DD
:1028E000632000506F7765726F66662053746F7255
:1028F0006564202800446F776E0020213D2000632E
:102900007263206572726F723A20000A72656164A8
:102910002066696C65206E616D653A2000290A7237
:102920006561642066696C65206469723A200020E4
:1029300062797465733B206372632000706F776502
:10294000726F66662073746F726564207365747449
:10295000696E677320726574726965766564202894
:1029600000202863616C63756C6174656429210AB9
:102970000020213D2000454550524F4D20435243F9
:10298000206D69736D61746368202D202873746FE6
:10299000726564292000290A002062797465733BFE
:1029A0002063726320002073746F72656420736506
:1029B0007474696E67732072657472696576656494
:1029C000202800204D61726C696E3D563131290A14
:1029D0000028454550524F4D3D00454550524F4D02
:1029E0002076657273696F6E206D69736D617463B3
:1029F00068200048617264636F64656420446566A2
:102A000061756C742053657474696E6773204C6FC4
:102A1000616465640A00F4010000F40100006400D0
:102A20000000E80300000000FA430000FA43000041
:102A3000A0400000C8410000A0420000A0420000E9
:102A4000C8430000BA42486F6D6520257325732581
:102A500073206669727374002066697273740A0069
:102A60005A0059005800486F6D6520005344206398
:102A7000617264206F6B0A006F70656E526F6F74C5
:102A8000206661696C65640A00766F6C756D652EF1
:102A9000696E6974206661696C65640A005344203C
:102AA000696E6974206661696C0A00000021002467
:102AB0000027002A002D003000330001010000042F
:102AC0000107010A0100002200250028002B002E2A
:102AD000003100340002010000050108010B010073
:102AE0000020002300260029002C002F00320000C7
:102AF0000100000301060109010505050507050898
:102B0000080808020202020A0A0808040404040170
:102B10000101010101010103030303030303030492
:102B20000707070C0C0C0C0C0C0C0C020202020622
:102B3000060606060606060B0B0B0B0B0B0B0B0112
:102B400002102020080810204010204080020102BE
:102B50000108040201010204081020408080402086
:102B600010080402018004020180402010080402C1
:102B7000010804020101020408102040800102043F
:102B8000081020408000000A0B02090C0D0E0807F7
:102B9000030401000000000000000000000000002D
:102BA0000000000000000000000000000000000025
:102BB00000121110000000000000000000000000E2
:102BC000000000000000000000000053746F772038
:102BD000424C546F756368004D32383020503020BD
:102BE000533930004465706C6F7920424C546F75D6
:102BF0006368004D3238302050302053313000426D
:102C00004C546F7563682053656C662D54657374FE
:102C1000004D323830205030205331323000526570
:102C200073657420424C546F756368004D323830C0
:102C30002050302053313630004D61696E005072A3
:102C4000696E7420706175736564004D31323500B2
:102C5000002573004D3234005072696E7420616239
:102C60006F72746564004732382058590047393014
:102C7000004731204631303030205A323000473959
:102C800031004E6F205344206361726400507269BA
:102C90006E742066726F6D2053440053746F702001
:102CA0007072696E7400526573756D65207072691B
:102CB0006E74005061757365207072696E740041A6
:102CC000626F7574205072696E74657200436F6E26
:102CD00074726F6C00507265706172650054756E2D
:102CE0006500496E666F2073637265656E004261B0
:102CF000627973746570205A004D3630302042304E
:102D00000050726F62696E67206661696C65640A63
:102D10000050726F62696E67206661696C6564005D
:102D2000205A3A200020593A200042656420583A3F
:102D300020005344207072696E74696E6720627956
:102D4000746520004E6F74205344207072696E7455
:102D5000696E670A006175746F25692E67004D32D0
:102D600034004D32332025730057726974696E67E1
:102D700020746F2066696C653A20006F70656E2064
:102D80006661696C65642C2046696C653A20006F49
:102D900070656E206661696C65642C2046696C659F
:102DA0003A200046696C652073656C6563746564E0
:102DB0000A002053697A653A200046696C65206FE5
:102DC00070656E65643A20006F70656E206661699B
:102DD0006C65642C2046696C653A20002066696C3D
:102DE000653A2000646F696E6700667265736800FB
:102DF0004E6F772000454E4420535542524F555454
:102E0000494E450A002220706F73002220706172C3
:102E1000656E743A2200535542524F5554494E45FF
:102E20002043414C4C207461726765743A22004B18
:102E3000494C4C45442E2000747279696E672074A9
:102E40006F2063616C6C207375622D67636F6465BE
:102E50002066696C6573207769746820746F6F20D1
:102E60006D616E79206C6576656C732E204D4158CE
:102E7000206C6576656C2069733A004572726F72DA
:102E80003A005654726176206D696E005654726134
:102E900076206D696E005654726176206D696E0001
:102EA000566D696E00566D696E00566D696E0056FE
:102EB0006D6178204500566D6178204500566D6142
:102EC00078204500566D6178205A00566D61782053
:102ED0005A00566D6178205A00566D61782059006D
:102EE000566D6178205900566D6178205900566DF5
:102EF0006178205800566D6178205800566D6178D1
:102F00002058004D6F74696F6E00416D61782045E7
:102F100000416D6178204500416D6178205A004183
:102F20006D6178205A00416D6178205900416D61D2
:102F300078205900416D6178205800416D617820FA
:102F40005800412D74726176656C00412D74726178
:102F500076656C00412D7265747261637400412D59
:102F60007265747261637400416363656C004163F0
:102F700063656C004D6F74696F6E004D6F766520F0
:102F800058004D6F76652059004D6F7665205A00C8
:102F90004578747275646572004D6F766520302EC9
:102FA000316D6D004D6F766520316D6D004D6F7622
:102FB000652031306D6D004D6F76652061786973E5
:102FC00000486F74656E6420746F6F20636F6C646B
:102FD000004578747275646572004D6F7665205A8D
:102FE000004D6F76652059004D6F7665205800457D
:102FF00078747275646572004D6F7665205A004D65
:103000006F76652059004D6F7665205800507265C7
:103010007061726500506C656173652072657365DF
:1030200074005052494E5445522048414C54454436
:10303000005072696E7465722068616C7465642EEC
:10304000206B696C6C28292063616C6C6564210AB3
:10305000000000E0C0000000C1000000000000C847
:10306000420000C8420000A0410000000057617209
:103070006E696E673A20486F6D696E672042756DA4
:10308000702044697669736F72203C20310A000217
:1030900002040000A0400000A0400000004000002A
:1030A00063430000644300008243FFFFFF4D6178EB
:1030B0002054656D703A20313235004D696E2054D0
:1030C000656D703A203500544265643A4550434F6F
:1030D00053203130304B004D61782054656D703A8B
:1030E00020323635004D696E2054656D703A2035BA
:1030F0000054303A204550434F53203130304B007C
:103100005053553A2047656E657269630050726F7F
:10311000746F636F6C3A20312E30002020202048DD
:1031200057205665723A2056004657205665723A27
:103130002056322E3100426175643A2032353030EB
:103140003030004754323536302056342E3000426D
:10315000696C696E656172204C6576656C696E6735
:10316000004578747275646572733A203100687432
:1031700074703A2F2F68656C6C626F742E78797A50
:10318000004D61676E61203100323031372D3132B0
:103190002D32352031323A303000312E312E382E5A
:1031A00033004D61726C696E00546865726D6973AD
:1031B000746F727300426F61726420496E666F00B3
:1031C0005072696E74657220496E666F004D616958
:1031D0006E00D600CA0011241FBECFEFD1E2DEBFC1
:1031E000CDBF00E00CBF13E0A0E0B2E0E0E5F9E500
:1031F00002E00BBF02C007900D92A63DB107D9F7C0
:1032000027E1A6EDB3E001C01D92A037B207E1F7B8
:1032100018E1CAEED8E100E006C021970109802F2D
:10322000FE010F94062CC93ED10780E00807A9F7DC
:103230000F945A100D94972C0C9400002F923F92EB
:103240004F925F926F927F928F929F92AF92BF92B6
:10325000CF92DF92EF92FF920F931F93CF93DF9362
:10326000CDB7DEB7C35AD1090FB6F894DEBF0FBE93
:10327000CDBF81E090E090936517809364178091B3
:103280004C128D3409F414C7843511F40C941233A4
:10329000873411F00C94543380914A1290914B1260
:1032A0008B31910509F407C6B4F4843091053CF4E0
:1032B00082309105C4F597FF2FC00C946E33843093
:1032C000910509F4F4C54A9711F00C946E330E94ED
:1032D000F6390C946E338A32910509F4E5C65CF434
:1032E0008D31910509F418C60CF411C64E9709F4F6
:1032F00017C60C946E338B35910509F480C68C3556
:10330000910509F481C68A35910511F00C946E334C
:103310001092DB030C946E338091610281110C9446
:1033200075330C946E3320916102222311F40C94B6
:103330006E3311E0029709F010E00E9425D982E572
:103340000E949838882309F45CC10E9432386B01CE
:103350007C01409068145090691460906A147090D9
:103360006B1420916C1430916D1440916E14509137
:103370006F142B962CAF3DAF4EAF5FAF2B97809164
:103380008C1490918D14A0918E14B0918F142F965F
:103390008CAF9DAFAEAFBFAF2F97209190143091FF
:1033A000911440919214509193146B962CAF3DAFB1
:1033B0004EAF5FAF6B9720E030E0A901C701B601C7
:1033C0000F94D224882309F458C5A30192012F96A3
:1033D0006CAD7DAD8EAD9FAD2F970F94D224811132
:1033E00011C02B962CAD3DAD4EAD5FAD2B976B96BE
:1033F0006CAD7DAD8EAD9FAD6B970F94D2248823BD
:1034000009F43BC520E030E0A901C701B6010F94E3
:10341000D224881F8827881F18130BC080E090E0F3
:10342000A0E8BFE3A3968CAF9DAFAEAFBFAFA397AD
:103430000AC020E030E040E85FEBA3962CAF3DAF40
:103440004EAF5FAFA397A30192012F966CAD7DADF8
:103450008EAD9FAD2F970F940A2967966CAF7DAF05
:103460008EAF9FAF67972B962CAD3DAD4EAD5FAD48
:103470002B976B966CAD7DAD8EAD9FAD6B970F941A
:103480000A296F966CAF7DAF8EAF9FAF6F9767962F
:103490002CAD3DAD4EAD5FAD6797CA01B9010F943C
:1034A00037254B015C016F962CAD3DAD4EAD5FAD48
:1034B0006F97CA01B9010F9437259B01AC01C50173
:1034C000B4010F940B290F94762B63966CAF7DAFEC
:1034D0008EAF9FAF639720E030E040E05FE30F9452
:1034E00037254B015C01A7019601C701B6010F9476
:1034F00037256B017C01A5019401C501B4010F942E
:1035000037259B01AC01C701B6010F940A290F941E
:10351000762B9B01AC01A3966CAD7DAD8EAD9FADBE
:10352000A3970F9437254B015C012F962CAD3DAD31
:103530004EAD5FAD2F97C301B2010F940B2920E070
:1035400030E040E05FE30F9437256B017C016F961C
:103550006CAD7DAD8EAD9FAD6F97905863962CADE1
:103560003DAD4EAD5FAD63970F94E7299B01AC0174
:10357000C501B4010F9437259B01AC01C701B60109
:103580000F940B29A30192010F940A296B017C016E
:103590006B962CAD3DAD4EAD5FAD6B972B966CAD84
:1035A0007DAD8EAD9FAD2B970F940B2920E030E0C1
:1035B00040E05FE30F9437252B013C0163962CAD6F
:1035C0003DAD4EAD5FAD639767966CAD7DAD8EAD95
:1035D0009FAD67970F94E7299B01AC01C501B4012A
:1035E0000F9437259B01AC01C301B2010F940B2945
:1035F0002B962CAD3DAD4EAD5FAD2B970F940A29A8
:1036000014C089E40E949838882329F00E94323837
:103610006B017C0103C0C12CD12C76018AE40E948D
:1036200098388823F9F00E9432386B966CAF7DAFE2
:103630008EAF9FAF6B9720E030E0A901C701B601C4
:103640000F94D22481111EC020E030E0A9016B96B6
:103650006CAD7DAD8EAD9FAD6B970F94D224811173
:1036600011C00BC420E030E0A901C701B6010F94DE
:10367000D224882309F401C46B961CAE1DAE1EAE85
:103680001FAE6B97D701C601B0582B968CAF9DAF7C
:10369000AEAFBFAF2B976B962CAD3DAD4EAD5FADD2
:1036A0006B9750582F962CAF3DAF4EAF5FAF2F9713
:1036B0009C01AD01BC01CD010F9437254B015C018C
:1036C0002F962CAD3DAD4EAD5FAD2F97CA01B90120
:1036D0000F9437259B01AC01C501B4010F940B2950
:1036E0000F94762BE3966CAF7DAF8EAF9FAFE397D1
:1036F0008091681490916914A0916A14B0916B1430
:1037000063968CAF9DAFAEAFBFAF6397A701960135
:10371000BC01CD010F940B29A3966CAF7DAF8EAF8A
:103720009FAFA39720916C1430916D1440916E144B
:1037300050916F146F962CAF3DAF4EAF5FAF6F9748
:103740006B962CAD3DAD4EAD5FAD6B976F966CAD8E
:103750007DAD8EAD9FAD6F970F940B29A7966CAF83
:103760007DAF8EAF9FAFA79780918C1490918D14F1
:10377000A0918E14B0918F14AB968CAF9DAFAEAF6D
:10378000BFAFAB97A3962CAD3DAD4EAD5FADA3974C
:10379000BC01CD010F940A296B017C01209190148A
:1037A000309191144091921450919314AF962CAF94
:1037B0003DAF4EAF5FAFAF97A7962CAD3DAD4EADD1
:1037C0005FADA797AF966CAD7DAD8EAD9FADAF975A
:1037D0000F940A294B015C0180917014909171142F
:1037E000A0917214B0917314EB968CAF9DAFAEAFF5
:1037F000BFAFEB979C01AD0160919414709195144B
:1038000080919614909197140F940A2967966CAF43
:103810007DAF8EAF9FAF6797209198143091991428
:1038200040919A1450919B14E7962CAF3DAF4EAF48
:103830005FAFE7978091741490917514A0917614FE
:10384000B0917714EF968CAF9DAFAEAFBFAFEF974F
:10385000A70196012B966CAD7DAD8EAD9FAD2B97DC
:103860000F9437252B013C01A50194012F966CADD7
:103870007DAD8EAD9FAD2F970F9437259B01AC0189
:10388000C301B2010F940B292B013C01A501940146
:103890002B966CAD7DAD8EAD9FAD2B970F943725DC
:1038A0004B015C01A70196012F966CAD7DAD8EADED
:1038B0009FAD2F970F9437259B01AC01C501B40133
:1038C0000F940A29A30192010F947E296B017C01B8
:1038D00020E030E0A9010F94D22487FF0AC02BED2D
:1038E0003FE049EC50E4C701B6010F940B296B018E
:1038F0007C01112351F02BED3FE049EC50E4C7016E
:10390000B6010F940A296B017C0120E030E0A90187
:10391000C701B6010F94D224811128C0AB962CADFB
:103920003DAD4EAD5FADAB9763966CAD7DAD8EADED
:103930009FAD63970F94D224811118C0AF962CAD20
:103940003DAD4EAD5FADAF976F966CAD7DAD8EADBD
:103950009FAD6F970F94D224811108C06BEDC62ED6
:103960006FE0D62E69ECE62E60E4F62EE3962CADE1
:103970003DAD4EAD5FADE397C701B6010F9437255E
:103980009B01AC010F9437254B015C0167962CAD70
:103990003DAD4EAD5FAD6797CA01B9010F943725B4
:1039A0009B01AC01C501B4010F940B290F94762B38
:1039B0004B015C012FE632E143E85AE30F94D22435
:1039C00087FD57C2C501B4010F94802A0F94542A71
:1039D0001B01672B19F422242394312CB10180E0C0
:1039E00090E00F94D6244B015C019B01AC01C70110
:1039F000B6010F94E72963966CAF7DAF8EAF9FAF92
:103A00006397A501940167966CAD7DAD8EAD9FADBA
:103A100067970F94E729E3966CAF7DAF8EAF9FAFAA
:103A2000E397EF962CAD3DAD4EAD5FADEF97E796CA
:103A30006CAD7DAD8EAD9FADE7970F940A29A501C2
:103A400094010F94E729E7966CAF7DAF8EAF9FAFDF
:103A5000E79763962CAD3DAD4EAD5FAD6397CA0160
:103A6000B9010F94372520E030E040E05FE30F9488
:103A700037259B01AC0160E070E080E89FE30F9484
:103A80000A29AB966CAF7DAF8EAF9FAFAB97EB962D
:103A90002CAD3DAD4EAD5FADEB9729873A874B8797
:103AA0005C87EF968CAD9DADAEADBFADEF978D87CA
:103AB0009E87AF87B88B6091140270911502072E14
:103AC000000C880B990B0F94D82420918A02309116
:103AD0008B0240918C0250918D020F9437252AE081
:103AE00037ED43E25CE30F9437256BAF7CAF8DAFCE
:103AF0009EAF0E9490ED9B01AC0128533F4F4F4F6A
:103B00005F4FAF962CAF3DAF4EAF5FAFAF972896EC
:103B10004FAC289729965FAC29972A966FAC2A97C5
:103B20002B967FAC2B9741E050E06D965FAF4EAF88
:103B30006D9759E164965FAF64976D96AEADBFAD7A
:103B40006D97A215B30509F459C10E94667F0E94C2
:103B500090EDDC01CB01AF962CAD3DAD4EAD5FAD30
:103B6000AF97821B930BA40BB50BB7FD11C00E943E
:103B700090ED9B01AC0128533F4F4F4F5F4FAF96E5
:103B80002CAF3DAF4EAF5FAFAF9780E00E943EA439
:103B900064963FAD6497315064963FAF649733238A
:103BA00009F44BC0AB962CAD3DAD4EAD5FADAB97C0
:103BB0002F966CAD7DAD8EAD9FAD2F970F943725B1
:103BC0006B017C0163962CAD3DAD4EAD5FAD63974F
:103BD000B201C3010F943725A70196010F940B2959
:103BE0006B017C01AB962CAD3DAD4EAD5FADAB979F
:103BF000B201C3010F9437254B015C0163962CADD4
:103C00003DAD4EAD5FAD63972F966CAD7DAD8EAD86
:103C10009FAD2F970F9437259B01AC01C501B401CF
:103C20000F940A292B013C01C601D7012F968CAFB6
:103C30009DAFAEAFBFAF2F9761C06D964EAD5FAD7C
:103C40006D97BA0180E090E00F94D62463962CAD76
:103C50003DAD4EAD5FAD63970F9437254B015C01D1
:103C60000F94E4296B017C01C501B4010F946C2B06
:103C70004B015C01A70196012B966CAD7DAD8EAD1D
:103C80009FAD2B970F9437252B013C01A501940183
:103C90006B966CAD7DAD8EAD9FAD6B970F94372558
:103CA0009B01AC01C301B2010F940B292B013C0114
:103CB000A50194012B966CAD7DAD8EAD9FAD2B977C
:103CC0000F9437254B015C01A70196016B966CADF3
:103CD0007DAD8EAD9FAD6B970F9437259B01AC01E9
:103CE000C501B4010F940A292F966CAF7DAF8EAF3A
:103CF0009FAF2F9759E164965FAF64979201A3013C
:103D0000A3966CAD7DAD8EAD9FADA3970F940B299F
:103D100069837A838B839C832F962CAD3DAD4EAD0A
:103D20005FAD2F97A7966CAD7DAD8EAD9FADA7977C
:103D30000F940B296D837E838F839887E3962CAD38
:103D40003DAD4EAD5FADE39769857A858B859C85EA
:103D50000F940B2969877A878B879C87E7962CAD10
:103D60003DAD4EAD5FADE7976D857E858F859889BA
:103D70000F940B296D877E878F87988B80918E0299
:103D8000882321F0CE0101960F944209E0907C082F
:103D900089819A81AB81BC8188A399A3AAA3BBA383
:103DA0008D819E81AF81B8858CA39DA3AEA3BFA357
:103DB00089859A85AB85BC8588A799A7AAA7BBA743
:103DC000CE0180960E9457CD8E01055C1F4F9E014B
:103DD000235F3F4FAE01485D5F4FBE016C5D7F4F7B
:103DE000CE0180960E94126E6D968EAD9FAD6D973E
:103DF00001966D969FAF8EAF6D979FCEE0907C0839
:103E000080918C1490918D14A0918E14B0918F1488
:103E100088A399A3AAA3BBA3809190149091911415
:103E2000A0919214B09193148CA39DA3AEA3BFA3B1
:103E30008091941490919514A0919614B091971438
:103E400088A799A7AAA7BBA7CE0180960E9457CDA5
:103E50008E01055C1F4F28E934E1AE01485D5F4FDC
:103E6000BE016C5D7F4FCE0180960E94126E0E9453
:103E7000EC390E945FCD0C946E33EBE7FEE2849147
:103E80008F010F5F1F4F882321F00E946ACDF80138
:103E9000F6CFE3E5F2E084918F010F5F1F4F882397
:103EA00011F40C946E330E946ACDF801F4CF0E9495
:103EB000D8D80C946E330E94BFE981110C946E33F4
:103EC00080E090E0A0E4B0E489839A83AB83BC8374
:103ED0008D839E83AF83B88780E090E0A0E2B1E459
:103EE00089879A87AB87BC8780E50E9498388823AA
:103EF00019F00E94023801C060E068A3BE016F5F44
:103F00007F4FCE0180960E9465950C946E3380E0C1
:103F10000E9402DC0C946E330E946ABF0C946E33D4
:103F2000C0906814D0906914E0906A14F0906B14FB
:103F300088E50E949838811109C020E030E044E112
:103F400052E4C701B6010F940A2902C00E94323818
:103F500068A379A38AA39BA3C0906C14D0906D141E
:103F6000E0906E14F0906F1489E50E9498388111EA
:103F700008C020E030E0A901C701B6010F940B2969
:103F800002C00E9432386B017C0169837A838B8383
:103F90009C8388A099A0AAA0BBA02FE632E143E8A9
:103FA0005AEBC501B4010F94312B87FF02C00C946A
:103FB0006E3322E430E047E353E4C501B4010F94CB
:103FC000D224181614F40C946E332FE632E143E831
:103FD0005AEBC701B6010F94312B87FF02C00C9436
:103FE0006E3322E430E04CE553E4C701B6010F9490
:103FF000D224181614F40C946E330C94A23381E07E
:104000008093DB030C946E330E94A09A33E9232E35
:1040100032E0332E48E6E42E44E1F42E00E0D12CC9
:1040200010E0F10181911F010E949838882351F11D
:104030000E9432382B013C01D7012D913D914D91C9
:104040005C910F940A294B015C012DEB37E346E8A4
:1040500055EB0F94312B87FD0AC02DEB37E346E873
:1040600055E3C501B4010F94D22418165CF4133043
:1040700019F0DD24D39401C001E0F70140825182A0
:10408000628273821F5FF4E0EF0EF11C143049F678
:10409000DD2019F00E94F1CC03C001110E94E1E77C
:1040A0000E9486B20C946E330E9493BE0C946E33C1
:1040B00080914A1290914B128737910509F4E5C718
:1040C0000CF0EEC08D34910509F417C50CF05AC000
:1040D0008931910509F47FC234F58431910509F4E1
:1040E000FBC194F48131910509F4EBC144F40297CA
:1040F00010F00C946E330E94ECBD0C946E3342971A
:1041000009F488C60C946E338631910509F42DC2EA
:104110000CF427C28731910509F42DC2489709F4A0
:1041200040C20C946E338F31910509F4D7C37CF4EF
:104130008B31910509F461C20CF451C28C319105A7
:1041400009F45FC24E9709F466C20C946E33813352
:10415000910509F4A9C44CF48032910509F474C3A3
:104160008A9709F461C40C946E338B34910509F479
:10417000C0C48C34910511F00C946E330E942AEB6C
:104180000C946E338B36910509F425C60CF055C09E
:104190008535910509F442C67CF58235910509F40F
:1041A00030C604F58135910511F00C946E330E94F0
:1041B000727C0E94A09A0E94B0A61092D414109211
:1041C000D31468EE73E080E090E00E945BD40E941C
:1041D000A09A0E9479CC60E08DEC93E00E9457D5C4
:1041E0000C946E338335910509F40FC6843591051F
:1041F00009F410C60C946E338836910509F481C415
:104200007CF48C35910511F00C946E3313E9C12EBA
:1042100012E0D12E08E7E02E04E1F02E10E019C6DE
:104220008936910509F49AC58A36910511F00C94E6
:104230006E330E948ABC0C946E338037910509F46A
:104240003FC584F48D36910509F4A5C50CF434C539
:104250008E36910509F4ACC48F36910509F4BBC4C0
:104260000C946E338337910509F473C67CF481375F
:10427000910509F429C58237910511F00C946E332C
:104280000E94A09A0E9486B20C946E3385379105E5
:1042900009F4B3C68637910509F4B8C60C946E3399
:1042A0008E3221E0920711F40C94B02A0CF07CC0FD
:1042B0008B3C910511F40C949029B4F5813991054A
:1042C00009F454C784F48937910509F449C70CF4FB
:1042D00040C78D37910509F490C58C38910509F4D4
:1042E0001FC50C946E338E3B910509F458C54CF4F0
:1042F0008B39910511F00C946E330E94ADBC0C9477
:104300006E33883C910509F4AAC7893C910511F0E8
:104310000C946E333EE3E32E37E1F32E03E912E013
:1043200044E0D42ED00EE3C78D3D910511F40C94DA
:10433000222AB4F48D3C910511F40C941A2A14F439
:104340000C94AE29833D910511F40C941E2A8C3DEA
:10435000910511F00C946E330E94C8B00C946E332A
:10436000823241E0940711F40C942A2A74F4823EBC
:10437000910511F40C94262A8831914011F00C9487
:104380006E330E9455AF0C946E338C32B1E09B07B4
:1043900011F40C942E2A8D32914011F00C946E334E
:1043A0000E943AAE0C946E33843AF1E09F0711F408
:1043B0000C94902F0CF03FC0813931E0930711F439
:1043C0000C94852FC4F4803351E0950711F40C94BC
:1043D000322A14F40C94072B8336B1E09B0711F4B6
:1043E0000C945C328039914011F00C946E330E9431
:1043F000A09A0C946E338839F1E09F0711F40C9465
:10440000892F54F48239914011F00C946E3380E07E
:104410000E94E8DD0C946E33893941E0940711F471
:104420000C948D2F8A39914011F00C946E330E94B8
:1044300005AE0C946E33873FA1E09A0711F40C94FB
:10444000EF30ECF4843FE1E09E0711F40C94E93086
:104450003CF4853A914011F40C945B300C946E332B
:10446000853F31E0930711F40C94EC30863F914086
:1044700011F00C946E330E9475DE0C946E33803A0A
:1044800053E0950709F41DC27CF48835B2E09B0720
:1044900011F40C944F318335934011F00C946E332A
:1044A000E0EBF0E10C94F930873EF3E09F0711F464
:1044B0000C949832893D974011F40C94AA320C94D4
:1044C0006E3360E08BE792E00E9457D542981798D0
:1044D00015982E980C946E33E3E9F2E084918F01E5
:1044E0000F5F1F4F882321F00E946ACDF801F6CF9D
:1044F00010923A0C1092390C40E050E0BA0183EC73
:1045000099E00E945C548BE1E3ECF9E0DE01159642
:1045100001900D928A95E1F78091C1099091C209AD
:104520009C838B838DEA92E09A83898340E050E0FC
:10453000BE016F5F7F4F81EB93E00E941F5BCE0156
:1045400001960F94DD0AE4E8F2E084918F010F5F99
:104550001F4F882311F40C946E330E946ACDF8012A
:10456000F4CF0E94FFE50C946E3310926309109211
:1045700064090C946E33E0914812F09149128081E5
:10458000882329F0803209F410823196F8CF40E078
:1045900061E080914812909149120E948EFA0C9429
:1045A0006E3319821A821B821C8218A219A21AA2C7
:1045B0001BA280916E13882341F040E0BE016F5F23
:1045C0007F4FCE0180960F94D1090E94F15E0E9428
:1045D00068EA0C946E330E94DBBC0C946E338091BD
:1045E0006409882311F40C946E3383E50E94983893
:1045F00081110C94F6330C946E330E94B2F60C9435
:104600006E3340E060E080914812909149120E9420
:104610008EFA0C946E3380916409882311F40C9403
:104620006E3387E89BE00E941B5487E89BE00E9462
:1046300061C41092620910926109E0904812F090F2
:10464000491280916409882311F40C946E330E94FE
:10465000035F1D8218861C821B828DEA92E09A837A
:1046600089838FEB99E09093DF098093DE09D7016E
:104670008C918F3209F067C06FE270E0C7010F9430
:10468000542C8C010F5F1F4FFE0131964F01011515
:10469000110509F45EC06FE270E0C8010F94542C5C
:1046A0006C01009709F456C00817190708F052C0AA
:1046B0005C01A01AB10AA501B801CE0180960F9441
:1046C0007D2CE0E2F0E0EC0FFD1FEA0DFB1D1082F7
:1046D0008E01005E1F4FD8018D918D01882319F046
:1046E0000E946ACDF8CF8AE00E946ACD6091DE090F
:1046F0007091DF096115710511F06C5F7F4F21E04A
:10470000AE01405E5F4FCE0105960E9470C88111D8
:1047100012C0BE01605E7F4F8AEC92E00E94226C64
:104720008EE20E946ACD8AE00E946ACDC4010F9495
:10473000DD0A0C946E339092DF098092DE098601C7
:104740000F5F1F4FA4CF80EE99E09093DF09809315
:10475000DE0987016091DE097091DF09611571053D
:1047600011F06C5F7F4F18A21BA222E0A801CE01BE
:1047700080960E9470C8811102C0F12C1EC0CE012B
:1047800080960E94915A8823C1F36CA57DA58EA5C1
:104790009FA541E00E946C52882379F3E8A9B0E21A
:1047A000EB9FF0011124E051FB4E309731F385EE81
:1047B00080831BA20E942C52F82ECE0180960E946C
:1047C00048CDFF2019F1E4EAF2E084917F012FEF58
:1047D000E21AF20A882321F00E946ACDF701F5CF90
:1047E000D8018D918D01882319F00E946ACDF8CFF0
:1047F0008AE00E946ACD1092BB091092BC09109207
:10480000BD091092BE090E94B75D18C0E2EBF2E04C
:1048100084917F01BFEFEB1AFB0A882321F00E94ED
:104820006ACDF701F5CFF80181918F01882319F046
:104830000E946ACDF8CF8EE20E946ACDCE01019629
:104840000F94DD0A0C946E338091630981110E94EC
:10485000A09A80916409882311F40C946E3380E54A
:104860000E949838882319F00E94233803C080E5FD
:104870000E946938182F482F61E08091481290916A
:1048800049120E948EFA83E50E949838882381F0AD
:104890000E940238AB01BC014093BB095093BC0994
:1048A0006093BD097093BE0987E89BE00E945C5449
:1048B0000E94F15E11110C946E330E9468EA0C9410
:1048C0006E33809148129091491221E02093620941
:1048D00040E060E00E948EFA0C946E330E94325ADF
:1048E0002CE3C22ED12CE12CF12CA70196010F94C0
:1048F000AD28762E672ECA01B901A70196010F9443
:10490000AD286B017C01CA01B90128E130E040E02B
:1049100050E00F94AD284B015C01C9016DE671E0D8
:104920000F94DF2B8E010F5F1F4F6115710599F0FA
:104930006F927F92DF92CF929F928F929F938F93ED
:104940007F936F9386E093E09F938F931F930F93D2
:104950000F946B2412C00097B1F06F927F92DF9298
:10496000CF929F928F929F938F9386EF92E09F9327
:104970008F931F930F930F946B240FB6F894DEBFA1
:104980000FBECDBF36C081149104A104B10479F0EB
:104990006F927F92DF92CF929F928F928AEE92E0F7
:1049A0009F938F931F930F930F946B24E6CFC114A3
:1049B000D104E104F10469F06F927F92DF92CF920B
:1049C00082EE92E09F938F931F930F930F946B242B
:1049D000D4CF6F927F928EED92E09F938F931F932F
:1049E0000F930F946B240F900F900F900F900F90D8
:1049F0000F9060E0C8010E9479D5E0EBF0E184916E
:104A00007F01BFEFEB1AFB0A882321F00E946ACDD9
:104A1000F701F5CFB8018AE193E00E94226C8AE0A9
:104A20000E946ACD0C946E3383E50E9498388823E7
:104A300011F40C946E330E941238E82E80E50E9427
:104A40009838882341F00E9402388B0177FF02C01A
:104A50000C946E3302C006E010E0902FE7E2F3E022
:104A600088E28E0F2491921729F031968E13FACF97
:104A70000C940634EBE7FEE284918F010F5F1F4F29
:104A8000882321F00E946ACDF801F6CFEFE4F3E02D
:104A900084918F010F5F1F4F882311F40C946E33A4
:104AA0000E946ACDF801F4CFF090D60381E0F82699
:104AB000F092D603E9E6F3E084918F010F5F1F4F78
:104AC000882321F00E946ACDF801F6CFF11003C0CF
:104AD000E3E6F3E002C0EEE5F3E084918F010F5FBF
:104AE0001F4F882311F40C946E330E946ACDF80195
:104AF000F4CF0E9468EA0C946E330E9405580C941F
:104B00006E3388E690E00E9480D081110C946E3361
:104B10008091B31483FF02C00C946E3383E50E942E
:104B20009838882309F440C00E9432380F944F2AE5
:104B30007093D2146093D11480E00E94277C0E946D
:104B4000323820E030E04AEA52E40F94D2241816BA
:104B50003CF00E94055860E08BE793E00E9457D537
:104B60000E9432382091F5133091F6134091F713DB
:104B70005091F8130F94312B1816B4F480E393E09E
:104B80009F938F938091AA0C90E001969F938F93AF
:104B900084E793E09F938F931F920E94A6E90FB63C
:104BA000F894DEBF0FBECDBF0E944A6C0C946E33EA
:104BB0008EE40E949838882311F40C946E330E947E
:104BC000023860939E1470939F148093A014909366
:104BD000A1140C946E3383E50E946938882359F040
:104BE00083E50E949838882319F00E94123801C08A
:104BF00080E08093B314E0EBF0E184918F010F5FCC
:104C00001F4F882321F00E946ACDF801F6CFE8E912
:104C1000F3E084918F010F5F1F4F882321F00E94E2
:104C20006ACDF801F6CF8091B3148823A1F18AE808
:104C3000C82E83E0D82EE12CF12C20E08091B31413
:104C400090E00E2C02C0959587950A94E2F780FFBC
:104C500017C0BB24B394B20E222319F08CE20E9439
:104C60006ACDF60125913491F901849189010F5F94
:104C70001F4F882321F00E946ACD9801F5CF2B2D7C
:104C8000FFEFEF1AFF0A32E0C30ED11C45E0E41635
:104C9000F104A1F60CC0E4E9F3E084918F010F5F09
:104CA0001F4F882321F00E946ACDF801F6CF8AE0D9
:104CB0000E946ACD0C946E33109281020C946E3374
:104CC0008FE993E00F94E50A83E50E9498388823E2
:104CD00069F00E9412388D3320F4809379020C948D
:104CE0006E338CE3809379020C946E33E0EBF0E149
:104CF00084918F010F5F1F4F882321F00E946ACD9E
:104D0000F801F6CF4091790250E060E070E088EA67
:104D100093E00E94B26B8AE00E946ACD0C946E33DD
:104D20008091B31483FF02C00C946E3383E50E941C
:104D30009838882311F40C946E330E9432380F9403
:104D40004F2A6E37710514F06DE770E07093D01440
:104D50006093CF140E94DC7B0C946E3389E690E064
:104D60000E9480D0811111C0EFEAF3E084918F019D
:104D70000F5F1F4F882321F00E946ACDF801F6CF04
:104D80000E94507B8AE00E946ACD109265171092B3
:104D900064170C9431370E94C2BA0C946E33809120
:104DA000B31483FF02C00C946E3360E080EC93E098
:104DB0000E9457D583E50E94983868968FAF689710
:104DC00081110C941C3482E50E94983881110C9456
:104DD0001C340C946E3380E50E949838811106C013
:104DE0001092D4141092D3140C946E330E94023893
:104DF000672B11F00C946E33F3CF0E94B9B10C9471
:104E00006E331092DA030C946E3381E08093DA03F0
:104E10000C946E330E9454B30C946E3383E50E945D
:104E20006938882311F40C946E330E94323820E0E4
:104E300030E04AE754E40F9437250F94542A6093E6
:104E4000E2127093E3128093E4129093E5120C94B3
:104E50006E33D6018D916D010E946938882309F463
:104E60006DC0133009F063C00E9432384B015C0101
:104E700020E030E040EA51E40F94D22487FF4EC096
:104E8000A501940160918414709185148091861419
:104E9000909187140F94E7292B013C019B01AC01F1
:104EA0006091160D7091170D8091180D9091190D4C
:104EB0000F9437256093160D7093170D8093180D7E
:104EC0009093190DA301920160913A1770913B17CD
:104ED00080913C1790913D170F94372560933A17B6
:104EE00070933B1780933C1790933D176091590C3A
:104EF00070915A0C80915B0C90915C0C0F94D624AD
:104F0000A30192010F9437250F94542A6093590CF2
:104F100070935A0C80935B0C90935C0C8092841479
:104F200090928514A0928614B092871407C00E94B4
:104F30003238F70160837183828393831F5FF4E0CB
:104F4000EF0EF11C143009F084CF0E94A76D0C9471
:104F50006E33E1E9F4E084918F010F5F1F4F8823E6
:104F600021F00E946ACDF801F6CF60E081E894E07C
:104F70000E9442B261E08AE794E00E9442B261E09E
:104F80008FE694E00E9442B261E08FE594E00E94D7
:104F900042B260E086E594E00E9442B261E08CE4B7
:104FA00094E00E9442B261E082E494E00E9442B246
:104FB00061E08AE394E00E9442B261E08CE294E016
:104FC0000E9442B260E08EE194E00E9442B260E052
:104FD0008FE094E00E9442B261E081E094E00E94A0
:104FE00042B261E08BEE93E00E9442B260E08AED53
:104FF00093E00E9442B20C946E3360E080914812BC
:10500000909149120E9479D50C946E3385E40E94E8
:105010009838882319F00E94233803C085E40E9441
:105020006938882361F0E0EBF0E184918F010F5F34
:105030001F4F882321F00E946ACDF801F6CF81E44A
:105040000E949838882319F00E94233803C081E415
:105050000E946938882361F0E6E5F5E084918F01CC
:105060000F5F1F4F882321F00E946ACDF801F6CF11
:105070000091481210914912D8018D918D01882319
:1050800009F415CE0E946ACDF7CFE2E7F5E08491EE
:105090008F010F5F1F4F882321F00E946ACDF80116
:1050A000F6CFEAE6F5E084918F010F5F1F4F88236A
:1050B00021F00E946ACDF801F6CF029B03C001E106
:1050C00013E002C006E113E0F80181918F0188230B
:1050D00019F00E946ACDF8CF8AE00E946ACDE2E61C
:1050E000F5E084918F010F5F1F4F882321F00E940C
:1050F0006ACDF801F6CF069B03C001E113E002C0C0
:1051000006E113E0D8018D918D01882319F00E94EA
:105110006ACDF8CF8AE00E946ACDEAE5F5E0849195
:105120008F010F5F1F4F882321F00E946ACDF80185
:10513000F6CF379903C001E113E002C006E113E0A6
:10514000F80181918F01882309F4B1CD0E946ACDC5
:10515000F7CF81E08093C4088093C3080C946E332A
:105160001092C4081092C3080C946E3383E50E9419
:105170009838882319F00E94023802C060E070E07D
:105180008B01112702301105D4F0EBE7FEE2849188
:105190008F010F5F1F4F882321F00E946ACDF80115
:1051A000F6CFECE8F5E084918F010F5F1F4F882365
:1051B00011F40C946E330E946ACDF801F4CF88E4A8
:1051C0000E9498388823A1F00E9402386A3A71053B
:1051D00034F06B3F71052CF06AEF70E002C06AEAB0
:1051E00070E0F801EE0FFF1FE658F34F7183608304
:1051F00086E40E9498388823A9F00E940238F801BA
:10520000EE0FFF1FE258F34F718360836F3F71050C
:1052100019F014F06FEF70E077FF02C060E070E00B
:105220007183608382E40E949838882311F40C947F
:105230006E330E9402386530710534F06F367105A7
:105240002CF06EE670E002C065E070E0000F111F08
:10525000F801EA58F34F718360830C946E3388EC45
:1052600090E00E9480D081110C946E3384E40E94FF
:1052700069388823C1F10E94323811E020E030E023
:10528000A9010F94D224811101C010E010931F0DC9
:10529000112349F10E943238E091AA0C24E0E29FE8
:1052A000F0011124E55EF24F608371838283938362
:1052B00020E030E0A90160911B0D70911C0D8091E0
:1052C0001D0D90911E0D0F94D22481110CC080E011
:1052D00090E0A0EEBFE380931B0D90931C0DA09374
:1052E0001D0DB0931E0D0E943D920C946E33D8019B
:1052F0008D918D010E946938882349F00E943238CF
:105300000F94542AF7016083718382839383F4E0BE
:10531000EF0EF11CD012EBCF0E947A6C0C946E331E
:105320009EE2E92E97E1F92E03E912E024E0D22E65
:10533000D00ED8018D918D010E946938882339F0F3
:105340000E943238F7016083718382839383F4E093
:10535000EF0EF11CD012EDCF0C946E3383E50E945A
:1053600069388823D9F00E943238AB01BC014093E0
:1053700056175093571760935817709359174093C7
:105380004E1750934F17609350177093511788E042
:1053900096E00E94EC6B8AE00E946ACD80E50E9454
:1053A0006938882399F00E943238AB01BC014093E0
:1053B00056175093571760935817709359178BEEE1
:1053C00095E00E94EC6B8AE00E946ACD82E50E9423
:1053D0006938882399F00E943238AB01BC014093B0
:1053E00052175093531760935417709355178CECC2
:1053F00095E00E94EC6B8AE00E946ACD84E50E94F1
:105400006938882311F40C946E330E943238AB0152
:10541000BC0140934E1750934F17609350177093F1
:1054200051178EEA95E00E94EC6B8AE00E946ACDEB
:105430000C946E330E944FB10C946E330E94D4B022
:105440000C946E330E947EB00C946E330E9422B096
:105450000C946E330E940CAF0C946E330E94D7AE46
:105460000C946E3380E50E946938882351F00E94C5
:10547000323860939E0C70939F0C8093A00C909395
:10548000A10C89E40E946938882381F00E94323897
:105490002CEA35EC47E25EE30F94372560939A0CD3
:1054A00070939B0C80939C0C90939D0C84E40E94C1
:1054B0006938882381F00E9432382CEA35EC47E2C3
:1054C0005EE30F94E7296093960C7093970C80939A
:1054D000980C9093990CE0EBF0E184918F010F5FB1
:1054E0001F4F882321F00E946ACDF801F6CF40912A
:1054F0009E0C50919F0C6091A00C7091A10C88E3C0
:1055000096E00E94EC6B2CEA35EC47E25EE360919A
:105510009A0C70919B0C80919C0C90919D0C0F9417
:10552000E729AB01BC0184E396E00E94CF6B2CEA33
:1055300035EC47E25EE36091960C7091970C809198
:10554000980C9091990C0F943725AB01BC0180E326
:1055500096E00E94CF6B8AE00E946ACD0C946E3375
:1055600083E50E946938182F882371F00E94323831
:105570000F944F2A7093800260937F0221E0672B83
:1055800009F020E02093F91380E50E946938882310
:1055900061F020917F0230918002232B11F00E9454
:1055A00023388093F9130C946E3311110C946E33DD
:1055B000E0EBF0E184918F010F5F1F4F882321F012
:1055C0000E946ACDF801F6CF8091F913811103C0D2
:1055D00060E273E002C063E173E081E596E00E945F
:1055E000226C60917F027091800280E496E00E94BC
:1055F000096CECE3F6E084918F010F5F1F4F882365
:1056000011F40C946E330E946ACDF801F4CF85E456
:105610000E949838882321F00E9402387B0102C042
:10562000E12CF12C83E40E949838882341F00E94F9
:105630000238CB57DF4F6883C558D04006C045E0DD
:10564000CB57DF4F4883C558D04085E50E94983836
:10565000882319F00E94233803C085E50E94693829
:10566000CF56DF4F8883C159D040F7FC07C0812C4B
:10567000912C86E1A82E83E4B82E06C0812C912CB3
:105680000CE8A02E02E4B02E83E50E94983888230F
:1056900021F00E9432384B015C01E114F10411F455
:1056A0001092AA0C2896EFAE28970E9490ED2B013D
:1056B0003C0128965FAD289757FD02C00CE301C05E
:1056C00004EB61E06E0D623028F41BE3E12E13E081
:1056D000F12E0BC00EE413E0D8018D918D018823CB
:1056E00009F4E5CA0E946ACDF7CFF70181917F01E5
:1056F000882319F00E946ACDF8CF8AE00E946ACD13
:105700000E94727C2896FFAD2897F7FF04C08FE7B0
:105710008093A90C0AC028962FAD2897E22F220F5C
:10572000FF0BE855F34F8FE78083C501B4010F9459
:105730004F2A072E000C880B990B0F94D8246096E3
:105740006FAF609764967FAF64976C968FAF6C97DE
:10575000A0969FAFA097A02F000FBB0B28EE33E0C1
:105760000F940E2CCE56DF4F688379838A839B83F8
:10577000C259D040DC01CB01840D951DA61DB71D7B
:10578000C256DF4F88839983AA83BB83CE59D0400A
:1057900081E080938102C757DF4F488259826A8235
:1057A0007B82C958D040CA56DF4F488259826A82EC
:1057B0007B82C659D040C857DF4F1882C858D040A6
:1057C000C656DF4F188219821A821B82CA59D040EE
:1057D000E8961FAEE89790E4EC969FAFEC97ACE1AB
:1057E000E096AFAFE097B6E4E496BFAFE497C15858
:1057F000DF4F1882CF57D040C058DF4F1882C058B3
:10580000D040CF57DF4F1882C158D040CE57DF4F1E
:105810001882C258D040AF961CAE1DAE1EAE1FAE51
:10582000AF97AB961CAE1DAE1EAE1FAEAB97C12C94
:10583000D12C7601AFE78A2E912CA12CB12C2FE729
:1058400030E040E050E06B962CAF3DAF4EAF5FAF25
:105850006B97C357DF4F188219821A821B82CD586B
:10586000D04031E0C957DF4F3883C758D040A596A4
:105870001FAE1EAEA59710E0212C312C00E028961B
:105880004FAD2897842F440F990BDC01A855B34FD7
:10589000CE55DF4FB983A883C25AD040880F991FD5
:1058A000880F991FFC01EB50FC4ECD57DF4FF98359
:1058B000E883C358D040CB57DF4F2881C558D0402C
:1058C000022E000C330BCB57DF4F39832883C5588A
:1058D000D04080918102882309F447C10E9490ED55
:1058E0002F966CAF7DAF8EAF9FAF2F978091A60C98
:1058F000882309F416C10E94317D28963FAD289770
:1059000037FF09C010912A1320902B1330902C13CD
:1059100000912D130FC0CD57DF4FA881B981C35817
:10592000D0401C9111962C90119712963C90129792
:1059300013960C91212F322D432D502FC158DF4F3C
:105940006881CF57D040C058DF4F7881C058D040D1
:10595000CF57DF4F8881C158D040CE57DF4F988155
:10596000C258D0400F94D22487FF14C0C158DF4FD3
:105970001883CF57D040C058DF4F2882C058D0403E
:10598000CF57DF4F3882C158D040CE57DF4F088302
:10599000C258D040212F322D432D502FE8966FADA5
:1059A000E897EC967FADEC97E0968FADE097E496A4
:1059B0009FADE4970F94312B181664F4E8961FAF4F
:1059C000E897EC962FAEEC97E0963FAEE097E49622
:1059D0000FAFE497C957DF4FB881C758D0406096E2
:1059E0002FAD609764963FAD64976C964FAD6C9702
:1059F000A0965FADA097612F722D832D902FBB23B2
:105A000009F470C00F94312B18160CF08AC02F9631
:105A10004CAD5DAD6EAD7FAD2F974419550966094C
:105A20007709DB01CA0188589341A109B109B7FD83
:105A300078C06B968CAD9DADAEADBFAD6B97881940
:105A40009909AA09BB092896EFAD2897B595A7959E
:105A500097958795E7FF03C08093A90C07C0CE55A3
:105A6000DF4FE881F981C25AD0408083C357DF4FAE
:105A7000488359836A837B83CD58D0406096FFADBD
:105A80006097C158DF4FF883CF57D04064962FAD51
:105A90006497C058DF4F2883C058D0406C963FAD04
:105AA0006C97CF57DF4F3883C158D040A0964FAD89
:105AB000A097CE57DF4F4883C258D0402F968CAD69
:105AC0009DADAEADBFAD2F97C757DF4F888399838C
:105AD000AA83BB83C958D040C957DF4F1882C75823
